{
	"data": {
		"bytecode": {
			"linkReferences": {},
			"object": "60c0604052306080523480156200001557600080fd5b506040516200456a3803806200456a833981016040819052620000389162000910565b6001600160a01b03871660a0528562000061576200005b86868686868662000086565b62000079565b6101cb805460ff1916600117905562000079620001b3565b5050505050505062000b54565b600054610100900460ff1615808015620000a75750600054600160ff909116105b80620000d75750620000c4306200026060201b620013bf1760201c565b158015620000d7575060005460ff166001145b620001405760405162461bcd60e51b815260206004820152602e60248201527f496e697469616c697a61626c653a20636f6e747261637420697320616c72656160448201526d191e481a5b9a5d1a585b1a5e995960921b60648201526084015b60405180910390fd5b6000805460ff19166001179055801562000164576000805461ff0019166101001790555b620001748787878787876200026f565b8015620001aa576000805461ff0019169055604051600181526000805160206200454a8339815191529060200160405180910390a15b50505050505050565b600054610100900460ff16156200021d5760405162461bcd60e51b815260206004820152602760248201527f496e697469616c697a61626c653a20636f6e747261637420697320696e697469604482015266616c697a696e6760c81b606482015260840162000137565b60005460ff908116146200025e576000805460ff191660ff9081179091556040519081526000805160206200454a8339815191529060200160405180910390a15b565b6001600160a01b03163b151590565b600054610100900460ff16620002cb5760405162461bcd60e51b815260206004820152602b60248201526000805160206200452a83398151915260448201526a6e697469616c697a696e6760a81b606482015260840162000137565b620002d562000385565b620002e18484620003e1565b620002eb62000385565b620002f562000385565b620002ff6200045f565b6200030962000385565b62000313620004c7565b6200031d62000385565b6200032762000385565b6200033162000385565b6200033b62000385565b62000347600062000531565b6200035162000385565b6200035b62000385565b6200036562000385565b620003718282620005a4565b6200037d86866200061f565b505050505050565b600054610100900460ff166200025e5760405162461bcd60e51b815260206004820152602b60248201526000805160206200452a83398151915260448201526a6e697469616c697a696e6760a81b606482015260840162000137565b600054610100900460ff166200043d5760405162461bcd60e51b815260206004820152602b60248201526000805160206200452a83398151915260448201526a6e697469616c697a696e6760a81b606482015260840162000137565b60ce6200044b838262000a88565b5060cf6200045a828262000a88565b505050565b600054610100900460ff16620004bb5760405162461bcd60e51b815260206004820152602b60248201526000805160206200452a83398151915260448201526a6e697469616c697a696e6760a81b606482015260840162000137565b6066805460ff19169055565b600054610100900460ff16620005235760405162461bcd60e51b815260206004820152602b60248201526000805160206200452a83398151915260448201526a6e697469616c697a696e6760a81b606482015260840162000137565b600061010081905561010155565b600054610100900460ff166200058d5760405162461bcd60e51b815260206004820152602b60248201526000805160206200452a83398151915260448201526a6e697469616c697a696e6760a81b606482015260840162000137565b610390805460ff191660ff92909216919091179055565b600054610100900460ff16620006005760405162461bcd60e51b815260206004820152602b60248201526000805160206200452a83398151915260448201526a6e697469616c697a696e6760a81b606482015260840162000137565b6101cc6200060f838262000a88565b506101cd6200045a828262000a88565b600054610100900460ff166200067b5760405162461bcd60e51b815260206004820152602b60248201526000805160206200452a83398151915260448201526a6e697469616c697a696e6760a81b606482015260840162000137565b6101cb805460ff19168315151790556200069760008262000777565b620006c37f973ef39d76cc2c6090feab1c030bec6ab5db557f64df047a4c4f9b5953cf1df38262000777565b620006ef7f9f2df0fed2c77648de5860a4cc508cd0818c85b8b8a1ab4ceeef8d981c8956a68262000777565b6200071b7f3c11d16cbaffd01df69ce1c404f6340ee057498f5f00246190ea54220576a8488262000777565b620007477f65d7a28e3265b37a6474929f336521b332c1681b933f6cb9f3376673440d862a8262000777565b620007737f809a0fc49fc0600540f1d39e23454e1f6f215bc7505fa22b17c154616570ddef8262000777565b5050565b6000828152610167602090815260408083206001600160a01b038516845290915290205460ff1662000773576000828152610167602090815260408083206001600160a01b03851684529091529020805460ff19166001179055620007d93390565b6001600160a01b0316816001600160a01b0316837f2f8788117e7eff1d82e926ec794901d17c78024a50270940304540a733656f0d60405160405180910390a45050565b80516001600160a01b03811681146200083557600080fd5b919050565b805180151581146200083557600080fd5b634e487b7160e01b600052604160045260246000fd5b600082601f8301126200087357600080fd5b81516001600160401b03808211156200089057620008906200084b565b604051601f8301601f19908116603f01168101908282118183101715620008bb57620008bb6200084b565b81604052838152602092508683858801011115620008d857600080fd5b600091505b83821015620008fc5785820183015181830184015290820190620008dd565b600093810190920192909252949350505050565b600080600080600080600060e0888a0312156200092c57600080fd5b62000937886200081d565b965062000947602089016200083a565b955062000957604089016200081d565b60608901519095506001600160401b03808211156200097557600080fd5b620009838b838c0162000861565b955060808a01519150808211156200099a57600080fd5b620009a88b838c0162000861565b945060a08a0151915080821115620009bf57600080fd5b620009cd8b838c0162000861565b935060c08a0151915080821115620009e457600080fd5b50620009f38a828b0162000861565b91505092959891949750929550565b600181811c9082168062000a1757607f821691505b60208210810362000a3857634e487b7160e01b600052602260045260246000fd5b50919050565b601f8211156200045a57600081815260208120601f850160051c8101602086101562000a675750805b601f850160051c820191505b818110156200037d5782815560010162000a73565b81516001600160401b0381111562000aa45762000aa46200084b565b62000abc8162000ab5845462000a02565b8462000a3e565b602080601f83116001811462000af4576000841562000adb5750858301515b600019600386901b1c1916600185901b1785556200037d565b600085815260208120601f198616915b8281101562000b255788860151825594840194600190910190840162000b04565b508582101562000b445787850151600019600388901b60f8161c191681555b5050505050600190811b01905550565b60805160a0516139b062000b7a60003960006104ca015260006119fc01526139b06000f3fe608060405234801561001057600080fd5b50600436106103275760003560e01c806378f86afc116101b8578063d051665011610104578063dd62ed3e116100a2578063e803855e1161007c578063e803855e14610736578063fb1cb59e14610749578063fb78ed401461075c578063fcf196b41461076457600080fd5b8063dd62ed3e146106fb578063e2d6f6341461070e578063e63ab1e91461072157600080fd5b8063d5025625116100de578063d5025625146106a6578063d5391393146106ae578063d547741f146106d5578063dcfd616f146106e857600080fd5b8063d051665014610654578063d21268ef14610680578063d4ce14151461069357600080fd5b8063a217fddf11610171578063a4a0a3011161014b578063a4a0a30114610606578063a9059cbb14610619578063be370b4f1461062c578063c6946a121461064157600080fd5b8063a217fddf146105d8578063a312e155146105e0578063a457c2d7146105f357600080fd5b806378f86afc1461057c5780637f4ab1dd1461058f5780638430d011146105a25780638456cb59146105b557806391d14854146105bd57806395d89b41146105d057600080fd5b80633c07af0f11610277578063572b6c0511610230578063634daf761161020a578063634daf76146105185780636439fd751461052b57806370a082311461054057806375bf8fe71461056957600080fd5b8063572b6c05146104ba5780635c975abb146104fa5780635ee7a9421461050557600080fd5b80633c07af0f1461045e5780633f4ba83a146104715780633f4f90671461047957806340c10f191461048c57806341c0e1b51461049f578063426a8493146104a757600080fd5b8063246b72ec116102e45780632f2ff15d116102be5780632f2ff15d14610409578063313ce5671461041e57806336568abe14610438578063395093511461044b57600080fd5b8063246b72ec146103a9578063248a9ca3146103be578063282c51f3146103e257600080fd5b806301ffc9a71461032c57806306fdde0314610354578063095ea7b31461036957806317d70f7c1461037c57806318160ddd1461038457806323b872dd14610396575b600080fd5b61033f61033a366004613086565b61078f565b60405190151581526020015b60405180910390f35b61035c6107c6565b60405161034b91906130d4565b61033f610377366004613127565b610858565b61035c610870565b60cd545b60405190815260200161034b565b61033f6103a4366004613153565b6108ff565b61038860008051602061393b83398151915281565b6103886103cc366004613194565b6000908152610167602052604090206001015490565b6103887f3c11d16cbaffd01df69ce1c404f6340ee057498f5f00246190ea54220576a84881565b61041c6104173660046131ad565b610916565b005b610426610941565b60405160ff909116815260200161034b565b61041c6104463660046131ad565b610955565b61033f610459366004613127565b6109d8565b61041c61046c366004613194565b6109fa565b61041c610a1b565b61033f6104873660046132a2565b610a3e565b61041c61049a366004613127565b610a6a565b61041c610ae6565b61033f6104b53660046132f2565b610b09565b61033f6104c8366004613327565b7f00000000000000000000000000000000000000000000000000000000000000006001600160a01b0390811691161490565b60665460ff1661033f565b610388610513366004613194565b610b86565b6103886105263660046131ad565b610ba7565b61038860008051602061395b83398151915281565b61038861054e366004613327565b6001600160a01b0316600090815260cb602052604090205490565b61033f6105773660046132a2565b610c00565b61041c61058a366004613344565b610c24565b61035c61059d366004613388565b610c7f565b61041c6105b0366004613194565b610d4b565b61041c610d6c565b61033f6105cb3660046131ad565b610d8c565b61035c610db8565b610388600081565b61041c6105ee366004613194565b610dc7565b61033f610601366004613127565b610de8565b61041c610614366004613327565b610e63565b61033f610627366004613127565b610eb9565b610634610ec7565b60405161034b91906133a5565b61033f61064f366004613153565b610f1f565b61033f610662366004613327565b6001600160a01b031660009081526098602052604090205460ff1690565b61041c61068e3660046133e9565b610f45565b6104266106a1366004613153565b610f67565b61035c610fcc565b6103887f9f2df0fed2c77648de5860a4cc508cd0818c85b8b8a1ab4ceeef8d981c8956a681565b61041c6106e33660046131ad565b610fda565b61041c6106f6366004613344565b611000565b61038861070936600461340b565b61105b565b61041c61071c366004613127565b611086565b61038860008051602061391b83398151915281565b61041c610744366004613452565b6110f5565b61041c610757366004613194565b611212565b610634611233565b603354610777906001600160a01b031681565b6040516001600160a01b03909116815260200161034b565b60006001600160e01b03198216637965db0b60e01b14806107c057506301ffc9a760e01b6001600160e01b03198316145b92915050565b606060ce80546107d59061351f565b80601f01602080910402602001604051908101604052809291908181526020018280546108019061351f565b801561084e5780601f106108235761010080835404028352916020019161084e565b820191906000526020600020905b81548152906001019060200180831161083157829003601f168201915b5050505050905090565b6000336108668185856113ce565b5060019392505050565b6101cc805461087e9061351f565b80601f01602080910402602001604051908101604052809291908181526020018280546108aa9061351f565b80156108f75780601f106108cc576101008083540402835291602001916108f7565b820191906000526020600020905b8154815290600101906020018083116108da57829003601f168201915b505050505081565b600061090c8484846114f2565b90505b9392505050565b6000828152610167602052604090206001015461093281611554565b61093c838361155e565b505050565b60006109506103905460ff1690565b905090565b6001600160a01b03811633146109ca5760405162461bcd60e51b815260206004820152602f60248201527f416363657373436f6e74726f6c3a2063616e206f6e6c792072656e6f756e636560448201526e103937b632b9903337b91039b2b63360891b60648201526084015b60405180910390fd5b6109d482826115e5565b5050565b6000336108668185856109eb838361105b565b6109f5919061356f565b6113ce565b60008051602061393b833981519152610a1281611554565b6109d48261164d565b60008051602061391b833981519152610a3381611554565b610a3b611817565b50565b600060008051602061395b833981519152610a5881611554565b610a628484611869565b949350505050565b7f9f2df0fed2c77648de5860a4cc508cd0818c85b8b8a1ab4ceeef8d981c8956a6610a9481611554565b610a9e8383611925565b826001600160a01b03167f0f6798a560793a54c3bcfe86a93cde1e73087d944c0ea20544137d412139688583604051610ad991815260200190565b60405180910390a2505050565b6000610af181611554565b6101cb5460ff168015610b0657610b066119f2565b33ff5b600081610b16338661105b565b14610b715760405162461bcd60e51b815260206004820152602560248201527f434d5441543a2063757272656e7420616c6c6f77616e6365206973206e6f74206044820152641c9a59da1d60da1b60648201526084016109c1565b610b7b8484610858565b506001949350505050565b6000806000610b968460fe611a82565b915091508161090f5760cd54610a62565b6001600160a01b038116600090815260fd6020526040812081908190610bce908690611a82565b9150915081610bf5576001600160a01b038416600090815260cb6020526040902054610bf7565b805b95945050505050565b600060008051602061395b833981519152610c1a81611554565b610a628484611ad7565b6000610c2f81611554565b6101cd610c3c83826135c8565b5081604051610c4b9190613688565b604051908190038120907f04ad91be0cc2638e10a8fa52bb61221dcf70dfcd07e6beae6b0d5a3f75070fcf90600090a25050565b606060ff8216610cb357505060408051808201909152600e81526d2737903932b9ba3934b1ba34b7b760911b602082015290565b60001960ff831601610cef575050604080518082019091526014815273105b1b081d1c985b9cd9995c9cc81c185d5cd95960621b602082015290565b60011960ff831601610d2c5750506040805180820190915260158152742a34329030b2323932b9b99034b990333937bd32b760591b602082015290565b6033546001600160a01b031615610d46576107c082611b7e565b919050565b60008051602061393b833981519152610d6381611554565b6109d482611bf2565b60008051602061391b833981519152610d8481611554565b610a3b611cf9565b6000918252610167602090815260408084206001600160a01b0393909316845291905290205460ff1690565b606060cf80546107d59061351f565b60008051602061393b833981519152610ddf81611554565b6109d482611d36565b60003381610df6828661105b565b905083811015610e565760405162461bcd60e51b815260206004820152602560248201527f45524332303a2064656372656173656420616c6c6f77616e63652062656c6f77604482015264207a65726f60d81b60648201526084016109c1565b610b7b82868684036113ce565b6000610e6e81611554565b603380546001600160a01b0319166001600160a01b0384169081179091556040517f9c4d5c11b88d1e3d9c7ad50900cb6d10ac72853248cdc85ca868fb772e62b44990600090a25050565b600033610866818585611e56565b606061010280548060200260200160405190810160405280929190818152602001828054801561084e57602002820191906000526020600020905b815481526020019060010190808311610f02575050505050905090565b6033546000906001600160a01b03161561086657610f3e84848461200e565b905061090f565b60008051602061393b833981519152610f5d81611554565b61093c838361208c565b6000610f7560665460ff1690565b15610f81576001610f3e565b6001600160a01b03841660009081526098602052604090205460ff1615610fa9576002610f3e565b6033546001600160a01b031615610fc557610f3e8484846122ee565b600061090c565b6101cd805461087e9061351f565b60008281526101676020526040902060010154610ff681611554565b61093c83836115e5565b600061100b81611554565b6101cc61101883826135c8565b50816040516110279190613688565b604051908190038120907f1a3f197f2cb06b445ad0c131c52bc822947dae771f49d55fbd17bb6e462254bd90600090a25050565b6001600160a01b03918216600090815260cc6020908152604080832093909416825291909152205490565b7f3c11d16cbaffd01df69ce1c404f6340ee057498f5f00246190ea54220576a8486110b081611554565b6110ba838361236c565b826001600160a01b03167fcc16f5dbb4873280815c1ee09dbd06736cffcc184412cf7a71a0fdb75d397ca583604051610ad991815260200190565b600054610100900460ff16158080156111155750600054600160ff909116105b8061112f5750303b15801561112f575060005460ff166001145b6111925760405162461bcd60e51b815260206004820152602e60248201527f496e697469616c697a61626c653a20636f6e747261637420697320616c72656160448201526d191e481a5b9a5d1a585b1a5e995960921b60648201526084016109c1565b6000805460ff1916600117905580156111b5576000805461ff0019166101001790555b6111c38787878787876124ac565b8015611209576000805461ff0019169055604051600181527f7f26b83ff96e1f2b6a682f133852f6798a09c465da95921460cefb38474024989060200160405180910390a15b50505050505050565b60008051602061393b83398151915261122a81611554565b6109d48261256b565b604080516000815260208101909152610102546060919015610d465760008061125a6126b6565b9150915081600014801561126f575061010054155b156112ce576101028054806020026020016040519081016040528092919081815260200182805480156112c157602002820191906000526020600020905b8154815260200190600101908083116112ad575b5050505050935050505090565b610102546112dd82600161356f565b146113b857610102546000906001906112f79084906136a4565b61130191906136a4565b90508067ffffffffffffffff81111561131c5761131c6131dd565b604051908082528060200260200182016040528015611345578160200160208202803683370190505b50935060005b84518110156113b5576101028161136385600161356f565b61136d919061356f565b8154811061137d5761137d6136b7565b906000526020600020015485828151811061139a5761139a6136b7565b60209081029190910101526113ae816136cd565b905061134b565b50505b5050919050565b6001600160a01b03163b151590565b6001600160a01b0383166114305760405162461bcd60e51b8152602060048201526024808201527f45524332303a20617070726f76652066726f6d20746865207a65726f206164646044820152637265737360e01b60648201526084016109c1565b6001600160a01b0382166114915760405162461bcd60e51b815260206004820152602260248201527f45524332303a20617070726f766520746f20746865207a65726f206164647265604482015261737360f01b60648201526084016109c1565b6001600160a01b03838116600081815260cc602090815260408083209487168084529482529182902085905590518481527f8c5be1e5ebec7d5bd14f71427d1e84f3dd0314c0f7b2291e5b200ac8c7c3b925910160405180910390a3505050565b600080611500858585612774565b905080151560010361090c5760405183815233906001600160a01b038716907f7c2b9369bf4a6bd9745889c658ad00a4d57e280c4c80fa1c74db2a9e52c136359060200160405180910390a3949350505050565b610a3b813361278d565b6115688282610d8c565b6109d4576000828152610167602090815260408083206001600160a01b03851684529091529020805460ff191660011790556115a13390565b6001600160a01b0316816001600160a01b0316837f2f8788117e7eff1d82e926ec794901d17c78024a50270940304540a733656f0d60405160405180910390a45050565b6115ef8282610d8c565b156109d4576000828152610167602090815260408083206001600160a01b0385168085529252808320805460ff1916905551339285917ff6391f5c32d9c69d2a47ea670b442974b53935d1edc7fd64eb21e047a839171b9190a45050565b42811161166c5760405162461bcd60e51b81526004016109c1906136e6565b600080611678836127e6565b9150915081156116ca5760405162461bcd60e51b815260206004820152601760248201527f536e617073686f7420616c72656164792065786973747300000000000000000060448201526064016109c1565b61010254810361170f5761010280546001810182556000919091527f93bdaa6a4190909b7c3fbe8d42169ffe1cab19f51dfc8db24c71abf849eced4a018390556117e5565b61010280548190611722906001906136a4565b81548110611732576117326136b7565b600091825260208083209091015483546001810185559383529082209092019190915561010254611765906002906136a4565b90505b818111156117c25761010261177e6001836136a4565b8154811061178e5761178e6136b7565b906000526020600020015461010282815481106117ad576117ad6136b7565b60009182526020909120015560001901611768565b508261010282815481106117d8576117d86136b7565b6000918252602090912001555b60405183906000907fe2ad3b1abe53383dbe6359f02f11ae76d91cfab321b37083b16e1d96a81d4183908290a3505050565b61181f61285e565b6066805460ff191690557f5db9ee0a495bf2e6ff9c91a7834c1ba4fdd244a5e8aa4e537bd38aeae4b073aa335b6040516001600160a01b03909116815260200160405180910390a1565b6001600160a01b03821660009081526098602052604081205460ff1615611892575060006107c0565b6001600160a01b03831660009081526098602052604090819020805460ff19166001179055516118c3908390613688565b6040518091039020836001600160a01b03166118dc3390565b6001600160a01b03167fe80aede59db0b770aef5e4bd04670759d38e64959d07a4343257a0a4f6b6d1ed8560405161191491906130d4565b60405180910390a450600192915050565b6001600160a01b03821661197b5760405162461bcd60e51b815260206004820152601f60248201527f45524332303a206d696e7420746f20746865207a65726f20616464726573730060448201526064016109c1565b611987600083836128a7565b8060cd6000828254611999919061356f565b90915550506001600160a01b038216600081815260cb60209081526040808320805486019055518481527fddf252ad1be2c89b69c2b068fc378daa952ba7f163c4a11628f55a4df523b3ef910160405180910390a35050565b6001600160a01b037f0000000000000000000000000000000000000000000000000000000000000000163003611a805760405162461bcd60e51b815260206004820152602d60248201527f4469726563742063616c6c20746f2074686520696d706c656d656e746174696f60448201526c1b881b9bdd08185b1b1bddd959609a1b60648201526084016109c1565b565b60008080611a9084866129f1565b84549091508103611aa8576000809250925050611ad0565b6001846001018281548110611abf57611abf6136b7565b906000526020600020015492509250505b9250929050565b6001600160a01b03821660009081526098602052604081205460ff16611aff575060006107c0565b6001600160a01b03831660009081526098602052604090819020805460ff1916905551611b2d908390613688565b6040518091039020836001600160a01b0316611b463390565b6001600160a01b03167f7a52fdbc4f3e9f93670cd35b5b9c2d974791d25c5c04984336a80be3f7f42c328560405161191491906130d4565b603354604051637f4ab1dd60e01b815260ff831660048201526060916001600160a01b031690637f4ab1dd90602401600060405180830381865afa158015611bca573d6000803e3d6000fd5b505050506040513d6000823e601f3d908101601f191682016040526107c0919081019061371d565b428111611c115760405162461bcd60e51b81526004016109c19061378b565b600080611c1d836127e6565b9150915081611c635760405162461bcd60e51b815260206004820152601260248201527114db985c1cda1bdd081b9bdd08199bdd5b9960721b60448201526064016109c1565b805b61010254611c7482600161356f565b1015611ccb57610102611c8882600161356f565b81548110611c9857611c986136b7565b90600052602060002001546101028281548110611cb757611cb76136b7565b600091825260209091200155600101611c65565b50610102805480611cde57611cde6137ba565b60019003818190600052602060002001600090559055505050565b611d01612a92565b6066805460ff191660011790557f62e78cea01bee320cd4e420270b5ea74000d11b0c9f74754ebdbfc544b05a25861184c3390565b428111611d555760405162461bcd60e51b81526004016109c1906136e6565b6101025415611df3576101028054611d6f906001906136a4565b81548110611d7f57611d7f6136b7565b90600052602060002001548111611df35760405162461bcd60e51b815260206004820152603260248201527f74696d652068617320746f2062652067726561746572207468616e20746865206044820152716c61737420736e617073686f742074696d6560701b60648201526084016109c1565b610102805460018101825560009182527f93bdaa6a4190909b7c3fbe8d42169ffe1cab19f51dfc8db24c71abf849eced4a018290556040518291907fe2ad3b1abe53383dbe6359f02f11ae76d91cfab321b37083b16e1d96a81d4183908290a350565b6001600160a01b038316611eba5760405162461bcd60e51b815260206004820152602560248201527f45524332303a207472616e736665722066726f6d20746865207a65726f206164604482015264647265737360d81b60648201526084016109c1565b6001600160a01b038216611f1c5760405162461bcd60e51b815260206004820152602360248201527f45524332303a207472616e7366657220746f20746865207a65726f206164647260448201526265737360e81b60648201526084016109c1565b611f278383836128a7565b6001600160a01b038316600090815260cb602052604090205481811015611f9f5760405162461bcd60e51b815260206004820152602660248201527f45524332303a207472616e7366657220616d6f756e7420657863656564732062604482015265616c616e636560d01b60648201526084016109c1565b6001600160a01b03808516600081815260cb602052604080822086860390559286168082529083902080548601905591517fddf252ad1be2c89b69c2b068fc378daa952ba7f163c4a11628f55a4df523b3ef90611fff9086815260200190565b60405180910390a35b50505050565b60335460405163634a350960e11b81526001600160a01b038581166004830152848116602483015260448201849052600092169063c6946a1290606401602060405180830381865afa158015612068573d6000803e3d6000fd5b505050506040513d601f19601f8201168201806040525081019061090c91906137d0565b4282116120ab5760405162461bcd60e51b81526004016109c19061378b565b4281116120ca5760405162461bcd60e51b81526004016109c1906136e6565b610102546121125760405162461bcd60e51b81526020600482015260156024820152741b9bc81cd8da19591d5b1959081cdb985c1cda1bdd605a1b60448201526064016109c1565b60008061211e846127e6565b91509150816121645760405162461bcd60e51b815260206004820152601260248201527114db985c1cda1bdd081b9bdd08199bdd5b9960721b60448201526064016109c1565b6101025461217382600161356f565b10156122035761010261218782600161356f565b81548110612197576121976136b7565b906000526020600020015483106122035760405162461bcd60e51b815260206004820152602a60248201527f74696d652068617320746f206265206c657373207468616e20746865206e65786044820152691d081cdb985c1cda1bdd60b21b60648201526084016109c1565b801561229a576101026122176001836136a4565b81548110612227576122276136b7565b9060005260206000200154831161229a5760405162461bcd60e51b815260206004820152603160248201527f74696d652068617320746f2062652067726561746572207468616e20746865206044820152701c1c995d9a5bdd5cc81cdb985c1cda1bdd607a1b60648201526084016109c1565b8261010282815481106122af576122af6136b7565b6000918252602082200191909155604051849186917fe2ad3b1abe53383dbe6359f02f11ae76d91cfab321b37083b16e1d96a81d41839190a350505050565b60335460405163d4ce141560e01b81526001600160a01b038581166004830152848116602483015260448201849052600092169063d4ce141590606401602060405180830381865afa158015612348573d6000803e3d6000fd5b505050506040513d601f19601f8201168201806040525081019061090c91906137ed565b6001600160a01b0382166123cc5760405162461bcd60e51b815260206004820152602160248201527f45524332303a206275726e2066726f6d20746865207a65726f206164647265736044820152607360f81b60648201526084016109c1565b6123d8826000836128a7565b6001600160a01b038216600090815260cb60205260409020548181101561244c5760405162461bcd60e51b815260206004820152602260248201527f45524332303a206275726e20616d6f756e7420657863656564732062616c616e604482015261636560f01b60648201526084016109c1565b6001600160a01b038316600081815260cb60209081526040808320868603905560cd80548790039055518581529192917fddf252ad1be2c89b69c2b068fc378daa952ba7f163c4a11628f55a4df523b3ef910160405180910390a3505050565b600054610100900460ff166124d35760405162461bcd60e51b81526004016109c19061380a565b6124db612ad8565b6124e58484612aff565b6124ed612ad8565b6124f5612ad8565b6124fd612b3f565b612505612ad8565b61250d612b72565b612515612ad8565b61251d612ad8565b612525612ad8565b61252d612ad8565b6125376000612ba7565b61253f612ad8565b612547612ad8565b61254f612ad8565b6125598282612be5565b6125638686612c27565b505050505050565b42811161258a5760405162461bcd60e51b81526004016109c19061378b565b610102546125d25760405162461bcd60e51b8152602060048201526015602482015274139bc81cdb985c1cda1bdd081cd8da19591d5b1959605a1b60448201526064016109c1565b61010280546125e3906001906136a4565b815481106125f3576125f36136b7565b9060005260206000200154811461265e5760405162461bcd60e51b815260206004820152602960248201527f4f6e6c7920746865206c61737420736e617073686f742063616e20626520756e6044820152681cd8da19591d5b195960ba1b60648201526084016109c1565b610102805480612670576126706137ba565b60019003818190600052602060002001600090559055807f06e2498f5548e5491bfe985562cc494131eae56b5b6543b59129c8886f129f6560405160405180910390a250565b6101025460009081908015806126e45750806101015460016126d8919061356f565b1480156126e457508215155b156126f3576000939092509050565b600081925060006101015490505b8281101561276c5742610102828154811061271e5761271e6136b7565b906000526020600020015411612757576101028181548110612742576127426136b7565b9060005260206000200154915080935061275c565b61276c565b612765816136cd565b9050612701565b509391925050565b600033612782858285612d04565b610b7b858585611e56565b6127978282610d8c565b6109d4576127a481612d78565b6127af836020612d8a565b6040516020016127c0929190613855565b60408051601f198184030181529082905262461bcd60e51b82526109c1916004016130d4565b600080806127f6610102856129f1565b610102549091508114801590612829575083610102828154811061281c5761281c6136b7565b9060005260206000200154145b1561283957600194909350915050565b61010254811461284e57600094909350915050565b5050610102546000939092509050565b60665460ff16611a805760405162461bcd60e51b815260206004820152601460248201527314185d5cd8589b194e881b9bdd081c185d5cd95960621b60448201526064016109c1565b60665460ff16156129055760405162461bcd60e51b815260206004820152602260248201527f434d5441543a20746f6b656e207472616e73666572207768696c652070617573604482015261195960f21b60648201526084016109c1565b6001600160a01b03831660009081526098602052604090205460ff16156129795760405162461bcd60e51b815260206004820152602260248201527f434d5441543a20746f6b656e207472616e73666572207768696c652066726f7a60448201526132b760f11b60648201526084016109c1565b612984838383612f26565b61298f838383610f1f565b61093c5760405162461bcd60e51b815260206004820152602d60248201527f434d5441543a207472616e736665722072656a65637465642062792076616c6960448201526c646174696f6e206d6f64756c6560981b60648201526084016109c1565b81546000908103612a04575060006107c0565b82546000905b80821015612a4e576000612a1e8383612f6f565b905084612a2b8783612f8a565b541115612a3a57809150612a48565b612a4581600161356f565b92505b50612a0a565b600082118015612a71575083612a6e86612a696001866136a4565b612f8a565b54145b15612a8a57612a816001836136a4565b925050506107c0565b5090506107c0565b60665460ff1615611a805760405162461bcd60e51b815260206004820152601060248201526f14185d5cd8589b194e881c185d5cd95960821b60448201526064016109c1565b600054610100900460ff16611a805760405162461bcd60e51b81526004016109c19061380a565b600054610100900460ff16612b265760405162461bcd60e51b81526004016109c19061380a565b60ce612b3283826135c8565b5060cf61093c82826135c8565b600054610100900460ff16612b665760405162461bcd60e51b81526004016109c19061380a565b6066805460ff19169055565b600054610100900460ff16612b995760405162461bcd60e51b81526004016109c19061380a565b600061010081905561010155565b600054610100900460ff16612bce5760405162461bcd60e51b81526004016109c19061380a565b610390805460ff191660ff92909216919091179055565b600054610100900460ff16612c0c5760405162461bcd60e51b81526004016109c19061380a565b6101cc612c1983826135c8565b506101cd61093c82826135c8565b600054610100900460ff16612c4e5760405162461bcd60e51b81526004016109c19061380a565b6101cb805460ff1916831515179055612c6860008261155e565b612c8060008051602061395b8339815191528261155e565b612caa7f9f2df0fed2c77648de5860a4cc508cd0818c85b8b8a1ab4ceeef8d981c8956a68261155e565b612cd47f3c11d16cbaffd01df69ce1c404f6340ee057498f5f00246190ea54220576a8488261155e565b612cec60008051602061391b8339815191528261155e565b6109d460008051602061393b8339815191528261155e565b6000612d10848461105b565b905060001981146120085781811015612d6b5760405162461bcd60e51b815260206004820152601d60248201527f45524332303a20696e73756666696369656e7420616c6c6f77616e636500000060448201526064016109c1565b61200884848484036113ce565b60606107c06001600160a01b03831660145b60606000612d998360026138ca565b612da490600261356f565b67ffffffffffffffff811115612dbc57612dbc6131dd565b6040519080825280601f01601f191660200182016040528015612de6576020820181803683370190505b509050600360fc1b81600081518110612e0157612e016136b7565b60200101906001600160f81b031916908160001a905350600f60fb1b81600181518110612e3057612e306136b7565b60200101906001600160f81b031916908160001a9053506000612e548460026138ca565b612e5f90600161356f565b90505b6001811115612ed7576f181899199a1a9b1b9c1cb0b131b232b360811b85600f1660108110612e9357612e936136b7565b1a60f81b828281518110612ea957612ea96136b7565b60200101906001600160f81b031916908160001a90535060049490941c93612ed0816138e1565b9050612e62565b50831561090f5760405162461bcd60e51b815260206004820181905260248201527f537472696e67733a20686578206c656e67746820696e73756666696369656e7460448201526064016109c1565b612f2e612f9b565b6001600160a01b03831615612f6657612f4683612fbe565b6001600160a01b03821615612f5e5761093c82612fbe565b61093c612ff1565b612f5e82612fbe565b6000612f7e60028484186138f8565b61090f9084841661356f565b600082815260208120820180610a62565b600080612fa66126b6565b909250905081156109d4576101009190915561010155565b6001600160a01b038116600090815260fd6020908152604080832060cb90925290912054610a3b9190612fff565b612fff565b611a8060fe612fec60cd5490565b610100548061300d84613041565b101561093c578254600180820185556000858152602080822090930193909355938401805494850181558252902090910155565b8054600090810361305457506000919050565b81548290613064906001906136a4565b81548110613074576130746136b7565b90600052602060002001549050919050565b60006020828403121561309857600080fd5b81356001600160e01b03198116811461090f57600080fd5b60005b838110156130cb5781810151838201526020016130b3565b50506000910152565b60208152600082518060208401526130f38160408501602087016130b0565b601f01601f19169190910160400192915050565b6001600160a01b0381168114610a3b57600080fd5b8035610d4681613107565b6000806040838503121561313a57600080fd5b823561314581613107565b946020939093013593505050565b60008060006060848603121561316857600080fd5b833561317381613107565b9250602084013561318381613107565b929592945050506040919091013590565b6000602082840312156131a657600080fd5b5035919050565b600080604083850312156131c057600080fd5b8235915060208301356131d281613107565b809150509250929050565b634e487b7160e01b600052604160045260246000fd5b604051601f8201601f1916810167ffffffffffffffff8111828210171561321c5761321c6131dd565b604052919050565b600067ffffffffffffffff82111561323e5761323e6131dd565b50601f01601f191660200190565b600082601f83011261325d57600080fd5b813561327061326b82613224565b6131f3565b81815284602083860101111561328557600080fd5b816020850160208301376000918101602001919091529392505050565b600080604083850312156132b557600080fd5b82356132c081613107565b9150602083013567ffffffffffffffff8111156132dc57600080fd5b6132e88582860161324c565b9150509250929050565b60008060006060848603121561330757600080fd5b833561331281613107565b95602085013595506040909401359392505050565b60006020828403121561333957600080fd5b813561090f81613107565b60006020828403121561335657600080fd5b813567ffffffffffffffff81111561336d57600080fd5b610a628482850161324c565b60ff81168114610a3b57600080fd5b60006020828403121561339a57600080fd5b813561090f81613379565b6020808252825182820181905260009190848201906040850190845b818110156133dd578351835292840192918401916001016133c1565b50909695505050505050565b600080604083850312156133fc57600080fd5b50508035926020909101359150565b6000806040838503121561341e57600080fd5b823561342981613107565b915060208301356131d281613107565b8015158114610a3b57600080fd5b8035610d4681613439565b60008060008060008060c0878903121561346b57600080fd5b61347487613447565b95506134826020880161311c565b9450604087013567ffffffffffffffff8082111561349f57600080fd5b6134ab8a838b0161324c565b955060608901359150808211156134c157600080fd5b6134cd8a838b0161324c565b945060808901359150808211156134e357600080fd5b6134ef8a838b0161324c565b935060a089013591508082111561350557600080fd5b5061351289828a0161324c565b9150509295509295509295565b600181811c9082168061353357607f821691505b60208210810361355357634e487b7160e01b600052602260045260246000fd5b50919050565b634e487b7160e01b600052601160045260246000fd5b808201808211156107c0576107c0613559565b601f82111561093c57600081815260208120601f850160051c810160208610156135a95750805b601f850160051c820191505b81811015612563578281556001016135b5565b815167ffffffffffffffff8111156135e2576135e26131dd565b6135f6816135f0845461351f565b84613582565b602080601f83116001811461362b57600084156136135750858301515b600019600386901b1c1916600185901b178555612563565b600085815260208120601f198616915b8281101561365a5788860151825594840194600190910190840161363b565b50858210156136785787850151600019600388901b60f8161c191681555b5050505050600190811b01905550565b6000825161369a8184602087016130b0565b9190910192915050565b818103818111156107c0576107c0613559565b634e487b7160e01b600052603260045260246000fd5b6000600182016136df576136df613559565b5060010190565b6020808252601e908201527f536e617073686f74207363686564756c656420696e2074686520706173740000604082015260600190565b60006020828403121561372f57600080fd5b815167ffffffffffffffff81111561374657600080fd5b8201601f8101841361375757600080fd5b805161376561326b82613224565b81815285602083850101111561377a57600080fd5b610bf78260208301602086016130b0565b602080825260159082015274536e617073686f7420616c726561647920646f6e6560581b604082015260600190565b634e487b7160e01b600052603160045260246000fd5b6000602082840312156137e257600080fd5b815161090f81613439565b6000602082840312156137ff57600080fd5b815161090f81613379565b6020808252602b908201527f496e697469616c697a61626c653a20636f6e7472616374206973206e6f74206960408201526a6e697469616c697a696e6760a81b606082015260800190565b7f416363657373436f6e74726f6c3a206163636f756e742000000000000000000081526000835161388d8160178501602088016130b0565b7001034b99036b4b9b9b4b733903937b6329607d1b60179184019182015283516138be8160288401602088016130b0565b01602801949350505050565b80820281158282048414176107c0576107c0613559565b6000816138f0576138f0613559565b506000190190565b60008261391557634e487b7160e01b600052601260045260246000fd5b50049056fe65d7a28e3265b37a6474929f336521b332c1681b933f6cb9f3376673440d862a809a0fc49fc0600540f1d39e23454e1f6f215bc7505fa22b17c154616570ddef973ef39d76cc2c6090feab1c030bec6ab5db557f64df047a4c4f9b5953cf1df3a2646970667358221220cf7ff84a80031b639876a36908d6f27e5f3358558163e4abc54cc11e657ab9b964736f6c63430008110033496e697469616c697a61626c653a20636f6e7472616374206973206e6f7420697f26b83ff96e1f2b6a682f133852f6798a09c465da95921460cefb3847402498",
			"opcodes": "PUSH1 0xC0 PUSH1 0x40 MSTORE ADDRESS PUSH1 0x80 MSTORE CALLVALUE DUP1 ISZERO PUSH3 0x15 JUMPI PUSH1 0x0 DUP1 REVERT JUMPDEST POP PUSH1 0x40 MLOAD PUSH3 0x456A CODESIZE SUB DUP1 PUSH3 0x456A DUP4 CODECOPY DUP2 ADD PUSH1 0x40 DUP2 SWAP1 MSTORE PUSH3 0x38 SWAP2 PUSH3 0x910 JUMP JUMPDEST PUSH1 0x1 PUSH1 0x1 PUSH1 0xA0 SHL SUB DUP8 AND PUSH1 0xA0 MSTORE DUP6 PUSH3 0x61 JUMPI PUSH3 0x5B DUP7 DUP7 DUP7 DUP7 DUP7 DUP7 PUSH3 0x86 JUMP JUMPDEST PUSH3 0x79 JUMP JUMPDEST PUSH2 0x1CB DUP1 SLOAD PUSH1 0xFF NOT AND PUSH1 0x1 OR SWAP1 SSTORE PUSH3 0x79 PUSH3 0x1B3 JUMP JUMPDEST POP POP POP POP POP POP POP PUSH3 0xB54 JUMP JUMPDEST PUSH1 0x0 SLOAD PUSH2 0x100 SWAP1 DIV PUSH1 0xFF AND ISZERO DUP1 DUP1 ISZERO PUSH3 0xA7 JUMPI POP PUSH1 0x0 SLOAD PUSH1 0x1 PUSH1 0xFF SWAP1 SWAP2 AND LT JUMPDEST DUP1 PUSH3 0xD7 JUMPI POP PUSH3 0xC4 ADDRESS PUSH3 0x260 PUSH1 0x20 SHL PUSH3 0x13BF OR PUSH1 0x20 SHR JUMP JUMPDEST ISZERO DUP1 ISZERO PUSH3 0xD7 JUMPI POP PUSH1 0x0 SLOAD PUSH1 0xFF AND PUSH1 0x1 EQ JUMPDEST PUSH3 0x140 JUMPI PUSH1 0x40 MLOAD PUSH3 0x461BCD PUSH1 0xE5 SHL DUP2 MSTORE PUSH1 0x20 PUSH1 0x4 DUP3 ADD MSTORE PUSH1 0x2E PUSH1 0x24 DUP3 ADD MSTORE PUSH32 0x496E697469616C697A61626C653A20636F6E747261637420697320616C726561 PUSH1 0x44 DUP3 ADD MSTORE PUSH14 0x191E481A5B9A5D1A585B1A5E9959 PUSH1 0x92 SHL PUSH1 0x64 DUP3 ADD MSTORE PUSH1 0x84 ADD JUMPDEST PUSH1 0x40 MLOAD DUP1 SWAP2 SUB SWAP1 REVERT JUMPDEST PUSH1 0x0 DUP1 SLOAD PUSH1 0xFF NOT AND PUSH1 0x1 OR SWAP1 SSTORE DUP1 ISZERO PUSH3 0x164 JUMPI PUSH1 0x0 DUP1 SLOAD PUSH2 0xFF00 NOT AND PUSH2 0x100 OR SWAP1 SSTORE JUMPDEST PUSH3 0x174 DUP8 DUP8 DUP8 DUP8 DUP8 DUP8 PUSH3 0x26F JUMP JUMPDEST DUP1 ISZERO PUSH3 0x1AA JUMPI PUSH1 0x0 DUP1 SLOAD PUSH2 0xFF00 NOT AND SWAP1 SSTORE PUSH1 0x40 MLOAD PUSH1 0x1 DUP2 MSTORE PUSH1 0x0 DUP1 MLOAD PUSH1 0x20 PUSH3 0x454A DUP4 CODECOPY DUP2 MLOAD SWAP2 MSTORE SWAP1 PUSH1 0x20 ADD PUSH1 0x40 MLOAD DUP1 SWAP2 SUB SWAP1 LOG1 JUMPDEST POP POP POP POP POP POP POP JUMP JUMPDEST PUSH1 0x0 SLOAD PUSH2 0x100 SWAP1 DIV PUSH1 0xFF AND ISZERO PUSH3 0x21D JUMPI PUSH1 0x40 MLOAD PUSH3 0x461BCD PUSH1 0xE5 SHL DUP2 MSTORE PUSH1 0x20 PUSH1 0x4 DUP3 ADD MSTORE PUSH1 0x27 PUSH1 0x24 DUP3 ADD MSTORE PUSH32 0x496E697469616C697A61626C653A20636F6E747261637420697320696E697469 PUSH1 0x44 DUP3 ADD MSTORE PUSH7 0x616C697A696E67 PUSH1 0xC8 SHL PUSH1 0x64 DUP3 ADD MSTORE PUSH1 0x84 ADD PUSH3 0x137 JUMP JUMPDEST PUSH1 0x0 SLOAD PUSH1 0xFF SWAP1 DUP2 AND EQ PUSH3 0x25E JUMPI PUSH1 0x0 DUP1 SLOAD PUSH1 0xFF NOT AND PUSH1 0xFF SWAP1 DUP2 OR SWAP1 SWAP2 SSTORE PUSH1 0x40 MLOAD SWAP1 DUP2 MSTORE PUSH1 0x0 DUP1 MLOAD PUSH1 0x20 PUSH3 0x454A DUP4 CODECOPY DUP2 MLOAD SWAP2 MSTORE SWAP1 PUSH1 0x20 ADD PUSH1 0x40 MLOAD DUP1 SWAP2 SUB SWAP1 LOG1 JUMPDEST JUMP JUMPDEST PUSH1 0x1 PUSH1 0x1 PUSH1 0xA0 SHL SUB AND EXTCODESIZE ISZERO ISZERO SWAP1 JUMP JUMPDEST PUSH1 0x0 SLOAD PUSH2 0x100 SWAP1 DIV PUSH1 0xFF AND PUSH3 0x2CB JUMPI PUSH1 0x40 MLOAD PUSH3 0x461BCD PUSH1 0xE5 SHL DUP2 MSTORE PUSH1 0x20 PUSH1 0x4 DUP3 ADD MSTORE PUSH1 0x2B PUSH1 0x24 DUP3 ADD MSTORE PUSH1 0x0 DUP1 MLOAD PUSH1 0x20 PUSH3 0x452A DUP4 CODECOPY DUP2 MLOAD SWAP2 MSTORE PUSH1 0x44 DUP3 ADD MSTORE PUSH11 0x6E697469616C697A696E67 PUSH1 0xA8 SHL PUSH1 0x64 DUP3 ADD MSTORE PUSH1 0x84 ADD PUSH3 0x137 JUMP JUMPDEST PUSH3 0x2D5 PUSH3 0x385 JUMP JUMPDEST PUSH3 0x2E1 DUP5 DUP5 PUSH3 0x3E1 JUMP JUMPDEST PUSH3 0x2EB PUSH3 0x385 JUMP JUMPDEST PUSH3 0x2F5 PUSH3 0x385 JUMP JUMPDEST PUSH3 0x2FF PUSH3 0x45F JUMP JUMPDEST PUSH3 0x309 PUSH3 0x385 JUMP JUMPDEST PUSH3 0x313 PUSH3 0x4C7 JUMP JUMPDEST PUSH3 0x31D PUSH3 0x385 JUMP JUMPDEST PUSH3 0x327 PUSH3 0x385 JUMP JUMPDEST PUSH3 0x331 PUSH3 0x385 JUMP JUMPDEST PUSH3 0x33B PUSH3 0x385 JUMP JUMPDEST PUSH3 0x347 PUSH1 0x0 PUSH3 0x531 JUMP JUMPDEST PUSH3 0x351 PUSH3 0x385 JUMP JUMPDEST PUSH3 0x35B PUSH3 0x385 JUMP JUMPDEST PUSH3 0x365 PUSH3 0x385 JUMP JUMPDEST PUSH3 0x371 DUP3 DUP3 PUSH3 0x5A4 JUMP JUMPDEST PUSH3 0x37D DUP7 DUP7 PUSH3 0x61F JUMP JUMPDEST POP POP POP POP POP POP JUMP JUMPDEST PUSH1 0x0 SLOAD PUSH2 0x100 SWAP1 DIV PUSH1 0xFF AND PUSH3 0x25E JUMPI PUSH1 0x40 MLOAD PUSH3 0x461BCD PUSH1 0xE5 SHL DUP2 MSTORE PUSH1 0x20 PUSH1 0x4 DUP3 ADD MSTORE PUSH1 0x2B PUSH1 0x24 DUP3 ADD MSTORE PUSH1 0x0 DUP1 MLOAD PUSH1 0x20 PUSH3 0x452A DUP4 CODECOPY DUP2 MLOAD SWAP2 MSTORE PUSH1 0x44 DUP3 ADD MSTORE PUSH11 0x6E697469616C697A696E67 PUSH1 0xA8 SHL PUSH1 0x64 DUP3 ADD MSTORE PUSH1 0x84 ADD PUSH3 0x137 JUMP JUMPDEST PUSH1 0x0 SLOAD PUSH2 0x100 SWAP1 DIV PUSH1 0xFF AND PUSH3 0x43D JUMPI PUSH1 0x40 MLOAD PUSH3 0x461BCD PUSH1 0xE5 SHL DUP2 MSTORE PUSH1 0x20 PUSH1 0x4 DUP3 ADD MSTORE PUSH1 0x2B PUSH1 0x24 DUP3 ADD MSTORE PUSH1 0x0 DUP1 MLOAD PUSH1 0x20 PUSH3 0x452A DUP4 CODECOPY DUP2 MLOAD SWAP2 MSTORE PUSH1 0x44 DUP3 ADD MSTORE PUSH11 0x6E697469616C697A696E67 PUSH1 0xA8 SHL PUSH1 0x64 DUP3 ADD MSTORE PUSH1 0x84 ADD PUSH3 0x137 JUMP JUMPDEST PUSH1 0xCE PUSH3 0x44B DUP4 DUP3 PUSH3 0xA88 JUMP JUMPDEST POP PUSH1 0xCF PUSH3 0x45A DUP3 DUP3 PUSH3 0xA88 JUMP JUMPDEST POP POP POP JUMP JUMPDEST PUSH1 0x0 SLOAD PUSH2 0x100 SWAP1 DIV PUSH1 0xFF AND PUSH3 0x4BB JUMPI PUSH1 0x40 MLOAD PUSH3 0x461BCD PUSH1 0xE5 SHL DUP2 MSTORE PUSH1 0x20 PUSH1 0x4 DUP3 ADD MSTORE PUSH1 0x2B PUSH1 0x24 DUP3 ADD MSTORE PUSH1 0x0 DUP1 MLOAD PUSH1 0x20 PUSH3 0x452A DUP4 CODECOPY DUP2 MLOAD SWAP2 MSTORE PUSH1 0x44 DUP3 ADD MSTORE PUSH11 0x6E697469616C697A696E67 PUSH1 0xA8 SHL PUSH1 0x64 DUP3 ADD MSTORE PUSH1 0x84 ADD PUSH3 0x137 JUMP JUMPDEST PUSH1 0x66 DUP1 SLOAD PUSH1 0xFF NOT AND SWAP1 SSTORE JUMP JUMPDEST PUSH1 0x0 SLOAD PUSH2 0x100 SWAP1 DIV PUSH1 0xFF AND PUSH3 0x523 JUMPI PUSH1 0x40 MLOAD PUSH3 0x461BCD PUSH1 0xE5 SHL DUP2 MSTORE PUSH1 0x20 PUSH1 0x4 DUP3 ADD MSTORE PUSH1 0x2B PUSH1 0x24 DUP3 ADD MSTORE PUSH1 0x0 DUP1 MLOAD PUSH1 0x20 PUSH3 0x452A DUP4 CODECOPY DUP2 MLOAD SWAP2 MSTORE PUSH1 0x44 DUP3 ADD MSTORE PUSH11 0x6E697469616C697A696E67 PUSH1 0xA8 SHL PUSH1 0x64 DUP3 ADD MSTORE PUSH1 0x84 ADD PUSH3 0x137 JUMP JUMPDEST PUSH1 0x0 PUSH2 0x100 DUP2 SWAP1 SSTORE PUSH2 0x101 SSTORE JUMP JUMPDEST PUSH1 0x0 SLOAD PUSH2 0x100 SWAP1 DIV PUSH1 0xFF AND PUSH3 0x58D JUMPI PUSH1 0x40 MLOAD PUSH3 0x461BCD PUSH1 0xE5 SHL DUP2 MSTORE PUSH1 0x20 PUSH1 0x4 DUP3 ADD MSTORE PUSH1 0x2B PUSH1 0x24 DUP3 ADD MSTORE PUSH1 0x0 DUP1 MLOAD PUSH1 0x20 PUSH3 0x452A DUP4 CODECOPY DUP2 MLOAD SWAP2 MSTORE PUSH1 0x44 DUP3 ADD MSTORE PUSH11 0x6E697469616C697A696E67 PUSH1 0xA8 SHL PUSH1 0x64 DUP3 ADD MSTORE PUSH1 0x84 ADD PUSH3 0x137 JUMP JUMPDEST PUSH2 0x390 DUP1 SLOAD PUSH1 0xFF NOT AND PUSH1 0xFF SWAP3 SWAP1 SWAP3 AND SWAP2 SWAP1 SWAP2 OR SWAP1 SSTORE JUMP JUMPDEST PUSH1 0x0 SLOAD PUSH2 0x100 SWAP1 DIV PUSH1 0xFF AND PUSH3 0x600 JUMPI PUSH1 0x40 MLOAD PUSH3 0x461BCD PUSH1 0xE5 SHL DUP2 MSTORE PUSH1 0x20 PUSH1 0x4 DUP3 ADD MSTORE PUSH1 0x2B PUSH1 0x24 DUP3 ADD MSTORE PUSH1 0x0 DUP1 MLOAD PUSH1 0x20 PUSH3 0x452A DUP4 CODECOPY DUP2 MLOAD SWAP2 MSTORE PUSH1 0x44 DUP3 ADD MSTORE PUSH11 0x6E697469616C697A696E67 PUSH1 0xA8 SHL PUSH1 0x64 DUP3 ADD MSTORE PUSH1 0x84 ADD PUSH3 0x137 JUMP JUMPDEST PUSH2 0x1CC PUSH3 0x60F DUP4 DUP3 PUSH3 0xA88 JUMP JUMPDEST POP PUSH2 0x1CD PUSH3 0x45A DUP3 DUP3 PUSH3 0xA88 JUMP JUMPDEST PUSH1 0x0 SLOAD PUSH2 0x100 SWAP1 DIV PUSH1 0xFF AND PUSH3 0x67B JUMPI PUSH1 0x40 MLOAD PUSH3 0x461BCD PUSH1 0xE5 SHL DUP2 MSTORE PUSH1 0x20 PUSH1 0x4 DUP3 ADD MSTORE PUSH1 0x2B PUSH1 0x24 DUP3 ADD MSTORE PUSH1 0x0 DUP1 MLOAD PUSH1 0x20 PUSH3 0x452A DUP4 CODECOPY DUP2 MLOAD SWAP2 MSTORE PUSH1 0x44 DUP3 ADD MSTORE PUSH11 0x6E697469616C697A696E67 PUSH1 0xA8 SHL PUSH1 0x64 DUP3 ADD MSTORE PUSH1 0x84 ADD PUSH3 0x137 JUMP JUMPDEST PUSH2 0x1CB DUP1 SLOAD PUSH1 0xFF NOT AND DUP4 ISZERO ISZERO OR SWAP1 SSTORE PUSH3 0x697 PUSH1 0x0 DUP3 PUSH3 0x777 JUMP JUMPDEST PUSH3 0x6C3 PUSH32 0x973EF39D76CC2C6090FEAB1C030BEC6AB5DB557F64DF047A4C4F9B5953CF1DF3 DUP3 PUSH3 0x777 JUMP JUMPDEST PUSH3 0x6EF PUSH32 0x9F2DF0FED2C77648DE5860A4CC508CD0818C85B8B8A1AB4CEEEF8D981C8956A6 DUP3 PUSH3 0x777 JUMP JUMPDEST PUSH3 0x71B PUSH32 0x3C11D16CBAFFD01DF69CE1C404F6340EE057498F5F00246190EA54220576A848 DUP3 PUSH3 0x777 JUMP JUMPDEST PUSH3 0x747 PUSH32 0x65D7A28E3265B37A6474929F336521B332C1681B933F6CB9F3376673440D862A DUP3 PUSH3 0x777 JUMP JUMPDEST PUSH3 0x773 PUSH32 0x809A0FC49FC0600540F1D39E23454E1F6F215BC7505FA22B17C154616570DDEF DUP3 PUSH3 0x777 JUMP JUMPDEST POP POP JUMP JUMPDEST PUSH1 0x0 DUP3 DUP2 MSTORE PUSH2 0x167 PUSH1 0x20 SWAP1 DUP2 MSTORE PUSH1 0x40 DUP1 DUP4 KECCAK256 PUSH1 0x1 PUSH1 0x1 PUSH1 0xA0 SHL SUB DUP6 AND DUP5 MSTORE SWAP1 SWAP2 MSTORE SWAP1 KECCAK256 SLOAD PUSH1 0xFF AND PUSH3 0x773 JUMPI PUSH1 0x0 DUP3 DUP2 MSTORE PUSH2 0x167 PUSH1 0x20 SWAP1 DUP2 MSTORE PUSH1 0x40 DUP1 DUP4 KECCAK256 PUSH1 0x1 PUSH1 0x1 PUSH1 0xA0 SHL SUB DUP6 AND DUP5 MSTORE SWAP1 SWAP2 MSTORE SWAP1 KECCAK256 DUP1 SLOAD PUSH1 0xFF NOT AND PUSH1 0x1 OR SWAP1 SSTORE PUSH3 0x7D9 CALLER SWAP1 JUMP JUMPDEST PUSH1 0x1 PUSH1 0x1 PUSH1 0xA0 SHL SUB AND DUP2 PUSH1 0x1 PUSH1 0x1 PUSH1 0xA0 SHL SUB AND DUP4 PUSH32 0x2F8788117E7EFF1D82E926EC794901D17C78024A50270940304540A733656F0D PUSH1 0x40 MLOAD PUSH1 0x40 MLOAD DUP1 SWAP2 SUB SWAP1 LOG4 POP POP JUMP JUMPDEST DUP1 MLOAD PUSH1 0x1 PUSH1 0x1 PUSH1 0xA0 SHL SUB DUP2 AND DUP2 EQ PUSH3 0x835 JUMPI PUSH1 0x0 DUP1 REVERT JUMPDEST SWAP2 SWAP1 POP JUMP JUMPDEST DUP1 MLOAD DUP1 ISZERO ISZERO DUP2 EQ PUSH3 0x835 JUMPI PUSH1 0x0 DUP1 REVERT JUMPDEST PUSH4 0x4E487B71 PUSH1 0xE0 SHL PUSH1 0x0 MSTORE PUSH1 0x41 PUSH1 0x4 MSTORE PUSH1 0x24 PUSH1 0x0 REVERT JUMPDEST PUSH1 0x0 DUP3 PUSH1 0x1F DUP4 ADD SLT PUSH3 0x873 JUMPI PUSH1 0x0 DUP1 REVERT JUMPDEST DUP2 MLOAD PUSH1 0x1 PUSH1 0x1 PUSH1 0x40 SHL SUB DUP1 DUP3 GT ISZERO PUSH3 0x890 JUMPI PUSH3 0x890 PUSH3 0x84B JUMP JUMPDEST PUSH1 0x40 MLOAD PUSH1 0x1F DUP4 ADD PUSH1 0x1F NOT SWAP1 DUP2 AND PUSH1 0x3F ADD AND DUP2 ADD SWAP1 DUP3 DUP3 GT DUP2 DUP4 LT OR ISZERO PUSH3 0x8BB JUMPI PUSH3 0x8BB PUSH3 0x84B JUMP JUMPDEST DUP2 PUSH1 0x40 MSTORE DUP4 DUP2 MSTORE PUSH1 0x20 SWAP3 POP DUP7 DUP4 DUP6 DUP9 ADD ADD GT ISZERO PUSH3 0x8D8 JUMPI PUSH1 0x0 DUP1 REVERT JUMPDEST PUSH1 0x0 SWAP2 POP JUMPDEST DUP4 DUP3 LT ISZERO PUSH3 0x8FC JUMPI DUP6 DUP3 ADD DUP4 ADD MLOAD DUP2 DUP4 ADD DUP5 ADD MSTORE SWAP1 DUP3 ADD SWAP1 PUSH3 0x8DD JUMP JUMPDEST PUSH1 0x0 SWAP4 DUP2 ADD SWAP1 SWAP3 ADD SWAP3 SWAP1 SWAP3 MSTORE SWAP5 SWAP4 POP POP POP POP JUMP JUMPDEST PUSH1 0x0 DUP1 PUSH1 0x0 DUP1 PUSH1 0x0 DUP1 PUSH1 0x0 PUSH1 0xE0 DUP9 DUP11 SUB SLT ISZERO PUSH3 0x92C JUMPI PUSH1 0x0 DUP1 REVERT JUMPDEST PUSH3 0x937 DUP9 PUSH3 0x81D JUMP JUMPDEST SWAP7 POP PUSH3 0x947 PUSH1 0x20 DUP10 ADD PUSH3 0x83A JUMP JUMPDEST SWAP6 POP PUSH3 0x957 PUSH1 0x40 DUP10 ADD PUSH3 0x81D JUMP JUMPDEST PUSH1 0x60 DUP10 ADD MLOAD SWAP1 SWAP6 POP PUSH1 0x1 PUSH1 0x1 PUSH1 0x40 SHL SUB DUP1 DUP3 GT ISZERO PUSH3 0x975 JUMPI PUSH1 0x0 DUP1 REVERT JUMPDEST PUSH3 0x983 DUP12 DUP4 DUP13 ADD PUSH3 0x861 JUMP JUMPDEST SWAP6 POP PUSH1 0x80 DUP11 ADD MLOAD SWAP2 POP DUP1 DUP3 GT ISZERO PUSH3 0x99A JUMPI PUSH1 0x0 DUP1 REVERT JUMPDEST PUSH3 0x9A8 DUP12 DUP4 DUP13 ADD PUSH3 0x861 JUMP JUMPDEST SWAP5 POP PUSH1 0xA0 DUP11 ADD MLOAD SWAP2 POP DUP1 DUP3 GT ISZERO PUSH3 0x9BF JUMPI PUSH1 0x0 DUP1 REVERT JUMPDEST PUSH3 0x9CD DUP12 DUP4 DUP13 ADD PUSH3 0x861 JUMP JUMPDEST SWAP4 POP PUSH1 0xC0 DUP11 ADD MLOAD SWAP2 POP DUP1 DUP3 GT ISZERO PUSH3 0x9E4 JUMPI PUSH1 0x0 DUP1 REVERT JUMPDEST POP PUSH3 0x9F3 DUP11 DUP3 DUP12 ADD PUSH3 0x861 JUMP JUMPDEST SWAP2 POP POP SWAP3 SWAP6 SWAP9 SWAP2 SWAP5 SWAP8 POP SWAP3 SWAP6 POP JUMP JUMPDEST PUSH1 0x1 DUP2 DUP2 SHR SWAP1 DUP3 AND DUP1 PUSH3 0xA17 JUMPI PUSH1 0x7F DUP3 AND SWAP2 POP JUMPDEST PUSH1 0x20 DUP3 LT DUP2 SUB PUSH3 0xA38 JUMPI PUSH4 0x4E487B71 PUSH1 0xE0 SHL PUSH1 0x0 MSTORE PUSH1 0x22 PUSH1 0x4 MSTORE PUSH1 0x24 PUSH1 0x0 REVERT JUMPDEST POP SWAP2 SWAP1 POP JUMP JUMPDEST PUSH1 0x1F DUP3 GT ISZERO PUSH3 0x45A JUMPI PUSH1 0x0 DUP2 DUP2 MSTORE PUSH1 0x20 DUP2 KECCAK256 PUSH1 0x1F DUP6 ADD PUSH1 0x5 SHR DUP2 ADD PUSH1 0x20 DUP7 LT ISZERO PUSH3 0xA67 JUMPI POP DUP1 JUMPDEST PUSH1 0x1F DUP6 ADD PUSH1 0x5 SHR DUP3 ADD SWAP2 POP JUMPDEST DUP2 DUP2 LT ISZERO PUSH3 0x37D JUMPI DUP3 DUP2 SSTORE PUSH1 0x1 ADD PUSH3 0xA73 JUMP JUMPDEST DUP2 MLOAD PUSH1 0x1 PUSH1 0x1 PUSH1 0x40 SHL SUB DUP2 GT ISZERO PUSH3 0xAA4 JUMPI PUSH3 0xAA4 PUSH3 0x84B JUMP JUMPDEST PUSH3 0xABC DUP2 PUSH3 0xAB5 DUP5 SLOAD PUSH3 0xA02 JUMP JUMPDEST DUP5 PUSH3 0xA3E JUMP JUMPDEST PUSH1 0x20 DUP1 PUSH1 0x1F DUP4 GT PUSH1 0x1 DUP2 EQ PUSH3 0xAF4 JUMPI PUSH1 0x0 DUP5 ISZERO PUSH3 0xADB JUMPI POP DUP6 DUP4 ADD MLOAD JUMPDEST PUSH1 0x0 NOT PUSH1 0x3 DUP7 SWAP1 SHL SHR NOT AND PUSH1 0x1 DUP6 SWAP1 SHL OR DUP6 SSTORE PUSH3 0x37D JUMP JUMPDEST PUSH1 0x0 DUP6 DUP2 MSTORE PUSH1 0x20 DUP2 KECCAK256 PUSH1 0x1F NOT DUP7 AND SWAP2 JUMPDEST DUP3 DUP2 LT ISZERO PUSH3 0xB25 JUMPI DUP9 DUP7 ADD MLOAD DUP3 SSTORE SWAP5 DUP5 ADD SWAP5 PUSH1 0x1 SWAP1 SWAP2 ADD SWAP1 DUP5 ADD PUSH3 0xB04 JUMP JUMPDEST POP DUP6 DUP3 LT ISZERO PUSH3 0xB44 JUMPI DUP8 DUP6 ADD MLOAD PUSH1 0x0 NOT PUSH1 0x3 DUP9 SWAP1 SHL PUSH1 0xF8 AND SHR NOT AND DUP2 SSTORE JUMPDEST POP POP POP POP POP PUSH1 0x1 SWAP1 DUP2 SHL ADD SWAP1 SSTORE POP JUMP JUMPDEST PUSH1 0x80 MLOAD PUSH1 0xA0 MLOAD PUSH2 0x39B0 PUSH3 0xB7A PUSH1 0x0 CODECOPY PUSH1 0x0 PUSH2 0x4CA ADD MSTORE PUSH1 0x0 PUSH2 0x19FC ADD MSTORE PUSH2 0x39B0 PUSH1 0x0 RETURN INVALID PUSH1 0x80 PUSH1 0x40 MSTORE CALLVALUE DUP1 ISZERO PUSH2 0x10 JUMPI PUSH1 0x0 DUP1 REVERT JUMPDEST POP PUSH1 0x4 CALLDATASIZE LT PUSH2 0x327 JUMPI PUSH1 0x0 CALLDATALOAD PUSH1 0xE0 SHR DUP1 PUSH4 0x78F86AFC GT PUSH2 0x1B8 JUMPI DUP1 PUSH4 0xD0516650 GT PUSH2 0x104 JUMPI DUP1 PUSH4 0xDD62ED3E GT PUSH2 0xA2 JUMPI DUP1 PUSH4 0xE803855E GT PUSH2 0x7C JUMPI DUP1 PUSH4 0xE803855E EQ PUSH2 0x736 JUMPI DUP1 PUSH4 0xFB1CB59E EQ PUSH2 0x749 JUMPI DUP1 PUSH4 0xFB78ED40 EQ PUSH2 0x75C JUMPI DUP1 PUSH4 0xFCF196B4 EQ PUSH2 0x764 JUMPI PUSH1 0x0 DUP1 REVERT JUMPDEST DUP1 PUSH4 0xDD62ED3E EQ PUSH2 0x6FB JUMPI DUP1 PUSH4 0xE2D6F634 EQ PUSH2 0x70E JUMPI DUP1 PUSH4 0xE63AB1E9 EQ PUSH2 0x721 JUMPI PUSH1 0x0 DUP1 REVERT JUMPDEST DUP1 PUSH4 0xD5025625 GT PUSH2 0xDE JUMPI DUP1 PUSH4 0xD5025625 EQ PUSH2 0x6A6 JUMPI DUP1 PUSH4 0xD5391393 EQ PUSH2 0x6AE JUMPI DUP1 PUSH4 0xD547741F EQ PUSH2 0x6D5 JUMPI DUP1 PUSH4 0xDCFD616F EQ PUSH2 0x6E8 JUMPI PUSH1 0x0 DUP1 REVERT JUMPDEST DUP1 PUSH4 0xD0516650 EQ PUSH2 0x654 JUMPI DUP1 PUSH4 0xD21268EF EQ PUSH2 0x680 JUMPI DUP1 PUSH4 0xD4CE1415 EQ PUSH2 0x693 JUMPI PUSH1 0x0 DUP1 REVERT JUMPDEST DUP1 PUSH4 0xA217FDDF GT PUSH2 0x171 JUMPI DUP1 PUSH4 0xA4A0A301 GT PUSH2 0x14B JUMPI DUP1 PUSH4 0xA4A0A301 EQ PUSH2 0x606 JUMPI DUP1 PUSH4 0xA9059CBB EQ PUSH2 0x619 JUMPI DUP1 PUSH4 0xBE370B4F EQ PUSH2 0x62C JUMPI DUP1 PUSH4 0xC6946A12 EQ PUSH2 0x641 JUMPI PUSH1 0x0 DUP1 REVERT JUMPDEST DUP1 PUSH4 0xA217FDDF EQ PUSH2 0x5D8 JUMPI DUP1 PUSH4 0xA312E155 EQ PUSH2 0x5E0 JUMPI DUP1 PUSH4 0xA457C2D7 EQ PUSH2 0x5F3 JUMPI PUSH1 0x0 DUP1 REVERT JUMPDEST DUP1 PUSH4 0x78F86AFC EQ PUSH2 0x57C JUMPI DUP1 PUSH4 0x7F4AB1DD EQ PUSH2 0x58F JUMPI DUP1 PUSH4 0x8430D011 EQ PUSH2 0x5A2 JUMPI DUP1 PUSH4 0x8456CB59 EQ PUSH2 0x5B5 JUMPI DUP1 PUSH4 0x91D14854 EQ PUSH2 0x5BD JUMPI DUP1 PUSH4 0x95D89B41 EQ PUSH2 0x5D0 JUMPI PUSH1 0x0 DUP1 REVERT JUMPDEST DUP1 PUSH4 0x3C07AF0F GT PUSH2 0x277 JUMPI DUP1 PUSH4 0x572B6C05 GT PUSH2 0x230 JUMPI DUP1 PUSH4 0x634DAF76 GT PUSH2 0x20A JUMPI DUP1 PUSH4 0x634DAF76 EQ PUSH2 0x518 JUMPI DUP1 PUSH4 0x6439FD75 EQ PUSH2 0x52B JUMPI DUP1 PUSH4 0x70A08231 EQ PUSH2 0x540 JUMPI DUP1 PUSH4 0x75BF8FE7 EQ PUSH2 0x569 JUMPI PUSH1 0x0 DUP1 REVERT JUMPDEST DUP1 PUSH4 0x572B6C05 EQ PUSH2 0x4BA JUMPI DUP1 PUSH4 0x5C975ABB EQ PUSH2 0x4FA JUMPI DUP1 PUSH4 0x5EE7A942 EQ PUSH2 0x505 JUMPI PUSH1 0x0 DUP1 REVERT JUMPDEST DUP1 PUSH4 0x3C07AF0F EQ PUSH2 0x45E JUMPI DUP1 PUSH4 0x3F4BA83A EQ PUSH2 0x471 JUMPI DUP1 PUSH4 0x3F4F9067 EQ PUSH2 0x479 JUMPI DUP1 PUSH4 0x40C10F19 EQ PUSH2 0x48C JUMPI DUP1 PUSH4 0x41C0E1B5 EQ PUSH2 0x49F JUMPI DUP1 PUSH4 0x426A8493 EQ PUSH2 0x4A7 JUMPI PUSH1 0x0 DUP1 REVERT JUMPDEST DUP1 PUSH4 0x246B72EC GT PUSH2 0x2E4 JUMPI DUP1 PUSH4 0x2F2FF15D GT PUSH2 0x2BE JUMPI DUP1 PUSH4 0x2F2FF15D EQ PUSH2 0x409 JUMPI DUP1 PUSH4 0x313CE567 EQ PUSH2 0x41E JUMPI DUP1 PUSH4 0x36568ABE EQ PUSH2 0x438 JUMPI DUP1 PUSH4 0x39509351 EQ PUSH2 0x44B JUMPI PUSH1 0x0 DUP1 REVERT JUMPDEST DUP1 PUSH4 0x246B72EC EQ PUSH2 0x3A9 JUMPI DUP1 PUSH4 0x248A9CA3 EQ PUSH2 0x3BE JUMPI DUP1 PUSH4 0x282C51F3 EQ PUSH2 0x3E2 JUMPI PUSH1 0x0 DUP1 REVERT JUMPDEST DUP1 PUSH4 0x1FFC9A7 EQ PUSH2 0x32C JUMPI DUP1 PUSH4 0x6FDDE03 EQ PUSH2 0x354 JUMPI DUP1 PUSH4 0x95EA7B3 EQ PUSH2 0x369 JUMPI DUP1 PUSH4 0x17D70F7C EQ PUSH2 0x37C JUMPI DUP1 PUSH4 0x18160DDD EQ PUSH2 0x384 JUMPI DUP1 PUSH4 0x23B872DD EQ PUSH2 0x396 JUMPI JUMPDEST PUSH1 0x0 DUP1 REVERT JUMPDEST PUSH2 0x33F PUSH2 0x33A CALLDATASIZE PUSH1 0x4 PUSH2 0x3086 JUMP JUMPDEST PUSH2 0x78F JUMP JUMPDEST PUSH1 0x40 MLOAD SWAP1 ISZERO ISZERO DUP2 MSTORE PUSH1 0x20 ADD JUMPDEST PUSH1 0x40 MLOAD DUP1 SWAP2 SUB SWAP1 RETURN JUMPDEST PUSH2 0x35C PUSH2 0x7C6 JUMP JUMPDEST PUSH1 0x40 MLOAD PUSH2 0x34B SWAP2 SWAP1 PUSH2 0x30D4 JUMP JUMPDEST PUSH2 0x33F PUSH2 0x377 CALLDATASIZE PUSH1 0x4 PUSH2 0x3127 JUMP JUMPDEST PUSH2 0x858 JUMP JUMPDEST PUSH2 0x35C PUSH2 0x870 JUMP JUMPDEST PUSH1 0xCD SLOAD JUMPDEST PUSH1 0x40 MLOAD SWAP1 DUP2 MSTORE PUSH1 0x20 ADD PUSH2 0x34B JUMP JUMPDEST PUSH2 0x33F PUSH2 0x3A4 CALLDATASIZE PUSH1 0x4 PUSH2 0x3153 JUMP JUMPDEST PUSH2 0x8FF JUMP JUMPDEST PUSH2 0x388 PUSH1 0x0 DUP1 MLOAD PUSH1 0x20 PUSH2 0x393B DUP4 CODECOPY DUP2 MLOAD SWAP2 MSTORE DUP2 JUMP JUMPDEST PUSH2 0x388 PUSH2 0x3CC CALLDATASIZE PUSH1 0x4 PUSH2 0x3194 JUMP JUMPDEST PUSH1 0x0 SWAP1 DUP2 MSTORE PUSH2 0x167 PUSH1 0x20 MSTORE PUSH1 0x40 SWAP1 KECCAK256 PUSH1 0x1 ADD SLOAD SWAP1 JUMP JUMPDEST PUSH2 0x388 PUSH32 0x3C11D16CBAFFD01DF69CE1C404F6340EE057498F5F00246190EA54220576A848 DUP2 JUMP JUMPDEST PUSH2 0x41C PUSH2 0x417 CALLDATASIZE PUSH1 0x4 PUSH2 0x31AD JUMP JUMPDEST PUSH2 0x916 JUMP JUMPDEST STOP JUMPDEST PUSH2 0x426 PUSH2 0x941 JUMP JUMPDEST PUSH1 0x40 MLOAD PUSH1 0xFF SWAP1 SWAP2 AND DUP2 MSTORE PUSH1 0x20 ADD PUSH2 0x34B JUMP JUMPDEST PUSH2 0x41C PUSH2 0x446 CALLDATASIZE PUSH1 0x4 PUSH2 0x31AD JUMP JUMPDEST PUSH2 0x955 JUMP JUMPDEST PUSH2 0x33F PUSH2 0x459 CALLDATASIZE PUSH1 0x4 PUSH2 0x3127 JUMP JUMPDEST PUSH2 0x9D8 JUMP JUMPDEST PUSH2 0x41C PUSH2 0x46C CALLDATASIZE PUSH1 0x4 PUSH2 0x3194 JUMP JUMPDEST PUSH2 0x9FA JUMP JUMPDEST PUSH2 0x41C PUSH2 0xA1B JUMP JUMPDEST PUSH2 0x33F PUSH2 0x487 CALLDATASIZE PUSH1 0x4 PUSH2 0x32A2 JUMP JUMPDEST PUSH2 0xA3E JUMP JUMPDEST PUSH2 0x41C PUSH2 0x49A CALLDATASIZE PUSH1 0x4 PUSH2 0x3127 JUMP JUMPDEST PUSH2 0xA6A JUMP JUMPDEST PUSH2 0x41C PUSH2 0xAE6 JUMP JUMPDEST PUSH2 0x33F PUSH2 0x4B5 CALLDATASIZE PUSH1 0x4 PUSH2 0x32F2 JUMP JUMPDEST PUSH2 0xB09 JUMP JUMPDEST PUSH2 0x33F PUSH2 0x4C8 CALLDATASIZE PUSH1 0x4 PUSH2 0x3327 JUMP JUMPDEST PUSH32 0x0 PUSH1 0x1 PUSH1 0x1 PUSH1 0xA0 SHL SUB SWAP1 DUP2 AND SWAP2 AND EQ SWAP1 JUMP JUMPDEST PUSH1 0x66 SLOAD PUSH1 0xFF AND PUSH2 0x33F JUMP JUMPDEST PUSH2 0x388 PUSH2 0x513 CALLDATASIZE PUSH1 0x4 PUSH2 0x3194 JUMP JUMPDEST PUSH2 0xB86 JUMP JUMPDEST PUSH2 0x388 PUSH2 0x526 CALLDATASIZE PUSH1 0x4 PUSH2 0x31AD JUMP JUMPDEST PUSH2 0xBA7 JUMP JUMPDEST PUSH2 0x388 PUSH1 0x0 DUP1 MLOAD PUSH1 0x20 PUSH2 0x395B DUP4 CODECOPY DUP2 MLOAD SWAP2 MSTORE DUP2 JUMP JUMPDEST PUSH2 0x388 PUSH2 0x54E CALLDATASIZE PUSH1 0x4 PUSH2 0x3327 JUMP JUMPDEST PUSH1 0x1 PUSH1 0x1 PUSH1 0xA0 SHL SUB AND PUSH1 0x0 SWAP1 DUP2 MSTORE PUSH1 0xCB PUSH1 0x20 MSTORE PUSH1 0x40 SWAP1 KECCAK256 SLOAD SWAP1 JUMP JUMPDEST PUSH2 0x33F PUSH2 0x577 CALLDATASIZE PUSH1 0x4 PUSH2 0x32A2 JUMP JUMPDEST PUSH2 0xC00 JUMP JUMPDEST PUSH2 0x41C PUSH2 0x58A CALLDATASIZE PUSH1 0x4 PUSH2 0x3344 JUMP JUMPDEST PUSH2 0xC24 JUMP JUMPDEST PUSH2 0x35C PUSH2 0x59D CALLDATASIZE PUSH1 0x4 PUSH2 0x3388 JUMP JUMPDEST PUSH2 0xC7F JUMP JUMPDEST PUSH2 0x41C PUSH2 0x5B0 CALLDATASIZE PUSH1 0x4 PUSH2 0x3194 JUMP JUMPDEST PUSH2 0xD4B JUMP JUMPDEST PUSH2 0x41C PUSH2 0xD6C JUMP JUMPDEST PUSH2 0x33F PUSH2 0x5CB CALLDATASIZE PUSH1 0x4 PUSH2 0x31AD JUMP JUMPDEST PUSH2 0xD8C JUMP JUMPDEST PUSH2 0x35C PUSH2 0xDB8 JUMP JUMPDEST PUSH2 0x388 PUSH1 0x0 DUP2 JUMP JUMPDEST PUSH2 0x41C PUSH2 0x5EE CALLDATASIZE PUSH1 0x4 PUSH2 0x3194 JUMP JUMPDEST PUSH2 0xDC7 JUMP JUMPDEST PUSH2 0x33F PUSH2 0x601 CALLDATASIZE PUSH1 0x4 PUSH2 0x3127 JUMP JUMPDEST PUSH2 0xDE8 JUMP JUMPDEST PUSH2 0x41C PUSH2 0x614 CALLDATASIZE PUSH1 0x4 PUSH2 0x3327 JUMP JUMPDEST PUSH2 0xE63 JUMP JUMPDEST PUSH2 0x33F PUSH2 0x627 CALLDATASIZE PUSH1 0x4 PUSH2 0x3127 JUMP JUMPDEST PUSH2 0xEB9 JUMP JUMPDEST PUSH2 0x634 PUSH2 0xEC7 JUMP JUMPDEST PUSH1 0x40 MLOAD PUSH2 0x34B SWAP2 SWAP1 PUSH2 0x33A5 JUMP JUMPDEST PUSH2 0x33F PUSH2 0x64F CALLDATASIZE PUSH1 0x4 PUSH2 0x3153 JUMP JUMPDEST PUSH2 0xF1F JUMP JUMPDEST PUSH2 0x33F PUSH2 0x662 CALLDATASIZE PUSH1 0x4 PUSH2 0x3327 JUMP JUMPDEST PUSH1 0x1 PUSH1 0x1 PUSH1 0xA0 SHL SUB AND PUSH1 0x0 SWAP1 DUP2 MSTORE PUSH1 0x98 PUSH1 0x20 MSTORE PUSH1 0x40 SWAP1 KECCAK256 SLOAD PUSH1 0xFF AND SWAP1 JUMP JUMPDEST PUSH2 0x41C PUSH2 0x68E CALLDATASIZE PUSH1 0x4 PUSH2 0x33E9 JUMP JUMPDEST PUSH2 0xF45 JUMP JUMPDEST PUSH2 0x426 PUSH2 0x6A1 CALLDATASIZE PUSH1 0x4 PUSH2 0x3153 JUMP JUMPDEST PUSH2 0xF67 JUMP JUMPDEST PUSH2 0x35C PUSH2 0xFCC JUMP JUMPDEST PUSH2 0x388 PUSH32 0x9F2DF0FED2C77648DE5860A4CC508CD0818C85B8B8A1AB4CEEEF8D981C8956A6 DUP2 JUMP JUMPDEST PUSH2 0x41C PUSH2 0x6E3 CALLDATASIZE PUSH1 0x4 PUSH2 0x31AD JUMP JUMPDEST PUSH2 0xFDA JUMP JUMPDEST PUSH2 0x41C PUSH2 0x6F6 CALLDATASIZE PUSH1 0x4 PUSH2 0x3344 JUMP JUMPDEST PUSH2 0x1000 JUMP JUMPDEST PUSH2 0x388 PUSH2 0x709 CALLDATASIZE PUSH1 0x4 PUSH2 0x340B JUMP JUMPDEST PUSH2 0x105B JUMP JUMPDEST PUSH2 0x41C PUSH2 0x71C CALLDATASIZE PUSH1 0x4 PUSH2 0x3127 JUMP JUMPDEST PUSH2 0x1086 JUMP JUMPDEST PUSH2 0x388 PUSH1 0x0 DUP1 MLOAD PUSH1 0x20 PUSH2 0x391B DUP4 CODECOPY DUP2 MLOAD SWAP2 MSTORE DUP2 JUMP JUMPDEST PUSH2 0x41C PUSH2 0x744 CALLDATASIZE PUSH1 0x4 PUSH2 0x3452 JUMP JUMPDEST PUSH2 0x10F5 JUMP JUMPDEST PUSH2 0x41C PUSH2 0x757 CALLDATASIZE PUSH1 0x4 PUSH2 0x3194 JUMP JUMPDEST PUSH2 0x1212 JUMP JUMPDEST PUSH2 0x634 PUSH2 0x1233 JUMP JUMPDEST PUSH1 0x33 SLOAD PUSH2 0x777 SWAP1 PUSH1 0x1 PUSH1 0x1 PUSH1 0xA0 SHL SUB AND DUP2 JUMP JUMPDEST PUSH1 0x40 MLOAD PUSH1 0x1 PUSH1 0x1 PUSH1 0xA0 SHL SUB SWAP1 SWAP2 AND DUP2 MSTORE PUSH1 0x20 ADD PUSH2 0x34B JUMP JUMPDEST PUSH1 0x0 PUSH1 0x1 PUSH1 0x1 PUSH1 0xE0 SHL SUB NOT DUP3 AND PUSH4 0x7965DB0B PUSH1 0xE0 SHL EQ DUP1 PUSH2 0x7C0 JUMPI POP PUSH4 0x1FFC9A7 PUSH1 0xE0 SHL PUSH1 0x1 PUSH1 0x1 PUSH1 0xE0 SHL SUB NOT DUP4 AND EQ JUMPDEST SWAP3 SWAP2 POP POP JUMP JUMPDEST PUSH1 0x60 PUSH1 0xCE DUP1 SLOAD PUSH2 0x7D5 SWAP1 PUSH2 0x351F JUMP JUMPDEST DUP1 PUSH1 0x1F ADD PUSH1 0x20 DUP1 SWAP2 DIV MUL PUSH1 0x20 ADD PUSH1 0x40 MLOAD SWAP1 DUP2 ADD PUSH1 0x40 MSTORE DUP1 SWAP3 SWAP2 SWAP1 DUP2 DUP2 MSTORE PUSH1 0x20 ADD DUP3 DUP1 SLOAD PUSH2 0x801 SWAP1 PUSH2 0x351F JUMP JUMPDEST DUP1 ISZERO PUSH2 0x84E JUMPI DUP1 PUSH1 0x1F LT PUSH2 0x823 JUMPI PUSH2 0x100 DUP1 DUP4 SLOAD DIV MUL DUP4 MSTORE SWAP2 PUSH1 0x20 ADD SWAP2 PUSH2 0x84E JUMP JUMPDEST DUP3 ADD SWAP2 SWAP1 PUSH1 0x0 MSTORE PUSH1 0x20 PUSH1 0x0 KECCAK256 SWAP1 JUMPDEST DUP2 SLOAD DUP2 MSTORE SWAP1 PUSH1 0x1 ADD SWAP1 PUSH1 0x20 ADD DUP1 DUP4 GT PUSH2 0x831 JUMPI DUP3 SWAP1 SUB PUSH1 0x1F AND DUP3 ADD SWAP2 JUMPDEST POP POP POP POP POP SWAP1 POP SWAP1 JUMP JUMPDEST PUSH1 0x0 CALLER PUSH2 0x866 DUP2 DUP6 DUP6 PUSH2 0x13CE JUMP JUMPDEST POP PUSH1 0x1 SWAP4 SWAP3 POP POP POP JUMP JUMPDEST PUSH2 0x1CC DUP1 SLOAD PUSH2 0x87E SWAP1 PUSH2 0x351F JUMP JUMPDEST DUP1 PUSH1 0x1F ADD PUSH1 0x20 DUP1 SWAP2 DIV MUL PUSH1 0x20 ADD PUSH1 0x40 MLOAD SWAP1 DUP2 ADD PUSH1 0x40 MSTORE DUP1 SWAP3 SWAP2 SWAP1 DUP2 DUP2 MSTORE PUSH1 0x20 ADD DUP3 DUP1 SLOAD PUSH2 0x8AA SWAP1 PUSH2 0x351F JUMP JUMPDEST DUP1 ISZERO PUSH2 0x8F7 JUMPI DUP1 PUSH1 0x1F LT PUSH2 0x8CC JUMPI PUSH2 0x100 DUP1 DUP4 SLOAD DIV MUL DUP4 MSTORE SWAP2 PUSH1 0x20 ADD SWAP2 PUSH2 0x8F7 JUMP JUMPDEST DUP3 ADD SWAP2 SWAP1 PUSH1 0x0 MSTORE PUSH1 0x20 PUSH1 0x0 KECCAK256 SWAP1 JUMPDEST DUP2 SLOAD DUP2 MSTORE SWAP1 PUSH1 0x1 ADD SWAP1 PUSH1 0x20 ADD DUP1 DUP4 GT PUSH2 0x8DA JUMPI DUP3 SWAP1 SUB PUSH1 0x1F AND DUP3 ADD SWAP2 JUMPDEST POP POP POP POP POP DUP2 JUMP JUMPDEST PUSH1 0x0 PUSH2 0x90C DUP5 DUP5 DUP5 PUSH2 0x14F2 JUMP JUMPDEST SWAP1 POP JUMPDEST SWAP4 SWAP3 POP POP POP JUMP JUMPDEST PUSH1 0x0 DUP3 DUP2 MSTORE PUSH2 0x167 PUSH1 0x20 MSTORE PUSH1 0x40 SWAP1 KECCAK256 PUSH1 0x1 ADD SLOAD PUSH2 0x932 DUP2 PUSH2 0x1554 JUMP JUMPDEST PUSH2 0x93C DUP4 DUP4 PUSH2 0x155E JUMP JUMPDEST POP POP POP JUMP JUMPDEST PUSH1 0x0 PUSH2 0x950 PUSH2 0x390 SLOAD PUSH1 0xFF AND SWAP1 JUMP JUMPDEST SWAP1 POP SWAP1 JUMP JUMPDEST PUSH1 0x1 PUSH1 0x1 PUSH1 0xA0 SHL SUB DUP2 AND CALLER EQ PUSH2 0x9CA JUMPI PUSH1 0x40 MLOAD PUSH3 0x461BCD PUSH1 0xE5 SHL DUP2 MSTORE PUSH1 0x20 PUSH1 0x4 DUP3 ADD MSTORE PUSH1 0x2F PUSH1 0x24 DUP3 ADD MSTORE PUSH32 0x416363657373436F6E74726F6C3A2063616E206F6E6C792072656E6F756E6365 PUSH1 0x44 DUP3 ADD MSTORE PUSH15 0x103937B632B9903337B91039B2B633 PUSH1 0x89 SHL PUSH1 0x64 DUP3 ADD MSTORE PUSH1 0x84 ADD JUMPDEST PUSH1 0x40 MLOAD DUP1 SWAP2 SUB SWAP1 REVERT JUMPDEST PUSH2 0x9D4 DUP3 DUP3 PUSH2 0x15E5 JUMP JUMPDEST POP POP JUMP JUMPDEST PUSH1 0x0 CALLER PUSH2 0x866 DUP2 DUP6 DUP6 PUSH2 0x9EB DUP4 DUP4 PUSH2 0x105B JUMP JUMPDEST PUSH2 0x9F5 SWAP2 SWAP1 PUSH2 0x356F JUMP JUMPDEST PUSH2 0x13CE JUMP JUMPDEST PUSH1 0x0 DUP1 MLOAD PUSH1 0x20 PUSH2 0x393B DUP4 CODECOPY DUP2 MLOAD SWAP2 MSTORE PUSH2 0xA12 DUP2 PUSH2 0x1554 JUMP JUMPDEST PUSH2 0x9D4 DUP3 PUSH2 0x164D JUMP JUMPDEST PUSH1 0x0 DUP1 MLOAD PUSH1 0x20 PUSH2 0x391B DUP4 CODECOPY DUP2 MLOAD SWAP2 MSTORE PUSH2 0xA33 DUP2 PUSH2 0x1554 JUMP JUMPDEST PUSH2 0xA3B PUSH2 0x1817 JUMP JUMPDEST POP JUMP JUMPDEST PUSH1 0x0 PUSH1 0x0 DUP1 MLOAD PUSH1 0x20 PUSH2 0x395B DUP4 CODECOPY DUP2 MLOAD SWAP2 MSTORE PUSH2 0xA58 DUP2 PUSH2 0x1554 JUMP JUMPDEST PUSH2 0xA62 DUP5 DUP5 PUSH2 0x1869 JUMP JUMPDEST SWAP5 SWAP4 POP POP POP POP JUMP JUMPDEST PUSH32 0x9F2DF0FED2C77648DE5860A4CC508CD0818C85B8B8A1AB4CEEEF8D981C8956A6 PUSH2 0xA94 DUP2 PUSH2 0x1554 JUMP JUMPDEST PUSH2 0xA9E DUP4 DUP4 PUSH2 0x1925 JUMP JUMPDEST DUP3 PUSH1 0x1 PUSH1 0x1 PUSH1 0xA0 SHL SUB AND PUSH32 0xF6798A560793A54C3BCFE86A93CDE1E73087D944C0EA20544137D4121396885 DUP4 PUSH1 0x40 MLOAD PUSH2 0xAD9 SWAP2 DUP2 MSTORE PUSH1 0x20 ADD SWAP1 JUMP JUMPDEST PUSH1 0x40 MLOAD DUP1 SWAP2 SUB SWAP1 LOG2 POP POP POP JUMP JUMPDEST PUSH1 0x0 PUSH2 0xAF1 DUP2 PUSH2 0x1554 JUMP JUMPDEST PUSH2 0x1CB SLOAD PUSH1 0xFF AND DUP1 ISZERO PUSH2 0xB06 JUMPI PUSH2 0xB06 PUSH2 0x19F2 JUMP JUMPDEST CALLER SELFDESTRUCT JUMPDEST PUSH1 0x0 DUP2 PUSH2 0xB16 CALLER DUP7 PUSH2 0x105B JUMP JUMPDEST EQ PUSH2 0xB71 JUMPI PUSH1 0x40 MLOAD PUSH3 0x461BCD PUSH1 0xE5 SHL DUP2 MSTORE PUSH1 0x20 PUSH1 0x4 DUP3 ADD MSTORE PUSH1 0x25 PUSH1 0x24 DUP3 ADD MSTORE PUSH32 0x434D5441543A2063757272656E7420616C6C6F77616E6365206973206E6F7420 PUSH1 0x44 DUP3 ADD MSTORE PUSH5 0x1C9A59DA1D PUSH1 0xDA SHL PUSH1 0x64 DUP3 ADD MSTORE PUSH1 0x84 ADD PUSH2 0x9C1 JUMP JUMPDEST PUSH2 0xB7B DUP5 DUP5 PUSH2 0x858 JUMP JUMPDEST POP PUSH1 0x1 SWAP5 SWAP4 POP POP POP POP JUMP JUMPDEST PUSH1 0x0 DUP1 PUSH1 0x0 PUSH2 0xB96 DUP5 PUSH1 0xFE PUSH2 0x1A82 JUMP JUMPDEST SWAP2 POP SWAP2 POP DUP2 PUSH2 0x90F JUMPI PUSH1 0xCD SLOAD PUSH2 0xA62 JUMP JUMPDEST PUSH1 0x1 PUSH1 0x1 PUSH1 0xA0 SHL SUB DUP2 AND PUSH1 0x0 SWAP1 DUP2 MSTORE PUSH1 0xFD PUSH1 0x20 MSTORE PUSH1 0x40 DUP2 KECCAK256 DUP2 SWAP1 DUP2 SWAP1 PUSH2 0xBCE SWAP1 DUP7 SWAP1 PUSH2 0x1A82 JUMP JUMPDEST SWAP2 POP SWAP2 POP DUP2 PUSH2 0xBF5 JUMPI PUSH1 0x1 PUSH1 0x1 PUSH1 0xA0 SHL SUB DUP5 AND PUSH1 0x0 SWAP1 DUP2 MSTORE PUSH1 0xCB PUSH1 0x20 MSTORE PUSH1 0x40 SWAP1 KECCAK256 SLOAD PUSH2 0xBF7 JUMP JUMPDEST DUP1 JUMPDEST SWAP6 SWAP5 POP POP POP POP POP JUMP JUMPDEST PUSH1 0x0 PUSH1 0x0 DUP1 MLOAD PUSH1 0x20 PUSH2 0x395B DUP4 CODECOPY DUP2 MLOAD SWAP2 MSTORE PUSH2 0xC1A DUP2 PUSH2 0x1554 JUMP JUMPDEST PUSH2 0xA62 DUP5 DUP5 PUSH2 0x1AD7 JUMP JUMPDEST PUSH1 0x0 PUSH2 0xC2F DUP2 PUSH2 0x1554 JUMP JUMPDEST PUSH2 0x1CD PUSH2 0xC3C DUP4 DUP3 PUSH2 0x35C8 JUMP JUMPDEST POP DUP2 PUSH1 0x40 MLOAD PUSH2 0xC4B SWAP2 SWAP1 PUSH2 0x3688 JUMP JUMPDEST PUSH1 0x40 MLOAD SWAP1 DUP2 SWAP1 SUB DUP2 KECCAK256 SWAP1 PUSH32 0x4AD91BE0CC2638E10A8FA52BB61221DCF70DFCD07E6BEAE6B0D5A3F75070FCF SWAP1 PUSH1 0x0 SWAP1 LOG2 POP POP JUMP JUMPDEST PUSH1 0x60 PUSH1 0xFF DUP3 AND PUSH2 0xCB3 JUMPI POP POP PUSH1 0x40 DUP1 MLOAD DUP1 DUP3 ADD SWAP1 SWAP2 MSTORE PUSH1 0xE DUP2 MSTORE PUSH14 0x2737903932B9BA3934B1BA34B7B7 PUSH1 0x91 SHL PUSH1 0x20 DUP3 ADD MSTORE SWAP1 JUMP JUMPDEST PUSH1 0x0 NOT PUSH1 0xFF DUP4 AND ADD PUSH2 0xCEF JUMPI POP POP PUSH1 0x40 DUP1 MLOAD DUP1 DUP3 ADD SWAP1 SWAP2 MSTORE PUSH1 0x14 DUP2 MSTORE PUSH20 0x105B1B081D1C985B9CD9995C9CC81C185D5CD959 PUSH1 0x62 SHL PUSH1 0x20 DUP3 ADD MSTORE SWAP1 JUMP JUMPDEST PUSH1 0x1 NOT PUSH1 0xFF DUP4 AND ADD PUSH2 0xD2C JUMPI POP POP PUSH1 0x40 DUP1 MLOAD DUP1 DUP3 ADD SWAP1 SWAP2 MSTORE PUSH1 0x15 DUP2 MSTORE PUSH21 0x2A34329030B2323932B9B99034B990333937BD32B7 PUSH1 0x59 SHL PUSH1 0x20 DUP3 ADD MSTORE SWAP1 JUMP JUMPDEST PUSH1 0x33 SLOAD PUSH1 0x1 PUSH1 0x1 PUSH1 0xA0 SHL SUB AND ISZERO PUSH2 0xD46 JUMPI PUSH2 0x7C0 DUP3 PUSH2 0x1B7E JUMP JUMPDEST SWAP2 SWAP1 POP JUMP JUMPDEST PUSH1 0x0 DUP1 MLOAD PUSH1 0x20 PUSH2 0x393B DUP4 CODECOPY DUP2 MLOAD SWAP2 MSTORE PUSH2 0xD63 DUP2 PUSH2 0x1554 JUMP JUMPDEST PUSH2 0x9D4 DUP3 PUSH2 0x1BF2 JUMP JUMPDEST PUSH1 0x0 DUP1 MLOAD PUSH1 0x20 PUSH2 0x391B DUP4 CODECOPY DUP2 MLOAD SWAP2 MSTORE PUSH2 0xD84 DUP2 PUSH2 0x1554 JUMP JUMPDEST PUSH2 0xA3B PUSH2 0x1CF9 JUMP JUMPDEST PUSH1 0x0 SWAP2 DUP3 MSTORE PUSH2 0x167 PUSH1 0x20 SWAP1 DUP2 MSTORE PUSH1 0x40 DUP1 DUP5 KECCAK256 PUSH1 0x1 PUSH1 0x1 PUSH1 0xA0 SHL SUB SWAP4 SWAP1 SWAP4 AND DUP5 MSTORE SWAP2 SWAP1 MSTORE SWAP1 KECCAK256 SLOAD PUSH1 0xFF AND SWAP1 JUMP JUMPDEST PUSH1 0x60 PUSH1 0xCF DUP1 SLOAD PUSH2 0x7D5 SWAP1 PUSH2 0x351F JUMP JUMPDEST PUSH1 0x0 DUP1 MLOAD PUSH1 0x20 PUSH2 0x393B DUP4 CODECOPY DUP2 MLOAD SWAP2 MSTORE PUSH2 0xDDF DUP2 PUSH2 0x1554 JUMP JUMPDEST PUSH2 0x9D4 DUP3 PUSH2 0x1D36 JUMP JUMPDEST PUSH1 0x0 CALLER DUP2 PUSH2 0xDF6 DUP3 DUP7 PUSH2 0x105B JUMP JUMPDEST SWAP1 POP DUP4 DUP2 LT ISZERO PUSH2 0xE56 JUMPI PUSH1 0x40 MLOAD PUSH3 0x461BCD PUSH1 0xE5 SHL DUP2 MSTORE PUSH1 0x20 PUSH1 0x4 DUP3 ADD MSTORE PUSH1 0x25 PUSH1 0x24 DUP3 ADD MSTORE PUSH32 0x45524332303A2064656372656173656420616C6C6F77616E63652062656C6F77 PUSH1 0x44 DUP3 ADD MSTORE PUSH5 0x207A65726F PUSH1 0xD8 SHL PUSH1 0x64 DUP3 ADD MSTORE PUSH1 0x84 ADD PUSH2 0x9C1 JUMP JUMPDEST PUSH2 0xB7B DUP3 DUP7 DUP7 DUP5 SUB PUSH2 0x13CE JUMP JUMPDEST PUSH1 0x0 PUSH2 0xE6E DUP2 PUSH2 0x1554 JUMP JUMPDEST PUSH1 0x33 DUP1 SLOAD PUSH1 0x1 PUSH1 0x1 PUSH1 0xA0 SHL SUB NOT AND PUSH1 0x1 PUSH1 0x1 PUSH1 0xA0 SHL SUB DUP5 AND SWAP1 DUP2 OR SWAP1 SWAP2 SSTORE PUSH1 0x40 MLOAD PUSH32 0x9C4D5C11B88D1E3D9C7AD50900CB6D10AC72853248CDC85CA868FB772E62B449 SWAP1 PUSH1 0x0 SWAP1 LOG2 POP POP JUMP JUMPDEST PUSH1 0x0 CALLER PUSH2 0x866 DUP2 DUP6 DUP6 PUSH2 0x1E56 JUMP JUMPDEST PUSH1 0x60 PUSH2 0x102 DUP1 SLOAD DUP1 PUSH1 0x20 MUL PUSH1 0x20 ADD PUSH1 0x40 MLOAD SWAP1 DUP2 ADD PUSH1 0x40 MSTORE DUP1 SWAP3 SWAP2 SWAP1 DUP2 DUP2 MSTORE PUSH1 0x20 ADD DUP3 DUP1 SLOAD DUP1 ISZERO PUSH2 0x84E JUMPI PUSH1 0x20 MUL DUP3 ADD SWAP2 SWAP1 PUSH1 0x0 MSTORE PUSH1 0x20 PUSH1 0x0 KECCAK256 SWAP1 JUMPDEST DUP2 SLOAD DUP2 MSTORE PUSH1 0x20 ADD SWAP1 PUSH1 0x1 ADD SWAP1 DUP1 DUP4 GT PUSH2 0xF02 JUMPI POP POP POP POP POP SWAP1 POP SWAP1 JUMP JUMPDEST PUSH1 0x33 SLOAD PUSH1 0x0 SWAP1 PUSH1 0x1 PUSH1 0x1 PUSH1 0xA0 SHL SUB AND ISZERO PUSH2 0x866 JUMPI PUSH2 0xF3E DUP5 DUP5 DUP5 PUSH2 0x200E JUMP JUMPDEST SWAP1 POP PUSH2 0x90F JUMP JUMPDEST PUSH1 0x0 DUP1 MLOAD PUSH1 0x20 PUSH2 0x393B DUP4 CODECOPY DUP2 MLOAD SWAP2 MSTORE PUSH2 0xF5D DUP2 PUSH2 0x1554 JUMP JUMPDEST PUSH2 0x93C DUP4 DUP4 PUSH2 0x208C JUMP JUMPDEST PUSH1 0x0 PUSH2 0xF75 PUSH1 0x66 SLOAD PUSH1 0xFF AND SWAP1 JUMP JUMPDEST ISZERO PUSH2 0xF81 JUMPI PUSH1 0x1 PUSH2 0xF3E JUMP JUMPDEST PUSH1 0x1 PUSH1 0x1 PUSH1 0xA0 SHL SUB DUP5 AND PUSH1 0x0 SWAP1 DUP2 MSTORE PUSH1 0x98 PUSH1 0x20 MSTORE PUSH1 0x40 SWAP1 KECCAK256 SLOAD PUSH1 0xFF AND ISZERO PUSH2 0xFA9 JUMPI PUSH1 0x2 PUSH2 0xF3E JUMP JUMPDEST PUSH1 0x33 SLOAD PUSH1 0x1 PUSH1 0x1 PUSH1 0xA0 SHL SUB AND ISZERO PUSH2 0xFC5 JUMPI PUSH2 0xF3E DUP5 DUP5 DUP5 PUSH2 0x22EE JUMP JUMPDEST PUSH1 0x0 PUSH2 0x90C JUMP JUMPDEST PUSH2 0x1CD DUP1 SLOAD PUSH2 0x87E SWAP1 PUSH2 0x351F JUMP JUMPDEST PUSH1 0x0 DUP3 DUP2 MSTORE PUSH2 0x167 PUSH1 0x20 MSTORE PUSH1 0x40 SWAP1 KECCAK256 PUSH1 0x1 ADD SLOAD PUSH2 0xFF6 DUP2 PUSH2 0x1554 JUMP JUMPDEST PUSH2 0x93C DUP4 DUP4 PUSH2 0x15E5 JUMP JUMPDEST PUSH1 0x0 PUSH2 0x100B DUP2 PUSH2 0x1554 JUMP JUMPDEST PUSH2 0x1CC PUSH2 0x1018 DUP4 DUP3 PUSH2 0x35C8 JUMP JUMPDEST POP DUP2 PUSH1 0x40 MLOAD PUSH2 0x1027 SWAP2 SWAP1 PUSH2 0x3688 JUMP JUMPDEST PUSH1 0x40 MLOAD SWAP1 DUP2 SWAP1 SUB DUP2 KECCAK256 SWAP1 PUSH32 0x1A3F197F2CB06B445AD0C131C52BC822947DAE771F49D55FBD17BB6E462254BD SWAP1 PUSH1 0x0 SWAP1 LOG2 POP POP JUMP JUMPDEST PUSH1 0x1 PUSH1 0x1 PUSH1 0xA0 SHL SUB SWAP2 DUP3 AND PUSH1 0x0 SWAP1 DUP2 MSTORE PUSH1 0xCC PUSH1 0x20 SWAP1 DUP2 MSTORE PUSH1 0x40 DUP1 DUP4 KECCAK256 SWAP4 SWAP1 SWAP5 AND DUP3 MSTORE SWAP2 SWAP1 SWAP2 MSTORE KECCAK256 SLOAD SWAP1 JUMP JUMPDEST PUSH32 0x3C11D16CBAFFD01DF69CE1C404F6340EE057498F5F00246190EA54220576A848 PUSH2 0x10B0 DUP2 PUSH2 0x1554 JUMP JUMPDEST PUSH2 0x10BA DUP4 DUP4 PUSH2 0x236C JUMP JUMPDEST DUP3 PUSH1 0x1 PUSH1 0x1 PUSH1 0xA0 SHL SUB AND PUSH32 0xCC16F5DBB4873280815C1EE09DBD06736CFFCC184412CF7A71A0FDB75D397CA5 DUP4 PUSH1 0x40 MLOAD PUSH2 0xAD9 SWAP2 DUP2 MSTORE PUSH1 0x20 ADD SWAP1 JUMP JUMPDEST PUSH1 0x0 SLOAD PUSH2 0x100 SWAP1 DIV PUSH1 0xFF AND ISZERO DUP1 DUP1 ISZERO PUSH2 0x1115 JUMPI POP PUSH1 0x0 SLOAD PUSH1 0x1 PUSH1 0xFF SWAP1 SWAP2 AND LT JUMPDEST DUP1 PUSH2 0x112F JUMPI POP ADDRESS EXTCODESIZE ISZERO DUP1 ISZERO PUSH2 0x112F JUMPI POP PUSH1 0x0 SLOAD PUSH1 0xFF AND PUSH1 0x1 EQ JUMPDEST PUSH2 0x1192 JUMPI PUSH1 0x40 MLOAD PUSH3 0x461BCD PUSH1 0xE5 SHL DUP2 MSTORE PUSH1 0x20 PUSH1 0x4 DUP3 ADD MSTORE PUSH1 0x2E PUSH1 0x24 DUP3 ADD MSTORE PUSH32 0x496E697469616C697A61626C653A20636F6E747261637420697320616C726561 PUSH1 0x44 DUP3 ADD MSTORE PUSH14 0x191E481A5B9A5D1A585B1A5E9959 PUSH1 0x92 SHL PUSH1 0x64 DUP3 ADD MSTORE PUSH1 0x84 ADD PUSH2 0x9C1 JUMP JUMPDEST PUSH1 0x0 DUP1 SLOAD PUSH1 0xFF NOT AND PUSH1 0x1 OR SWAP1 SSTORE DUP1 ISZERO PUSH2 0x11B5 JUMPI PUSH1 0x0 DUP1 SLOAD PUSH2 0xFF00 NOT AND PUSH2 0x100 OR SWAP1 SSTORE JUMPDEST PUSH2 0x11C3 DUP8 DUP8 DUP8 DUP8 DUP8 DUP8 PUSH2 0x24AC JUMP JUMPDEST DUP1 ISZERO PUSH2 0x1209 JUMPI PUSH1 0x0 DUP1 SLOAD PUSH2 0xFF00 NOT AND SWAP1 SSTORE PUSH1 0x40 MLOAD PUSH1 0x1 DUP2 MSTORE PUSH32 0x7F26B83FF96E1F2B6A682F133852F6798A09C465DA95921460CEFB3847402498 SWAP1 PUSH1 0x20 ADD PUSH1 0x40 MLOAD DUP1 SWAP2 SUB SWAP1 LOG1 JUMPDEST POP POP POP POP POP POP POP JUMP JUMPDEST PUSH1 0x0 DUP1 MLOAD PUSH1 0x20 PUSH2 0x393B DUP4 CODECOPY DUP2 MLOAD SWAP2 MSTORE PUSH2 0x122A DUP2 PUSH2 0x1554 JUMP JUMPDEST PUSH2 0x9D4 DUP3 PUSH2 0x256B JUMP JUMPDEST PUSH1 0x40 DUP1 MLOAD PUSH1 0x0 DUP2 MSTORE PUSH1 0x20 DUP2 ADD SWAP1 SWAP2 MSTORE PUSH2 0x102 SLOAD PUSH1 0x60 SWAP2 SWAP1 ISZERO PUSH2 0xD46 JUMPI PUSH1 0x0 DUP1 PUSH2 0x125A PUSH2 0x26B6 JUMP JUMPDEST SWAP2 POP SWAP2 POP DUP2 PUSH1 0x0 EQ DUP1 ISZERO PUSH2 0x126F JUMPI POP PUSH2 0x100 SLOAD ISZERO JUMPDEST ISZERO PUSH2 0x12CE JUMPI PUSH2 0x102 DUP1 SLOAD DUP1 PUSH1 0x20 MUL PUSH1 0x20 ADD PUSH1 0x40 MLOAD SWAP1 DUP2 ADD PUSH1 0x40 MSTORE DUP1 SWAP3 SWAP2 SWAP1 DUP2 DUP2 MSTORE PUSH1 0x20 ADD DUP3 DUP1 SLOAD DUP1 ISZERO PUSH2 0x12C1 JUMPI PUSH1 0x20 MUL DUP3 ADD SWAP2 SWAP1 PUSH1 0x0 MSTORE PUSH1 0x20 PUSH1 0x0 KECCAK256 SWAP1 JUMPDEST DUP2 SLOAD DUP2 MSTORE PUSH1 0x20 ADD SWAP1 PUSH1 0x1 ADD SWAP1 DUP1 DUP4 GT PUSH2 0x12AD JUMPI JUMPDEST POP POP POP POP POP SWAP4 POP POP POP POP SWAP1 JUMP JUMPDEST PUSH2 0x102 SLOAD PUSH2 0x12DD DUP3 PUSH1 0x1 PUSH2 0x356F JUMP JUMPDEST EQ PUSH2 0x13B8 JUMPI PUSH2 0x102 SLOAD PUSH1 0x0 SWAP1 PUSH1 0x1 SWAP1 PUSH2 0x12F7 SWAP1 DUP5 SWAP1 PUSH2 0x36A4 JUMP JUMPDEST PUSH2 0x1301 SWAP2 SWAP1 PUSH2 0x36A4 JUMP JUMPDEST SWAP1 POP DUP1 PUSH8 0xFFFFFFFFFFFFFFFF DUP2 GT ISZERO PUSH2 0x131C JUMPI PUSH2 0x131C PUSH2 0x31DD JUMP JUMPDEST PUSH1 0x40 MLOAD SWAP1 DUP1 DUP3 MSTORE DUP1 PUSH1 0x20 MUL PUSH1 0x20 ADD DUP3 ADD PUSH1 0x40 MSTORE DUP1 ISZERO PUSH2 0x1345 JUMPI DUP2 PUSH1 0x20 ADD PUSH1 0x20 DUP3 MUL DUP1 CALLDATASIZE DUP4 CALLDATACOPY ADD SWAP1 POP JUMPDEST POP SWAP4 POP PUSH1 0x0 JUMPDEST DUP5 MLOAD DUP2 LT ISZERO PUSH2 0x13B5 JUMPI PUSH2 0x102 DUP2 PUSH2 0x1363 DUP6 PUSH1 0x1 PUSH2 0x356F JUMP JUMPDEST PUSH2 0x136D SWAP2 SWAP1 PUSH2 0x356F JUMP JUMPDEST DUP2 SLOAD DUP2 LT PUSH2 0x137D JUMPI PUSH2 0x137D PUSH2 0x36B7 JUMP JUMPDEST SWAP1 PUSH1 0x0 MSTORE PUSH1 0x20 PUSH1 0x0 KECCAK256 ADD SLOAD DUP6 DUP3 DUP2 MLOAD DUP2 LT PUSH2 0x139A JUMPI PUSH2 0x139A PUSH2 0x36B7 JUMP JUMPDEST PUSH1 0x20 SWAP1 DUP2 MUL SWAP2 SWAP1 SWAP2 ADD ADD MSTORE PUSH2 0x13AE DUP2 PUSH2 0x36CD JUMP JUMPDEST SWAP1 POP PUSH2 0x134B JUMP JUMPDEST POP POP JUMPDEST POP POP SWAP2 SWAP1 POP JUMP JUMPDEST PUSH1 0x1 PUSH1 0x1 PUSH1 0xA0 SHL SUB AND EXTCODESIZE ISZERO ISZERO SWAP1 JUMP JUMPDEST PUSH1 0x1 PUSH1 0x1 PUSH1 0xA0 SHL SUB DUP4 AND PUSH2 0x1430 JUMPI PUSH1 0x40 MLOAD PUSH3 0x461BCD PUSH1 0xE5 SHL DUP2 MSTORE PUSH1 0x20 PUSH1 0x4 DUP3 ADD MSTORE PUSH1 0x24 DUP1 DUP3 ADD MSTORE PUSH32 0x45524332303A20617070726F76652066726F6D20746865207A65726F20616464 PUSH1 0x44 DUP3 ADD MSTORE PUSH4 0x72657373 PUSH1 0xE0 SHL PUSH1 0x64 DUP3 ADD MSTORE PUSH1 0x84 ADD PUSH2 0x9C1 JUMP JUMPDEST PUSH1 0x1 PUSH1 0x1 PUSH1 0xA0 SHL SUB DUP3 AND PUSH2 0x1491 JUMPI PUSH1 0x40 MLOAD PUSH3 0x461BCD PUSH1 0xE5 SHL DUP2 MSTORE PUSH1 0x20 PUSH1 0x4 DUP3 ADD MSTORE PUSH1 0x22 PUSH1 0x24 DUP3 ADD MSTORE PUSH32 0x45524332303A20617070726F766520746F20746865207A65726F206164647265 PUSH1 0x44 DUP3 ADD MSTORE PUSH2 0x7373 PUSH1 0xF0 SHL PUSH1 0x64 DUP3 ADD MSTORE PUSH1 0x84 ADD PUSH2 0x9C1 JUMP JUMPDEST PUSH1 0x1 PUSH1 0x1 PUSH1 0xA0 SHL SUB DUP4 DUP2 AND PUSH1 0x0 DUP2 DUP2 MSTORE PUSH1 0xCC PUSH1 0x20 SWAP1 DUP2 MSTORE PUSH1 0x40 DUP1 DUP4 KECCAK256 SWAP5 DUP8 AND DUP1 DUP5 MSTORE SWAP5 DUP3 MSTORE SWAP2 DUP3 SWAP1 KECCAK256 DUP6 SWAP1 SSTORE SWAP1 MLOAD DUP5 DUP2 MSTORE PUSH32 0x8C5BE1E5EBEC7D5BD14F71427D1E84F3DD0314C0F7B2291E5B200AC8C7C3B925 SWAP2 ADD PUSH1 0x40 MLOAD DUP1 SWAP2 SUB SWAP1 LOG3 POP POP POP JUMP JUMPDEST PUSH1 0x0 DUP1 PUSH2 0x1500 DUP6 DUP6 DUP6 PUSH2 0x2774 JUMP JUMPDEST SWAP1 POP DUP1 ISZERO ISZERO PUSH1 0x1 SUB PUSH2 0x90C JUMPI PUSH1 0x40 MLOAD DUP4 DUP2 MSTORE CALLER SWAP1 PUSH1 0x1 PUSH1 0x1 PUSH1 0xA0 SHL SUB DUP8 AND SWAP1 PUSH32 0x7C2B9369BF4A6BD9745889C658AD00A4D57E280C4C80FA1C74DB2A9E52C13635 SWAP1 PUSH1 0x20 ADD PUSH1 0x40 MLOAD DUP1 SWAP2 SUB SWAP1 LOG3 SWAP5 SWAP4 POP POP POP POP JUMP JUMPDEST PUSH2 0xA3B DUP2 CALLER PUSH2 0x278D JUMP JUMPDEST PUSH2 0x1568 DUP3 DUP3 PUSH2 0xD8C JUMP JUMPDEST PUSH2 0x9D4 JUMPI PUSH1 0x0 DUP3 DUP2 MSTORE PUSH2 0x167 PUSH1 0x20 SWAP1 DUP2 MSTORE PUSH1 0x40 DUP1 DUP4 KECCAK256 PUSH1 0x1 PUSH1 0x1 PUSH1 0xA0 SHL SUB DUP6 AND DUP5 MSTORE SWAP1 SWAP2 MSTORE SWAP1 KECCAK256 DUP1 SLOAD PUSH1 0xFF NOT AND PUSH1 0x1 OR SWAP1 SSTORE PUSH2 0x15A1 CALLER SWAP1 JUMP JUMPDEST PUSH1 0x1 PUSH1 0x1 PUSH1 0xA0 SHL SUB AND DUP2 PUSH1 0x1 PUSH1 0x1 PUSH1 0xA0 SHL SUB AND DUP4 PUSH32 0x2F8788117E7EFF1D82E926EC794901D17C78024A50270940304540A733656F0D PUSH1 0x40 MLOAD PUSH1 0x40 MLOAD DUP1 SWAP2 SUB SWAP1 LOG4 POP POP JUMP JUMPDEST PUSH2 0x15EF DUP3 DUP3 PUSH2 0xD8C JUMP JUMPDEST ISZERO PUSH2 0x9D4 JUMPI PUSH1 0x0 DUP3 DUP2 MSTORE PUSH2 0x167 PUSH1 0x20 SWAP1 DUP2 MSTORE PUSH1 0x40 DUP1 DUP4 KECCAK256 PUSH1 0x1 PUSH1 0x1 PUSH1 0xA0 SHL SUB DUP6 AND DUP1 DUP6 MSTORE SWAP3 MSTORE DUP1 DUP4 KECCAK256 DUP1 SLOAD PUSH1 0xFF NOT AND SWAP1 SSTORE MLOAD CALLER SWAP3 DUP6 SWAP2 PUSH32 0xF6391F5C32D9C69D2A47EA670B442974B53935D1EDC7FD64EB21E047A839171B SWAP2 SWAP1 LOG4 POP POP JUMP JUMPDEST TIMESTAMP DUP2 GT PUSH2 0x166C JUMPI PUSH1 0x40 MLOAD PUSH3 0x461BCD PUSH1 0xE5 SHL DUP2 MSTORE PUSH1 0x4 ADD PUSH2 0x9C1 SWAP1 PUSH2 0x36E6 JUMP JUMPDEST PUSH1 0x0 DUP1 PUSH2 0x1678 DUP4 PUSH2 0x27E6 JUMP JUMPDEST SWAP2 POP SWAP2 POP DUP2 ISZERO PUSH2 0x16CA JUMPI PUSH1 0x40 MLOAD PUSH3 0x461BCD PUSH1 0xE5 SHL DUP2 MSTORE PUSH1 0x20 PUSH1 0x4 DUP3 ADD MSTORE PUSH1 0x17 PUSH1 0x24 DUP3 ADD MSTORE PUSH32 0x536E617073686F7420616C726561647920657869737473000000000000000000 PUSH1 0x44 DUP3 ADD MSTORE PUSH1 0x64 ADD PUSH2 0x9C1 JUMP JUMPDEST PUSH2 0x102 SLOAD DUP2 SUB PUSH2 0x170F JUMPI PUSH2 0x102 DUP1 SLOAD PUSH1 0x1 DUP2 ADD DUP3 SSTORE PUSH1 0x0 SWAP2 SWAP1 SWAP2 MSTORE PUSH32 0x93BDAA6A4190909B7C3FBE8D42169FFE1CAB19F51DFC8DB24C71ABF849ECED4A ADD DUP4 SWAP1 SSTORE PUSH2 0x17E5 JUMP JUMPDEST PUSH2 0x102 DUP1 SLOAD DUP2 SWAP1 PUSH2 0x1722 SWAP1 PUSH1 0x1 SWAP1 PUSH2 0x36A4 JUMP JUMPDEST DUP2 SLOAD DUP2 LT PUSH2 0x1732 JUMPI PUSH2 0x1732 PUSH2 0x36B7 JUMP JUMPDEST PUSH1 0x0 SWAP2 DUP3 MSTORE PUSH1 0x20 DUP1 DUP4 KECCAK256 SWAP1 SWAP2 ADD SLOAD DUP4 SLOAD PUSH1 0x1 DUP2 ADD DUP6 SSTORE SWAP4 DUP4 MSTORE SWAP1 DUP3 KECCAK256 SWAP1 SWAP3 ADD SWAP2 SWAP1 SWAP2 SSTORE PUSH2 0x102 SLOAD PUSH2 0x1765 SWAP1 PUSH1 0x2 SWAP1 PUSH2 0x36A4 JUMP JUMPDEST SWAP1 POP JUMPDEST DUP2 DUP2 GT ISZERO PUSH2 0x17C2 JUMPI PUSH2 0x102 PUSH2 0x177E PUSH1 0x1 DUP4 PUSH2 0x36A4 JUMP JUMPDEST DUP2 SLOAD DUP2 LT PUSH2 0x178E JUMPI PUSH2 0x178E PUSH2 0x36B7 JUMP JUMPDEST SWAP1 PUSH1 0x0 MSTORE PUSH1 0x20 PUSH1 0x0 KECCAK256 ADD SLOAD PUSH2 0x102 DUP3 DUP2 SLOAD DUP2 LT PUSH2 0x17AD JUMPI PUSH2 0x17AD PUSH2 0x36B7 JUMP JUMPDEST PUSH1 0x0 SWAP2 DUP3 MSTORE PUSH1 0x20 SWAP1 SWAP2 KECCAK256 ADD SSTORE PUSH1 0x0 NOT ADD PUSH2 0x1768 JUMP JUMPDEST POP DUP3 PUSH2 0x102 DUP3 DUP2 SLOAD DUP2 LT PUSH2 0x17D8 JUMPI PUSH2 0x17D8 PUSH2 0x36B7 JUMP JUMPDEST PUSH1 0x0 SWAP2 DUP3 MSTORE PUSH1 0x20 SWAP1 SWAP2 KECCAK256 ADD SSTORE JUMPDEST PUSH1 0x40 MLOAD DUP4 SWAP1 PUSH1 0x0 SWAP1 PUSH32 0xE2AD3B1ABE53383DBE6359F02F11AE76D91CFAB321B37083B16E1D96A81D4183 SWAP1 DUP3 SWAP1 LOG3 POP POP POP JUMP JUMPDEST PUSH2 0x181F PUSH2 0x285E JUMP JUMPDEST PUSH1 0x66 DUP1 SLOAD PUSH1 0xFF NOT AND SWAP1 SSTORE PUSH32 0x5DB9EE0A495BF2E6FF9C91A7834C1BA4FDD244A5E8AA4E537BD38AEAE4B073AA CALLER JUMPDEST PUSH1 0x40 MLOAD PUSH1 0x1 PUSH1 0x1 PUSH1 0xA0 SHL SUB SWAP1 SWAP2 AND DUP2 MSTORE PUSH1 0x20 ADD PUSH1 0x40 MLOAD DUP1 SWAP2 SUB SWAP1 LOG1 JUMP JUMPDEST PUSH1 0x1 PUSH1 0x1 PUSH1 0xA0 SHL SUB DUP3 AND PUSH1 0x0 SWAP1 DUP2 MSTORE PUSH1 0x98 PUSH1 0x20 MSTORE PUSH1 0x40 DUP2 KECCAK256 SLOAD PUSH1 0xFF AND ISZERO PUSH2 0x1892 JUMPI POP PUSH1 0x0 PUSH2 0x7C0 JUMP JUMPDEST PUSH1 0x1 PUSH1 0x1 PUSH1 0xA0 SHL SUB DUP4 AND PUSH1 0x0 SWAP1 DUP2 MSTORE PUSH1 0x98 PUSH1 0x20 MSTORE PUSH1 0x40 SWAP1 DUP2 SWAP1 KECCAK256 DUP1 SLOAD PUSH1 0xFF NOT AND PUSH1 0x1 OR SWAP1 SSTORE MLOAD PUSH2 0x18C3 SWAP1 DUP4 SWAP1 PUSH2 0x3688 JUMP JUMPDEST PUSH1 0x40 MLOAD DUP1 SWAP2 SUB SWAP1 KECCAK256 DUP4 PUSH1 0x1 PUSH1 0x1 PUSH1 0xA0 SHL SUB AND PUSH2 0x18DC CALLER SWAP1 JUMP JUMPDEST PUSH1 0x1 PUSH1 0x1 PUSH1 0xA0 SHL SUB AND PUSH32 0xE80AEDE59DB0B770AEF5E4BD04670759D38E64959D07A4343257A0A4F6B6D1ED DUP6 PUSH1 0x40 MLOAD PUSH2 0x1914 SWAP2 SWAP1 PUSH2 0x30D4 JUMP JUMPDEST PUSH1 0x40 MLOAD DUP1 SWAP2 SUB SWAP1 LOG4 POP PUSH1 0x1 SWAP3 SWAP2 POP POP JUMP JUMPDEST PUSH1 0x1 PUSH1 0x1 PUSH1 0xA0 SHL SUB DUP3 AND PUSH2 0x197B JUMPI PUSH1 0x40 MLOAD PUSH3 0x461BCD PUSH1 0xE5 SHL DUP2 MSTORE PUSH1 0x20 PUSH1 0x4 DUP3 ADD MSTORE PUSH1 0x1F PUSH1 0x24 DUP3 ADD MSTORE PUSH32 0x45524332303A206D696E7420746F20746865207A65726F206164647265737300 PUSH1 0x44 DUP3 ADD MSTORE PUSH1 0x64 ADD PUSH2 0x9C1 JUMP JUMPDEST PUSH2 0x1987 PUSH1 0x0 DUP4 DUP4 PUSH2 0x28A7 JUMP JUMPDEST DUP1 PUSH1 0xCD PUSH1 0x0 DUP3 DUP3 SLOAD PUSH2 0x1999 SWAP2 SWAP1 PUSH2 0x356F JUMP JUMPDEST SWAP1 SWAP2 SSTORE POP POP PUSH1 0x1 PUSH1 0x1 PUSH1 0xA0 SHL SUB DUP3 AND PUSH1 0x0 DUP2 DUP2 MSTORE PUSH1 0xCB PUSH1 0x20 SWAP1 DUP2 MSTORE PUSH1 0x40 DUP1 DUP4 KECCAK256 DUP1 SLOAD DUP7 ADD SWAP1 SSTORE MLOAD DUP5 DUP2 MSTORE PUSH32 0xDDF252AD1BE2C89B69C2B068FC378DAA952BA7F163C4A11628F55A4DF523B3EF SWAP2 ADD PUSH1 0x40 MLOAD DUP1 SWAP2 SUB SWAP1 LOG3 POP POP JUMP JUMPDEST PUSH1 0x1 PUSH1 0x1 PUSH1 0xA0 SHL SUB PUSH32 0x0 AND ADDRESS SUB PUSH2 0x1A80 JUMPI PUSH1 0x40 MLOAD PUSH3 0x461BCD PUSH1 0xE5 SHL DUP2 MSTORE PUSH1 0x20 PUSH1 0x4 DUP3 ADD MSTORE PUSH1 0x2D PUSH1 0x24 DUP3 ADD MSTORE PUSH32 0x4469726563742063616C6C20746F2074686520696D706C656D656E746174696F PUSH1 0x44 DUP3 ADD MSTORE PUSH13 0x1B881B9BDD08185B1B1BDDD959 PUSH1 0x9A SHL PUSH1 0x64 DUP3 ADD MSTORE PUSH1 0x84 ADD PUSH2 0x9C1 JUMP JUMPDEST JUMP JUMPDEST PUSH1 0x0 DUP1 DUP1 PUSH2 0x1A90 DUP5 DUP7 PUSH2 0x29F1 JUMP JUMPDEST DUP5 SLOAD SWAP1 SWAP2 POP DUP2 SUB PUSH2 0x1AA8 JUMPI PUSH1 0x0 DUP1 SWAP3 POP SWAP3 POP POP PUSH2 0x1AD0 JUMP JUMPDEST PUSH1 0x1 DUP5 PUSH1 0x1 ADD DUP3 DUP2 SLOAD DUP2 LT PUSH2 0x1ABF JUMPI PUSH2 0x1ABF PUSH2 0x36B7 JUMP JUMPDEST SWAP1 PUSH1 0x0 MSTORE PUSH1 0x20 PUSH1 0x0 KECCAK256 ADD SLOAD SWAP3 POP SWAP3 POP POP JUMPDEST SWAP3 POP SWAP3 SWAP1 POP JUMP JUMPDEST PUSH1 0x1 PUSH1 0x1 PUSH1 0xA0 SHL SUB DUP3 AND PUSH1 0x0 SWAP1 DUP2 MSTORE PUSH1 0x98 PUSH1 0x20 MSTORE PUSH1 0x40 DUP2 KECCAK256 SLOAD PUSH1 0xFF AND PUSH2 0x1AFF JUMPI POP PUSH1 0x0 PUSH2 0x7C0 JUMP JUMPDEST PUSH1 0x1 PUSH1 0x1 PUSH1 0xA0 SHL SUB DUP4 AND PUSH1 0x0 SWAP1 DUP2 MSTORE PUSH1 0x98 PUSH1 0x20 MSTORE PUSH1 0x40 SWAP1 DUP2 SWAP1 KECCAK256 DUP1 SLOAD PUSH1 0xFF NOT AND SWAP1 SSTORE MLOAD PUSH2 0x1B2D SWAP1 DUP4 SWAP1 PUSH2 0x3688 JUMP JUMPDEST PUSH1 0x40 MLOAD DUP1 SWAP2 SUB SWAP1 KECCAK256 DUP4 PUSH1 0x1 PUSH1 0x1 PUSH1 0xA0 SHL SUB AND PUSH2 0x1B46 CALLER SWAP1 JUMP JUMPDEST PUSH1 0x1 PUSH1 0x1 PUSH1 0xA0 SHL SUB AND PUSH32 0x7A52FDBC4F3E9F93670CD35B5B9C2D974791D25C5C04984336A80BE3F7F42C32 DUP6 PUSH1 0x40 MLOAD PUSH2 0x1914 SWAP2 SWAP1 PUSH2 0x30D4 JUMP JUMPDEST PUSH1 0x33 SLOAD PUSH1 0x40 MLOAD PUSH4 0x7F4AB1DD PUSH1 0xE0 SHL DUP2 MSTORE PUSH1 0xFF DUP4 AND PUSH1 0x4 DUP3 ADD MSTORE PUSH1 0x60 SWAP2 PUSH1 0x1 PUSH1 0x1 PUSH1 0xA0 SHL SUB AND SWAP1 PUSH4 0x7F4AB1DD SWAP1 PUSH1 0x24 ADD PUSH1 0x0 PUSH1 0x40 MLOAD DUP1 DUP4 SUB DUP2 DUP7 GAS STATICCALL ISZERO DUP1 ISZERO PUSH2 0x1BCA JUMPI RETURNDATASIZE PUSH1 0x0 DUP1 RETURNDATACOPY RETURNDATASIZE PUSH1 0x0 REVERT JUMPDEST POP POP POP POP PUSH1 0x40 MLOAD RETURNDATASIZE PUSH1 0x0 DUP3 RETURNDATACOPY PUSH1 0x1F RETURNDATASIZE SWAP1 DUP2 ADD PUSH1 0x1F NOT AND DUP3 ADD PUSH1 0x40 MSTORE PUSH2 0x7C0 SWAP2 SWAP1 DUP2 ADD SWAP1 PUSH2 0x371D JUMP JUMPDEST TIMESTAMP DUP2 GT PUSH2 0x1C11 JUMPI PUSH1 0x40 MLOAD PUSH3 0x461BCD PUSH1 0xE5 SHL DUP2 MSTORE PUSH1 0x4 ADD PUSH2 0x9C1 SWAP1 PUSH2 0x378B JUMP JUMPDEST PUSH1 0x0 DUP1 PUSH2 0x1C1D DUP4 PUSH2 0x27E6 JUMP JUMPDEST SWAP2 POP SWAP2 POP DUP2 PUSH2 0x1C63 JUMPI PUSH1 0x40 MLOAD PUSH3 0x461BCD PUSH1 0xE5 SHL DUP2 MSTORE PUSH1 0x20 PUSH1 0x4 DUP3 ADD MSTORE PUSH1 0x12 PUSH1 0x24 DUP3 ADD MSTORE PUSH18 0x14DB985C1CDA1BDD081B9BDD08199BDD5B99 PUSH1 0x72 SHL PUSH1 0x44 DUP3 ADD MSTORE PUSH1 0x64 ADD PUSH2 0x9C1 JUMP JUMPDEST DUP1 JUMPDEST PUSH2 0x102 SLOAD PUSH2 0x1C74 DUP3 PUSH1 0x1 PUSH2 0x356F JUMP JUMPDEST LT ISZERO PUSH2 0x1CCB JUMPI PUSH2 0x102 PUSH2 0x1C88 DUP3 PUSH1 0x1 PUSH2 0x356F JUMP JUMPDEST DUP2 SLOAD DUP2 LT PUSH2 0x1C98 JUMPI PUSH2 0x1C98 PUSH2 0x36B7 JUMP JUMPDEST SWAP1 PUSH1 0x0 MSTORE PUSH1 0x20 PUSH1 0x0 KECCAK256 ADD SLOAD PUSH2 0x102 DUP3 DUP2 SLOAD DUP2 LT PUSH2 0x1CB7 JUMPI PUSH2 0x1CB7 PUSH2 0x36B7 JUMP JUMPDEST PUSH1 0x0 SWAP2 DUP3 MSTORE PUSH1 0x20 SWAP1 SWAP2 KECCAK256 ADD SSTORE PUSH1 0x1 ADD PUSH2 0x1C65 JUMP JUMPDEST POP PUSH2 0x102 DUP1 SLOAD DUP1 PUSH2 0x1CDE JUMPI PUSH2 0x1CDE PUSH2 0x37BA JUMP JUMPDEST PUSH1 0x1 SWAP1 SUB DUP2 DUP2 SWAP1 PUSH1 0x0 MSTORE PUSH1 0x20 PUSH1 0x0 KECCAK256 ADD PUSH1 0x0 SWAP1 SSTORE SWAP1 SSTORE POP POP POP JUMP JUMPDEST PUSH2 0x1D01 PUSH2 0x2A92 JUMP JUMPDEST PUSH1 0x66 DUP1 SLOAD PUSH1 0xFF NOT AND PUSH1 0x1 OR SWAP1 SSTORE PUSH32 0x62E78CEA01BEE320CD4E420270B5EA74000D11B0C9F74754EBDBFC544B05A258 PUSH2 0x184C CALLER SWAP1 JUMP JUMPDEST TIMESTAMP DUP2 GT PUSH2 0x1D55 JUMPI PUSH1 0x40 MLOAD PUSH3 0x461BCD PUSH1 0xE5 SHL DUP2 MSTORE PUSH1 0x4 ADD PUSH2 0x9C1 SWAP1 PUSH2 0x36E6 JUMP JUMPDEST PUSH2 0x102 SLOAD ISZERO PUSH2 0x1DF3 JUMPI PUSH2 0x102 DUP1 SLOAD PUSH2 0x1D6F SWAP1 PUSH1 0x1 SWAP1 PUSH2 0x36A4 JUMP JUMPDEST DUP2 SLOAD DUP2 LT PUSH2 0x1D7F JUMPI PUSH2 0x1D7F PUSH2 0x36B7 JUMP JUMPDEST SWAP1 PUSH1 0x0 MSTORE PUSH1 0x20 PUSH1 0x0 KECCAK256 ADD SLOAD DUP2 GT PUSH2 0x1DF3 JUMPI PUSH1 0x40 MLOAD PUSH3 0x461BCD PUSH1 0xE5 SHL DUP2 MSTORE PUSH1 0x20 PUSH1 0x4 DUP3 ADD MSTORE PUSH1 0x32 PUSH1 0x24 DUP3 ADD MSTORE PUSH32 0x74696D652068617320746F2062652067726561746572207468616E2074686520 PUSH1 0x44 DUP3 ADD MSTORE PUSH18 0x6C61737420736E617073686F742074696D65 PUSH1 0x70 SHL PUSH1 0x64 DUP3 ADD MSTORE PUSH1 0x84 ADD PUSH2 0x9C1 JUMP JUMPDEST PUSH2 0x102 DUP1 SLOAD PUSH1 0x1 DUP2 ADD DUP3 SSTORE PUSH1 0x0 SWAP2 DUP3 MSTORE PUSH32 0x93BDAA6A4190909B7C3FBE8D42169FFE1CAB19F51DFC8DB24C71ABF849ECED4A ADD DUP3 SWAP1 SSTORE PUSH1 0x40 MLOAD DUP3 SWAP2 SWAP1 PUSH32 0xE2AD3B1ABE53383DBE6359F02F11AE76D91CFAB321B37083B16E1D96A81D4183 SWAP1 DUP3 SWAP1 LOG3 POP JUMP JUMPDEST PUSH1 0x1 PUSH1 0x1 PUSH1 0xA0 SHL SUB DUP4 AND PUSH2 0x1EBA JUMPI PUSH1 0x40 MLOAD PUSH3 0x461BCD PUSH1 0xE5 SHL DUP2 MSTORE PUSH1 0x20 PUSH1 0x4 DUP3 ADD MSTORE PUSH1 0x25 PUSH1 0x24 DUP3 ADD MSTORE PUSH32 0x45524332303A207472616E736665722066726F6D20746865207A65726F206164 PUSH1 0x44 DUP3 ADD MSTORE PUSH5 0x6472657373 PUSH1 0xD8 SHL PUSH1 0x64 DUP3 ADD MSTORE PUSH1 0x84 ADD PUSH2 0x9C1 JUMP JUMPDEST PUSH1 0x1 PUSH1 0x1 PUSH1 0xA0 SHL SUB DUP3 AND PUSH2 0x1F1C JUMPI PUSH1 0x40 MLOAD PUSH3 0x461BCD PUSH1 0xE5 SHL DUP2 MSTORE PUSH1 0x20 PUSH1 0x4 DUP3 ADD MSTORE PUSH1 0x23 PUSH1 0x24 DUP3 ADD MSTORE PUSH32 0x45524332303A207472616E7366657220746F20746865207A65726F2061646472 PUSH1 0x44 DUP3 ADD MSTORE PUSH3 0x657373 PUSH1 0xE8 SHL PUSH1 0x64 DUP3 ADD MSTORE PUSH1 0x84 ADD PUSH2 0x9C1 JUMP JUMPDEST PUSH2 0x1F27 DUP4 DUP4 DUP4 PUSH2 0x28A7 JUMP JUMPDEST PUSH1 0x1 PUSH1 0x1 PUSH1 0xA0 SHL SUB DUP4 AND PUSH1 0x0 SWAP1 DUP2 MSTORE PUSH1 0xCB PUSH1 0x20 MSTORE PUSH1 0x40 SWAP1 KECCAK256 SLOAD DUP2 DUP2 LT ISZERO PUSH2 0x1F9F JUMPI PUSH1 0x40 MLOAD PUSH3 0x461BCD PUSH1 0xE5 SHL DUP2 MSTORE PUSH1 0x20 PUSH1 0x4 DUP3 ADD MSTORE PUSH1 0x26 PUSH1 0x24 DUP3 ADD MSTORE PUSH32 0x45524332303A207472616E7366657220616D6F756E7420657863656564732062 PUSH1 0x44 DUP3 ADD MSTORE PUSH6 0x616C616E6365 PUSH1 0xD0 SHL PUSH1 0x64 DUP3 ADD MSTORE PUSH1 0x84 ADD PUSH2 0x9C1 JUMP JUMPDEST PUSH1 0x1 PUSH1 0x1 PUSH1 0xA0 SHL SUB DUP1 DUP6 AND PUSH1 0x0 DUP2 DUP2 MSTORE PUSH1 0xCB PUSH1 0x20 MSTORE PUSH1 0x40 DUP1 DUP3 KECCAK256 DUP7 DUP7 SUB SWAP1 SSTORE SWAP3 DUP7 AND DUP1 DUP3 MSTORE SWAP1 DUP4 SWAP1 KECCAK256 DUP1 SLOAD DUP7 ADD SWAP1 SSTORE SWAP2 MLOAD PUSH32 0xDDF252AD1BE2C89B69C2B068FC378DAA952BA7F163C4A11628F55A4DF523B3EF SWAP1 PUSH2 0x1FFF SWAP1 DUP7 DUP2 MSTORE PUSH1 0x20 ADD SWAP1 JUMP JUMPDEST PUSH1 0x40 MLOAD DUP1 SWAP2 SUB SWAP1 LOG3 JUMPDEST POP POP POP POP JUMP JUMPDEST PUSH1 0x33 SLOAD PUSH1 0x40 MLOAD PUSH4 0x634A3509 PUSH1 0xE1 SHL DUP2 MSTORE PUSH1 0x1 PUSH1 0x1 PUSH1 0xA0 SHL SUB DUP6 DUP2 AND PUSH1 0x4 DUP4 ADD MSTORE DUP5 DUP2 AND PUSH1 0x24 DUP4 ADD MSTORE PUSH1 0x44 DUP3 ADD DUP5 SWAP1 MSTORE PUSH1 0x0 SWAP3 AND SWAP1 PUSH4 0xC6946A12 SWAP1 PUSH1 0x64 ADD PUSH1 0x20 PUSH1 0x40 MLOAD DUP1 DUP4 SUB DUP2 DUP7 GAS STATICCALL ISZERO DUP1 ISZERO PUSH2 0x2068 JUMPI RETURNDATASIZE PUSH1 0x0 DUP1 RETURNDATACOPY RETURNDATASIZE PUSH1 0x0 REVERT JUMPDEST POP POP POP POP PUSH1 0x40 MLOAD RETURNDATASIZE PUSH1 0x1F NOT PUSH1 0x1F DUP3 ADD AND DUP3 ADD DUP1 PUSH1 0x40 MSTORE POP DUP2 ADD SWAP1 PUSH2 0x90C SWAP2 SWAP1 PUSH2 0x37D0 JUMP JUMPDEST TIMESTAMP DUP3 GT PUSH2 0x20AB JUMPI PUSH1 0x40 MLOAD PUSH3 0x461BCD PUSH1 0xE5 SHL DUP2 MSTORE PUSH1 0x4 ADD PUSH2 0x9C1 SWAP1 PUSH2 0x378B JUMP JUMPDEST TIMESTAMP DUP2 GT PUSH2 0x20CA JUMPI PUSH1 0x40 MLOAD PUSH3 0x461BCD PUSH1 0xE5 SHL DUP2 MSTORE PUSH1 0x4 ADD PUSH2 0x9C1 SWAP1 PUSH2 0x36E6 JUMP JUMPDEST PUSH2 0x102 SLOAD PUSH2 0x2112 JUMPI PUSH1 0x40 MLOAD PUSH3 0x461BCD PUSH1 0xE5 SHL DUP2 MSTORE PUSH1 0x20 PUSH1 0x4 DUP3 ADD MSTORE PUSH1 0x15 PUSH1 0x24 DUP3 ADD MSTORE PUSH21 0x1B9BC81CD8DA19591D5B1959081CDB985C1CDA1BDD PUSH1 0x5A SHL PUSH1 0x44 DUP3 ADD MSTORE PUSH1 0x64 ADD PUSH2 0x9C1 JUMP JUMPDEST PUSH1 0x0 DUP1 PUSH2 0x211E DUP5 PUSH2 0x27E6 JUMP JUMPDEST SWAP2 POP SWAP2 POP DUP2 PUSH2 0x2164 JUMPI PUSH1 0x40 MLOAD PUSH3 0x461BCD PUSH1 0xE5 SHL DUP2 MSTORE PUSH1 0x20 PUSH1 0x4 DUP3 ADD MSTORE PUSH1 0x12 PUSH1 0x24 DUP3 ADD MSTORE PUSH18 0x14DB985C1CDA1BDD081B9BDD08199BDD5B99 PUSH1 0x72 SHL PUSH1 0x44 DUP3 ADD MSTORE PUSH1 0x64 ADD PUSH2 0x9C1 JUMP JUMPDEST PUSH2 0x102 SLOAD PUSH2 0x2173 DUP3 PUSH1 0x1 PUSH2 0x356F JUMP JUMPDEST LT ISZERO PUSH2 0x2203 JUMPI PUSH2 0x102 PUSH2 0x2187 DUP3 PUSH1 0x1 PUSH2 0x356F JUMP JUMPDEST DUP2 SLOAD DUP2 LT PUSH2 0x2197 JUMPI PUSH2 0x2197 PUSH2 0x36B7 JUMP JUMPDEST SWAP1 PUSH1 0x0 MSTORE PUSH1 0x20 PUSH1 0x0 KECCAK256 ADD SLOAD DUP4 LT PUSH2 0x2203 JUMPI PUSH1 0x40 MLOAD PUSH3 0x461BCD PUSH1 0xE5 SHL DUP2 MSTORE PUSH1 0x20 PUSH1 0x4 DUP3 ADD MSTORE PUSH1 0x2A PUSH1 0x24 DUP3 ADD MSTORE PUSH32 0x74696D652068617320746F206265206C657373207468616E20746865206E6578 PUSH1 0x44 DUP3 ADD MSTORE PUSH10 0x1D081CDB985C1CDA1BDD PUSH1 0xB2 SHL PUSH1 0x64 DUP3 ADD MSTORE PUSH1 0x84 ADD PUSH2 0x9C1 JUMP JUMPDEST DUP1 ISZERO PUSH2 0x229A JUMPI PUSH2 0x102 PUSH2 0x2217 PUSH1 0x1 DUP4 PUSH2 0x36A4 JUMP JUMPDEST DUP2 SLOAD DUP2 LT PUSH2 0x2227 JUMPI PUSH2 0x2227 PUSH2 0x36B7 JUMP JUMPDEST SWAP1 PUSH1 0x0 MSTORE PUSH1 0x20 PUSH1 0x0 KECCAK256 ADD SLOAD DUP4 GT PUSH2 0x229A JUMPI PUSH1 0x40 MLOAD PUSH3 0x461BCD PUSH1 0xE5 SHL DUP2 MSTORE PUSH1 0x20 PUSH1 0x4 DUP3 ADD MSTORE PUSH1 0x31 PUSH1 0x24 DUP3 ADD MSTORE PUSH32 0x74696D652068617320746F2062652067726561746572207468616E2074686520 PUSH1 0x44 DUP3 ADD MSTORE PUSH17 0x1C1C995D9A5BDD5CC81CDB985C1CDA1BDD PUSH1 0x7A SHL PUSH1 0x64 DUP3 ADD MSTORE PUSH1 0x84 ADD PUSH2 0x9C1 JUMP JUMPDEST DUP3 PUSH2 0x102 DUP3 DUP2 SLOAD DUP2 LT PUSH2 0x22AF JUMPI PUSH2 0x22AF PUSH2 0x36B7 JUMP JUMPDEST PUSH1 0x0 SWAP2 DUP3 MSTORE PUSH1 0x20 DUP3 KECCAK256 ADD SWAP2 SWAP1 SWAP2 SSTORE PUSH1 0x40 MLOAD DUP5 SWAP2 DUP7 SWAP2 PUSH32 0xE2AD3B1ABE53383DBE6359F02F11AE76D91CFAB321B37083B16E1D96A81D4183 SWAP2 SWAP1 LOG3 POP POP POP POP JUMP JUMPDEST PUSH1 0x33 SLOAD PUSH1 0x40 MLOAD PUSH4 0xD4CE1415 PUSH1 0xE0 SHL DUP2 MSTORE PUSH1 0x1 PUSH1 0x1 PUSH1 0xA0 SHL SUB DUP6 DUP2 AND PUSH1 0x4 DUP4 ADD MSTORE DUP5 DUP2 AND PUSH1 0x24 DUP4 ADD MSTORE PUSH1 0x44 DUP3 ADD DUP5 SWAP1 MSTORE PUSH1 0x0 SWAP3 AND SWAP1 PUSH4 0xD4CE1415 SWAP1 PUSH1 0x64 ADD PUSH1 0x20 PUSH1 0x40 MLOAD DUP1 DUP4 SUB DUP2 DUP7 GAS STATICCALL ISZERO DUP1 ISZERO PUSH2 0x2348 JUMPI RETURNDATASIZE PUSH1 0x0 DUP1 RETURNDATACOPY RETURNDATASIZE PUSH1 0x0 REVERT JUMPDEST POP POP POP POP PUSH1 0x40 MLOAD RETURNDATASIZE PUSH1 0x1F NOT PUSH1 0x1F DUP3 ADD AND DUP3 ADD DUP1 PUSH1 0x40 MSTORE POP DUP2 ADD SWAP1 PUSH2 0x90C SWAP2 SWAP1 PUSH2 0x37ED JUMP JUMPDEST PUSH1 0x1 PUSH1 0x1 PUSH1 0xA0 SHL SUB DUP3 AND PUSH2 0x23CC JUMPI PUSH1 0x40 MLOAD PUSH3 0x461BCD PUSH1 0xE5 SHL DUP2 MSTORE PUSH1 0x20 PUSH1 0x4 DUP3 ADD MSTORE PUSH1 0x21 PUSH1 0x24 DUP3 ADD MSTORE PUSH32 0x45524332303A206275726E2066726F6D20746865207A65726F20616464726573 PUSH1 0x44 DUP3 ADD MSTORE PUSH1 0x73 PUSH1 0xF8 SHL PUSH1 0x64 DUP3 ADD MSTORE PUSH1 0x84 ADD PUSH2 0x9C1 JUMP JUMPDEST PUSH2 0x23D8 DUP3 PUSH1 0x0 DUP4 PUSH2 0x28A7 JUMP JUMPDEST PUSH1 0x1 PUSH1 0x1 PUSH1 0xA0 SHL SUB DUP3 AND PUSH1 0x0 SWAP1 DUP2 MSTORE PUSH1 0xCB PUSH1 0x20 MSTORE PUSH1 0x40 SWAP1 KECCAK256 SLOAD DUP2 DUP2 LT ISZERO PUSH2 0x244C JUMPI PUSH1 0x40 MLOAD PUSH3 0x461BCD PUSH1 0xE5 SHL DUP2 MSTORE PUSH1 0x20 PUSH1 0x4 DUP3 ADD MSTORE PUSH1 0x22 PUSH1 0x24 DUP3 ADD MSTORE PUSH32 0x45524332303A206275726E20616D6F756E7420657863656564732062616C616E PUSH1 0x44 DUP3 ADD MSTORE PUSH2 0x6365 PUSH1 0xF0 SHL PUSH1 0x64 DUP3 ADD MSTORE PUSH1 0x84 ADD PUSH2 0x9C1 JUMP JUMPDEST PUSH1 0x1 PUSH1 0x1 PUSH1 0xA0 SHL SUB DUP4 AND PUSH1 0x0 DUP2 DUP2 MSTORE PUSH1 0xCB PUSH1 0x20 SWAP1 DUP2 MSTORE PUSH1 0x40 DUP1 DUP4 KECCAK256 DUP7 DUP7 SUB SWAP1 SSTORE PUSH1 0xCD DUP1 SLOAD DUP8 SWAP1 SUB SWAP1 SSTORE MLOAD DUP6 DUP2 MSTORE SWAP2 SWAP3 SWAP2 PUSH32 0xDDF252AD1BE2C89B69C2B068FC378DAA952BA7F163C4A11628F55A4DF523B3EF SWAP2 ADD PUSH1 0x40 MLOAD DUP1 SWAP2 SUB SWAP1 LOG3 POP POP POP JUMP JUMPDEST PUSH1 0x0 SLOAD PUSH2 0x100 SWAP1 DIV PUSH1 0xFF AND PUSH2 0x24D3 JUMPI PUSH1 0x40 MLOAD PUSH3 0x461BCD PUSH1 0xE5 SHL DUP2 MSTORE PUSH1 0x4 ADD PUSH2 0x9C1 SWAP1 PUSH2 0x380A JUMP JUMPDEST PUSH2 0x24DB PUSH2 0x2AD8 JUMP JUMPDEST PUSH2 0x24E5 DUP5 DUP5 PUSH2 0x2AFF JUMP JUMPDEST PUSH2 0x24ED PUSH2 0x2AD8 JUMP JUMPDEST PUSH2 0x24F5 PUSH2 0x2AD8 JUMP JUMPDEST PUSH2 0x24FD PUSH2 0x2B3F JUMP JUMPDEST PUSH2 0x2505 PUSH2 0x2AD8 JUMP JUMPDEST PUSH2 0x250D PUSH2 0x2B72 JUMP JUMPDEST PUSH2 0x2515 PUSH2 0x2AD8 JUMP JUMPDEST PUSH2 0x251D PUSH2 0x2AD8 JUMP JUMPDEST PUSH2 0x2525 PUSH2 0x2AD8 JUMP JUMPDEST PUSH2 0x252D PUSH2 0x2AD8 JUMP JUMPDEST PUSH2 0x2537 PUSH1 0x0 PUSH2 0x2BA7 JUMP JUMPDEST PUSH2 0x253F PUSH2 0x2AD8 JUMP JUMPDEST PUSH2 0x2547 PUSH2 0x2AD8 JUMP JUMPDEST PUSH2 0x254F PUSH2 0x2AD8 JUMP JUMPDEST PUSH2 0x2559 DUP3 DUP3 PUSH2 0x2BE5 JUMP JUMPDEST PUSH2 0x2563 DUP7 DUP7 PUSH2 0x2C27 JUMP JUMPDEST POP POP POP POP POP POP JUMP JUMPDEST TIMESTAMP DUP2 GT PUSH2 0x258A JUMPI PUSH1 0x40 MLOAD PUSH3 0x461BCD PUSH1 0xE5 SHL DUP2 MSTORE PUSH1 0x4 ADD PUSH2 0x9C1 SWAP1 PUSH2 0x378B JUMP JUMPDEST PUSH2 0x102 SLOAD PUSH2 0x25D2 JUMPI PUSH1 0x40 MLOAD PUSH3 0x461BCD PUSH1 0xE5 SHL DUP2 MSTORE PUSH1 0x20 PUSH1 0x4 DUP3 ADD MSTORE PUSH1 0x15 PUSH1 0x24 DUP3 ADD MSTORE PUSH21 0x139BC81CDB985C1CDA1BDD081CD8DA19591D5B1959 PUSH1 0x5A SHL PUSH1 0x44 DUP3 ADD MSTORE PUSH1 0x64 ADD PUSH2 0x9C1 JUMP JUMPDEST PUSH2 0x102 DUP1 SLOAD PUSH2 0x25E3 SWAP1 PUSH1 0x1 SWAP1 PUSH2 0x36A4 JUMP JUMPDEST DUP2 SLOAD DUP2 LT PUSH2 0x25F3 JUMPI PUSH2 0x25F3 PUSH2 0x36B7 JUMP JUMPDEST SWAP1 PUSH1 0x0 MSTORE PUSH1 0x20 PUSH1 0x0 KECCAK256 ADD SLOAD DUP2 EQ PUSH2 0x265E JUMPI PUSH1 0x40 MLOAD PUSH3 0x461BCD PUSH1 0xE5 SHL DUP2 MSTORE PUSH1 0x20 PUSH1 0x4 DUP3 ADD MSTORE PUSH1 0x29 PUSH1 0x24 DUP3 ADD MSTORE PUSH32 0x4F6E6C7920746865206C61737420736E617073686F742063616E20626520756E PUSH1 0x44 DUP3 ADD MSTORE PUSH9 0x1CD8DA19591D5B1959 PUSH1 0xBA SHL PUSH1 0x64 DUP3 ADD MSTORE PUSH1 0x84 ADD PUSH2 0x9C1 JUMP JUMPDEST PUSH2 0x102 DUP1 SLOAD DUP1 PUSH2 0x2670 JUMPI PUSH2 0x2670 PUSH2 0x37BA JUMP JUMPDEST PUSH1 0x1 SWAP1 SUB DUP2 DUP2 SWAP1 PUSH1 0x0 MSTORE PUSH1 0x20 PUSH1 0x0 KECCAK256 ADD PUSH1 0x0 SWAP1 SSTORE SWAP1 SSTORE DUP1 PUSH32 0x6E2498F5548E5491BFE985562CC494131EAE56B5B6543B59129C8886F129F65 PUSH1 0x40 MLOAD PUSH1 0x40 MLOAD DUP1 SWAP2 SUB SWAP1 LOG2 POP JUMP JUMPDEST PUSH2 0x102 SLOAD PUSH1 0x0 SWAP1 DUP2 SWAP1 DUP1 ISZERO DUP1 PUSH2 0x26E4 JUMPI POP DUP1 PUSH2 0x101 SLOAD PUSH1 0x1 PUSH2 0x26D8 SWAP2 SWAP1 PUSH2 0x356F JUMP JUMPDEST EQ DUP1 ISZERO PUSH2 0x26E4 JUMPI POP DUP3 ISZERO ISZERO JUMPDEST ISZERO PUSH2 0x26F3 JUMPI PUSH1 0x0 SWAP4 SWAP1 SWAP3 POP SWAP1 POP JUMP JUMPDEST PUSH1 0x0 DUP2 SWAP3 POP PUSH1 0x0 PUSH2 0x101 SLOAD SWAP1 POP JUMPDEST DUP3 DUP2 LT ISZERO PUSH2 0x276C JUMPI TIMESTAMP PUSH2 0x102 DUP3 DUP2 SLOAD DUP2 LT PUSH2 0x271E JUMPI PUSH2 0x271E PUSH2 0x36B7 JUMP JUMPDEST SWAP1 PUSH1 0x0 MSTORE PUSH1 0x20 PUSH1 0x0 KECCAK256 ADD SLOAD GT PUSH2 0x2757 JUMPI PUSH2 0x102 DUP2 DUP2 SLOAD DUP2 LT PUSH2 0x2742 JUMPI PUSH2 0x2742 PUSH2 0x36B7 JUMP JUMPDEST SWAP1 PUSH1 0x0 MSTORE PUSH1 0x20 PUSH1 0x0 KECCAK256 ADD SLOAD SWAP2 POP DUP1 SWAP4 POP PUSH2 0x275C JUMP JUMPDEST PUSH2 0x276C JUMP JUMPDEST PUSH2 0x2765 DUP2 PUSH2 0x36CD JUMP JUMPDEST SWAP1 POP PUSH2 0x2701 JUMP JUMPDEST POP SWAP4 SWAP2 SWAP3 POP POP JUMP JUMPDEST PUSH1 0x0 CALLER PUSH2 0x2782 DUP6 DUP3 DUP6 PUSH2 0x2D04 JUMP JUMPDEST PUSH2 0xB7B DUP6 DUP6 DUP6 PUSH2 0x1E56 JUMP JUMPDEST PUSH2 0x2797 DUP3 DUP3 PUSH2 0xD8C JUMP JUMPDEST PUSH2 0x9D4 JUMPI PUSH2 0x27A4 DUP2 PUSH2 0x2D78 JUMP JUMPDEST PUSH2 0x27AF DUP4 PUSH1 0x20 PUSH2 0x2D8A JUMP JUMPDEST PUSH1 0x40 MLOAD PUSH1 0x20 ADD PUSH2 0x27C0 SWAP3 SWAP2 SWAP1 PUSH2 0x3855 JUMP JUMPDEST PUSH1 0x40 DUP1 MLOAD PUSH1 0x1F NOT DUP2 DUP5 SUB ADD DUP2 MSTORE SWAP1 DUP3 SWAP1 MSTORE PUSH3 0x461BCD PUSH1 0xE5 SHL DUP3 MSTORE PUSH2 0x9C1 SWAP2 PUSH1 0x4 ADD PUSH2 0x30D4 JUMP JUMPDEST PUSH1 0x0 DUP1 DUP1 PUSH2 0x27F6 PUSH2 0x102 DUP6 PUSH2 0x29F1 JUMP JUMPDEST PUSH2 0x102 SLOAD SWAP1 SWAP2 POP DUP2 EQ DUP1 ISZERO SWAP1 PUSH2 0x2829 JUMPI POP DUP4 PUSH2 0x102 DUP3 DUP2 SLOAD DUP2 LT PUSH2 0x281C JUMPI PUSH2 0x281C PUSH2 0x36B7 JUMP JUMPDEST SWAP1 PUSH1 0x0 MSTORE PUSH1 0x20 PUSH1 0x0 KECCAK256 ADD SLOAD EQ JUMPDEST ISZERO PUSH2 0x2839 JUMPI PUSH1 0x1 SWAP5 SWAP1 SWAP4 POP SWAP2 POP POP JUMP JUMPDEST PUSH2 0x102 SLOAD DUP2 EQ PUSH2 0x284E JUMPI PUSH1 0x0 SWAP5 SWAP1 SWAP4 POP SWAP2 POP POP JUMP JUMPDEST POP POP PUSH2 0x102 SLOAD PUSH1 0x0 SWAP4 SWAP1 SWAP3 POP SWAP1 POP JUMP JUMPDEST PUSH1 0x66 SLOAD PUSH1 0xFF AND PUSH2 0x1A80 JUMPI PUSH1 0x40 MLOAD PUSH3 0x461BCD PUSH1 0xE5 SHL DUP2 MSTORE PUSH1 0x20 PUSH1 0x4 DUP3 ADD MSTORE PUSH1 0x14 PUSH1 0x24 DUP3 ADD MSTORE PUSH20 0x14185D5CD8589B194E881B9BDD081C185D5CD959 PUSH1 0x62 SHL PUSH1 0x44 DUP3 ADD MSTORE PUSH1 0x64 ADD PUSH2 0x9C1 JUMP JUMPDEST PUSH1 0x66 SLOAD PUSH1 0xFF AND ISZERO PUSH2 0x2905 JUMPI PUSH1 0x40 MLOAD PUSH3 0x461BCD PUSH1 0xE5 SHL DUP2 MSTORE PUSH1 0x20 PUSH1 0x4 DUP3 ADD MSTORE PUSH1 0x22 PUSH1 0x24 DUP3 ADD MSTORE PUSH32 0x434D5441543A20746F6B656E207472616E73666572207768696C652070617573 PUSH1 0x44 DUP3 ADD MSTORE PUSH2 0x1959 PUSH1 0xF2 SHL PUSH1 0x64 DUP3 ADD MSTORE PUSH1 0x84 ADD PUSH2 0x9C1 JUMP JUMPDEST PUSH1 0x1 PUSH1 0x1 PUSH1 0xA0 SHL SUB DUP4 AND PUSH1 0x0 SWAP1 DUP2 MSTORE PUSH1 0x98 PUSH1 0x20 MSTORE PUSH1 0x40 SWAP1 KECCAK256 SLOAD PUSH1 0xFF AND ISZERO PUSH2 0x2979 JUMPI PUSH1 0x40 MLOAD PUSH3 0x461BCD PUSH1 0xE5 SHL DUP2 MSTORE PUSH1 0x20 PUSH1 0x4 DUP3 ADD MSTORE PUSH1 0x22 PUSH1 0x24 DUP3 ADD MSTORE PUSH32 0x434D5441543A20746F6B656E207472616E73666572207768696C652066726F7A PUSH1 0x44 DUP3 ADD MSTORE PUSH2 0x32B7 PUSH1 0xF1 SHL PUSH1 0x64 DUP3 ADD MSTORE PUSH1 0x84 ADD PUSH2 0x9C1 JUMP JUMPDEST PUSH2 0x2984 DUP4 DUP4 DUP4 PUSH2 0x2F26 JUMP JUMPDEST PUSH2 0x298F DUP4 DUP4 DUP4 PUSH2 0xF1F JUMP JUMPDEST PUSH2 0x93C JUMPI PUSH1 0x40 MLOAD PUSH3 0x461BCD PUSH1 0xE5 SHL DUP2 MSTORE PUSH1 0x20 PUSH1 0x4 DUP3 ADD MSTORE PUSH1 0x2D PUSH1 0x24 DUP3 ADD MSTORE PUSH32 0x434D5441543A207472616E736665722072656A65637465642062792076616C69 PUSH1 0x44 DUP3 ADD MSTORE PUSH13 0x646174696F6E206D6F64756C65 PUSH1 0x98 SHL PUSH1 0x64 DUP3 ADD MSTORE PUSH1 0x84 ADD PUSH2 0x9C1 JUMP JUMPDEST DUP2 SLOAD PUSH1 0x0 SWAP1 DUP2 SUB PUSH2 0x2A04 JUMPI POP PUSH1 0x0 PUSH2 0x7C0 JUMP JUMPDEST DUP3 SLOAD PUSH1 0x0 SWAP1 JUMPDEST DUP1 DUP3 LT ISZERO PUSH2 0x2A4E JUMPI PUSH1 0x0 PUSH2 0x2A1E DUP4 DUP4 PUSH2 0x2F6F JUMP JUMPDEST SWAP1 POP DUP5 PUSH2 0x2A2B DUP8 DUP4 PUSH2 0x2F8A JUMP JUMPDEST SLOAD GT ISZERO PUSH2 0x2A3A JUMPI DUP1 SWAP2 POP PUSH2 0x2A48 JUMP JUMPDEST PUSH2 0x2A45 DUP2 PUSH1 0x1 PUSH2 0x356F JUMP JUMPDEST SWAP3 POP JUMPDEST POP PUSH2 0x2A0A JUMP JUMPDEST PUSH1 0x0 DUP3 GT DUP1 ISZERO PUSH2 0x2A71 JUMPI POP DUP4 PUSH2 0x2A6E DUP7 PUSH2 0x2A69 PUSH1 0x1 DUP7 PUSH2 0x36A4 JUMP JUMPDEST PUSH2 0x2F8A JUMP JUMPDEST SLOAD EQ JUMPDEST ISZERO PUSH2 0x2A8A JUMPI PUSH2 0x2A81 PUSH1 0x1 DUP4 PUSH2 0x36A4 JUMP JUMPDEST SWAP3 POP POP POP PUSH2 0x7C0 JUMP JUMPDEST POP SWAP1 POP PUSH2 0x7C0 JUMP JUMPDEST PUSH1 0x66 SLOAD PUSH1 0xFF AND ISZERO PUSH2 0x1A80 JUMPI PUSH1 0x40 MLOAD PUSH3 0x461BCD PUSH1 0xE5 SHL DUP2 MSTORE PUSH1 0x20 PUSH1 0x4 DUP3 ADD MSTORE PUSH1 0x10 PUSH1 0x24 DUP3 ADD MSTORE PUSH16 0x14185D5CD8589B194E881C185D5CD959 PUSH1 0x82 SHL PUSH1 0x44 DUP3 ADD MSTORE PUSH1 0x64 ADD PUSH2 0x9C1 JUMP JUMPDEST PUSH1 0x0 SLOAD PUSH2 0x100 SWAP1 DIV PUSH1 0xFF AND PUSH2 0x1A80 JUMPI PUSH1 0x40 MLOAD PUSH3 0x461BCD PUSH1 0xE5 SHL DUP2 MSTORE PUSH1 0x4 ADD PUSH2 0x9C1 SWAP1 PUSH2 0x380A JUMP JUMPDEST PUSH1 0x0 SLOAD PUSH2 0x100 SWAP1 DIV PUSH1 0xFF AND PUSH2 0x2B26 JUMPI PUSH1 0x40 MLOAD PUSH3 0x461BCD PUSH1 0xE5 SHL DUP2 MSTORE PUSH1 0x4 ADD PUSH2 0x9C1 SWAP1 PUSH2 0x380A JUMP JUMPDEST PUSH1 0xCE PUSH2 0x2B32 DUP4 DUP3 PUSH2 0x35C8 JUMP JUMPDEST POP PUSH1 0xCF PUSH2 0x93C DUP3 DUP3 PUSH2 0x35C8 JUMP JUMPDEST PUSH1 0x0 SLOAD PUSH2 0x100 SWAP1 DIV PUSH1 0xFF AND PUSH2 0x2B66 JUMPI PUSH1 0x40 MLOAD PUSH3 0x461BCD PUSH1 0xE5 SHL DUP2 MSTORE PUSH1 0x4 ADD PUSH2 0x9C1 SWAP1 PUSH2 0x380A JUMP JUMPDEST PUSH1 0x66 DUP1 SLOAD PUSH1 0xFF NOT AND SWAP1 SSTORE JUMP JUMPDEST PUSH1 0x0 SLOAD PUSH2 0x100 SWAP1 DIV PUSH1 0xFF AND PUSH2 0x2B99 JUMPI PUSH1 0x40 MLOAD PUSH3 0x461BCD PUSH1 0xE5 SHL DUP2 MSTORE PUSH1 0x4 ADD PUSH2 0x9C1 SWAP1 PUSH2 0x380A JUMP JUMPDEST PUSH1 0x0 PUSH2 0x100 DUP2 SWAP1 SSTORE PUSH2 0x101 SSTORE JUMP JUMPDEST PUSH1 0x0 SLOAD PUSH2 0x100 SWAP1 DIV PUSH1 0xFF AND PUSH2 0x2BCE JUMPI PUSH1 0x40 MLOAD PUSH3 0x461BCD PUSH1 0xE5 SHL DUP2 MSTORE PUSH1 0x4 ADD PUSH2 0x9C1 SWAP1 PUSH2 0x380A JUMP JUMPDEST PUSH2 0x390 DUP1 SLOAD PUSH1 0xFF NOT AND PUSH1 0xFF SWAP3 SWAP1 SWAP3 AND SWAP2 SWAP1 SWAP2 OR SWAP1 SSTORE JUMP JUMPDEST PUSH1 0x0 SLOAD PUSH2 0x100 SWAP1 DIV PUSH1 0xFF AND PUSH2 0x2C0C JUMPI PUSH1 0x40 MLOAD PUSH3 0x461BCD PUSH1 0xE5 SHL DUP2 MSTORE PUSH1 0x4 ADD PUSH2 0x9C1 SWAP1 PUSH2 0x380A JUMP JUMPDEST PUSH2 0x1CC PUSH2 0x2C19 DUP4 DUP3 PUSH2 0x35C8 JUMP JUMPDEST POP PUSH2 0x1CD PUSH2 0x93C DUP3 DUP3 PUSH2 0x35C8 JUMP JUMPDEST PUSH1 0x0 SLOAD PUSH2 0x100 SWAP1 DIV PUSH1 0xFF AND PUSH2 0x2C4E JUMPI PUSH1 0x40 MLOAD PUSH3 0x461BCD PUSH1 0xE5 SHL DUP2 MSTORE PUSH1 0x4 ADD PUSH2 0x9C1 SWAP1 PUSH2 0x380A JUMP JUMPDEST PUSH2 0x1CB DUP1 SLOAD PUSH1 0xFF NOT AND DUP4 ISZERO ISZERO OR SWAP1 SSTORE PUSH2 0x2C68 PUSH1 0x0 DUP3 PUSH2 0x155E JUMP JUMPDEST PUSH2 0x2C80 PUSH1 0x0 DUP1 MLOAD PUSH1 0x20 PUSH2 0x395B DUP4 CODECOPY DUP2 MLOAD SWAP2 MSTORE DUP3 PUSH2 0x155E JUMP JUMPDEST PUSH2 0x2CAA PUSH32 0x9F2DF0FED2C77648DE5860A4CC508CD0818C85B8B8A1AB4CEEEF8D981C8956A6 DUP3 PUSH2 0x155E JUMP JUMPDEST PUSH2 0x2CD4 PUSH32 0x3C11D16CBAFFD01DF69CE1C404F6340EE057498F5F00246190EA54220576A848 DUP3 PUSH2 0x155E JUMP JUMPDEST PUSH2 0x2CEC PUSH1 0x0 DUP1 MLOAD PUSH1 0x20 PUSH2 0x391B DUP4 CODECOPY DUP2 MLOAD SWAP2 MSTORE DUP3 PUSH2 0x155E JUMP JUMPDEST PUSH2 0x9D4 PUSH1 0x0 DUP1 MLOAD PUSH1 0x20 PUSH2 0x393B DUP4 CODECOPY DUP2 MLOAD SWAP2 MSTORE DUP3 PUSH2 0x155E JUMP JUMPDEST PUSH1 0x0 PUSH2 0x2D10 DUP5 DUP5 PUSH2 0x105B JUMP JUMPDEST SWAP1 POP PUSH1 0x0 NOT DUP2 EQ PUSH2 0x2008 JUMPI DUP2 DUP2 LT ISZERO PUSH2 0x2D6B JUMPI PUSH1 0x40 MLOAD PUSH3 0x461BCD PUSH1 0xE5 SHL DUP2 MSTORE PUSH1 0x20 PUSH1 0x4 DUP3 ADD MSTORE PUSH1 0x1D PUSH1 0x24 DUP3 ADD MSTORE PUSH32 0x45524332303A20696E73756666696369656E7420616C6C6F77616E6365000000 PUSH1 0x44 DUP3 ADD MSTORE PUSH1 0x64 ADD PUSH2 0x9C1 JUMP JUMPDEST PUSH2 0x2008 DUP5 DUP5 DUP5 DUP5 SUB PUSH2 0x13CE JUMP JUMPDEST PUSH1 0x60 PUSH2 0x7C0 PUSH1 0x1 PUSH1 0x1 PUSH1 0xA0 SHL SUB DUP4 AND PUSH1 0x14 JUMPDEST PUSH1 0x60 PUSH1 0x0 PUSH2 0x2D99 DUP4 PUSH1 0x2 PUSH2 0x38CA JUMP JUMPDEST PUSH2 0x2DA4 SWAP1 PUSH1 0x2 PUSH2 0x356F JUMP JUMPDEST PUSH8 0xFFFFFFFFFFFFFFFF DUP2 GT ISZERO PUSH2 0x2DBC JUMPI PUSH2 0x2DBC PUSH2 0x31DD JUMP JUMPDEST PUSH1 0x40 MLOAD SWAP1 DUP1 DUP3 MSTORE DUP1 PUSH1 0x1F ADD PUSH1 0x1F NOT AND PUSH1 0x20 ADD DUP3 ADD PUSH1 0x40 MSTORE DUP1 ISZERO PUSH2 0x2DE6 JUMPI PUSH1 0x20 DUP3 ADD DUP2 DUP1 CALLDATASIZE DUP4 CALLDATACOPY ADD SWAP1 POP JUMPDEST POP SWAP1 POP PUSH1 0x3 PUSH1 0xFC SHL DUP2 PUSH1 0x0 DUP2 MLOAD DUP2 LT PUSH2 0x2E01 JUMPI PUSH2 0x2E01 PUSH2 0x36B7 JUMP JUMPDEST PUSH1 0x20 ADD ADD SWAP1 PUSH1 0x1 PUSH1 0x1 PUSH1 0xF8 SHL SUB NOT AND SWAP1 DUP2 PUSH1 0x0 BYTE SWAP1 MSTORE8 POP PUSH1 0xF PUSH1 0xFB SHL DUP2 PUSH1 0x1 DUP2 MLOAD DUP2 LT PUSH2 0x2E30 JUMPI PUSH2 0x2E30 PUSH2 0x36B7 JUMP JUMPDEST PUSH1 0x20 ADD ADD SWAP1 PUSH1 0x1 PUSH1 0x1 PUSH1 0xF8 SHL SUB NOT AND SWAP1 DUP2 PUSH1 0x0 BYTE SWAP1 MSTORE8 POP PUSH1 0x0 PUSH2 0x2E54 DUP5 PUSH1 0x2 PUSH2 0x38CA JUMP JUMPDEST PUSH2 0x2E5F SWAP1 PUSH1 0x1 PUSH2 0x356F JUMP JUMPDEST SWAP1 POP JUMPDEST PUSH1 0x1 DUP2 GT ISZERO PUSH2 0x2ED7 JUMPI PUSH16 0x181899199A1A9B1B9C1CB0B131B232B3 PUSH1 0x81 SHL DUP6 PUSH1 0xF AND PUSH1 0x10 DUP2 LT PUSH2 0x2E93 JUMPI PUSH2 0x2E93 PUSH2 0x36B7 JUMP JUMPDEST BYTE PUSH1 0xF8 SHL DUP3 DUP3 DUP2 MLOAD DUP2 LT PUSH2 0x2EA9 JUMPI PUSH2 0x2EA9 PUSH2 0x36B7 JUMP JUMPDEST PUSH1 0x20 ADD ADD SWAP1 PUSH1 0x1 PUSH1 0x1 PUSH1 0xF8 SHL SUB NOT AND SWAP1 DUP2 PUSH1 0x0 BYTE SWAP1 MSTORE8 POP PUSH1 0x4 SWAP5 SWAP1 SWAP5 SHR SWAP4 PUSH2 0x2ED0 DUP2 PUSH2 0x38E1 JUMP JUMPDEST SWAP1 POP PUSH2 0x2E62 JUMP JUMPDEST POP DUP4 ISZERO PUSH2 0x90F JUMPI PUSH1 0x40 MLOAD PUSH3 0x461BCD PUSH1 0xE5 SHL DUP2 MSTORE PUSH1 0x20 PUSH1 0x4 DUP3 ADD DUP2 SWAP1 MSTORE PUSH1 0x24 DUP3 ADD MSTORE PUSH32 0x537472696E67733A20686578206C656E67746820696E73756666696369656E74 PUSH1 0x44 DUP3 ADD MSTORE PUSH1 0x64 ADD PUSH2 0x9C1 JUMP JUMPDEST PUSH2 0x2F2E PUSH2 0x2F9B JUMP JUMPDEST PUSH1 0x1 PUSH1 0x1 PUSH1 0xA0 SHL SUB DUP4 AND ISZERO PUSH2 0x2F66 JUMPI PUSH2 0x2F46 DUP4 PUSH2 0x2FBE JUMP JUMPDEST PUSH1 0x1 PUSH1 0x1 PUSH1 0xA0 SHL SUB DUP3 AND ISZERO PUSH2 0x2F5E JUMPI PUSH2 0x93C DUP3 PUSH2 0x2FBE JUMP JUMPDEST PUSH2 0x93C PUSH2 0x2FF1 JUMP JUMPDEST PUSH2 0x2F5E DUP3 PUSH2 0x2FBE JUMP JUMPDEST PUSH1 0x0 PUSH2 0x2F7E PUSH1 0x2 DUP5 DUP5 XOR PUSH2 0x38F8 JUMP JUMPDEST PUSH2 0x90F SWAP1 DUP5 DUP5 AND PUSH2 0x356F JUMP JUMPDEST PUSH1 0x0 DUP3 DUP2 MSTORE PUSH1 0x20 DUP2 KECCAK256 DUP3 ADD DUP1 PUSH2 0xA62 JUMP JUMPDEST PUSH1 0x0 DUP1 PUSH2 0x2FA6 PUSH2 0x26B6 JUMP JUMPDEST SWAP1 SWAP3 POP SWAP1 POP DUP2 ISZERO PUSH2 0x9D4 JUMPI PUSH2 0x100 SWAP2 SWAP1 SWAP2 SSTORE PUSH2 0x101 SSTORE JUMP JUMPDEST PUSH1 0x1 PUSH1 0x1 PUSH1 0xA0 SHL SUB DUP2 AND PUSH1 0x0 SWAP1 DUP2 MSTORE PUSH1 0xFD PUSH1 0x20 SWAP1 DUP2 MSTORE PUSH1 0x40 DUP1 DUP4 KECCAK256 PUSH1 0xCB SWAP1 SWAP3 MSTORE SWAP1 SWAP2 KECCAK256 SLOAD PUSH2 0xA3B SWAP2 SWAP1 PUSH2 0x2FFF JUMP JUMPDEST PUSH2 0x2FFF JUMP JUMPDEST PUSH2 0x1A80 PUSH1 0xFE PUSH2 0x2FEC PUSH1 0xCD SLOAD SWAP1 JUMP JUMPDEST PUSH2 0x100 SLOAD DUP1 PUSH2 0x300D DUP5 PUSH2 0x3041 JUMP JUMPDEST LT ISZERO PUSH2 0x93C JUMPI DUP3 SLOAD PUSH1 0x1 DUP1 DUP3 ADD DUP6 SSTORE PUSH1 0x0 DUP6 DUP2 MSTORE PUSH1 0x20 DUP1 DUP3 KECCAK256 SWAP1 SWAP4 ADD SWAP4 SWAP1 SWAP4 SSTORE SWAP4 DUP5 ADD DUP1 SLOAD SWAP5 DUP6 ADD DUP2 SSTORE DUP3 MSTORE SWAP1 KECCAK256 SWAP1 SWAP2 ADD SSTORE JUMP JUMPDEST DUP1 SLOAD PUSH1 0x0 SWAP1 DUP2 SUB PUSH2 0x3054 JUMPI POP PUSH1 0x0 SWAP2 SWAP1 POP JUMP JUMPDEST DUP2 SLOAD DUP3 SWAP1 PUSH2 0x3064 SWAP1 PUSH1 0x1 SWAP1 PUSH2 0x36A4 JUMP JUMPDEST DUP2 SLOAD DUP2 LT PUSH2 0x3074 JUMPI PUSH2 0x3074 PUSH2 0x36B7 JUMP JUMPDEST SWAP1 PUSH1 0x0 MSTORE PUSH1 0x20 PUSH1 0x0 KECCAK256 ADD SLOAD SWAP1 POP SWAP2 SWAP1 POP JUMP JUMPDEST PUSH1 0x0 PUSH1 0x20 DUP3 DUP5 SUB SLT ISZERO PUSH2 0x3098 JUMPI PUSH1 0x0 DUP1 REVERT JUMPDEST DUP2 CALLDATALOAD PUSH1 0x1 PUSH1 0x1 PUSH1 0xE0 SHL SUB NOT DUP2 AND DUP2 EQ PUSH2 0x90F JUMPI PUSH1 0x0 DUP1 REVERT JUMPDEST PUSH1 0x0 JUMPDEST DUP4 DUP2 LT ISZERO PUSH2 0x30CB JUMPI DUP2 DUP2 ADD MLOAD DUP4 DUP3 ADD MSTORE PUSH1 0x20 ADD PUSH2 0x30B3 JUMP JUMPDEST POP POP PUSH1 0x0 SWAP2 ADD MSTORE JUMP JUMPDEST PUSH1 0x20 DUP2 MSTORE PUSH1 0x0 DUP3 MLOAD DUP1 PUSH1 0x20 DUP5 ADD MSTORE PUSH2 0x30F3 DUP2 PUSH1 0x40 DUP6 ADD PUSH1 0x20 DUP8 ADD PUSH2 0x30B0 JUMP JUMPDEST PUSH1 0x1F ADD PUSH1 0x1F NOT AND SWAP2 SWAP1 SWAP2 ADD PUSH1 0x40 ADD SWAP3 SWAP2 POP POP JUMP JUMPDEST PUSH1 0x1 PUSH1 0x1 PUSH1 0xA0 SHL SUB DUP2 AND DUP2 EQ PUSH2 0xA3B JUMPI PUSH1 0x0 DUP1 REVERT JUMPDEST DUP1 CALLDATALOAD PUSH2 0xD46 DUP2 PUSH2 0x3107 JUMP JUMPDEST PUSH1 0x0 DUP1 PUSH1 0x40 DUP4 DUP6 SUB SLT ISZERO PUSH2 0x313A JUMPI PUSH1 0x0 DUP1 REVERT JUMPDEST DUP3 CALLDATALOAD PUSH2 0x3145 DUP2 PUSH2 0x3107 JUMP JUMPDEST SWAP5 PUSH1 0x20 SWAP4 SWAP1 SWAP4 ADD CALLDATALOAD SWAP4 POP POP POP JUMP JUMPDEST PUSH1 0x0 DUP1 PUSH1 0x0 PUSH1 0x60 DUP5 DUP7 SUB SLT ISZERO PUSH2 0x3168 JUMPI PUSH1 0x0 DUP1 REVERT JUMPDEST DUP4 CALLDATALOAD PUSH2 0x3173 DUP2 PUSH2 0x3107 JUMP JUMPDEST SWAP3 POP PUSH1 0x20 DUP5 ADD CALLDATALOAD PUSH2 0x3183 DUP2 PUSH2 0x3107 JUMP JUMPDEST SWAP3 SWAP6 SWAP3 SWAP5 POP POP POP PUSH1 0x40 SWAP2 SWAP1 SWAP2 ADD CALLDATALOAD SWAP1 JUMP JUMPDEST PUSH1 0x0 PUSH1 0x20 DUP3 DUP5 SUB SLT ISZERO PUSH2 0x31A6 JUMPI PUSH1 0x0 DUP1 REVERT JUMPDEST POP CALLDATALOAD SWAP2 SWAP1 POP JUMP JUMPDEST PUSH1 0x0 DUP1 PUSH1 0x40 DUP4 DUP6 SUB SLT ISZERO PUSH2 0x31C0 JUMPI PUSH1 0x0 DUP1 REVERT JUMPDEST DUP3 CALLDATALOAD SWAP2 POP PUSH1 0x20 DUP4 ADD CALLDATALOAD PUSH2 0x31D2 DUP2 PUSH2 0x3107 JUMP JUMPDEST DUP1 SWAP2 POP POP SWAP3 POP SWAP3 SWAP1 POP JUMP JUMPDEST PUSH4 0x4E487B71 PUSH1 0xE0 SHL PUSH1 0x0 MSTORE PUSH1 0x41 PUSH1 0x4 MSTORE PUSH1 0x24 PUSH1 0x0 REVERT JUMPDEST PUSH1 0x40 MLOAD PUSH1 0x1F DUP3 ADD PUSH1 0x1F NOT AND DUP2 ADD PUSH8 0xFFFFFFFFFFFFFFFF DUP2 GT DUP3 DUP3 LT OR ISZERO PUSH2 0x321C JUMPI PUSH2 0x321C PUSH2 0x31DD JUMP JUMPDEST PUSH1 0x40 MSTORE SWAP2 SWAP1 POP JUMP JUMPDEST PUSH1 0x0 PUSH8 0xFFFFFFFFFFFFFFFF DUP3 GT ISZERO PUSH2 0x323E JUMPI PUSH2 0x323E PUSH2 0x31DD JUMP JUMPDEST POP PUSH1 0x1F ADD PUSH1 0x1F NOT AND PUSH1 0x20 ADD SWAP1 JUMP JUMPDEST PUSH1 0x0 DUP3 PUSH1 0x1F DUP4 ADD SLT PUSH2 0x325D JUMPI PUSH1 0x0 DUP1 REVERT JUMPDEST DUP2 CALLDATALOAD PUSH2 0x3270 PUSH2 0x326B DUP3 PUSH2 0x3224 JUMP JUMPDEST PUSH2 0x31F3 JUMP JUMPDEST DUP2 DUP2 MSTORE DUP5 PUSH1 0x20 DUP4 DUP7 ADD ADD GT ISZERO PUSH2 0x3285 JUMPI PUSH1 0x0 DUP1 REVERT JUMPDEST DUP2 PUSH1 0x20 DUP6 ADD PUSH1 0x20 DUP4 ADD CALLDATACOPY PUSH1 0x0 SWAP2 DUP2 ADD PUSH1 0x20 ADD SWAP2 SWAP1 SWAP2 MSTORE SWAP4 SWAP3 POP POP POP JUMP JUMPDEST PUSH1 0x0 DUP1 PUSH1 0x40 DUP4 DUP6 SUB SLT ISZERO PUSH2 0x32B5 JUMPI PUSH1 0x0 DUP1 REVERT JUMPDEST DUP3 CALLDATALOAD PUSH2 0x32C0 DUP2 PUSH2 0x3107 JUMP JUMPDEST SWAP2 POP PUSH1 0x20 DUP4 ADD CALLDATALOAD PUSH8 0xFFFFFFFFFFFFFFFF DUP2 GT ISZERO PUSH2 0x32DC JUMPI PUSH1 0x0 DUP1 REVERT JUMPDEST PUSH2 0x32E8 DUP6 DUP3 DUP7 ADD PUSH2 0x324C JUMP JUMPDEST SWAP2 POP POP SWAP3 POP SWAP3 SWAP1 POP JUMP JUMPDEST PUSH1 0x0 DUP1 PUSH1 0x0 PUSH1 0x60 DUP5 DUP7 SUB SLT ISZERO PUSH2 0x3307 JUMPI PUSH1 0x0 DUP1 REVERT JUMPDEST DUP4 CALLDATALOAD PUSH2 0x3312 DUP2 PUSH2 0x3107 JUMP JUMPDEST SWAP6 PUSH1 0x20 DUP6 ADD CALLDATALOAD SWAP6 POP PUSH1 0x40 SWAP1 SWAP5 ADD CALLDATALOAD SWAP4 SWAP3 POP POP POP JUMP JUMPDEST PUSH1 0x0 PUSH1 0x20 DUP3 DUP5 SUB SLT ISZERO PUSH2 0x3339 JUMPI PUSH1 0x0 DUP1 REVERT JUMPDEST DUP2 CALLDATALOAD PUSH2 0x90F DUP2 PUSH2 0x3107 JUMP JUMPDEST PUSH1 0x0 PUSH1 0x20 DUP3 DUP5 SUB SLT ISZERO PUSH2 0x3356 JUMPI PUSH1 0x0 DUP1 REVERT JUMPDEST DUP2 CALLDATALOAD PUSH8 0xFFFFFFFFFFFFFFFF DUP2 GT ISZERO PUSH2 0x336D JUMPI PUSH1 0x0 DUP1 REVERT JUMPDEST PUSH2 0xA62 DUP5 DUP3 DUP6 ADD PUSH2 0x324C JUMP JUMPDEST PUSH1 0xFF DUP2 AND DUP2 EQ PUSH2 0xA3B JUMPI PUSH1 0x0 DUP1 REVERT JUMPDEST PUSH1 0x0 PUSH1 0x20 DUP3 DUP5 SUB SLT ISZERO PUSH2 0x339A JUMPI PUSH1 0x0 DUP1 REVERT JUMPDEST DUP2 CALLDATALOAD PUSH2 0x90F DUP2 PUSH2 0x3379 JUMP JUMPDEST PUSH1 0x20 DUP1 DUP3 MSTORE DUP3 MLOAD DUP3 DUP3 ADD DUP2 SWAP1 MSTORE PUSH1 0x0 SWAP2 SWAP1 DUP5 DUP3 ADD SWAP1 PUSH1 0x40 DUP6 ADD SWAP1 DUP5 JUMPDEST DUP2 DUP2 LT ISZERO PUSH2 0x33DD JUMPI DUP4 MLOAD DUP4 MSTORE SWAP3 DUP5 ADD SWAP3 SWAP2 DUP5 ADD SWAP2 PUSH1 0x1 ADD PUSH2 0x33C1 JUMP JUMPDEST POP SWAP1 SWAP7 SWAP6 POP POP POP POP POP POP JUMP JUMPDEST PUSH1 0x0 DUP1 PUSH1 0x40 DUP4 DUP6 SUB SLT ISZERO PUSH2 0x33FC JUMPI PUSH1 0x0 DUP1 REVERT JUMPDEST POP POP DUP1 CALLDATALOAD SWAP3 PUSH1 0x20 SWAP1 SWAP2 ADD CALLDATALOAD SWAP2 POP JUMP JUMPDEST PUSH1 0x0 DUP1 PUSH1 0x40 DUP4 DUP6 SUB SLT ISZERO PUSH2 0x341E JUMPI PUSH1 0x0 DUP1 REVERT JUMPDEST DUP3 CALLDATALOAD PUSH2 0x3429 DUP2 PUSH2 0x3107 JUMP JUMPDEST SWAP2 POP PUSH1 0x20 DUP4 ADD CALLDATALOAD PUSH2 0x31D2 DUP2 PUSH2 0x3107 JUMP JUMPDEST DUP1 ISZERO ISZERO DUP2 EQ PUSH2 0xA3B JUMPI PUSH1 0x0 DUP1 REVERT JUMPDEST DUP1 CALLDATALOAD PUSH2 0xD46 DUP2 PUSH2 0x3439 JUMP JUMPDEST PUSH1 0x0 DUP1 PUSH1 0x0 DUP1 PUSH1 0x0 DUP1 PUSH1 0xC0 DUP8 DUP10 SUB SLT ISZERO PUSH2 0x346B JUMPI PUSH1 0x0 DUP1 REVERT JUMPDEST PUSH2 0x3474 DUP8 PUSH2 0x3447 JUMP JUMPDEST SWAP6 POP PUSH2 0x3482 PUSH1 0x20 DUP9 ADD PUSH2 0x311C JUMP JUMPDEST SWAP5 POP PUSH1 0x40 DUP8 ADD CALLDATALOAD PUSH8 0xFFFFFFFFFFFFFFFF DUP1 DUP3 GT ISZERO PUSH2 0x349F JUMPI PUSH1 0x0 DUP1 REVERT JUMPDEST PUSH2 0x34AB DUP11 DUP4 DUP12 ADD PUSH2 0x324C JUMP JUMPDEST SWAP6 POP PUSH1 0x60 DUP10 ADD CALLDATALOAD SWAP2 POP DUP1 DUP3 GT ISZERO PUSH2 0x34C1 JUMPI PUSH1 0x0 DUP1 REVERT JUMPDEST PUSH2 0x34CD DUP11 DUP4 DUP12 ADD PUSH2 0x324C JUMP JUMPDEST SWAP5 POP PUSH1 0x80 DUP10 ADD CALLDATALOAD SWAP2 POP DUP1 DUP3 GT ISZERO PUSH2 0x34E3 JUMPI PUSH1 0x0 DUP1 REVERT JUMPDEST PUSH2 0x34EF DUP11 DUP4 DUP12 ADD PUSH2 0x324C JUMP JUMPDEST SWAP4 POP PUSH1 0xA0 DUP10 ADD CALLDATALOAD SWAP2 POP DUP1 DUP3 GT ISZERO PUSH2 0x3505 JUMPI PUSH1 0x0 DUP1 REVERT JUMPDEST POP PUSH2 0x3512 DUP10 DUP3 DUP11 ADD PUSH2 0x324C JUMP JUMPDEST SWAP2 POP POP SWAP3 SWAP6 POP SWAP3 SWAP6 POP SWAP3 SWAP6 JUMP JUMPDEST PUSH1 0x1 DUP2 DUP2 SHR SWAP1 DUP3 AND DUP1 PUSH2 0x3533 JUMPI PUSH1 0x7F DUP3 AND SWAP2 POP JUMPDEST PUSH1 0x20 DUP3 LT DUP2 SUB PUSH2 0x3553 JUMPI PUSH4 0x4E487B71 PUSH1 0xE0 SHL PUSH1 0x0 MSTORE PUSH1 0x22 PUSH1 0x4 MSTORE PUSH1 0x24 PUSH1 0x0 REVERT JUMPDEST POP SWAP2 SWAP1 POP JUMP JUMPDEST PUSH4 0x4E487B71 PUSH1 0xE0 SHL PUSH1 0x0 MSTORE PUSH1 0x11 PUSH1 0x4 MSTORE PUSH1 0x24 PUSH1 0x0 REVERT JUMPDEST DUP1 DUP3 ADD DUP1 DUP3 GT ISZERO PUSH2 0x7C0 JUMPI PUSH2 0x7C0 PUSH2 0x3559 JUMP JUMPDEST PUSH1 0x1F DUP3 GT ISZERO PUSH2 0x93C JUMPI PUSH1 0x0 DUP2 DUP2 MSTORE PUSH1 0x20 DUP2 KECCAK256 PUSH1 0x1F DUP6 ADD PUSH1 0x5 SHR DUP2 ADD PUSH1 0x20 DUP7 LT ISZERO PUSH2 0x35A9 JUMPI POP DUP1 JUMPDEST PUSH1 0x1F DUP6 ADD PUSH1 0x5 SHR DUP3 ADD SWAP2 POP JUMPDEST DUP2 DUP2 LT ISZERO PUSH2 0x2563 JUMPI DUP3 DUP2 SSTORE PUSH1 0x1 ADD PUSH2 0x35B5 JUMP JUMPDEST DUP2 MLOAD PUSH8 0xFFFFFFFFFFFFFFFF DUP2 GT ISZERO PUSH2 0x35E2 JUMPI PUSH2 0x35E2 PUSH2 0x31DD JUMP JUMPDEST PUSH2 0x35F6 DUP2 PUSH2 0x35F0 DUP5 SLOAD PUSH2 0x351F JUMP JUMPDEST DUP5 PUSH2 0x3582 JUMP JUMPDEST PUSH1 0x20 DUP1 PUSH1 0x1F DUP4 GT PUSH1 0x1 DUP2 EQ PUSH2 0x362B JUMPI PUSH1 0x0 DUP5 ISZERO PUSH2 0x3613 JUMPI POP DUP6 DUP4 ADD MLOAD JUMPDEST PUSH1 0x0 NOT PUSH1 0x3 DUP7 SWAP1 SHL SHR NOT AND PUSH1 0x1 DUP6 SWAP1 SHL OR DUP6 SSTORE PUSH2 0x2563 JUMP JUMPDEST PUSH1 0x0 DUP6 DUP2 MSTORE PUSH1 0x20 DUP2 KECCAK256 PUSH1 0x1F NOT DUP7 AND SWAP2 JUMPDEST DUP3 DUP2 LT ISZERO PUSH2 0x365A JUMPI DUP9 DUP7 ADD MLOAD DUP3 SSTORE SWAP5 DUP5 ADD SWAP5 PUSH1 0x1 SWAP1 SWAP2 ADD SWAP1 DUP5 ADD PUSH2 0x363B JUMP JUMPDEST POP DUP6 DUP3 LT ISZERO PUSH2 0x3678 JUMPI DUP8 DUP6 ADD MLOAD PUSH1 0x0 NOT PUSH1 0x3 DUP9 SWAP1 SHL PUSH1 0xF8 AND SHR NOT AND DUP2 SSTORE JUMPDEST POP POP POP POP POP PUSH1 0x1 SWAP1 DUP2 SHL ADD SWAP1 SSTORE POP JUMP JUMPDEST PUSH1 0x0 DUP3 MLOAD PUSH2 0x369A DUP2 DUP5 PUSH1 0x20 DUP8 ADD PUSH2 0x30B0 JUMP JUMPDEST SWAP2 SWAP1 SWAP2 ADD SWAP3 SWAP2 POP POP JUMP JUMPDEST DUP2 DUP2 SUB DUP2 DUP2 GT ISZERO PUSH2 0x7C0 JUMPI PUSH2 0x7C0 PUSH2 0x3559 JUMP JUMPDEST PUSH4 0x4E487B71 PUSH1 0xE0 SHL PUSH1 0x0 MSTORE PUSH1 0x32 PUSH1 0x4 MSTORE PUSH1 0x24 PUSH1 0x0 REVERT JUMPDEST PUSH1 0x0 PUSH1 0x1 DUP3 ADD PUSH2 0x36DF JUMPI PUSH2 0x36DF PUSH2 0x3559 JUMP JUMPDEST POP PUSH1 0x1 ADD SWAP1 JUMP JUMPDEST PUSH1 0x20 DUP1 DUP3 MSTORE PUSH1 0x1E SWAP1 DUP3 ADD MSTORE PUSH32 0x536E617073686F74207363686564756C656420696E2074686520706173740000 PUSH1 0x40 DUP3 ADD MSTORE PUSH1 0x60 ADD SWAP1 JUMP JUMPDEST PUSH1 0x0 PUSH1 0x20 DUP3 DUP5 SUB SLT ISZERO PUSH2 0x372F JUMPI PUSH1 0x0 DUP1 REVERT JUMPDEST DUP2 MLOAD PUSH8 0xFFFFFFFFFFFFFFFF DUP2 GT ISZERO PUSH2 0x3746 JUMPI PUSH1 0x0 DUP1 REVERT JUMPDEST DUP3 ADD PUSH1 0x1F DUP2 ADD DUP5 SGT PUSH2 0x3757 JUMPI PUSH1 0x0 DUP1 REVERT JUMPDEST DUP1 MLOAD PUSH2 0x3765 PUSH2 0x326B DUP3 PUSH2 0x3224 JUMP JUMPDEST DUP2 DUP2 MSTORE DUP6 PUSH1 0x20 DUP4 DUP6 ADD ADD GT ISZERO PUSH2 0x377A JUMPI PUSH1 0x0 DUP1 REVERT JUMPDEST PUSH2 0xBF7 DUP3 PUSH1 0x20 DUP4 ADD PUSH1 0x20 DUP7 ADD PUSH2 0x30B0 JUMP JUMPDEST PUSH1 0x20 DUP1 DUP3 MSTORE PUSH1 0x15 SWAP1 DUP3 ADD MSTORE PUSH21 0x536E617073686F7420616C726561647920646F6E65 PUSH1 0x58 SHL PUSH1 0x40 DUP3 ADD MSTORE PUSH1 0x60 ADD SWAP1 JUMP JUMPDEST PUSH4 0x4E487B71 PUSH1 0xE0 SHL PUSH1 0x0 MSTORE PUSH1 0x31 PUSH1 0x4 MSTORE PUSH1 0x24 PUSH1 0x0 REVERT JUMPDEST PUSH1 0x0 PUSH1 0x20 DUP3 DUP5 SUB SLT ISZERO PUSH2 0x37E2 JUMPI PUSH1 0x0 DUP1 REVERT JUMPDEST DUP2 MLOAD PUSH2 0x90F DUP2 PUSH2 0x3439 JUMP JUMPDEST PUSH1 0x0 PUSH1 0x20 DUP3 DUP5 SUB SLT ISZERO PUSH2 0x37FF JUMPI PUSH1 0x0 DUP1 REVERT JUMPDEST DUP2 MLOAD PUSH2 0x90F DUP2 PUSH2 0x3379 JUMP JUMPDEST PUSH1 0x20 DUP1 DUP3 MSTORE PUSH1 0x2B SWAP1 DUP3 ADD MSTORE PUSH32 0x496E697469616C697A61626C653A20636F6E7472616374206973206E6F742069 PUSH1 0x40 DUP3 ADD MSTORE PUSH11 0x6E697469616C697A696E67 PUSH1 0xA8 SHL PUSH1 0x60 DUP3 ADD MSTORE PUSH1 0x80 ADD SWAP1 JUMP JUMPDEST PUSH32 0x416363657373436F6E74726F6C3A206163636F756E7420000000000000000000 DUP2 MSTORE PUSH1 0x0 DUP4 MLOAD PUSH2 0x388D DUP2 PUSH1 0x17 DUP6 ADD PUSH1 0x20 DUP9 ADD PUSH2 0x30B0 JUMP JUMPDEST PUSH17 0x1034B99036B4B9B9B4B733903937B6329 PUSH1 0x7D SHL PUSH1 0x17 SWAP2 DUP5 ADD SWAP2 DUP3 ADD MSTORE DUP4 MLOAD PUSH2 0x38BE DUP2 PUSH1 0x28 DUP5 ADD PUSH1 0x20 DUP9 ADD PUSH2 0x30B0 JUMP JUMPDEST ADD PUSH1 0x28 ADD SWAP5 SWAP4 POP POP POP POP JUMP JUMPDEST DUP1 DUP3 MUL DUP2 ISZERO DUP3 DUP3 DIV DUP5 EQ OR PUSH2 0x7C0 JUMPI PUSH2 0x7C0 PUSH2 0x3559 JUMP JUMPDEST PUSH1 0x0 DUP2 PUSH2 0x38F0 JUMPI PUSH2 0x38F0 PUSH2 0x3559 JUMP JUMPDEST POP PUSH1 0x0 NOT ADD SWAP1 JUMP JUMPDEST PUSH1 0x0 DUP3 PUSH2 0x3915 JUMPI PUSH4 0x4E487B71 PUSH1 0xE0 SHL PUSH1 0x0 MSTORE PUSH1 0x12 PUSH1 0x4 MSTORE PUSH1 0x24 PUSH1 0x0 REVERT JUMPDEST POP DIV SWAP1 JUMP INVALID PUSH6 0xD7A28E3265B3 PUSH27 0x6474929F336521B332C1681B933F6CB9F3376673440D862A809A0F 0xC4 SWAP16 0xC0 PUSH1 0x5 BLOCKHASH CALL 0xD3 SWAP15 0x23 GASLIMIT 0x4E 0x1F PUSH16 0x215BC7505FA22B17C154616570DDEF97 RETURNDATACOPY RETURN SWAP14 PUSH23 0xCC2C6090FEAB1C030BEC6AB5DB557F64DF047A4C4F9B59 MSTORE8 0xCF SAR RETURN LOG2 PUSH5 0x6970667358 0x22 SLT KECCAK256 0xCF PUSH32 0xF84A80031B639876A36908D6F27E5F3358558163E4ABC54CC11E657AB9B96473 PUSH16 0x6C63430008110033496E697469616C69 PUSH27 0x61626C653A20636F6E7472616374206973206E6F7420697F26B83F 0xF9 PUSH15 0x1F2B6A682F133852F6798A09C465DA SWAP6 SWAP3 EQ PUSH1 0xCE 0xFB CODESIZE SELFBALANCE BLOCKHASH 0x24 SWAP9 "
		},
		"gasEstimates": {
			"creation": {
				"codeDepositCost": "2953600",
				"executionCost": "infinite",
				"totalCost": "infinite"
			},
			"external": {
				"BURNER_ROLE()": "308",
				"DEFAULT_ADMIN_ROLE()": "263",
				"ENFORCER_ROLE()": "infinite",
				"MINTER_ROLE()": "284",
				"PAUSER_ROLE()": "infinite",
				"SNAPSHOOTER_ROLE()": "infinite",
				"allowance(address,address)": "infinite",
				"approve(address,uint256)": "24675",
				"approve(address,uint256,uint256)": "27138",
				"balanceOf(address)": "2642",
				"decimals()": "2435",
				"decreaseAllowance(address,uint256)": "27045",
				"detectTransferRestriction(address,address,uint256)": "infinite",
				"forceBurn(address,uint256)": "infinite",
				"freeze(address,string)": "infinite",
				"frozen(address)": "2600",
				"getAllSnapshots()": "infinite",
				"getNextSnapshots()": "infinite",
				"getRoleAdmin(bytes32)": "2535",
				"grantRole(bytes32,address)": "infinite",
				"hasRole(bytes32,address)": "2787",
				"increaseAllowance(address,uint256)": "27100",
				"initialize(bool,address,string,string,string,string)": "infinite",
				"isTrustedForwarder(address)": "infinite",
				"kill()": "infinite",
				"messageForTransferRestriction(uint8)": "infinite",
				"mint(address,uint256)": "infinite",
				"name()": "infinite",
				"pause()": "infinite",
				"paused()": "2383",
				"renounceRole(bytes32,address)": "29112",
				"rescheduleSnapshot(uint256,uint256)": "infinite",
				"revokeRole(bytes32,address)": "infinite",
				"ruleEngine()": "2469",
				"scheduleSnapshot(uint256)": "infinite",
				"scheduleSnapshotNotOptimized(uint256)": "infinite",
				"setRuleEngine(address)": "infinite",
				"setTerms(string)": "infinite",
				"setTokenId(string)": "infinite",
				"snapshotBalanceOf(uint256,address)": "infinite",
				"snapshotTotalSupply(uint256)": "infinite",
				"supportsInterface(bytes4)": "473",
				"symbol()": "infinite",
				"terms()": "infinite",
				"tokenId()": "infinite",
				"totalSupply()": "2416",
				"transfer(address,uint256)": "infinite",
				"transferFrom(address,address,uint256)": "infinite",
				"unfreeze(address,string)": "infinite",
				"unpause()": "infinite",
				"unscheduleLastSnapshot(uint256)": "infinite",
				"unscheduleSnapshotNotOptimized(uint256)": "infinite",
				"validateTransfer(address,address,uint256)": "infinite"
			},
			"internal": {
				"__CMTAT_init(bool,address,string memory,string memory,string memory,string memory)": "infinite",
				"__CMTAT_init_unchained(bool,address)": "infinite",
				"_beforeTokenTransfer(address,address,uint256)": "infinite",
				"_msgData()": "infinite",
				"_msgSender()": "infinite"
			}
		},
		"methodIdentifiers": {
			"BURNER_ROLE()": "282c51f3",
			"DEFAULT_ADMIN_ROLE()": "a217fddf",
			"ENFORCER_ROLE()": "6439fd75",
			"MINTER_ROLE()": "d5391393",
			"PAUSER_ROLE()": "e63ab1e9",
			"SNAPSHOOTER_ROLE()": "246b72ec",
			"allowance(address,address)": "dd62ed3e",
			"approve(address,uint256)": "095ea7b3",
			"approve(address,uint256,uint256)": "426a8493",
			"balanceOf(address)": "70a08231",
			"decimals()": "313ce567",
			"decreaseAllowance(address,uint256)": "a457c2d7",
			"detectTransferRestriction(address,address,uint256)": "d4ce1415",
			"forceBurn(address,uint256)": "e2d6f634",
			"freeze(address,string)": "3f4f9067",
			"frozen(address)": "d0516650",
			"getAllSnapshots()": "be370b4f",
			"getNextSnapshots()": "fb78ed40",
			"getRoleAdmin(bytes32)": "248a9ca3",
			"grantRole(bytes32,address)": "2f2ff15d",
			"hasRole(bytes32,address)": "91d14854",
			"increaseAllowance(address,uint256)": "39509351",
			"initialize(bool,address,string,string,string,string)": "e803855e",
			"isTrustedForwarder(address)": "572b6c05",
			"kill()": "41c0e1b5",
			"messageForTransferRestriction(uint8)": "7f4ab1dd",
			"mint(address,uint256)": "40c10f19",
			"name()": "06fdde03",
			"pause()": "8456cb59",
			"paused()": "5c975abb",
			"renounceRole(bytes32,address)": "36568abe",
			"rescheduleSnapshot(uint256,uint256)": "d21268ef",
			"revokeRole(bytes32,address)": "d547741f",
			"ruleEngine()": "fcf196b4",
			"scheduleSnapshot(uint256)": "a312e155",
			"scheduleSnapshotNotOptimized(uint256)": "3c07af0f",
			"setRuleEngine(address)": "a4a0a301",
			"setTerms(string)": "78f86afc",
			"setTokenId(string)": "dcfd616f",
			"snapshotBalanceOf(uint256,address)": "634daf76",
			"snapshotTotalSupply(uint256)": "5ee7a942",
			"supportsInterface(bytes4)": "01ffc9a7",
			"symbol()": "95d89b41",
			"terms()": "d5025625",
			"tokenId()": "17d70f7c",
			"totalSupply()": "18160ddd",
			"transfer(address,uint256)": "a9059cbb",
			"transferFrom(address,address,uint256)": "23b872dd",
			"unfreeze(address,string)": "75bf8fe7",
			"unpause()": "3f4ba83a",
			"unscheduleLastSnapshot(uint256)": "fb1cb59e",
			"unscheduleSnapshotNotOptimized(uint256)": "8430d011",
			"validateTransfer(address,address,uint256)": "c6946a12"
		}
	},
	"abi": [
		{
			"inputs": [
				{
					"internalType": "address",
					"name": "forwarder",
					"type": "address"
				},
				{
					"internalType": "bool",
					"name": "deployedWithProxy_",
					"type": "bool"
				},
				{
					"internalType": "address",
					"name": "owner",
					"type": "address"
				},
				{
					"internalType": "string",
					"name": "name",
					"type": "string"
				},
				{
					"internalType": "string",
					"name": "symbol",
					"type": "string"
				},
				{
					"internalType": "string",
					"name": "tokenId",
					"type": "string"
				},
				{
					"internalType": "string",
					"name": "terms",
					"type": "string"
				}
			],
			"stateMutability": "nonpayable",
			"type": "constructor"
		},
		{
			"anonymous": false,
			"inputs": [
				{
					"indexed": true,
					"internalType": "address",
					"name": "owner",
					"type": "address"
				},
				{
					"indexed": true,
					"internalType": "address",
					"name": "spender",
					"type": "address"
				},
				{
					"indexed": false,
					"internalType": "uint256",
					"name": "value",
					"type": "uint256"
				}
			],
			"name": "Approval",
			"type": "event"
		},
		{
			"anonymous": false,
			"inputs": [
				{
					"indexed": true,
					"internalType": "address",
					"name": "owner",
					"type": "address"
				},
				{
					"indexed": false,
					"internalType": "uint256",
					"name": "amount",
					"type": "uint256"
				}
			],
			"name": "Burn",
			"type": "event"
		},
		{
			"anonymous": false,
			"inputs": [
				{
					"indexed": true,
					"internalType": "address",
					"name": "enforcer",
					"type": "address"
				},
				{
					"indexed": true,
					"internalType": "address",
					"name": "owner",
					"type": "address"
				},
				{
					"indexed": true,
					"internalType": "string",
					"name": "reasonIndexed",
					"type": "string"
				},
				{
					"indexed": false,
					"internalType": "string",
					"name": "reason",
					"type": "string"
				}
			],
			"name": "Freeze",
			"type": "event"
		},
		{
			"anonymous": false,
			"inputs": [
				{
					"indexed": false,
					"internalType": "uint8",
					"name": "version",
					"type": "uint8"
				}
			],
			"name": "Initialized",
			"type": "event"
		},
		{
			"anonymous": false,
			"inputs": [
				{
					"indexed": true,
					"internalType": "address",
					"name": "beneficiary",
					"type": "address"
				},
				{
					"indexed": false,
					"internalType": "uint256",
					"name": "amount",
					"type": "uint256"
				}
			],
			"name": "Mint",
			"type": "event"
		},
		{
			"anonymous": false,
			"inputs": [
				{
					"indexed": false,
					"internalType": "address",
					"name": "account",
					"type": "address"
				}
			],
			"name": "Paused",
			"type": "event"
		},
		{
			"anonymous": false,
			"inputs": [
				{
					"indexed": true,
					"internalType": "bytes32",
					"name": "role",
					"type": "bytes32"
				},
				{
					"indexed": true,
					"internalType": "bytes32",
					"name": "previousAdminRole",
					"type": "bytes32"
				},
				{
					"indexed": true,
					"internalType": "bytes32",
					"name": "newAdminRole",
					"type": "bytes32"
				}
			],
			"name": "RoleAdminChanged",
			"type": "event"
		},
		{
			"anonymous": false,
			"inputs": [
				{
					"indexed": true,
					"internalType": "bytes32",
					"name": "role",
					"type": "bytes32"
				},
				{
					"indexed": true,
					"internalType": "address",
					"name": "account",
					"type": "address"
				},
				{
					"indexed": true,
					"internalType": "address",
					"name": "sender",
					"type": "address"
				}
			],
			"name": "RoleGranted",
			"type": "event"
		},
		{
			"anonymous": false,
			"inputs": [
				{
					"indexed": true,
					"internalType": "bytes32",
					"name": "role",
					"type": "bytes32"
				},
				{
					"indexed": true,
					"internalType": "address",
					"name": "account",
					"type": "address"
				},
				{
					"indexed": true,
					"internalType": "address",
					"name": "sender",
					"type": "address"
				}
			],
			"name": "RoleRevoked",
			"type": "event"
		},
		{
			"anonymous": false,
			"inputs": [
				{
					"indexed": true,
					"internalType": "address",
					"name": "newRuleEngine",
					"type": "address"
				}
			],
			"name": "RuleEngineSet",
			"type": "event"
		},
		{
			"anonymous": false,
			"inputs": [
				{
					"indexed": true,
					"internalType": "uint256",
					"name": "oldTime",
					"type": "uint256"
				},
				{
					"indexed": true,
					"internalType": "uint256",
					"name": "newTime",
					"type": "uint256"
				}
			],
			"name": "SnapshotSchedule",
			"type": "event"
		},
		{
			"anonymous": false,
			"inputs": [
				{
					"indexed": true,
					"internalType": "uint256",
					"name": "time",
					"type": "uint256"
				}
			],
			"name": "SnapshotUnschedule",
			"type": "event"
		},
		{
			"anonymous": false,
			"inputs": [
				{
					"indexed": true,
					"internalType": "address",
					"name": "owner",
					"type": "address"
				},
				{
					"indexed": true,
					"internalType": "address",
					"name": "spender",
					"type": "address"
				},
				{
					"indexed": false,
					"internalType": "uint256",
					"name": "amount",
					"type": "uint256"
				}
			],
			"name": "Spend",
			"type": "event"
		},
		{
			"anonymous": false,
			"inputs": [
				{
					"indexed": true,
					"internalType": "string",
					"name": "newTerm",
					"type": "string"
				}
			],
			"name": "TermSet",
			"type": "event"
		},
		{
			"anonymous": false,
			"inputs": [
				{
					"indexed": true,
					"internalType": "string",
					"name": "newTokenId",
					"type": "string"
				}
			],
			"name": "TokenIdSet",
			"type": "event"
		},
		{
			"anonymous": false,
			"inputs": [
				{
					"indexed": true,
					"internalType": "address",
					"name": "from",
					"type": "address"
				},
				{
					"indexed": true,
					"internalType": "address",
					"name": "to",
					"type": "address"
				},
				{
					"indexed": false,
					"internalType": "uint256",
					"name": "value",
					"type": "uint256"
				}
			],
			"name": "Transfer",
			"type": "event"
		},
		{
			"anonymous": false,
			"inputs": [
				{
					"indexed": true,
					"internalType": "address",
					"name": "enforcer",
					"type": "address"
				},
				{
					"indexed": true,
					"internalType": "address",
					"name": "owner",
					"type": "address"
				},
				{
					"indexed": true,
					"internalType": "string",
					"name": "reasonIndexed",
					"type": "string"
				},
				{
					"indexed": false,
					"internalType": "string",
					"name": "reason",
					"type": "string"
				}
			],
			"name": "Unfreeze",
			"type": "event"
		},
		{
			"anonymous": false,
			"inputs": [
				{
					"indexed": false,
					"internalType": "address",
					"name": "account",
					"type": "address"
				}
			],
			"name": "Unpaused",
			"type": "event"
		},
		{
			"inputs": [],
			"name": "BURNER_ROLE",
			"outputs": [
				{
					"internalType": "bytes32",
					"name": "",
					"type": "bytes32"
				}
			],
			"stateMutability": "view",
			"type": "function"
		},
		{
			"inputs": [],
			"name": "DEFAULT_ADMIN_ROLE",
			"outputs": [
				{
					"internalType": "bytes32",
					"name": "",
					"type": "bytes32"
				}
			],
			"stateMutability": "view",
			"type": "function"
		},
		{
			"inputs": [],
			"name": "ENFORCER_ROLE",
			"outputs": [
				{
					"internalType": "bytes32",
					"name": "",
					"type": "bytes32"
				}
			],
			"stateMutability": "view",
			"type": "function"
		},
		{
			"inputs": [],
			"name": "MINTER_ROLE",
			"outputs": [
				{
					"internalType": "bytes32",
					"name": "",
					"type": "bytes32"
				}
			],
			"stateMutability": "view",
			"type": "function"
		},
		{
			"inputs": [],
			"name": "PAUSER_ROLE",
			"outputs": [
				{
					"internalType": "bytes32",
					"name": "",
					"type": "bytes32"
				}
			],
			"stateMutability": "view",
			"type": "function"
		},
		{
			"inputs": [],
			"name": "SNAPSHOOTER_ROLE",
			"outputs": [
				{
					"internalType": "bytes32",
					"name": "",
					"type": "bytes32"
				}
			],
			"stateMutability": "view",
			"type": "function"
		},
		{
			"inputs": [
				{
					"internalType": "address",
					"name": "owner",
					"type": "address"
				},
				{
					"internalType": "address",
					"name": "spender",
					"type": "address"
				}
			],
			"name": "allowance",
			"outputs": [
				{
					"internalType": "uint256",
					"name": "",
					"type": "uint256"
				}
			],
			"stateMutability": "view",
			"type": "function"
		},
		{
			"inputs": [
				{
					"internalType": "address",
					"name": "spender",
					"type": "address"
				},
				{
					"internalType": "uint256",
					"name": "amount",
					"type": "uint256"
				}
			],
			"name": "approve",
			"outputs": [
				{
					"internalType": "bool",
					"name": "",
					"type": "bool"
				}
			],
			"stateMutability": "nonpayable",
			"type": "function"
		},
		{
			"inputs": [
				{
					"internalType": "address",
					"name": "spender",
					"type": "address"
				},
				{
					"internalType": "uint256",
					"name": "amount",
					"type": "uint256"
				},
				{
					"internalType": "uint256",
					"name": "currentAllowance",
					"type": "uint256"
				}
			],
			"name": "approve",
			"outputs": [
				{
					"internalType": "bool",
					"name": "",
					"type": "bool"
				}
			],
			"stateMutability": "nonpayable",
			"type": "function"
		},
		{
			"inputs": [
				{
					"internalType": "address",
					"name": "account",
					"type": "address"
				}
			],
			"name": "balanceOf",
			"outputs": [
				{
					"internalType": "uint256",
					"name": "",
					"type": "uint256"
				}
			],
			"stateMutability": "view",
			"type": "function"
		},
		{
			"inputs": [],
			"name": "decimals",
			"outputs": [
				{
					"internalType": "uint8",
					"name": "",
					"type": "uint8"
				}
			],
			"stateMutability": "view",
			"type": "function"
		},
		{
			"inputs": [
				{
					"internalType": "address",
					"name": "spender",
					"type": "address"
				},
				{
					"internalType": "uint256",
					"name": "subtractedValue",
					"type": "uint256"
				}
			],
			"name": "decreaseAllowance",
			"outputs": [
				{
					"internalType": "bool",
					"name": "",
					"type": "bool"
				}
			],
			"stateMutability": "nonpayable",
			"type": "function"
		},
		{
			"inputs": [
				{
					"internalType": "address",
					"name": "from",
					"type": "address"
				},
				{
					"internalType": "address",
					"name": "to",
					"type": "address"
				},
				{
					"internalType": "uint256",
					"name": "amount",
					"type": "uint256"
				}
			],
			"name": "detectTransferRestriction",
			"outputs": [
				{
					"internalType": "uint8",
					"name": "code",
					"type": "uint8"
				}
			],
			"stateMutability": "view",
			"type": "function"
		},
		{
			"inputs": [
				{
					"internalType": "address",
					"name": "account",
					"type": "address"
				},
				{
					"internalType": "uint256",
					"name": "amount",
					"type": "uint256"
				}
			],
			"name": "forceBurn",
			"outputs": [],
			"stateMutability": "nonpayable",
			"type": "function"
		},
		{
			"inputs": [
				{
					"internalType": "address",
					"name": "account",
					"type": "address"
				},
				{
					"internalType": "string",
					"name": "reason",
					"type": "string"
				}
			],
			"name": "freeze",
			"outputs": [
				{
					"internalType": "bool",
					"name": "",
					"type": "bool"
				}
			],
			"stateMutability": "nonpayable",
			"type": "function"
		},
		{
			"inputs": [
				{
					"internalType": "address",
					"name": "account",
					"type": "address"
				}
			],
			"name": "frozen",
			"outputs": [
				{
					"internalType": "bool",
					"name": "",
					"type": "bool"
				}
			],
			"stateMutability": "view",
			"type": "function"
		},
		{
			"inputs": [],
			"name": "getAllSnapshots",
			"outputs": [
				{
					"internalType": "uint256[]",
					"name": "",
					"type": "uint256[]"
				}
			],
			"stateMutability": "view",
			"type": "function"
		},
		{
			"inputs": [],
			"name": "getNextSnapshots",
			"outputs": [
				{
					"internalType": "uint256[]",
					"name": "",
					"type": "uint256[]"
				}
			],
			"stateMutability": "view",
			"type": "function"
		},
		{
			"inputs": [
				{
					"internalType": "bytes32",
					"name": "role",
					"type": "bytes32"
				}
			],
			"name": "getRoleAdmin",
			"outputs": [
				{
					"internalType": "bytes32",
					"name": "",
					"type": "bytes32"
				}
			],
			"stateMutability": "view",
			"type": "function"
		},
		{
			"inputs": [
				{
					"internalType": "bytes32",
					"name": "role",
					"type": "bytes32"
				},
				{
					"internalType": "address",
					"name": "account",
					"type": "address"
				}
			],
			"name": "grantRole",
			"outputs": [],
			"stateMutability": "nonpayable",
			"type": "function"
		},
		{
			"inputs": [
				{
					"internalType": "bytes32",
					"name": "role",
					"type": "bytes32"
				},
				{
					"internalType": "address",
					"name": "account",
					"type": "address"
				}
			],
			"name": "hasRole",
			"outputs": [
				{
					"internalType": "bool",
					"name": "",
					"type": "bool"
				}
			],
			"stateMutability": "view",
			"type": "function"
		},
		{
			"inputs": [
				{
					"internalType": "address",
					"name": "spender",
					"type": "address"
				},
				{
					"internalType": "uint256",
					"name": "addedValue",
					"type": "uint256"
				}
			],
			"name": "increaseAllowance",
			"outputs": [
				{
					"internalType": "bool",
					"name": "",
					"type": "bool"
				}
			],
			"stateMutability": "nonpayable",
			"type": "function"
		},
		{
			"inputs": [
				{
					"internalType": "bool",
					"name": "deployedWithProxy_",
					"type": "bool"
				},
				{
					"internalType": "address",
					"name": "owner",
					"type": "address"
				},
				{
					"internalType": "string",
					"name": "name",
					"type": "string"
				},
				{
					"internalType": "string",
					"name": "symbol",
					"type": "string"
				},
				{
					"internalType": "string",
					"name": "tokenId",
					"type": "string"
				},
				{
					"internalType": "string",
					"name": "terms",
					"type": "string"
				}
			],
			"name": "initialize",
			"outputs": [],
			"stateMutability": "nonpayable",
			"type": "function"
		},
		{
			"inputs": [
				{
					"internalType": "address",
					"name": "forwarder",
					"type": "address"
				}
			],
			"name": "isTrustedForwarder",
			"outputs": [
				{
					"internalType": "bool",
					"name": "",
					"type": "bool"
				}
			],
			"stateMutability": "view",
			"type": "function"
		},
		{
			"inputs": [],
			"name": "kill",
			"outputs": [],
			"stateMutability": "nonpayable",
			"type": "function"
		},
		{
			"inputs": [
				{
					"internalType": "uint8",
					"name": "restrictionCode",
					"type": "uint8"
				}
			],
			"name": "messageForTransferRestriction",
			"outputs": [
				{
					"internalType": "string",
					"name": "message",
					"type": "string"
				}
			],
			"stateMutability": "view",
			"type": "function"
		},
		{
			"inputs": [
				{
					"internalType": "address",
					"name": "to",
					"type": "address"
				},
				{
					"internalType": "uint256",
					"name": "amount",
					"type": "uint256"
				}
			],
			"name": "mint",
			"outputs": [],
			"stateMutability": "nonpayable",
			"type": "function"
		},
		{
			"inputs": [],
			"name": "name",
			"outputs": [
				{
					"internalType": "string",
					"name": "",
					"type": "string"
				}
			],
			"stateMutability": "view",
			"type": "function"
		},
		{
			"inputs": [],
			"name": "pause",
			"outputs": [],
			"stateMutability": "nonpayable",
			"type": "function"
		},
		{
			"inputs": [],
			"name": "paused",
			"outputs": [
				{
					"internalType": "bool",
					"name": "",
					"type": "bool"
				}
			],
			"stateMutability": "view",
			"type": "function"
		},
		{
			"inputs": [
				{
					"internalType": "bytes32",
					"name": "role",
					"type": "bytes32"
				},
				{
					"internalType": "address",
					"name": "account",
					"type": "address"
				}
			],
			"name": "renounceRole",
			"outputs": [],
			"stateMutability": "nonpayable",
			"type": "function"
		},
		{
			"inputs": [
				{
					"internalType": "uint256",
					"name": "oldTime",
					"type": "uint256"
				},
				{
					"internalType": "uint256",
					"name": "newTime",
					"type": "uint256"
				}
			],
			"name": "rescheduleSnapshot",
			"outputs": [],
			"stateMutability": "nonpayable",
			"type": "function"
		},
		{
			"inputs": [
				{
					"internalType": "bytes32",
					"name": "role",
					"type": "bytes32"
				},
				{
					"internalType": "address",
					"name": "account",
					"type": "address"
				}
			],
			"name": "revokeRole",
			"outputs": [],
			"stateMutability": "nonpayable",
			"type": "function"
		},
		{
			"inputs": [],
			"name": "ruleEngine",
			"outputs": [
				{
					"internalType": "contract IRuleEngine",
					"name": "",
					"type": "address"
				}
			],
			"stateMutability": "view",
			"type": "function"
		},
		{
			"inputs": [
				{
					"internalType": "uint256",
					"name": "time",
					"type": "uint256"
				}
			],
			"name": "scheduleSnapshot",
			"outputs": [],
			"stateMutability": "nonpayable",
			"type": "function"
		},
		{
			"inputs": [
				{
					"internalType": "uint256",
					"name": "time",
					"type": "uint256"
				}
			],
			"name": "scheduleSnapshotNotOptimized",
			"outputs": [],
			"stateMutability": "nonpayable",
			"type": "function"
		},
		{
			"inputs": [
				{
					"internalType": "contract IRuleEngine",
					"name": "ruleEngine_",
					"type": "address"
				}
			],
			"name": "setRuleEngine",
			"outputs": [],
			"stateMutability": "nonpayable",
			"type": "function"
		},
		{
			"inputs": [
				{
					"internalType": "string",
					"name": "terms_",
					"type": "string"
				}
			],
			"name": "setTerms",
			"outputs": [],
			"stateMutability": "nonpayable",
			"type": "function"
		},
		{
			"inputs": [
				{
					"internalType": "string",
					"name": "tokenId_",
					"type": "string"
				}
			],
			"name": "setTokenId",
			"outputs": [],
			"stateMutability": "nonpayable",
			"type": "function"
		},
		{
			"inputs": [
				{
					"internalType": "uint256",
					"name": "time",
					"type": "uint256"
				},
				{
					"internalType": "address",
					"name": "owner",
					"type": "address"
				}
			],
			"name": "snapshotBalanceOf",
			"outputs": [
				{
					"internalType": "uint256",
					"name": "",
					"type": "uint256"
				}
			],
			"stateMutability": "view",
			"type": "function"
		},
		{
			"inputs": [
				{
					"internalType": "uint256",
					"name": "time",
					"type": "uint256"
				}
			],
			"name": "snapshotTotalSupply",
			"outputs": [
				{
					"internalType": "uint256",
					"name": "",
					"type": "uint256"
				}
			],
			"stateMutability": "view",
			"type": "function"
		},
		{
			"inputs": [
				{
					"internalType": "bytes4",
					"name": "interfaceId",
					"type": "bytes4"
				}
			],
			"name": "supportsInterface",
			"outputs": [
				{
					"internalType": "bool",
					"name": "",
					"type": "bool"
				}
			],
			"stateMutability": "view",
			"type": "function"
		},
		{
			"inputs": [],
			"name": "symbol",
			"outputs": [
				{
					"internalType": "string",
					"name": "",
					"type": "string"
				}
			],
			"stateMutability": "view",
			"type": "function"
		},
		{
			"inputs": [],
			"name": "terms",
			"outputs": [
				{
					"internalType": "string",
					"name": "",
					"type": "string"
				}
			],
			"stateMutability": "view",
			"type": "function"
		},
		{
			"inputs": [],
			"name": "tokenId",
			"outputs": [
				{
					"internalType": "string",
					"name": "",
					"type": "string"
				}
			],
			"stateMutability": "view",
			"type": "function"
		},
		{
			"inputs": [],
			"name": "totalSupply",
			"outputs": [
				{
					"internalType": "uint256",
					"name": "",
					"type": "uint256"
				}
			],
			"stateMutability": "view",
			"type": "function"
		},
		{
			"inputs": [
				{
					"internalType": "address",
					"name": "to",
					"type": "address"
				},
				{
					"internalType": "uint256",
					"name": "amount",
					"type": "uint256"
				}
			],
			"name": "transfer",
			"outputs": [
				{
					"internalType": "bool",
					"name": "",
					"type": "bool"
				}
			],
			"stateMutability": "nonpayable",
			"type": "function"
		},
		{
			"inputs": [
				{
					"internalType": "address",
					"name": "sender",
					"type": "address"
				},
				{
					"internalType": "address",
					"name": "recipient",
					"type": "address"
				},
				{
					"internalType": "uint256",
					"name": "amount",
					"type": "uint256"
				}
			],
			"name": "transferFrom",
			"outputs": [
				{
					"internalType": "bool",
					"name": "",
					"type": "bool"
				}
			],
			"stateMutability": "nonpayable",
			"type": "function"
		},
		{
			"inputs": [
				{
					"internalType": "address",
					"name": "account",
					"type": "address"
				},
				{
					"internalType": "string",
					"name": "reason",
					"type": "string"
				}
			],
			"name": "unfreeze",
			"outputs": [
				{
					"internalType": "bool",
					"name": "",
					"type": "bool"
				}
			],
			"stateMutability": "nonpayable",
			"type": "function"
		},
		{
			"inputs": [],
			"name": "unpause",
			"outputs": [],
			"stateMutability": "nonpayable",
			"type": "function"
		},
		{
			"inputs": [
				{
					"internalType": "uint256",
					"name": "time",
					"type": "uint256"
				}
			],
			"name": "unscheduleLastSnapshot",
			"outputs": [],
			"stateMutability": "nonpayable",
			"type": "function"
		},
		{
			"inputs": [
				{
					"internalType": "uint256",
					"name": "time",
					"type": "uint256"
				}
			],
			"name": "unscheduleSnapshotNotOptimized",
			"outputs": [],
			"stateMutability": "nonpayable",
			"type": "function"
		},
		{
			"inputs": [
				{
					"internalType": "address",
					"name": "from",
					"type": "address"
				},
				{
					"internalType": "address",
					"name": "to",
					"type": "address"
				},
				{
					"internalType": "uint256",
					"name": "amount",
					"type": "uint256"
				}
			],
			"name": "validateTransfer",
			"outputs": [
				{
					"internalType": "bool",
					"name": "",
					"type": "bool"
				}
			],
			"stateMutability": "view",
			"type": "function"
		}
	]
}