{
	"data": {
		"bytecode": {
			"linkReferences": {},
			"object": "60c0604052306080523480156200001557600080fd5b50604051620046d7380380620046d7833981016040819052620000389162000981565b6001600160a01b03871660a0528562000061576200005b86868686868662000086565b62000079565b6101cb805460ff1916600117905562000079620001b3565b5050505050505062000bc5565b600054610100900460ff1615808015620000a75750600054600160ff909116105b80620000d75750620000c4306200026060201b6200140f1760201c565b158015620000d7575060005460ff166001145b620001405760405162461bcd60e51b815260206004820152602e60248201527f496e697469616c697a61626c653a20636f6e747261637420697320616c72656160448201526d191e481a5b9a5d1a585b1a5e995960921b60648201526084015b60405180910390fd5b6000805460ff19166001179055801562000164576000805461ff0019166101001790555b620001748787878787876200026f565b8015620001aa576000805461ff001916905560405160018152600080516020620046b78339815191529060200160405180910390a15b50505050505050565b600054610100900460ff16156200021d5760405162461bcd60e51b815260206004820152602760248201527f496e697469616c697a61626c653a20636f6e747261637420697320696e697469604482015266616c697a696e6760c81b606482015260840162000137565b60005460ff908116146200025e576000805460ff191660ff908117909155604051908152600080516020620046b78339815191529060200160405180910390a15b565b6001600160a01b03163b151590565b600054610100900460ff16620002cb5760405162461bcd60e51b815260206004820152602b60248201526000805160206200469783398151915260448201526a6e697469616c697a696e6760a81b606482015260840162000137565b620002d562000385565b620002e18484620003e1565b620002eb62000385565b620002f562000385565b620002ff6200045f565b6200030962000385565b62000313620004c7565b6200031d62000385565b6200032762000385565b6200033162000385565b6200033b62000385565b62000347600062000531565b6200035162000385565b6200035b62000385565b6200036562000385565b620003718282620005a4565b6200037d86866200061f565b505050505050565b600054610100900460ff166200025e5760405162461bcd60e51b815260206004820152602b60248201526000805160206200469783398151915260448201526a6e697469616c697a696e6760a81b606482015260840162000137565b600054610100900460ff166200043d5760405162461bcd60e51b815260206004820152602b60248201526000805160206200469783398151915260448201526a6e697469616c697a696e6760a81b606482015260840162000137565b60ce6200044b838262000af9565b5060cf6200045a828262000af9565b505050565b600054610100900460ff16620004bb5760405162461bcd60e51b815260206004820152602b60248201526000805160206200469783398151915260448201526a6e697469616c697a696e6760a81b606482015260840162000137565b6066805460ff19169055565b600054610100900460ff16620005235760405162461bcd60e51b815260206004820152602b60248201526000805160206200469783398151915260448201526a6e697469616c697a696e6760a81b606482015260840162000137565b600061010081905561010155565b600054610100900460ff166200058d5760405162461bcd60e51b815260206004820152602b60248201526000805160206200469783398151915260448201526a6e697469616c697a696e6760a81b606482015260840162000137565b610390805460ff191660ff92909216919091179055565b600054610100900460ff16620006005760405162461bcd60e51b815260206004820152602b60248201526000805160206200469783398151915260448201526a6e697469616c697a696e6760a81b606482015260840162000137565b6101cc6200060f838262000af9565b506101cd6200045a828262000af9565b600054610100900460ff166200067b5760405162461bcd60e51b815260206004820152602b60248201526000805160206200469783398151915260448201526a6e697469616c697a696e6760a81b606482015260840162000137565b6101cb805460ff19168315151790556200069760008262000777565b620006c37f973ef39d76cc2c6090feab1c030bec6ab5db557f64df047a4c4f9b5953cf1df38262000777565b620006ef7f9f2df0fed2c77648de5860a4cc508cd0818c85b8b8a1ab4ceeef8d981c8956a68262000777565b6200071b7f3c11d16cbaffd01df69ce1c404f6340ee057498f5f00246190ea54220576a8488262000777565b620007477f65d7a28e3265b37a6474929f336521b332c1681b933f6cb9f3376673440d862a8262000777565b620007737f809a0fc49fc0600540f1d39e23454e1f6f215bc7505fa22b17c154616570ddef8262000777565b5050565b6000828152610167602090815260408083206001600160a01b038516845290915290205460ff1662000773576000828152610167602090815260408083206001600160a01b03851684529091529020805460ff19166001179055620007db6200081f565b6001600160a01b0316816001600160a01b0316837f2f8788117e7eff1d82e926ec794901d17c78024a50270940304540a733656f0d60405160405180910390a45050565b6000620008366200083b60201b6200141e1760201c565b905090565b6000620008366200085260201b620014241760201c565b60a0516000906001600160a01b0316330362000875575060131936013560601c90565b620008366200088a60201b620014681760201c565b3390565b80516001600160a01b0381168114620008a657600080fd5b919050565b80518015158114620008a657600080fd5b634e487b7160e01b600052604160045260246000fd5b600082601f830112620008e457600080fd5b81516001600160401b0380821115620009015762000901620008bc565b604051601f8301601f19908116603f011681019082821181831017156200092c576200092c620008bc565b816040528381526020925086838588010111156200094957600080fd5b600091505b838210156200096d57858201830151818301840152908201906200094e565b600093810190920192909252949350505050565b600080600080600080600060e0888a0312156200099d57600080fd5b620009a8886200088e565b9650620009b860208901620008ab565b9550620009c8604089016200088e565b60608901519095506001600160401b0380821115620009e657600080fd5b620009f48b838c01620008d2565b955060808a015191508082111562000a0b57600080fd5b62000a198b838c01620008d2565b945060a08a015191508082111562000a3057600080fd5b62000a3e8b838c01620008d2565b935060c08a015191508082111562000a5557600080fd5b5062000a648a828b01620008d2565b91505092959891949750929550565b600181811c9082168062000a8857607f821691505b60208210810362000aa957634e487b7160e01b600052602260045260246000fd5b50919050565b601f8211156200045a57600081815260208120601f850160051c8101602086101562000ad85750805b601f850160051c820191505b818110156200037d5782815560010162000ae4565b81516001600160401b0381111562000b155762000b15620008bc565b62000b2d8162000b26845462000a73565b8462000aaf565b602080601f83116001811462000b65576000841562000b4c5750858301515b600019600386901b1c1916600185901b1785556200037d565b600085815260208120601f198616915b8281101562000b965788860151825594840194600190910190840162000b75565b508582101562000bb55787850151600019600388901b60f8161c191681555b5050505050600190811b01905550565b60805160a051613aa562000bf2600039600081816104ca015261142801526000611ae50152613aa56000f3fe608060405234801561001057600080fd5b50600436106103275760003560e01c806378f86afc116101b8578063d051665011610104578063dd62ed3e116100a2578063e803855e1161007c578063e803855e14610736578063fb1cb59e14610749578063fb78ed401461075c578063fcf196b41461076457600080fd5b8063dd62ed3e146106fb578063e2d6f6341461070e578063e63ab1e91461072157600080fd5b8063d5025625116100de578063d5025625146106a6578063d5391393146106ae578063d547741f146106d5578063dcfd616f146106e857600080fd5b8063d051665014610654578063d21268ef14610680578063d4ce14151461069357600080fd5b8063a217fddf11610171578063a4a0a3011161014b578063a4a0a30114610606578063a9059cbb14610619578063be370b4f1461062c578063c6946a121461064157600080fd5b8063a217fddf146105d8578063a312e155146105e0578063a457c2d7146105f357600080fd5b806378f86afc1461057c5780637f4ab1dd1461058f5780638430d011146105a25780638456cb59146105b557806391d14854146105bd57806395d89b41146105d057600080fd5b80633c07af0f11610277578063572b6c0511610230578063634daf761161020a578063634daf76146105185780636439fd751461052b57806370a082311461054057806375bf8fe71461056957600080fd5b8063572b6c05146104ba5780635c975abb146104fa5780635ee7a9421461050557600080fd5b80633c07af0f1461045e5780633f4ba83a146104715780633f4f90671461047957806340c10f191461048c57806341c0e1b51461049f578063426a8493146104a757600080fd5b8063246b72ec116102e45780632f2ff15d116102be5780632f2ff15d14610409578063313ce5671461041e57806336568abe14610438578063395093511461044b57600080fd5b8063246b72ec146103a9578063248a9ca3146103be578063282c51f3146103e257600080fd5b806301ffc9a71461032c57806306fdde0314610354578063095ea7b31461036957806317d70f7c1461037c57806318160ddd1461038457806323b872dd14610396575b600080fd5b61033f61033a36600461317b565b61078f565b60405190151581526020015b60405180910390f35b61035c6107c6565b60405161034b91906131c9565b61033f61037736600461321c565b610858565b61035c61087a565b60cd545b60405190815260200161034b565b61033f6103a4366004613248565b610909565b610388600080516020613a3083398151915281565b6103886103cc366004613289565b6000908152610167602052604090206001015490565b6103887f3c11d16cbaffd01df69ce1c404f6340ee057498f5f00246190ea54220576a84881565b61041c6104173660046132a2565b610920565b005b61042661094b565b60405160ff909116815260200161034b565b61041c6104463660046132a2565b61095f565b61033f61045936600461321c565b6109f2565b61041c61046c366004613289565b610a1e565b61041c610a3f565b61033f610487366004613397565b610a62565b61041c61049a36600461321c565b610a8e565b61041c610b0a565b61033f6104b53660046133e7565b610b3d565b61033f6104c836600461341c565b7f00000000000000000000000000000000000000000000000000000000000000006001600160a01b0390811691161490565b60665460ff1661033f565b610388610513366004613289565b610bc1565b6103886105263660046132a2565b610be2565b610388600080516020613a5083398151915281565b61038861054e36600461341c565b6001600160a01b0316600090815260cb602052604090205490565b61033f610577366004613397565b610c3b565b61041c61058a366004613439565b610c5f565b61035c61059d36600461347d565b610cba565b61041c6105b0366004613289565b610d86565b61041c610da7565b61033f6105cb3660046132a2565b610dc7565b61035c610df3565b610388600081565b61041c6105ee366004613289565b610e02565b61033f61060136600461321c565b610e23565b61041c61061436600461341c565b610ea9565b61033f61062736600461321c565b610eff565b610634610f17565b60405161034b919061349a565b61033f61064f366004613248565b610f6f565b61033f61066236600461341c565b6001600160a01b031660009081526098602052604090205460ff1690565b61041c61068e3660046134de565b610f95565b6104266106a1366004613248565b610fb7565b61035c61101c565b6103887f9f2df0fed2c77648de5860a4cc508cd0818c85b8b8a1ab4ceeef8d981c8956a681565b61041c6106e33660046132a2565b61102a565b61041c6106f6366004613439565b611050565b610388610709366004613500565b6110ab565b61041c61071c36600461321c565b6110d6565b610388600080516020613a1083398151915281565b61041c610744366004613547565b611145565b61041c610757366004613289565b611262565b610634611283565b603354610777906001600160a01b031681565b6040516001600160a01b03909116815260200161034b565b60006001600160e01b03198216637965db0b60e01b14806107c057506301ffc9a760e01b6001600160e01b03198316145b92915050565b606060ce80546107d590613614565b80601f016020809104026020016040519081016040528092919081815260200182805461080190613614565b801561084e5780601f106108235761010080835404028352916020019161084e565b820191906000526020600020905b81548152906001019060200180831161083157829003601f168201915b5050505050905090565b60008061086361146c565b9050610870818585611476565b5060019392505050565b6101cc805461088890613614565b80601f01602080910402602001604051908101604052809291908181526020018280546108b490613614565b80156109015780601f106108d657610100808354040283529160200191610901565b820191906000526020600020905b8154815290600101906020018083116108e457829003601f168201915b505050505081565b600061091684848461159a565b90505b9392505050565b6000828152610167602052604090206001015461093c81611610565b6109468383611621565b505050565b600061095a6103905460ff1690565b905090565b61096761146c565b6001600160a01b0316816001600160a01b0316146109e45760405162461bcd60e51b815260206004820152602f60248201527f416363657373436f6e74726f6c3a2063616e206f6e6c792072656e6f756e636560448201526e103937b632b9903337b91039b2b63360891b60648201526084015b60405180910390fd5b6109ee82826116a9565b5050565b6000806109fd61146c565b9050610870818585610a0f85896110ab565b610a199190613664565b611476565b600080516020613a30833981519152610a3681611610565b6109ee8261172f565b600080516020613a10833981519152610a5781611610565b610a5f6118f9565b50565b6000600080516020613a50833981519152610a7c81611610565b610a868484611951565b949350505050565b7f9f2df0fed2c77648de5860a4cc508cd0818c85b8b8a1ab4ceeef8d981c8956a6610ab881611610565b610ac28383611a0e565b826001600160a01b03167f0f6798a560793a54c3bcfe86a93cde1e73087d944c0ea20544137d412139688583604051610afd91815260200190565b60405180910390a2505050565b6000610b1581611610565b6101cb5460ff168015610b2a57610b2a611adb565b610b3261146c565b6001600160a01b0316ff5b600081610b51610b4b61146c565b866110ab565b14610bac5760405162461bcd60e51b815260206004820152602560248201527f434d5441543a2063757272656e7420616c6c6f77616e6365206973206e6f74206044820152641c9a59da1d60da1b60648201526084016109db565b610bb68484610858565b506001949350505050565b6000806000610bd18460fe611b6b565b91509150816109195760cd54610a86565b6001600160a01b038116600090815260fd6020526040812081908190610c09908690611b6b565b9150915081610c30576001600160a01b038416600090815260cb6020526040902054610c32565b805b95945050505050565b6000600080516020613a50833981519152610c5581611610565b610a868484611bc0565b6000610c6a81611610565b6101cd610c7783826136bd565b5081604051610c86919061377d565b604051908190038120907f04ad91be0cc2638e10a8fa52bb61221dcf70dfcd07e6beae6b0d5a3f75070fcf90600090a25050565b606060ff8216610cee57505060408051808201909152600e81526d2737903932b9ba3934b1ba34b7b760911b602082015290565b60001960ff831601610d2a575050604080518082019091526014815273105b1b081d1c985b9cd9995c9cc81c185d5cd95960621b602082015290565b60011960ff831601610d675750506040805180820190915260158152742a34329030b2323932b9b99034b990333937bd32b760591b602082015290565b6033546001600160a01b031615610d81576107c082611c68565b919050565b600080516020613a30833981519152610d9e81611610565b6109ee82611cdc565b600080516020613a10833981519152610dbf81611610565b610a5f611de3565b6000918252610167602090815260408084206001600160a01b0393909316845291905290205460ff1690565b606060cf80546107d590613614565b600080516020613a30833981519152610e1a81611610565b6109ee82611e21565b600080610e2e61146c565b90506000610e3c82866110ab565b905083811015610e9c5760405162461bcd60e51b815260206004820152602560248201527f45524332303a2064656372656173656420616c6c6f77616e63652062656c6f77604482015264207a65726f60d81b60648201526084016109db565b610bb68286868403611476565b6000610eb481611610565b603380546001600160a01b0319166001600160a01b0384169081179091556040517f9c4d5c11b88d1e3d9c7ad50900cb6d10ac72853248cdc85ca868fb772e62b44990600090a25050565b600080610f0a61146c565b9050610870818585611f41565b606061010280548060200260200160405190810160405280929190818152602001828054801561084e57602002820191906000526020600020905b815481526020019060010190808311610f52575050505050905090565b6033546000906001600160a01b03161561087057610f8e8484846120f9565b9050610919565b600080516020613a30833981519152610fad81611610565b6109468383612177565b6000610fc560665460ff1690565b15610fd1576001610f8e565b6001600160a01b03841660009081526098602052604090205460ff1615610ff9576002610f8e565b6033546001600160a01b03161561101557610f8e8484846123d9565b6000610916565b6101cd805461088890613614565b6000828152610167602052604090206001015461104681611610565b61094683836116a9565b600061105b81611610565b6101cc61106883826136bd565b5081604051611077919061377d565b604051908190038120907f1a3f197f2cb06b445ad0c131c52bc822947dae771f49d55fbd17bb6e462254bd90600090a25050565b6001600160a01b03918216600090815260cc6020908152604080832093909416825291909152205490565b7f3c11d16cbaffd01df69ce1c404f6340ee057498f5f00246190ea54220576a84861110081611610565b61110a8383612457565b826001600160a01b03167fcc16f5dbb4873280815c1ee09dbd06736cffcc184412cf7a71a0fdb75d397ca583604051610afd91815260200190565b600054610100900460ff16158080156111655750600054600160ff909116105b8061117f5750303b15801561117f575060005460ff166001145b6111e25760405162461bcd60e51b815260206004820152602e60248201527f496e697469616c697a61626c653a20636f6e747261637420697320616c72656160448201526d191e481a5b9a5d1a585b1a5e995960921b60648201526084016109db565b6000805460ff191660011790558015611205576000805461ff0019166101001790555b611213878787878787612597565b8015611259576000805461ff0019169055604051600181527f7f26b83ff96e1f2b6a682f133852f6798a09c465da95921460cefb38474024989060200160405180910390a15b50505050505050565b600080516020613a3083398151915261127a81611610565b6109ee82612656565b604080516000815260208101909152610102546060919015610d81576000806112aa6127a1565b915091508160001480156112bf575061010054155b1561131e5761010280548060200260200160405190810160405280929190818152602001828054801561131157602002820191906000526020600020905b8154815260200190600101908083116112fd575b5050505050935050505090565b6101025461132d826001613664565b146114085761010254600090600190611347908490613799565b6113519190613799565b90508067ffffffffffffffff81111561136c5761136c6132d2565b604051908082528060200260200182016040528015611395578160200160208202803683370190505b50935060005b845181101561140557610102816113b3856001613664565b6113bd9190613664565b815481106113cd576113cd6137ac565b90600052602060002001548582815181106113ea576113ea6137ac565b60209081029190910101526113fe816137c2565b905061139b565b50505b5050919050565b6001600160a01b03163b151590565b600061095a5b60007f00000000000000000000000000000000000000000000000000000000000000006001600160a01b03163303611463575060131936013560601c90565b503390565b3390565b600061095a61141e565b6001600160a01b0383166114d85760405162461bcd60e51b8152602060048201526024808201527f45524332303a20617070726f76652066726f6d20746865207a65726f206164646044820152637265737360e01b60648201526084016109db565b6001600160a01b0382166115395760405162461bcd60e51b815260206004820152602260248201527f45524332303a20617070726f766520746f20746865207a65726f206164647265604482015261737360f01b60648201526084016109db565b6001600160a01b03838116600081815260cc602090815260408083209487168084529482529182902085905590518481527f8c5be1e5ebec7d5bd14f71427d1e84f3dd0314c0f7b2291e5b200ac8c7c3b925910160405180910390a3505050565b6000806115a885858561285f565b9050801515600103610916576115bc61146c565b6001600160a01b0316856001600160a01b03167f7c2b9369bf4a6bd9745889c658ad00a4d57e280c4c80fa1c74db2a9e52c136358560405161160091815260200190565b60405180910390a3949350505050565b610a5f8161161c61146c565b612882565b61162b8282610dc7565b6109ee576000828152610167602090815260408083206001600160a01b03851684529091529020805460ff1916600117905561166561146c565b6001600160a01b0316816001600160a01b0316837f2f8788117e7eff1d82e926ec794901d17c78024a50270940304540a733656f0d60405160405180910390a45050565b6116b38282610dc7565b156109ee576000828152610167602090815260408083206001600160a01b03851684529091529020805460ff191690556116eb61146c565b6001600160a01b0316816001600160a01b0316837ff6391f5c32d9c69d2a47ea670b442974b53935d1edc7fd64eb21e047a839171b60405160405180910390a45050565b42811161174e5760405162461bcd60e51b81526004016109db906137db565b60008061175a836128db565b9150915081156117ac5760405162461bcd60e51b815260206004820152601760248201527f536e617073686f7420616c72656164792065786973747300000000000000000060448201526064016109db565b6101025481036117f15761010280546001810182556000919091527f93bdaa6a4190909b7c3fbe8d42169ffe1cab19f51dfc8db24c71abf849eced4a018390556118c7565b6101028054819061180490600190613799565b81548110611814576118146137ac565b60009182526020808320909101548354600181018555938352908220909201919091556101025461184790600290613799565b90505b818111156118a457610102611860600183613799565b81548110611870576118706137ac565b9060005260206000200154610102828154811061188f5761188f6137ac565b6000918252602090912001556000190161184a565b508261010282815481106118ba576118ba6137ac565b6000918252602090912001555b60405183906000907fe2ad3b1abe53383dbe6359f02f11ae76d91cfab321b37083b16e1d96a81d4183908290a3505050565b611901612953565b6066805460ff191690557f5db9ee0a495bf2e6ff9c91a7834c1ba4fdd244a5e8aa4e537bd38aeae4b073aa61193461146c565b6040516001600160a01b03909116815260200160405180910390a1565b6001600160a01b03821660009081526098602052604081205460ff161561197a575060006107c0565b6001600160a01b03831660009081526098602052604090819020805460ff19166001179055516119ab90839061377d565b6040518091039020836001600160a01b03166119c561146c565b6001600160a01b03167fe80aede59db0b770aef5e4bd04670759d38e64959d07a4343257a0a4f6b6d1ed856040516119fd91906131c9565b60405180910390a450600192915050565b6001600160a01b038216611a645760405162461bcd60e51b815260206004820152601f60248201527f45524332303a206d696e7420746f20746865207a65726f20616464726573730060448201526064016109db565b611a706000838361299c565b8060cd6000828254611a829190613664565b90915550506001600160a01b038216600081815260cb60209081526040808320805486019055518481527fddf252ad1be2c89b69c2b068fc378daa952ba7f163c4a11628f55a4df523b3ef910160405180910390a35050565b6001600160a01b037f0000000000000000000000000000000000000000000000000000000000000000163003611b695760405162461bcd60e51b815260206004820152602d60248201527f4469726563742063616c6c20746f2074686520696d706c656d656e746174696f60448201526c1b881b9bdd08185b1b1bddd959609a1b60648201526084016109db565b565b60008080611b798486612ae6565b84549091508103611b91576000809250925050611bb9565b6001846001018281548110611ba857611ba86137ac565b906000526020600020015492509250505b9250929050565b6001600160a01b03821660009081526098602052604081205460ff16611be8575060006107c0565b6001600160a01b03831660009081526098602052604090819020805460ff1916905551611c1690839061377d565b6040518091039020836001600160a01b0316611c3061146c565b6001600160a01b03167f7a52fdbc4f3e9f93670cd35b5b9c2d974791d25c5c04984336a80be3f7f42c32856040516119fd91906131c9565b603354604051637f4ab1dd60e01b815260ff831660048201526060916001600160a01b031690637f4ab1dd90602401600060405180830381865afa158015611cb4573d6000803e3d6000fd5b505050506040513d6000823e601f3d908101601f191682016040526107c09190810190613812565b428111611cfb5760405162461bcd60e51b81526004016109db90613880565b600080611d07836128db565b9150915081611d4d5760405162461bcd60e51b815260206004820152601260248201527114db985c1cda1bdd081b9bdd08199bdd5b9960721b60448201526064016109db565b805b61010254611d5e826001613664565b1015611db557610102611d72826001613664565b81548110611d8257611d826137ac565b90600052602060002001546101028281548110611da157611da16137ac565b600091825260209091200155600101611d4f565b50610102805480611dc857611dc86138af565b60019003818190600052602060002001600090559055505050565b611deb612b87565b6066805460ff191660011790557f62e78cea01bee320cd4e420270b5ea74000d11b0c9f74754ebdbfc544b05a25861193461146c565b428111611e405760405162461bcd60e51b81526004016109db906137db565b6101025415611ede576101028054611e5a90600190613799565b81548110611e6a57611e6a6137ac565b90600052602060002001548111611ede5760405162461bcd60e51b815260206004820152603260248201527f74696d652068617320746f2062652067726561746572207468616e20746865206044820152716c61737420736e617073686f742074696d6560701b60648201526084016109db565b610102805460018101825560009182527f93bdaa6a4190909b7c3fbe8d42169ffe1cab19f51dfc8db24c71abf849eced4a018290556040518291907fe2ad3b1abe53383dbe6359f02f11ae76d91cfab321b37083b16e1d96a81d4183908290a350565b6001600160a01b038316611fa55760405162461bcd60e51b815260206004820152602560248201527f45524332303a207472616e736665722066726f6d20746865207a65726f206164604482015264647265737360d81b60648201526084016109db565b6001600160a01b0382166120075760405162461bcd60e51b815260206004820152602360248201527f45524332303a207472616e7366657220746f20746865207a65726f206164647260448201526265737360e81b60648201526084016109db565b61201283838361299c565b6001600160a01b038316600090815260cb60205260409020548181101561208a5760405162461bcd60e51b815260206004820152602660248201527f45524332303a207472616e7366657220616d6f756e7420657863656564732062604482015265616c616e636560d01b60648201526084016109db565b6001600160a01b03808516600081815260cb602052604080822086860390559286168082529083902080548601905591517fddf252ad1be2c89b69c2b068fc378daa952ba7f163c4a11628f55a4df523b3ef906120ea9086815260200190565b60405180910390a35b50505050565b60335460405163634a350960e11b81526001600160a01b038581166004830152848116602483015260448201849052600092169063c6946a1290606401602060405180830381865afa158015612153573d6000803e3d6000fd5b505050506040513d601f19601f8201168201806040525081019061091691906138c5565b4282116121965760405162461bcd60e51b81526004016109db90613880565b4281116121b55760405162461bcd60e51b81526004016109db906137db565b610102546121fd5760405162461bcd60e51b81526020600482015260156024820152741b9bc81cd8da19591d5b1959081cdb985c1cda1bdd605a1b60448201526064016109db565b600080612209846128db565b915091508161224f5760405162461bcd60e51b815260206004820152601260248201527114db985c1cda1bdd081b9bdd08199bdd5b9960721b60448201526064016109db565b6101025461225e826001613664565b10156122ee57610102612272826001613664565b81548110612282576122826137ac565b906000526020600020015483106122ee5760405162461bcd60e51b815260206004820152602a60248201527f74696d652068617320746f206265206c657373207468616e20746865206e65786044820152691d081cdb985c1cda1bdd60b21b60648201526084016109db565b801561238557610102612302600183613799565b81548110612312576123126137ac565b906000526020600020015483116123855760405162461bcd60e51b815260206004820152603160248201527f74696d652068617320746f2062652067726561746572207468616e20746865206044820152701c1c995d9a5bdd5cc81cdb985c1cda1bdd607a1b60648201526084016109db565b82610102828154811061239a5761239a6137ac565b6000918252602082200191909155604051849186917fe2ad3b1abe53383dbe6359f02f11ae76d91cfab321b37083b16e1d96a81d41839190a350505050565b60335460405163d4ce141560e01b81526001600160a01b038581166004830152848116602483015260448201849052600092169063d4ce141590606401602060405180830381865afa158015612433573d6000803e3d6000fd5b505050506040513d601f19601f8201168201806040525081019061091691906138e2565b6001600160a01b0382166124b75760405162461bcd60e51b815260206004820152602160248201527f45524332303a206275726e2066726f6d20746865207a65726f206164647265736044820152607360f81b60648201526084016109db565b6124c38260008361299c565b6001600160a01b038216600090815260cb6020526040902054818110156125375760405162461bcd60e51b815260206004820152602260248201527f45524332303a206275726e20616d6f756e7420657863656564732062616c616e604482015261636560f01b60648201526084016109db565b6001600160a01b038316600081815260cb60209081526040808320868603905560cd80548790039055518581529192917fddf252ad1be2c89b69c2b068fc378daa952ba7f163c4a11628f55a4df523b3ef910160405180910390a3505050565b600054610100900460ff166125be5760405162461bcd60e51b81526004016109db906138ff565b6125c6612bcd565b6125d08484612bf4565b6125d8612bcd565b6125e0612bcd565b6125e8612c34565b6125f0612bcd565b6125f8612c67565b612600612bcd565b612608612bcd565b612610612bcd565b612618612bcd565b6126226000612c9c565b61262a612bcd565b612632612bcd565b61263a612bcd565b6126448282612cda565b61264e8686612d1c565b505050505050565b4281116126755760405162461bcd60e51b81526004016109db90613880565b610102546126bd5760405162461bcd60e51b8152602060048201526015602482015274139bc81cdb985c1cda1bdd081cd8da19591d5b1959605a1b60448201526064016109db565b61010280546126ce90600190613799565b815481106126de576126de6137ac565b906000526020600020015481146127495760405162461bcd60e51b815260206004820152602960248201527f4f6e6c7920746865206c61737420736e617073686f742063616e20626520756e6044820152681cd8da19591d5b195960ba1b60648201526084016109db565b61010280548061275b5761275b6138af565b60019003818190600052602060002001600090559055807f06e2498f5548e5491bfe985562cc494131eae56b5b6543b59129c8886f129f6560405160405180910390a250565b6101025460009081908015806127cf5750806101015460016127c39190613664565b1480156127cf57508215155b156127de576000939092509050565b600081925060006101015490505b8281101561285757426101028281548110612809576128096137ac565b90600052602060002001541161284257610102818154811061282d5761282d6137ac565b90600052602060002001549150809350612847565b612857565b612850816137c2565b90506127ec565b509391925050565b60008061286a61146c565b9050612877858285612df9565b610bb6858585611f41565b61288c8282610dc7565b6109ee5761289981612e6d565b6128a4836020612e7f565b6040516020016128b592919061394a565b60408051601f198184030181529082905262461bcd60e51b82526109db916004016131c9565b600080806128eb61010285612ae6565b61010254909150811480159061291e5750836101028281548110612911576129116137ac565b9060005260206000200154145b1561292e57600194909350915050565b61010254811461294357600094909350915050565b5050610102546000939092509050565b60665460ff16611b695760405162461bcd60e51b815260206004820152601460248201527314185d5cd8589b194e881b9bdd081c185d5cd95960621b60448201526064016109db565b60665460ff16156129fa5760405162461bcd60e51b815260206004820152602260248201527f434d5441543a20746f6b656e207472616e73666572207768696c652070617573604482015261195960f21b60648201526084016109db565b6001600160a01b03831660009081526098602052604090205460ff1615612a6e5760405162461bcd60e51b815260206004820152602260248201527f434d5441543a20746f6b656e207472616e73666572207768696c652066726f7a60448201526132b760f11b60648201526084016109db565b612a7983838361301b565b612a84838383610f6f565b6109465760405162461bcd60e51b815260206004820152602d60248201527f434d5441543a207472616e736665722072656a65637465642062792076616c6960448201526c646174696f6e206d6f64756c6560981b60648201526084016109db565b81546000908103612af9575060006107c0565b82546000905b80821015612b43576000612b138383613064565b905084612b20878361307f565b541115612b2f57809150612b3d565b612b3a816001613664565b92505b50612aff565b600082118015612b66575083612b6386612b5e600186613799565b61307f565b54145b15612b7f57612b76600183613799565b925050506107c0565b5090506107c0565b60665460ff1615611b695760405162461bcd60e51b815260206004820152601060248201526f14185d5cd8589b194e881c185d5cd95960821b60448201526064016109db565b600054610100900460ff16611b695760405162461bcd60e51b81526004016109db906138ff565b600054610100900460ff16612c1b5760405162461bcd60e51b81526004016109db906138ff565b60ce612c2783826136bd565b5060cf61094682826136bd565b600054610100900460ff16612c5b5760405162461bcd60e51b81526004016109db906138ff565b6066805460ff19169055565b600054610100900460ff16612c8e5760405162461bcd60e51b81526004016109db906138ff565b600061010081905561010155565b600054610100900460ff16612cc35760405162461bcd60e51b81526004016109db906138ff565b610390805460ff191660ff92909216919091179055565b600054610100900460ff16612d015760405162461bcd60e51b81526004016109db906138ff565b6101cc612d0e83826136bd565b506101cd61094682826136bd565b600054610100900460ff16612d435760405162461bcd60e51b81526004016109db906138ff565b6101cb805460ff1916831515179055612d5d600082611621565b612d75600080516020613a5083398151915282611621565b612d9f7f9f2df0fed2c77648de5860a4cc508cd0818c85b8b8a1ab4ceeef8d981c8956a682611621565b612dc97f3c11d16cbaffd01df69ce1c404f6340ee057498f5f00246190ea54220576a84882611621565b612de1600080516020613a1083398151915282611621565b6109ee600080516020613a3083398151915282611621565b6000612e0584846110ab565b905060001981146120f35781811015612e605760405162461bcd60e51b815260206004820152601d60248201527f45524332303a20696e73756666696369656e7420616c6c6f77616e636500000060448201526064016109db565b6120f38484848403611476565b60606107c06001600160a01b03831660145b60606000612e8e8360026139bf565b612e99906002613664565b67ffffffffffffffff811115612eb157612eb16132d2565b6040519080825280601f01601f191660200182016040528015612edb576020820181803683370190505b509050600360fc1b81600081518110612ef657612ef66137ac565b60200101906001600160f81b031916908160001a905350600f60fb1b81600181518110612f2557612f256137ac565b60200101906001600160f81b031916908160001a9053506000612f498460026139bf565b612f54906001613664565b90505b6001811115612fcc576f181899199a1a9b1b9c1cb0b131b232b360811b85600f1660108110612f8857612f886137ac565b1a60f81b828281518110612f9e57612f9e6137ac565b60200101906001600160f81b031916908160001a90535060049490941c93612fc5816139d6565b9050612f57565b5083156109195760405162461bcd60e51b815260206004820181905260248201527f537472696e67733a20686578206c656e67746820696e73756666696369656e7460448201526064016109db565b613023613090565b6001600160a01b0383161561305b5761303b836130b3565b6001600160a01b0382161561305357610946826130b3565b6109466130e6565b613053826130b3565b600061307360028484186139ed565b61091990848416613664565b600082815260208120820180610a86565b60008061309b6127a1565b909250905081156109ee576101009190915561010155565b6001600160a01b038116600090815260fd6020908152604080832060cb90925290912054610a5f91906130f4565b6130f4565b611b6960fe6130e160cd5490565b610100548061310284613136565b1015610946578254600180820185556000858152602080822090930193909355938401805494850181558252902090910155565b8054600090810361314957506000919050565b8154829061315990600190613799565b81548110613169576131696137ac565b90600052602060002001549050919050565b60006020828403121561318d57600080fd5b81356001600160e01b03198116811461091957600080fd5b60005b838110156131c05781810151838201526020016131a8565b50506000910152565b60208152600082518060208401526131e88160408501602087016131a5565b601f01601f19169190910160400192915050565b6001600160a01b0381168114610a5f57600080fd5b8035610d81816131fc565b6000806040838503121561322f57600080fd5b823561323a816131fc565b946020939093013593505050565b60008060006060848603121561325d57600080fd5b8335613268816131fc565b92506020840135613278816131fc565b929592945050506040919091013590565b60006020828403121561329b57600080fd5b5035919050565b600080604083850312156132b557600080fd5b8235915060208301356132c7816131fc565b809150509250929050565b634e487b7160e01b600052604160045260246000fd5b604051601f8201601f1916810167ffffffffffffffff81118282101715613311576133116132d2565b604052919050565b600067ffffffffffffffff821115613333576133336132d2565b50601f01601f191660200190565b600082601f83011261335257600080fd5b813561336561336082613319565b6132e8565b81815284602083860101111561337a57600080fd5b816020850160208301376000918101602001919091529392505050565b600080604083850312156133aa57600080fd5b82356133b5816131fc565b9150602083013567ffffffffffffffff8111156133d157600080fd5b6133dd85828601613341565b9150509250929050565b6000806000606084860312156133fc57600080fd5b8335613407816131fc565b95602085013595506040909401359392505050565b60006020828403121561342e57600080fd5b8135610919816131fc565b60006020828403121561344b57600080fd5b813567ffffffffffffffff81111561346257600080fd5b610a8684828501613341565b60ff81168114610a5f57600080fd5b60006020828403121561348f57600080fd5b81356109198161346e565b6020808252825182820181905260009190848201906040850190845b818110156134d2578351835292840192918401916001016134b6565b50909695505050505050565b600080604083850312156134f157600080fd5b50508035926020909101359150565b6000806040838503121561351357600080fd5b823561351e816131fc565b915060208301356132c7816131fc565b8015158114610a5f57600080fd5b8035610d818161352e565b60008060008060008060c0878903121561356057600080fd5b6135698761353c565b955061357760208801613211565b9450604087013567ffffffffffffffff8082111561359457600080fd5b6135a08a838b01613341565b955060608901359150808211156135b657600080fd5b6135c28a838b01613341565b945060808901359150808211156135d857600080fd5b6135e48a838b01613341565b935060a08901359150808211156135fa57600080fd5b5061360789828a01613341565b9150509295509295509295565b600181811c9082168061362857607f821691505b60208210810361364857634e487b7160e01b600052602260045260246000fd5b50919050565b634e487b7160e01b600052601160045260246000fd5b808201808211156107c0576107c061364e565b601f82111561094657600081815260208120601f850160051c8101602086101561369e5750805b601f850160051c820191505b8181101561264e578281556001016136aa565b815167ffffffffffffffff8111156136d7576136d76132d2565b6136eb816136e58454613614565b84613677565b602080601f83116001811461372057600084156137085750858301515b600019600386901b1c1916600185901b17855561264e565b600085815260208120601f198616915b8281101561374f57888601518255948401946001909101908401613730565b508582101561376d5787850151600019600388901b60f8161c191681555b5050505050600190811b01905550565b6000825161378f8184602087016131a5565b9190910192915050565b818103818111156107c0576107c061364e565b634e487b7160e01b600052603260045260246000fd5b6000600182016137d4576137d461364e565b5060010190565b6020808252601e908201527f536e617073686f74207363686564756c656420696e2074686520706173740000604082015260600190565b60006020828403121561382457600080fd5b815167ffffffffffffffff81111561383b57600080fd5b8201601f8101841361384c57600080fd5b805161385a61336082613319565b81815285602083850101111561386f57600080fd5b610c328260208301602086016131a5565b602080825260159082015274536e617073686f7420616c726561647920646f6e6560581b604082015260600190565b634e487b7160e01b600052603160045260246000fd5b6000602082840312156138d757600080fd5b81516109198161352e565b6000602082840312156138f457600080fd5b81516109198161346e565b6020808252602b908201527f496e697469616c697a61626c653a20636f6e7472616374206973206e6f74206960408201526a6e697469616c697a696e6760a81b606082015260800190565b7f416363657373436f6e74726f6c3a206163636f756e74200000000000000000008152600083516139828160178501602088016131a5565b7001034b99036b4b9b9b4b733903937b6329607d1b60179184019182015283516139b38160288401602088016131a5565b01602801949350505050565b80820281158282048414176107c0576107c061364e565b6000816139e5576139e561364e565b506000190190565b600082613a0a57634e487b7160e01b600052601260045260246000fd5b50049056fe65d7a28e3265b37a6474929f336521b332c1681b933f6cb9f3376673440d862a809a0fc49fc0600540f1d39e23454e1f6f215bc7505fa22b17c154616570ddef973ef39d76cc2c6090feab1c030bec6ab5db557f64df047a4c4f9b5953cf1df3a264697066735822122017cc857b57c3e1482639356bcad3f64fc3e5021a9b3be687fc6a58dbee057a5e64736f6c63430008110033496e697469616c697a61626c653a20636f6e7472616374206973206e6f7420697f26b83ff96e1f2b6a682f133852f6798a09c465da95921460cefb3847402498",
			"opcodes": "PUSH1 0xC0 PUSH1 0x40 MSTORE ADDRESS PUSH1 0x80 MSTORE CALLVALUE DUP1 ISZERO PUSH3 0x15 JUMPI PUSH1 0x0 DUP1 REVERT JUMPDEST POP PUSH1 0x40 MLOAD PUSH3 0x46D7 CODESIZE SUB DUP1 PUSH3 0x46D7 DUP4 CODECOPY DUP2 ADD PUSH1 0x40 DUP2 SWAP1 MSTORE PUSH3 0x38 SWAP2 PUSH3 0x981 JUMP JUMPDEST PUSH1 0x1 PUSH1 0x1 PUSH1 0xA0 SHL SUB DUP8 AND PUSH1 0xA0 MSTORE DUP6 PUSH3 0x61 JUMPI PUSH3 0x5B DUP7 DUP7 DUP7 DUP7 DUP7 DUP7 PUSH3 0x86 JUMP JUMPDEST PUSH3 0x79 JUMP JUMPDEST PUSH2 0x1CB DUP1 SLOAD PUSH1 0xFF NOT AND PUSH1 0x1 OR SWAP1 SSTORE PUSH3 0x79 PUSH3 0x1B3 JUMP JUMPDEST POP POP POP POP POP POP POP PUSH3 0xBC5 JUMP JUMPDEST PUSH1 0x0 SLOAD PUSH2 0x100 SWAP1 DIV PUSH1 0xFF AND ISZERO DUP1 DUP1 ISZERO PUSH3 0xA7 JUMPI POP PUSH1 0x0 SLOAD PUSH1 0x1 PUSH1 0xFF SWAP1 SWAP2 AND LT JUMPDEST DUP1 PUSH3 0xD7 JUMPI POP PUSH3 0xC4 ADDRESS PUSH3 0x260 PUSH1 0x20 SHL PUSH3 0x140F OR PUSH1 0x20 SHR JUMP JUMPDEST ISZERO DUP1 ISZERO PUSH3 0xD7 JUMPI POP PUSH1 0x0 SLOAD PUSH1 0xFF AND PUSH1 0x1 EQ JUMPDEST PUSH3 0x140 JUMPI PUSH1 0x40 MLOAD PUSH3 0x461BCD PUSH1 0xE5 SHL DUP2 MSTORE PUSH1 0x20 PUSH1 0x4 DUP3 ADD MSTORE PUSH1 0x2E PUSH1 0x24 DUP3 ADD MSTORE PUSH32 0x496E697469616C697A61626C653A20636F6E747261637420697320616C726561 PUSH1 0x44 DUP3 ADD MSTORE PUSH14 0x191E481A5B9A5D1A585B1A5E9959 PUSH1 0x92 SHL PUSH1 0x64 DUP3 ADD MSTORE PUSH1 0x84 ADD JUMPDEST PUSH1 0x40 MLOAD DUP1 SWAP2 SUB SWAP1 REVERT JUMPDEST PUSH1 0x0 DUP1 SLOAD PUSH1 0xFF NOT AND PUSH1 0x1 OR SWAP1 SSTORE DUP1 ISZERO PUSH3 0x164 JUMPI PUSH1 0x0 DUP1 SLOAD PUSH2 0xFF00 NOT AND PUSH2 0x100 OR SWAP1 SSTORE JUMPDEST PUSH3 0x174 DUP8 DUP8 DUP8 DUP8 DUP8 DUP8 PUSH3 0x26F JUMP JUMPDEST DUP1 ISZERO PUSH3 0x1AA JUMPI PUSH1 0x0 DUP1 SLOAD PUSH2 0xFF00 NOT AND SWAP1 SSTORE PUSH1 0x40 MLOAD PUSH1 0x1 DUP2 MSTORE PUSH1 0x0 DUP1 MLOAD PUSH1 0x20 PUSH3 0x46B7 DUP4 CODECOPY DUP2 MLOAD SWAP2 MSTORE SWAP1 PUSH1 0x20 ADD PUSH1 0x40 MLOAD DUP1 SWAP2 SUB SWAP1 LOG1 JUMPDEST POP POP POP POP POP POP POP JUMP JUMPDEST PUSH1 0x0 SLOAD PUSH2 0x100 SWAP1 DIV PUSH1 0xFF AND ISZERO PUSH3 0x21D JUMPI PUSH1 0x40 MLOAD PUSH3 0x461BCD PUSH1 0xE5 SHL DUP2 MSTORE PUSH1 0x20 PUSH1 0x4 DUP3 ADD MSTORE PUSH1 0x27 PUSH1 0x24 DUP3 ADD MSTORE PUSH32 0x496E697469616C697A61626C653A20636F6E747261637420697320696E697469 PUSH1 0x44 DUP3 ADD MSTORE PUSH7 0x616C697A696E67 PUSH1 0xC8 SHL PUSH1 0x64 DUP3 ADD MSTORE PUSH1 0x84 ADD PUSH3 0x137 JUMP JUMPDEST PUSH1 0x0 SLOAD PUSH1 0xFF SWAP1 DUP2 AND EQ PUSH3 0x25E JUMPI PUSH1 0x0 DUP1 SLOAD PUSH1 0xFF NOT AND PUSH1 0xFF SWAP1 DUP2 OR SWAP1 SWAP2 SSTORE PUSH1 0x40 MLOAD SWAP1 DUP2 MSTORE PUSH1 0x0 DUP1 MLOAD PUSH1 0x20 PUSH3 0x46B7 DUP4 CODECOPY DUP2 MLOAD SWAP2 MSTORE SWAP1 PUSH1 0x20 ADD PUSH1 0x40 MLOAD DUP1 SWAP2 SUB SWAP1 LOG1 JUMPDEST JUMP JUMPDEST PUSH1 0x1 PUSH1 0x1 PUSH1 0xA0 SHL SUB AND EXTCODESIZE ISZERO ISZERO SWAP1 JUMP JUMPDEST PUSH1 0x0 SLOAD PUSH2 0x100 SWAP1 DIV PUSH1 0xFF AND PUSH3 0x2CB JUMPI PUSH1 0x40 MLOAD PUSH3 0x461BCD PUSH1 0xE5 SHL DUP2 MSTORE PUSH1 0x20 PUSH1 0x4 DUP3 ADD MSTORE PUSH1 0x2B PUSH1 0x24 DUP3 ADD MSTORE PUSH1 0x0 DUP1 MLOAD PUSH1 0x20 PUSH3 0x4697 DUP4 CODECOPY DUP2 MLOAD SWAP2 MSTORE PUSH1 0x44 DUP3 ADD MSTORE PUSH11 0x6E697469616C697A696E67 PUSH1 0xA8 SHL PUSH1 0x64 DUP3 ADD MSTORE PUSH1 0x84 ADD PUSH3 0x137 JUMP JUMPDEST PUSH3 0x2D5 PUSH3 0x385 JUMP JUMPDEST PUSH3 0x2E1 DUP5 DUP5 PUSH3 0x3E1 JUMP JUMPDEST PUSH3 0x2EB PUSH3 0x385 JUMP JUMPDEST PUSH3 0x2F5 PUSH3 0x385 JUMP JUMPDEST PUSH3 0x2FF PUSH3 0x45F JUMP JUMPDEST PUSH3 0x309 PUSH3 0x385 JUMP JUMPDEST PUSH3 0x313 PUSH3 0x4C7 JUMP JUMPDEST PUSH3 0x31D PUSH3 0x385 JUMP JUMPDEST PUSH3 0x327 PUSH3 0x385 JUMP JUMPDEST PUSH3 0x331 PUSH3 0x385 JUMP JUMPDEST PUSH3 0x33B PUSH3 0x385 JUMP JUMPDEST PUSH3 0x347 PUSH1 0x0 PUSH3 0x531 JUMP JUMPDEST PUSH3 0x351 PUSH3 0x385 JUMP JUMPDEST PUSH3 0x35B PUSH3 0x385 JUMP JUMPDEST PUSH3 0x365 PUSH3 0x385 JUMP JUMPDEST PUSH3 0x371 DUP3 DUP3 PUSH3 0x5A4 JUMP JUMPDEST PUSH3 0x37D DUP7 DUP7 PUSH3 0x61F JUMP JUMPDEST POP POP POP POP POP POP JUMP JUMPDEST PUSH1 0x0 SLOAD PUSH2 0x100 SWAP1 DIV PUSH1 0xFF AND PUSH3 0x25E JUMPI PUSH1 0x40 MLOAD PUSH3 0x461BCD PUSH1 0xE5 SHL DUP2 MSTORE PUSH1 0x20 PUSH1 0x4 DUP3 ADD MSTORE PUSH1 0x2B PUSH1 0x24 DUP3 ADD MSTORE PUSH1 0x0 DUP1 MLOAD PUSH1 0x20 PUSH3 0x4697 DUP4 CODECOPY DUP2 MLOAD SWAP2 MSTORE PUSH1 0x44 DUP3 ADD MSTORE PUSH11 0x6E697469616C697A696E67 PUSH1 0xA8 SHL PUSH1 0x64 DUP3 ADD MSTORE PUSH1 0x84 ADD PUSH3 0x137 JUMP JUMPDEST PUSH1 0x0 SLOAD PUSH2 0x100 SWAP1 DIV PUSH1 0xFF AND PUSH3 0x43D JUMPI PUSH1 0x40 MLOAD PUSH3 0x461BCD PUSH1 0xE5 SHL DUP2 MSTORE PUSH1 0x20 PUSH1 0x4 DUP3 ADD MSTORE PUSH1 0x2B PUSH1 0x24 DUP3 ADD MSTORE PUSH1 0x0 DUP1 MLOAD PUSH1 0x20 PUSH3 0x4697 DUP4 CODECOPY DUP2 MLOAD SWAP2 MSTORE PUSH1 0x44 DUP3 ADD MSTORE PUSH11 0x6E697469616C697A696E67 PUSH1 0xA8 SHL PUSH1 0x64 DUP3 ADD MSTORE PUSH1 0x84 ADD PUSH3 0x137 JUMP JUMPDEST PUSH1 0xCE PUSH3 0x44B DUP4 DUP3 PUSH3 0xAF9 JUMP JUMPDEST POP PUSH1 0xCF PUSH3 0x45A DUP3 DUP3 PUSH3 0xAF9 JUMP JUMPDEST POP POP POP JUMP JUMPDEST PUSH1 0x0 SLOAD PUSH2 0x100 SWAP1 DIV PUSH1 0xFF AND PUSH3 0x4BB JUMPI PUSH1 0x40 MLOAD PUSH3 0x461BCD PUSH1 0xE5 SHL DUP2 MSTORE PUSH1 0x20 PUSH1 0x4 DUP3 ADD MSTORE PUSH1 0x2B PUSH1 0x24 DUP3 ADD MSTORE PUSH1 0x0 DUP1 MLOAD PUSH1 0x20 PUSH3 0x4697 DUP4 CODECOPY DUP2 MLOAD SWAP2 MSTORE PUSH1 0x44 DUP3 ADD MSTORE PUSH11 0x6E697469616C697A696E67 PUSH1 0xA8 SHL PUSH1 0x64 DUP3 ADD MSTORE PUSH1 0x84 ADD PUSH3 0x137 JUMP JUMPDEST PUSH1 0x66 DUP1 SLOAD PUSH1 0xFF NOT AND SWAP1 SSTORE JUMP JUMPDEST PUSH1 0x0 SLOAD PUSH2 0x100 SWAP1 DIV PUSH1 0xFF AND PUSH3 0x523 JUMPI PUSH1 0x40 MLOAD PUSH3 0x461BCD PUSH1 0xE5 SHL DUP2 MSTORE PUSH1 0x20 PUSH1 0x4 DUP3 ADD MSTORE PUSH1 0x2B PUSH1 0x24 DUP3 ADD MSTORE PUSH1 0x0 DUP1 MLOAD PUSH1 0x20 PUSH3 0x4697 DUP4 CODECOPY DUP2 MLOAD SWAP2 MSTORE PUSH1 0x44 DUP3 ADD MSTORE PUSH11 0x6E697469616C697A696E67 PUSH1 0xA8 SHL PUSH1 0x64 DUP3 ADD MSTORE PUSH1 0x84 ADD PUSH3 0x137 JUMP JUMPDEST PUSH1 0x0 PUSH2 0x100 DUP2 SWAP1 SSTORE PUSH2 0x101 SSTORE JUMP JUMPDEST PUSH1 0x0 SLOAD PUSH2 0x100 SWAP1 DIV PUSH1 0xFF AND PUSH3 0x58D JUMPI PUSH1 0x40 MLOAD PUSH3 0x461BCD PUSH1 0xE5 SHL DUP2 MSTORE PUSH1 0x20 PUSH1 0x4 DUP3 ADD MSTORE PUSH1 0x2B PUSH1 0x24 DUP3 ADD MSTORE PUSH1 0x0 DUP1 MLOAD PUSH1 0x20 PUSH3 0x4697 DUP4 CODECOPY DUP2 MLOAD SWAP2 MSTORE PUSH1 0x44 DUP3 ADD MSTORE PUSH11 0x6E697469616C697A696E67 PUSH1 0xA8 SHL PUSH1 0x64 DUP3 ADD MSTORE PUSH1 0x84 ADD PUSH3 0x137 JUMP JUMPDEST PUSH2 0x390 DUP1 SLOAD PUSH1 0xFF NOT AND PUSH1 0xFF SWAP3 SWAP1 SWAP3 AND SWAP2 SWAP1 SWAP2 OR SWAP1 SSTORE JUMP JUMPDEST PUSH1 0x0 SLOAD PUSH2 0x100 SWAP1 DIV PUSH1 0xFF AND PUSH3 0x600 JUMPI PUSH1 0x40 MLOAD PUSH3 0x461BCD PUSH1 0xE5 SHL DUP2 MSTORE PUSH1 0x20 PUSH1 0x4 DUP3 ADD MSTORE PUSH1 0x2B PUSH1 0x24 DUP3 ADD MSTORE PUSH1 0x0 DUP1 MLOAD PUSH1 0x20 PUSH3 0x4697 DUP4 CODECOPY DUP2 MLOAD SWAP2 MSTORE PUSH1 0x44 DUP3 ADD MSTORE PUSH11 0x6E697469616C697A696E67 PUSH1 0xA8 SHL PUSH1 0x64 DUP3 ADD MSTORE PUSH1 0x84 ADD PUSH3 0x137 JUMP JUMPDEST PUSH2 0x1CC PUSH3 0x60F DUP4 DUP3 PUSH3 0xAF9 JUMP JUMPDEST POP PUSH2 0x1CD PUSH3 0x45A DUP3 DUP3 PUSH3 0xAF9 JUMP JUMPDEST PUSH1 0x0 SLOAD PUSH2 0x100 SWAP1 DIV PUSH1 0xFF AND PUSH3 0x67B JUMPI PUSH1 0x40 MLOAD PUSH3 0x461BCD PUSH1 0xE5 SHL DUP2 MSTORE PUSH1 0x20 PUSH1 0x4 DUP3 ADD MSTORE PUSH1 0x2B PUSH1 0x24 DUP3 ADD MSTORE PUSH1 0x0 DUP1 MLOAD PUSH1 0x20 PUSH3 0x4697 DUP4 CODECOPY DUP2 MLOAD SWAP2 MSTORE PUSH1 0x44 DUP3 ADD MSTORE PUSH11 0x6E697469616C697A696E67 PUSH1 0xA8 SHL PUSH1 0x64 DUP3 ADD MSTORE PUSH1 0x84 ADD PUSH3 0x137 JUMP JUMPDEST PUSH2 0x1CB DUP1 SLOAD PUSH1 0xFF NOT AND DUP4 ISZERO ISZERO OR SWAP1 SSTORE PUSH3 0x697 PUSH1 0x0 DUP3 PUSH3 0x777 JUMP JUMPDEST PUSH3 0x6C3 PUSH32 0x973EF39D76CC2C6090FEAB1C030BEC6AB5DB557F64DF047A4C4F9B5953CF1DF3 DUP3 PUSH3 0x777 JUMP JUMPDEST PUSH3 0x6EF PUSH32 0x9F2DF0FED2C77648DE5860A4CC508CD0818C85B8B8A1AB4CEEEF8D981C8956A6 DUP3 PUSH3 0x777 JUMP JUMPDEST PUSH3 0x71B PUSH32 0x3C11D16CBAFFD01DF69CE1C404F6340EE057498F5F00246190EA54220576A848 DUP3 PUSH3 0x777 JUMP JUMPDEST PUSH3 0x747 PUSH32 0x65D7A28E3265B37A6474929F336521B332C1681B933F6CB9F3376673440D862A DUP3 PUSH3 0x777 JUMP JUMPDEST PUSH3 0x773 PUSH32 0x809A0FC49FC0600540F1D39E23454E1F6F215BC7505FA22B17C154616570DDEF DUP3 PUSH3 0x777 JUMP JUMPDEST POP POP JUMP JUMPDEST PUSH1 0x0 DUP3 DUP2 MSTORE PUSH2 0x167 PUSH1 0x20 SWAP1 DUP2 MSTORE PUSH1 0x40 DUP1 DUP4 KECCAK256 PUSH1 0x1 PUSH1 0x1 PUSH1 0xA0 SHL SUB DUP6 AND DUP5 MSTORE SWAP1 SWAP2 MSTORE SWAP1 KECCAK256 SLOAD PUSH1 0xFF AND PUSH3 0x773 JUMPI PUSH1 0x0 DUP3 DUP2 MSTORE PUSH2 0x167 PUSH1 0x20 SWAP1 DUP2 MSTORE PUSH1 0x40 DUP1 DUP4 KECCAK256 PUSH1 0x1 PUSH1 0x1 PUSH1 0xA0 SHL SUB DUP6 AND DUP5 MSTORE SWAP1 SWAP2 MSTORE SWAP1 KECCAK256 DUP1 SLOAD PUSH1 0xFF NOT AND PUSH1 0x1 OR SWAP1 SSTORE PUSH3 0x7DB PUSH3 0x81F JUMP JUMPDEST PUSH1 0x1 PUSH1 0x1 PUSH1 0xA0 SHL SUB AND DUP2 PUSH1 0x1 PUSH1 0x1 PUSH1 0xA0 SHL SUB AND DUP4 PUSH32 0x2F8788117E7EFF1D82E926EC794901D17C78024A50270940304540A733656F0D PUSH1 0x40 MLOAD PUSH1 0x40 MLOAD DUP1 SWAP2 SUB SWAP1 LOG4 POP POP JUMP JUMPDEST PUSH1 0x0 PUSH3 0x836 PUSH3 0x83B PUSH1 0x20 SHL PUSH3 0x141E OR PUSH1 0x20 SHR JUMP JUMPDEST SWAP1 POP SWAP1 JUMP JUMPDEST PUSH1 0x0 PUSH3 0x836 PUSH3 0x852 PUSH1 0x20 SHL PUSH3 0x1424 OR PUSH1 0x20 SHR JUMP JUMPDEST PUSH1 0xA0 MLOAD PUSH1 0x0 SWAP1 PUSH1 0x1 PUSH1 0x1 PUSH1 0xA0 SHL SUB AND CALLER SUB PUSH3 0x875 JUMPI POP PUSH1 0x13 NOT CALLDATASIZE ADD CALLDATALOAD PUSH1 0x60 SHR SWAP1 JUMP JUMPDEST PUSH3 0x836 PUSH3 0x88A PUSH1 0x20 SHL PUSH3 0x1468 OR PUSH1 0x20 SHR JUMP JUMPDEST CALLER SWAP1 JUMP JUMPDEST DUP1 MLOAD PUSH1 0x1 PUSH1 0x1 PUSH1 0xA0 SHL SUB DUP2 AND DUP2 EQ PUSH3 0x8A6 JUMPI PUSH1 0x0 DUP1 REVERT JUMPDEST SWAP2 SWAP1 POP JUMP JUMPDEST DUP1 MLOAD DUP1 ISZERO ISZERO DUP2 EQ PUSH3 0x8A6 JUMPI PUSH1 0x0 DUP1 REVERT JUMPDEST PUSH4 0x4E487B71 PUSH1 0xE0 SHL PUSH1 0x0 MSTORE PUSH1 0x41 PUSH1 0x4 MSTORE PUSH1 0x24 PUSH1 0x0 REVERT JUMPDEST PUSH1 0x0 DUP3 PUSH1 0x1F DUP4 ADD SLT PUSH3 0x8E4 JUMPI PUSH1 0x0 DUP1 REVERT JUMPDEST DUP2 MLOAD PUSH1 0x1 PUSH1 0x1 PUSH1 0x40 SHL SUB DUP1 DUP3 GT ISZERO PUSH3 0x901 JUMPI PUSH3 0x901 PUSH3 0x8BC JUMP JUMPDEST PUSH1 0x40 MLOAD PUSH1 0x1F DUP4 ADD PUSH1 0x1F NOT SWAP1 DUP2 AND PUSH1 0x3F ADD AND DUP2 ADD SWAP1 DUP3 DUP3 GT DUP2 DUP4 LT OR ISZERO PUSH3 0x92C JUMPI PUSH3 0x92C PUSH3 0x8BC JUMP JUMPDEST DUP2 PUSH1 0x40 MSTORE DUP4 DUP2 MSTORE PUSH1 0x20 SWAP3 POP DUP7 DUP4 DUP6 DUP9 ADD ADD GT ISZERO PUSH3 0x949 JUMPI PUSH1 0x0 DUP1 REVERT JUMPDEST PUSH1 0x0 SWAP2 POP JUMPDEST DUP4 DUP3 LT ISZERO PUSH3 0x96D JUMPI DUP6 DUP3 ADD DUP4 ADD MLOAD DUP2 DUP4 ADD DUP5 ADD MSTORE SWAP1 DUP3 ADD SWAP1 PUSH3 0x94E JUMP JUMPDEST PUSH1 0x0 SWAP4 DUP2 ADD SWAP1 SWAP3 ADD SWAP3 SWAP1 SWAP3 MSTORE SWAP5 SWAP4 POP POP POP POP JUMP JUMPDEST PUSH1 0x0 DUP1 PUSH1 0x0 DUP1 PUSH1 0x0 DUP1 PUSH1 0x0 PUSH1 0xE0 DUP9 DUP11 SUB SLT ISZERO PUSH3 0x99D JUMPI PUSH1 0x0 DUP1 REVERT JUMPDEST PUSH3 0x9A8 DUP9 PUSH3 0x88E JUMP JUMPDEST SWAP7 POP PUSH3 0x9B8 PUSH1 0x20 DUP10 ADD PUSH3 0x8AB JUMP JUMPDEST SWAP6 POP PUSH3 0x9C8 PUSH1 0x40 DUP10 ADD PUSH3 0x88E JUMP JUMPDEST PUSH1 0x60 DUP10 ADD MLOAD SWAP1 SWAP6 POP PUSH1 0x1 PUSH1 0x1 PUSH1 0x40 SHL SUB DUP1 DUP3 GT ISZERO PUSH3 0x9E6 JUMPI PUSH1 0x0 DUP1 REVERT JUMPDEST PUSH3 0x9F4 DUP12 DUP4 DUP13 ADD PUSH3 0x8D2 JUMP JUMPDEST SWAP6 POP PUSH1 0x80 DUP11 ADD MLOAD SWAP2 POP DUP1 DUP3 GT ISZERO PUSH3 0xA0B JUMPI PUSH1 0x0 DUP1 REVERT JUMPDEST PUSH3 0xA19 DUP12 DUP4 DUP13 ADD PUSH3 0x8D2 JUMP JUMPDEST SWAP5 POP PUSH1 0xA0 DUP11 ADD MLOAD SWAP2 POP DUP1 DUP3 GT ISZERO PUSH3 0xA30 JUMPI PUSH1 0x0 DUP1 REVERT JUMPDEST PUSH3 0xA3E DUP12 DUP4 DUP13 ADD PUSH3 0x8D2 JUMP JUMPDEST SWAP4 POP PUSH1 0xC0 DUP11 ADD MLOAD SWAP2 POP DUP1 DUP3 GT ISZERO PUSH3 0xA55 JUMPI PUSH1 0x0 DUP1 REVERT JUMPDEST POP PUSH3 0xA64 DUP11 DUP3 DUP12 ADD PUSH3 0x8D2 JUMP JUMPDEST SWAP2 POP POP SWAP3 SWAP6 SWAP9 SWAP2 SWAP5 SWAP8 POP SWAP3 SWAP6 POP JUMP JUMPDEST PUSH1 0x1 DUP2 DUP2 SHR SWAP1 DUP3 AND DUP1 PUSH3 0xA88 JUMPI PUSH1 0x7F DUP3 AND SWAP2 POP JUMPDEST PUSH1 0x20 DUP3 LT DUP2 SUB PUSH3 0xAA9 JUMPI PUSH4 0x4E487B71 PUSH1 0xE0 SHL PUSH1 0x0 MSTORE PUSH1 0x22 PUSH1 0x4 MSTORE PUSH1 0x24 PUSH1 0x0 REVERT JUMPDEST POP SWAP2 SWAP1 POP JUMP JUMPDEST PUSH1 0x1F DUP3 GT ISZERO PUSH3 0x45A JUMPI PUSH1 0x0 DUP2 DUP2 MSTORE PUSH1 0x20 DUP2 KECCAK256 PUSH1 0x1F DUP6 ADD PUSH1 0x5 SHR DUP2 ADD PUSH1 0x20 DUP7 LT ISZERO PUSH3 0xAD8 JUMPI POP DUP1 JUMPDEST PUSH1 0x1F DUP6 ADD PUSH1 0x5 SHR DUP3 ADD SWAP2 POP JUMPDEST DUP2 DUP2 LT ISZERO PUSH3 0x37D JUMPI DUP3 DUP2 SSTORE PUSH1 0x1 ADD PUSH3 0xAE4 JUMP JUMPDEST DUP2 MLOAD PUSH1 0x1 PUSH1 0x1 PUSH1 0x40 SHL SUB DUP2 GT ISZERO PUSH3 0xB15 JUMPI PUSH3 0xB15 PUSH3 0x8BC JUMP JUMPDEST PUSH3 0xB2D DUP2 PUSH3 0xB26 DUP5 SLOAD PUSH3 0xA73 JUMP JUMPDEST DUP5 PUSH3 0xAAF JUMP JUMPDEST PUSH1 0x20 DUP1 PUSH1 0x1F DUP4 GT PUSH1 0x1 DUP2 EQ PUSH3 0xB65 JUMPI PUSH1 0x0 DUP5 ISZERO PUSH3 0xB4C JUMPI POP DUP6 DUP4 ADD MLOAD JUMPDEST PUSH1 0x0 NOT PUSH1 0x3 DUP7 SWAP1 SHL SHR NOT AND PUSH1 0x1 DUP6 SWAP1 SHL OR DUP6 SSTORE PUSH3 0x37D JUMP JUMPDEST PUSH1 0x0 DUP6 DUP2 MSTORE PUSH1 0x20 DUP2 KECCAK256 PUSH1 0x1F NOT DUP7 AND SWAP2 JUMPDEST DUP3 DUP2 LT ISZERO PUSH3 0xB96 JUMPI DUP9 DUP7 ADD MLOAD DUP3 SSTORE SWAP5 DUP5 ADD SWAP5 PUSH1 0x1 SWAP1 SWAP2 ADD SWAP1 DUP5 ADD PUSH3 0xB75 JUMP JUMPDEST POP DUP6 DUP3 LT ISZERO PUSH3 0xBB5 JUMPI DUP8 DUP6 ADD MLOAD PUSH1 0x0 NOT PUSH1 0x3 DUP9 SWAP1 SHL PUSH1 0xF8 AND SHR NOT AND DUP2 SSTORE JUMPDEST POP POP POP POP POP PUSH1 0x1 SWAP1 DUP2 SHL ADD SWAP1 SSTORE POP JUMP JUMPDEST PUSH1 0x80 MLOAD PUSH1 0xA0 MLOAD PUSH2 0x3AA5 PUSH3 0xBF2 PUSH1 0x0 CODECOPY PUSH1 0x0 DUP2 DUP2 PUSH2 0x4CA ADD MSTORE PUSH2 0x1428 ADD MSTORE PUSH1 0x0 PUSH2 0x1AE5 ADD MSTORE PUSH2 0x3AA5 PUSH1 0x0 RETURN INVALID PUSH1 0x80 PUSH1 0x40 MSTORE CALLVALUE DUP1 ISZERO PUSH2 0x10 JUMPI PUSH1 0x0 DUP1 REVERT JUMPDEST POP PUSH1 0x4 CALLDATASIZE LT PUSH2 0x327 JUMPI PUSH1 0x0 CALLDATALOAD PUSH1 0xE0 SHR DUP1 PUSH4 0x78F86AFC GT PUSH2 0x1B8 JUMPI DUP1 PUSH4 0xD0516650 GT PUSH2 0x104 JUMPI DUP1 PUSH4 0xDD62ED3E GT PUSH2 0xA2 JUMPI DUP1 PUSH4 0xE803855E GT PUSH2 0x7C JUMPI DUP1 PUSH4 0xE803855E EQ PUSH2 0x736 JUMPI DUP1 PUSH4 0xFB1CB59E EQ PUSH2 0x749 JUMPI DUP1 PUSH4 0xFB78ED40 EQ PUSH2 0x75C JUMPI DUP1 PUSH4 0xFCF196B4 EQ PUSH2 0x764 JUMPI PUSH1 0x0 DUP1 REVERT JUMPDEST DUP1 PUSH4 0xDD62ED3E EQ PUSH2 0x6FB JUMPI DUP1 PUSH4 0xE2D6F634 EQ PUSH2 0x70E JUMPI DUP1 PUSH4 0xE63AB1E9 EQ PUSH2 0x721 JUMPI PUSH1 0x0 DUP1 REVERT JUMPDEST DUP1 PUSH4 0xD5025625 GT PUSH2 0xDE JUMPI DUP1 PUSH4 0xD5025625 EQ PUSH2 0x6A6 JUMPI DUP1 PUSH4 0xD5391393 EQ PUSH2 0x6AE JUMPI DUP1 PUSH4 0xD547741F EQ PUSH2 0x6D5 JUMPI DUP1 PUSH4 0xDCFD616F EQ PUSH2 0x6E8 JUMPI PUSH1 0x0 DUP1 REVERT JUMPDEST DUP1 PUSH4 0xD0516650 EQ PUSH2 0x654 JUMPI DUP1 PUSH4 0xD21268EF EQ PUSH2 0x680 JUMPI DUP1 PUSH4 0xD4CE1415 EQ PUSH2 0x693 JUMPI PUSH1 0x0 DUP1 REVERT JUMPDEST DUP1 PUSH4 0xA217FDDF GT PUSH2 0x171 JUMPI DUP1 PUSH4 0xA4A0A301 GT PUSH2 0x14B JUMPI DUP1 PUSH4 0xA4A0A301 EQ PUSH2 0x606 JUMPI DUP1 PUSH4 0xA9059CBB EQ PUSH2 0x619 JUMPI DUP1 PUSH4 0xBE370B4F EQ PUSH2 0x62C JUMPI DUP1 PUSH4 0xC6946A12 EQ PUSH2 0x641 JUMPI PUSH1 0x0 DUP1 REVERT JUMPDEST DUP1 PUSH4 0xA217FDDF EQ PUSH2 0x5D8 JUMPI DUP1 PUSH4 0xA312E155 EQ PUSH2 0x5E0 JUMPI DUP1 PUSH4 0xA457C2D7 EQ PUSH2 0x5F3 JUMPI PUSH1 0x0 DUP1 REVERT JUMPDEST DUP1 PUSH4 0x78F86AFC EQ PUSH2 0x57C JUMPI DUP1 PUSH4 0x7F4AB1DD EQ PUSH2 0x58F JUMPI DUP1 PUSH4 0x8430D011 EQ PUSH2 0x5A2 JUMPI DUP1 PUSH4 0x8456CB59 EQ PUSH2 0x5B5 JUMPI DUP1 PUSH4 0x91D14854 EQ PUSH2 0x5BD JUMPI DUP1 PUSH4 0x95D89B41 EQ PUSH2 0x5D0 JUMPI PUSH1 0x0 DUP1 REVERT JUMPDEST DUP1 PUSH4 0x3C07AF0F GT PUSH2 0x277 JUMPI DUP1 PUSH4 0x572B6C05 GT PUSH2 0x230 JUMPI DUP1 PUSH4 0x634DAF76 GT PUSH2 0x20A JUMPI DUP1 PUSH4 0x634DAF76 EQ PUSH2 0x518 JUMPI DUP1 PUSH4 0x6439FD75 EQ PUSH2 0x52B JUMPI DUP1 PUSH4 0x70A08231 EQ PUSH2 0x540 JUMPI DUP1 PUSH4 0x75BF8FE7 EQ PUSH2 0x569 JUMPI PUSH1 0x0 DUP1 REVERT JUMPDEST DUP1 PUSH4 0x572B6C05 EQ PUSH2 0x4BA JUMPI DUP1 PUSH4 0x5C975ABB EQ PUSH2 0x4FA JUMPI DUP1 PUSH4 0x5EE7A942 EQ PUSH2 0x505 JUMPI PUSH1 0x0 DUP1 REVERT JUMPDEST DUP1 PUSH4 0x3C07AF0F EQ PUSH2 0x45E JUMPI DUP1 PUSH4 0x3F4BA83A EQ PUSH2 0x471 JUMPI DUP1 PUSH4 0x3F4F9067 EQ PUSH2 0x479 JUMPI DUP1 PUSH4 0x40C10F19 EQ PUSH2 0x48C JUMPI DUP1 PUSH4 0x41C0E1B5 EQ PUSH2 0x49F JUMPI DUP1 PUSH4 0x426A8493 EQ PUSH2 0x4A7 JUMPI PUSH1 0x0 DUP1 REVERT JUMPDEST DUP1 PUSH4 0x246B72EC GT PUSH2 0x2E4 JUMPI DUP1 PUSH4 0x2F2FF15D GT PUSH2 0x2BE JUMPI DUP1 PUSH4 0x2F2FF15D EQ PUSH2 0x409 JUMPI DUP1 PUSH4 0x313CE567 EQ PUSH2 0x41E JUMPI DUP1 PUSH4 0x36568ABE EQ PUSH2 0x438 JUMPI DUP1 PUSH4 0x39509351 EQ PUSH2 0x44B JUMPI PUSH1 0x0 DUP1 REVERT JUMPDEST DUP1 PUSH4 0x246B72EC EQ PUSH2 0x3A9 JUMPI DUP1 PUSH4 0x248A9CA3 EQ PUSH2 0x3BE JUMPI DUP1 PUSH4 0x282C51F3 EQ PUSH2 0x3E2 JUMPI PUSH1 0x0 DUP1 REVERT JUMPDEST DUP1 PUSH4 0x1FFC9A7 EQ PUSH2 0x32C JUMPI DUP1 PUSH4 0x6FDDE03 EQ PUSH2 0x354 JUMPI DUP1 PUSH4 0x95EA7B3 EQ PUSH2 0x369 JUMPI DUP1 PUSH4 0x17D70F7C EQ PUSH2 0x37C JUMPI DUP1 PUSH4 0x18160DDD EQ PUSH2 0x384 JUMPI DUP1 PUSH4 0x23B872DD EQ PUSH2 0x396 JUMPI JUMPDEST PUSH1 0x0 DUP1 REVERT JUMPDEST PUSH2 0x33F PUSH2 0x33A CALLDATASIZE PUSH1 0x4 PUSH2 0x317B JUMP JUMPDEST PUSH2 0x78F JUMP JUMPDEST PUSH1 0x40 MLOAD SWAP1 ISZERO ISZERO DUP2 MSTORE PUSH1 0x20 ADD JUMPDEST PUSH1 0x40 MLOAD DUP1 SWAP2 SUB SWAP1 RETURN JUMPDEST PUSH2 0x35C PUSH2 0x7C6 JUMP JUMPDEST PUSH1 0x40 MLOAD PUSH2 0x34B SWAP2 SWAP1 PUSH2 0x31C9 JUMP JUMPDEST PUSH2 0x33F PUSH2 0x377 CALLDATASIZE PUSH1 0x4 PUSH2 0x321C JUMP JUMPDEST PUSH2 0x858 JUMP JUMPDEST PUSH2 0x35C PUSH2 0x87A JUMP JUMPDEST PUSH1 0xCD SLOAD JUMPDEST PUSH1 0x40 MLOAD SWAP1 DUP2 MSTORE PUSH1 0x20 ADD PUSH2 0x34B JUMP JUMPDEST PUSH2 0x33F PUSH2 0x3A4 CALLDATASIZE PUSH1 0x4 PUSH2 0x3248 JUMP JUMPDEST PUSH2 0x909 JUMP JUMPDEST PUSH2 0x388 PUSH1 0x0 DUP1 MLOAD PUSH1 0x20 PUSH2 0x3A30 DUP4 CODECOPY DUP2 MLOAD SWAP2 MSTORE DUP2 JUMP JUMPDEST PUSH2 0x388 PUSH2 0x3CC CALLDATASIZE PUSH1 0x4 PUSH2 0x3289 JUMP JUMPDEST PUSH1 0x0 SWAP1 DUP2 MSTORE PUSH2 0x167 PUSH1 0x20 MSTORE PUSH1 0x40 SWAP1 KECCAK256 PUSH1 0x1 ADD SLOAD SWAP1 JUMP JUMPDEST PUSH2 0x388 PUSH32 0x3C11D16CBAFFD01DF69CE1C404F6340EE057498F5F00246190EA54220576A848 DUP2 JUMP JUMPDEST PUSH2 0x41C PUSH2 0x417 CALLDATASIZE PUSH1 0x4 PUSH2 0x32A2 JUMP JUMPDEST PUSH2 0x920 JUMP JUMPDEST STOP JUMPDEST PUSH2 0x426 PUSH2 0x94B JUMP JUMPDEST PUSH1 0x40 MLOAD PUSH1 0xFF SWAP1 SWAP2 AND DUP2 MSTORE PUSH1 0x20 ADD PUSH2 0x34B JUMP JUMPDEST PUSH2 0x41C PUSH2 0x446 CALLDATASIZE PUSH1 0x4 PUSH2 0x32A2 JUMP JUMPDEST PUSH2 0x95F JUMP JUMPDEST PUSH2 0x33F PUSH2 0x459 CALLDATASIZE PUSH1 0x4 PUSH2 0x321C JUMP JUMPDEST PUSH2 0x9F2 JUMP JUMPDEST PUSH2 0x41C PUSH2 0x46C CALLDATASIZE PUSH1 0x4 PUSH2 0x3289 JUMP JUMPDEST PUSH2 0xA1E JUMP JUMPDEST PUSH2 0x41C PUSH2 0xA3F JUMP JUMPDEST PUSH2 0x33F PUSH2 0x487 CALLDATASIZE PUSH1 0x4 PUSH2 0x3397 JUMP JUMPDEST PUSH2 0xA62 JUMP JUMPDEST PUSH2 0x41C PUSH2 0x49A CALLDATASIZE PUSH1 0x4 PUSH2 0x321C JUMP JUMPDEST PUSH2 0xA8E JUMP JUMPDEST PUSH2 0x41C PUSH2 0xB0A JUMP JUMPDEST PUSH2 0x33F PUSH2 0x4B5 CALLDATASIZE PUSH1 0x4 PUSH2 0x33E7 JUMP JUMPDEST PUSH2 0xB3D JUMP JUMPDEST PUSH2 0x33F PUSH2 0x4C8 CALLDATASIZE PUSH1 0x4 PUSH2 0x341C JUMP JUMPDEST PUSH32 0x0 PUSH1 0x1 PUSH1 0x1 PUSH1 0xA0 SHL SUB SWAP1 DUP2 AND SWAP2 AND EQ SWAP1 JUMP JUMPDEST PUSH1 0x66 SLOAD PUSH1 0xFF AND PUSH2 0x33F JUMP JUMPDEST PUSH2 0x388 PUSH2 0x513 CALLDATASIZE PUSH1 0x4 PUSH2 0x3289 JUMP JUMPDEST PUSH2 0xBC1 JUMP JUMPDEST PUSH2 0x388 PUSH2 0x526 CALLDATASIZE PUSH1 0x4 PUSH2 0x32A2 JUMP JUMPDEST PUSH2 0xBE2 JUMP JUMPDEST PUSH2 0x388 PUSH1 0x0 DUP1 MLOAD PUSH1 0x20 PUSH2 0x3A50 DUP4 CODECOPY DUP2 MLOAD SWAP2 MSTORE DUP2 JUMP JUMPDEST PUSH2 0x388 PUSH2 0x54E CALLDATASIZE PUSH1 0x4 PUSH2 0x341C JUMP JUMPDEST PUSH1 0x1 PUSH1 0x1 PUSH1 0xA0 SHL SUB AND PUSH1 0x0 SWAP1 DUP2 MSTORE PUSH1 0xCB PUSH1 0x20 MSTORE PUSH1 0x40 SWAP1 KECCAK256 SLOAD SWAP1 JUMP JUMPDEST PUSH2 0x33F PUSH2 0x577 CALLDATASIZE PUSH1 0x4 PUSH2 0x3397 JUMP JUMPDEST PUSH2 0xC3B JUMP JUMPDEST PUSH2 0x41C PUSH2 0x58A CALLDATASIZE PUSH1 0x4 PUSH2 0x3439 JUMP JUMPDEST PUSH2 0xC5F JUMP JUMPDEST PUSH2 0x35C PUSH2 0x59D CALLDATASIZE PUSH1 0x4 PUSH2 0x347D JUMP JUMPDEST PUSH2 0xCBA JUMP JUMPDEST PUSH2 0x41C PUSH2 0x5B0 CALLDATASIZE PUSH1 0x4 PUSH2 0x3289 JUMP JUMPDEST PUSH2 0xD86 JUMP JUMPDEST PUSH2 0x41C PUSH2 0xDA7 JUMP JUMPDEST PUSH2 0x33F PUSH2 0x5CB CALLDATASIZE PUSH1 0x4 PUSH2 0x32A2 JUMP JUMPDEST PUSH2 0xDC7 JUMP JUMPDEST PUSH2 0x35C PUSH2 0xDF3 JUMP JUMPDEST PUSH2 0x388 PUSH1 0x0 DUP2 JUMP JUMPDEST PUSH2 0x41C PUSH2 0x5EE CALLDATASIZE PUSH1 0x4 PUSH2 0x3289 JUMP JUMPDEST PUSH2 0xE02 JUMP JUMPDEST PUSH2 0x33F PUSH2 0x601 CALLDATASIZE PUSH1 0x4 PUSH2 0x321C JUMP JUMPDEST PUSH2 0xE23 JUMP JUMPDEST PUSH2 0x41C PUSH2 0x614 CALLDATASIZE PUSH1 0x4 PUSH2 0x341C JUMP JUMPDEST PUSH2 0xEA9 JUMP JUMPDEST PUSH2 0x33F PUSH2 0x627 CALLDATASIZE PUSH1 0x4 PUSH2 0x321C JUMP JUMPDEST PUSH2 0xEFF JUMP JUMPDEST PUSH2 0x634 PUSH2 0xF17 JUMP JUMPDEST PUSH1 0x40 MLOAD PUSH2 0x34B SWAP2 SWAP1 PUSH2 0x349A JUMP JUMPDEST PUSH2 0x33F PUSH2 0x64F CALLDATASIZE PUSH1 0x4 PUSH2 0x3248 JUMP JUMPDEST PUSH2 0xF6F JUMP JUMPDEST PUSH2 0x33F PUSH2 0x662 CALLDATASIZE PUSH1 0x4 PUSH2 0x341C JUMP JUMPDEST PUSH1 0x1 PUSH1 0x1 PUSH1 0xA0 SHL SUB AND PUSH1 0x0 SWAP1 DUP2 MSTORE PUSH1 0x98 PUSH1 0x20 MSTORE PUSH1 0x40 SWAP1 KECCAK256 SLOAD PUSH1 0xFF AND SWAP1 JUMP JUMPDEST PUSH2 0x41C PUSH2 0x68E CALLDATASIZE PUSH1 0x4 PUSH2 0x34DE JUMP JUMPDEST PUSH2 0xF95 JUMP JUMPDEST PUSH2 0x426 PUSH2 0x6A1 CALLDATASIZE PUSH1 0x4 PUSH2 0x3248 JUMP JUMPDEST PUSH2 0xFB7 JUMP JUMPDEST PUSH2 0x35C PUSH2 0x101C JUMP JUMPDEST PUSH2 0x388 PUSH32 0x9F2DF0FED2C77648DE5860A4CC508CD0818C85B8B8A1AB4CEEEF8D981C8956A6 DUP2 JUMP JUMPDEST PUSH2 0x41C PUSH2 0x6E3 CALLDATASIZE PUSH1 0x4 PUSH2 0x32A2 JUMP JUMPDEST PUSH2 0x102A JUMP JUMPDEST PUSH2 0x41C PUSH2 0x6F6 CALLDATASIZE PUSH1 0x4 PUSH2 0x3439 JUMP JUMPDEST PUSH2 0x1050 JUMP JUMPDEST PUSH2 0x388 PUSH2 0x709 CALLDATASIZE PUSH1 0x4 PUSH2 0x3500 JUMP JUMPDEST PUSH2 0x10AB JUMP JUMPDEST PUSH2 0x41C PUSH2 0x71C CALLDATASIZE PUSH1 0x4 PUSH2 0x321C JUMP JUMPDEST PUSH2 0x10D6 JUMP JUMPDEST PUSH2 0x388 PUSH1 0x0 DUP1 MLOAD PUSH1 0x20 PUSH2 0x3A10 DUP4 CODECOPY DUP2 MLOAD SWAP2 MSTORE DUP2 JUMP JUMPDEST PUSH2 0x41C PUSH2 0x744 CALLDATASIZE PUSH1 0x4 PUSH2 0x3547 JUMP JUMPDEST PUSH2 0x1145 JUMP JUMPDEST PUSH2 0x41C PUSH2 0x757 CALLDATASIZE PUSH1 0x4 PUSH2 0x3289 JUMP JUMPDEST PUSH2 0x1262 JUMP JUMPDEST PUSH2 0x634 PUSH2 0x1283 JUMP JUMPDEST PUSH1 0x33 SLOAD PUSH2 0x777 SWAP1 PUSH1 0x1 PUSH1 0x1 PUSH1 0xA0 SHL SUB AND DUP2 JUMP JUMPDEST PUSH1 0x40 MLOAD PUSH1 0x1 PUSH1 0x1 PUSH1 0xA0 SHL SUB SWAP1 SWAP2 AND DUP2 MSTORE PUSH1 0x20 ADD PUSH2 0x34B JUMP JUMPDEST PUSH1 0x0 PUSH1 0x1 PUSH1 0x1 PUSH1 0xE0 SHL SUB NOT DUP3 AND PUSH4 0x7965DB0B PUSH1 0xE0 SHL EQ DUP1 PUSH2 0x7C0 JUMPI POP PUSH4 0x1FFC9A7 PUSH1 0xE0 SHL PUSH1 0x1 PUSH1 0x1 PUSH1 0xE0 SHL SUB NOT DUP4 AND EQ JUMPDEST SWAP3 SWAP2 POP POP JUMP JUMPDEST PUSH1 0x60 PUSH1 0xCE DUP1 SLOAD PUSH2 0x7D5 SWAP1 PUSH2 0x3614 JUMP JUMPDEST DUP1 PUSH1 0x1F ADD PUSH1 0x20 DUP1 SWAP2 DIV MUL PUSH1 0x20 ADD PUSH1 0x40 MLOAD SWAP1 DUP2 ADD PUSH1 0x40 MSTORE DUP1 SWAP3 SWAP2 SWAP1 DUP2 DUP2 MSTORE PUSH1 0x20 ADD DUP3 DUP1 SLOAD PUSH2 0x801 SWAP1 PUSH2 0x3614 JUMP JUMPDEST DUP1 ISZERO PUSH2 0x84E JUMPI DUP1 PUSH1 0x1F LT PUSH2 0x823 JUMPI PUSH2 0x100 DUP1 DUP4 SLOAD DIV MUL DUP4 MSTORE SWAP2 PUSH1 0x20 ADD SWAP2 PUSH2 0x84E JUMP JUMPDEST DUP3 ADD SWAP2 SWAP1 PUSH1 0x0 MSTORE PUSH1 0x20 PUSH1 0x0 KECCAK256 SWAP1 JUMPDEST DUP2 SLOAD DUP2 MSTORE SWAP1 PUSH1 0x1 ADD SWAP1 PUSH1 0x20 ADD DUP1 DUP4 GT PUSH2 0x831 JUMPI DUP3 SWAP1 SUB PUSH1 0x1F AND DUP3 ADD SWAP2 JUMPDEST POP POP POP POP POP SWAP1 POP SWAP1 JUMP JUMPDEST PUSH1 0x0 DUP1 PUSH2 0x863 PUSH2 0x146C JUMP JUMPDEST SWAP1 POP PUSH2 0x870 DUP2 DUP6 DUP6 PUSH2 0x1476 JUMP JUMPDEST POP PUSH1 0x1 SWAP4 SWAP3 POP POP POP JUMP JUMPDEST PUSH2 0x1CC DUP1 SLOAD PUSH2 0x888 SWAP1 PUSH2 0x3614 JUMP JUMPDEST DUP1 PUSH1 0x1F ADD PUSH1 0x20 DUP1 SWAP2 DIV MUL PUSH1 0x20 ADD PUSH1 0x40 MLOAD SWAP1 DUP2 ADD PUSH1 0x40 MSTORE DUP1 SWAP3 SWAP2 SWAP1 DUP2 DUP2 MSTORE PUSH1 0x20 ADD DUP3 DUP1 SLOAD PUSH2 0x8B4 SWAP1 PUSH2 0x3614 JUMP JUMPDEST DUP1 ISZERO PUSH2 0x901 JUMPI DUP1 PUSH1 0x1F LT PUSH2 0x8D6 JUMPI PUSH2 0x100 DUP1 DUP4 SLOAD DIV MUL DUP4 MSTORE SWAP2 PUSH1 0x20 ADD SWAP2 PUSH2 0x901 JUMP JUMPDEST DUP3 ADD SWAP2 SWAP1 PUSH1 0x0 MSTORE PUSH1 0x20 PUSH1 0x0 KECCAK256 SWAP1 JUMPDEST DUP2 SLOAD DUP2 MSTORE SWAP1 PUSH1 0x1 ADD SWAP1 PUSH1 0x20 ADD DUP1 DUP4 GT PUSH2 0x8E4 JUMPI DUP3 SWAP1 SUB PUSH1 0x1F AND DUP3 ADD SWAP2 JUMPDEST POP POP POP POP POP DUP2 JUMP JUMPDEST PUSH1 0x0 PUSH2 0x916 DUP5 DUP5 DUP5 PUSH2 0x159A JUMP JUMPDEST SWAP1 POP JUMPDEST SWAP4 SWAP3 POP POP POP JUMP JUMPDEST PUSH1 0x0 DUP3 DUP2 MSTORE PUSH2 0x167 PUSH1 0x20 MSTORE PUSH1 0x40 SWAP1 KECCAK256 PUSH1 0x1 ADD SLOAD PUSH2 0x93C DUP2 PUSH2 0x1610 JUMP JUMPDEST PUSH2 0x946 DUP4 DUP4 PUSH2 0x1621 JUMP JUMPDEST POP POP POP JUMP JUMPDEST PUSH1 0x0 PUSH2 0x95A PUSH2 0x390 SLOAD PUSH1 0xFF AND SWAP1 JUMP JUMPDEST SWAP1 POP SWAP1 JUMP JUMPDEST PUSH2 0x967 PUSH2 0x146C JUMP JUMPDEST PUSH1 0x1 PUSH1 0x1 PUSH1 0xA0 SHL SUB AND DUP2 PUSH1 0x1 PUSH1 0x1 PUSH1 0xA0 SHL SUB AND EQ PUSH2 0x9E4 JUMPI PUSH1 0x40 MLOAD PUSH3 0x461BCD PUSH1 0xE5 SHL DUP2 MSTORE PUSH1 0x20 PUSH1 0x4 DUP3 ADD MSTORE PUSH1 0x2F PUSH1 0x24 DUP3 ADD MSTORE PUSH32 0x416363657373436F6E74726F6C3A2063616E206F6E6C792072656E6F756E6365 PUSH1 0x44 DUP3 ADD MSTORE PUSH15 0x103937B632B9903337B91039B2B633 PUSH1 0x89 SHL PUSH1 0x64 DUP3 ADD MSTORE PUSH1 0x84 ADD JUMPDEST PUSH1 0x40 MLOAD DUP1 SWAP2 SUB SWAP1 REVERT JUMPDEST PUSH2 0x9EE DUP3 DUP3 PUSH2 0x16A9 JUMP JUMPDEST POP POP JUMP JUMPDEST PUSH1 0x0 DUP1 PUSH2 0x9FD PUSH2 0x146C JUMP JUMPDEST SWAP1 POP PUSH2 0x870 DUP2 DUP6 DUP6 PUSH2 0xA0F DUP6 DUP10 PUSH2 0x10AB JUMP JUMPDEST PUSH2 0xA19 SWAP2 SWAP1 PUSH2 0x3664 JUMP JUMPDEST PUSH2 0x1476 JUMP JUMPDEST PUSH1 0x0 DUP1 MLOAD PUSH1 0x20 PUSH2 0x3A30 DUP4 CODECOPY DUP2 MLOAD SWAP2 MSTORE PUSH2 0xA36 DUP2 PUSH2 0x1610 JUMP JUMPDEST PUSH2 0x9EE DUP3 PUSH2 0x172F JUMP JUMPDEST PUSH1 0x0 DUP1 MLOAD PUSH1 0x20 PUSH2 0x3A10 DUP4 CODECOPY DUP2 MLOAD SWAP2 MSTORE PUSH2 0xA57 DUP2 PUSH2 0x1610 JUMP JUMPDEST PUSH2 0xA5F PUSH2 0x18F9 JUMP JUMPDEST POP JUMP JUMPDEST PUSH1 0x0 PUSH1 0x0 DUP1 MLOAD PUSH1 0x20 PUSH2 0x3A50 DUP4 CODECOPY DUP2 MLOAD SWAP2 MSTORE PUSH2 0xA7C DUP2 PUSH2 0x1610 JUMP JUMPDEST PUSH2 0xA86 DUP5 DUP5 PUSH2 0x1951 JUMP JUMPDEST SWAP5 SWAP4 POP POP POP POP JUMP JUMPDEST PUSH32 0x9F2DF0FED2C77648DE5860A4CC508CD0818C85B8B8A1AB4CEEEF8D981C8956A6 PUSH2 0xAB8 DUP2 PUSH2 0x1610 JUMP JUMPDEST PUSH2 0xAC2 DUP4 DUP4 PUSH2 0x1A0E JUMP JUMPDEST DUP3 PUSH1 0x1 PUSH1 0x1 PUSH1 0xA0 SHL SUB AND PUSH32 0xF6798A560793A54C3BCFE86A93CDE1E73087D944C0EA20544137D4121396885 DUP4 PUSH1 0x40 MLOAD PUSH2 0xAFD SWAP2 DUP2 MSTORE PUSH1 0x20 ADD SWAP1 JUMP JUMPDEST PUSH1 0x40 MLOAD DUP1 SWAP2 SUB SWAP1 LOG2 POP POP POP JUMP JUMPDEST PUSH1 0x0 PUSH2 0xB15 DUP2 PUSH2 0x1610 JUMP JUMPDEST PUSH2 0x1CB SLOAD PUSH1 0xFF AND DUP1 ISZERO PUSH2 0xB2A JUMPI PUSH2 0xB2A PUSH2 0x1ADB JUMP JUMPDEST PUSH2 0xB32 PUSH2 0x146C JUMP JUMPDEST PUSH1 0x1 PUSH1 0x1 PUSH1 0xA0 SHL SUB AND SELFDESTRUCT JUMPDEST PUSH1 0x0 DUP2 PUSH2 0xB51 PUSH2 0xB4B PUSH2 0x146C JUMP JUMPDEST DUP7 PUSH2 0x10AB JUMP JUMPDEST EQ PUSH2 0xBAC JUMPI PUSH1 0x40 MLOAD PUSH3 0x461BCD PUSH1 0xE5 SHL DUP2 MSTORE PUSH1 0x20 PUSH1 0x4 DUP3 ADD MSTORE PUSH1 0x25 PUSH1 0x24 DUP3 ADD MSTORE PUSH32 0x434D5441543A2063757272656E7420616C6C6F77616E6365206973206E6F7420 PUSH1 0x44 DUP3 ADD MSTORE PUSH5 0x1C9A59DA1D PUSH1 0xDA SHL PUSH1 0x64 DUP3 ADD MSTORE PUSH1 0x84 ADD PUSH2 0x9DB JUMP JUMPDEST PUSH2 0xBB6 DUP5 DUP5 PUSH2 0x858 JUMP JUMPDEST POP PUSH1 0x1 SWAP5 SWAP4 POP POP POP POP JUMP JUMPDEST PUSH1 0x0 DUP1 PUSH1 0x0 PUSH2 0xBD1 DUP5 PUSH1 0xFE PUSH2 0x1B6B JUMP JUMPDEST SWAP2 POP SWAP2 POP DUP2 PUSH2 0x919 JUMPI PUSH1 0xCD SLOAD PUSH2 0xA86 JUMP JUMPDEST PUSH1 0x1 PUSH1 0x1 PUSH1 0xA0 SHL SUB DUP2 AND PUSH1 0x0 SWAP1 DUP2 MSTORE PUSH1 0xFD PUSH1 0x20 MSTORE PUSH1 0x40 DUP2 KECCAK256 DUP2 SWAP1 DUP2 SWAP1 PUSH2 0xC09 SWAP1 DUP7 SWAP1 PUSH2 0x1B6B JUMP JUMPDEST SWAP2 POP SWAP2 POP DUP2 PUSH2 0xC30 JUMPI PUSH1 0x1 PUSH1 0x1 PUSH1 0xA0 SHL SUB DUP5 AND PUSH1 0x0 SWAP1 DUP2 MSTORE PUSH1 0xCB PUSH1 0x20 MSTORE PUSH1 0x40 SWAP1 KECCAK256 SLOAD PUSH2 0xC32 JUMP JUMPDEST DUP1 JUMPDEST SWAP6 SWAP5 POP POP POP POP POP JUMP JUMPDEST PUSH1 0x0 PUSH1 0x0 DUP1 MLOAD PUSH1 0x20 PUSH2 0x3A50 DUP4 CODECOPY DUP2 MLOAD SWAP2 MSTORE PUSH2 0xC55 DUP2 PUSH2 0x1610 JUMP JUMPDEST PUSH2 0xA86 DUP5 DUP5 PUSH2 0x1BC0 JUMP JUMPDEST PUSH1 0x0 PUSH2 0xC6A DUP2 PUSH2 0x1610 JUMP JUMPDEST PUSH2 0x1CD PUSH2 0xC77 DUP4 DUP3 PUSH2 0x36BD JUMP JUMPDEST POP DUP2 PUSH1 0x40 MLOAD PUSH2 0xC86 SWAP2 SWAP1 PUSH2 0x377D JUMP JUMPDEST PUSH1 0x40 MLOAD SWAP1 DUP2 SWAP1 SUB DUP2 KECCAK256 SWAP1 PUSH32 0x4AD91BE0CC2638E10A8FA52BB61221DCF70DFCD07E6BEAE6B0D5A3F75070FCF SWAP1 PUSH1 0x0 SWAP1 LOG2 POP POP JUMP JUMPDEST PUSH1 0x60 PUSH1 0xFF DUP3 AND PUSH2 0xCEE JUMPI POP POP PUSH1 0x40 DUP1 MLOAD DUP1 DUP3 ADD SWAP1 SWAP2 MSTORE PUSH1 0xE DUP2 MSTORE PUSH14 0x2737903932B9BA3934B1BA34B7B7 PUSH1 0x91 SHL PUSH1 0x20 DUP3 ADD MSTORE SWAP1 JUMP JUMPDEST PUSH1 0x0 NOT PUSH1 0xFF DUP4 AND ADD PUSH2 0xD2A JUMPI POP POP PUSH1 0x40 DUP1 MLOAD DUP1 DUP3 ADD SWAP1 SWAP2 MSTORE PUSH1 0x14 DUP2 MSTORE PUSH20 0x105B1B081D1C985B9CD9995C9CC81C185D5CD959 PUSH1 0x62 SHL PUSH1 0x20 DUP3 ADD MSTORE SWAP1 JUMP JUMPDEST PUSH1 0x1 NOT PUSH1 0xFF DUP4 AND ADD PUSH2 0xD67 JUMPI POP POP PUSH1 0x40 DUP1 MLOAD DUP1 DUP3 ADD SWAP1 SWAP2 MSTORE PUSH1 0x15 DUP2 MSTORE PUSH21 0x2A34329030B2323932B9B99034B990333937BD32B7 PUSH1 0x59 SHL PUSH1 0x20 DUP3 ADD MSTORE SWAP1 JUMP JUMPDEST PUSH1 0x33 SLOAD PUSH1 0x1 PUSH1 0x1 PUSH1 0xA0 SHL SUB AND ISZERO PUSH2 0xD81 JUMPI PUSH2 0x7C0 DUP3 PUSH2 0x1C68 JUMP JUMPDEST SWAP2 SWAP1 POP JUMP JUMPDEST PUSH1 0x0 DUP1 MLOAD PUSH1 0x20 PUSH2 0x3A30 DUP4 CODECOPY DUP2 MLOAD SWAP2 MSTORE PUSH2 0xD9E DUP2 PUSH2 0x1610 JUMP JUMPDEST PUSH2 0x9EE DUP3 PUSH2 0x1CDC JUMP JUMPDEST PUSH1 0x0 DUP1 MLOAD PUSH1 0x20 PUSH2 0x3A10 DUP4 CODECOPY DUP2 MLOAD SWAP2 MSTORE PUSH2 0xDBF DUP2 PUSH2 0x1610 JUMP JUMPDEST PUSH2 0xA5F PUSH2 0x1DE3 JUMP JUMPDEST PUSH1 0x0 SWAP2 DUP3 MSTORE PUSH2 0x167 PUSH1 0x20 SWAP1 DUP2 MSTORE PUSH1 0x40 DUP1 DUP5 KECCAK256 PUSH1 0x1 PUSH1 0x1 PUSH1 0xA0 SHL SUB SWAP4 SWAP1 SWAP4 AND DUP5 MSTORE SWAP2 SWAP1 MSTORE SWAP1 KECCAK256 SLOAD PUSH1 0xFF AND SWAP1 JUMP JUMPDEST PUSH1 0x60 PUSH1 0xCF DUP1 SLOAD PUSH2 0x7D5 SWAP1 PUSH2 0x3614 JUMP JUMPDEST PUSH1 0x0 DUP1 MLOAD PUSH1 0x20 PUSH2 0x3A30 DUP4 CODECOPY DUP2 MLOAD SWAP2 MSTORE PUSH2 0xE1A DUP2 PUSH2 0x1610 JUMP JUMPDEST PUSH2 0x9EE DUP3 PUSH2 0x1E21 JUMP JUMPDEST PUSH1 0x0 DUP1 PUSH2 0xE2E PUSH2 0x146C JUMP JUMPDEST SWAP1 POP PUSH1 0x0 PUSH2 0xE3C DUP3 DUP7 PUSH2 0x10AB JUMP JUMPDEST SWAP1 POP DUP4 DUP2 LT ISZERO PUSH2 0xE9C JUMPI PUSH1 0x40 MLOAD PUSH3 0x461BCD PUSH1 0xE5 SHL DUP2 MSTORE PUSH1 0x20 PUSH1 0x4 DUP3 ADD MSTORE PUSH1 0x25 PUSH1 0x24 DUP3 ADD MSTORE PUSH32 0x45524332303A2064656372656173656420616C6C6F77616E63652062656C6F77 PUSH1 0x44 DUP3 ADD MSTORE PUSH5 0x207A65726F PUSH1 0xD8 SHL PUSH1 0x64 DUP3 ADD MSTORE PUSH1 0x84 ADD PUSH2 0x9DB JUMP JUMPDEST PUSH2 0xBB6 DUP3 DUP7 DUP7 DUP5 SUB PUSH2 0x1476 JUMP JUMPDEST PUSH1 0x0 PUSH2 0xEB4 DUP2 PUSH2 0x1610 JUMP JUMPDEST PUSH1 0x33 DUP1 SLOAD PUSH1 0x1 PUSH1 0x1 PUSH1 0xA0 SHL SUB NOT AND PUSH1 0x1 PUSH1 0x1 PUSH1 0xA0 SHL SUB DUP5 AND SWAP1 DUP2 OR SWAP1 SWAP2 SSTORE PUSH1 0x40 MLOAD PUSH32 0x9C4D5C11B88D1E3D9C7AD50900CB6D10AC72853248CDC85CA868FB772E62B449 SWAP1 PUSH1 0x0 SWAP1 LOG2 POP POP JUMP JUMPDEST PUSH1 0x0 DUP1 PUSH2 0xF0A PUSH2 0x146C JUMP JUMPDEST SWAP1 POP PUSH2 0x870 DUP2 DUP6 DUP6 PUSH2 0x1F41 JUMP JUMPDEST PUSH1 0x60 PUSH2 0x102 DUP1 SLOAD DUP1 PUSH1 0x20 MUL PUSH1 0x20 ADD PUSH1 0x40 MLOAD SWAP1 DUP2 ADD PUSH1 0x40 MSTORE DUP1 SWAP3 SWAP2 SWAP1 DUP2 DUP2 MSTORE PUSH1 0x20 ADD DUP3 DUP1 SLOAD DUP1 ISZERO PUSH2 0x84E JUMPI PUSH1 0x20 MUL DUP3 ADD SWAP2 SWAP1 PUSH1 0x0 MSTORE PUSH1 0x20 PUSH1 0x0 KECCAK256 SWAP1 JUMPDEST DUP2 SLOAD DUP2 MSTORE PUSH1 0x20 ADD SWAP1 PUSH1 0x1 ADD SWAP1 DUP1 DUP4 GT PUSH2 0xF52 JUMPI POP POP POP POP POP SWAP1 POP SWAP1 JUMP JUMPDEST PUSH1 0x33 SLOAD PUSH1 0x0 SWAP1 PUSH1 0x1 PUSH1 0x1 PUSH1 0xA0 SHL SUB AND ISZERO PUSH2 0x870 JUMPI PUSH2 0xF8E DUP5 DUP5 DUP5 PUSH2 0x20F9 JUMP JUMPDEST SWAP1 POP PUSH2 0x919 JUMP JUMPDEST PUSH1 0x0 DUP1 MLOAD PUSH1 0x20 PUSH2 0x3A30 DUP4 CODECOPY DUP2 MLOAD SWAP2 MSTORE PUSH2 0xFAD DUP2 PUSH2 0x1610 JUMP JUMPDEST PUSH2 0x946 DUP4 DUP4 PUSH2 0x2177 JUMP JUMPDEST PUSH1 0x0 PUSH2 0xFC5 PUSH1 0x66 SLOAD PUSH1 0xFF AND SWAP1 JUMP JUMPDEST ISZERO PUSH2 0xFD1 JUMPI PUSH1 0x1 PUSH2 0xF8E JUMP JUMPDEST PUSH1 0x1 PUSH1 0x1 PUSH1 0xA0 SHL SUB DUP5 AND PUSH1 0x0 SWAP1 DUP2 MSTORE PUSH1 0x98 PUSH1 0x20 MSTORE PUSH1 0x40 SWAP1 KECCAK256 SLOAD PUSH1 0xFF AND ISZERO PUSH2 0xFF9 JUMPI PUSH1 0x2 PUSH2 0xF8E JUMP JUMPDEST PUSH1 0x33 SLOAD PUSH1 0x1 PUSH1 0x1 PUSH1 0xA0 SHL SUB AND ISZERO PUSH2 0x1015 JUMPI PUSH2 0xF8E DUP5 DUP5 DUP5 PUSH2 0x23D9 JUMP JUMPDEST PUSH1 0x0 PUSH2 0x916 JUMP JUMPDEST PUSH2 0x1CD DUP1 SLOAD PUSH2 0x888 SWAP1 PUSH2 0x3614 JUMP JUMPDEST PUSH1 0x0 DUP3 DUP2 MSTORE PUSH2 0x167 PUSH1 0x20 MSTORE PUSH1 0x40 SWAP1 KECCAK256 PUSH1 0x1 ADD SLOAD PUSH2 0x1046 DUP2 PUSH2 0x1610 JUMP JUMPDEST PUSH2 0x946 DUP4 DUP4 PUSH2 0x16A9 JUMP JUMPDEST PUSH1 0x0 PUSH2 0x105B DUP2 PUSH2 0x1610 JUMP JUMPDEST PUSH2 0x1CC PUSH2 0x1068 DUP4 DUP3 PUSH2 0x36BD JUMP JUMPDEST POP DUP2 PUSH1 0x40 MLOAD PUSH2 0x1077 SWAP2 SWAP1 PUSH2 0x377D JUMP JUMPDEST PUSH1 0x40 MLOAD SWAP1 DUP2 SWAP1 SUB DUP2 KECCAK256 SWAP1 PUSH32 0x1A3F197F2CB06B445AD0C131C52BC822947DAE771F49D55FBD17BB6E462254BD SWAP1 PUSH1 0x0 SWAP1 LOG2 POP POP JUMP JUMPDEST PUSH1 0x1 PUSH1 0x1 PUSH1 0xA0 SHL SUB SWAP2 DUP3 AND PUSH1 0x0 SWAP1 DUP2 MSTORE PUSH1 0xCC PUSH1 0x20 SWAP1 DUP2 MSTORE PUSH1 0x40 DUP1 DUP4 KECCAK256 SWAP4 SWAP1 SWAP5 AND DUP3 MSTORE SWAP2 SWAP1 SWAP2 MSTORE KECCAK256 SLOAD SWAP1 JUMP JUMPDEST PUSH32 0x3C11D16CBAFFD01DF69CE1C404F6340EE057498F5F00246190EA54220576A848 PUSH2 0x1100 DUP2 PUSH2 0x1610 JUMP JUMPDEST PUSH2 0x110A DUP4 DUP4 PUSH2 0x2457 JUMP JUMPDEST DUP3 PUSH1 0x1 PUSH1 0x1 PUSH1 0xA0 SHL SUB AND PUSH32 0xCC16F5DBB4873280815C1EE09DBD06736CFFCC184412CF7A71A0FDB75D397CA5 DUP4 PUSH1 0x40 MLOAD PUSH2 0xAFD SWAP2 DUP2 MSTORE PUSH1 0x20 ADD SWAP1 JUMP JUMPDEST PUSH1 0x0 SLOAD PUSH2 0x100 SWAP1 DIV PUSH1 0xFF AND ISZERO DUP1 DUP1 ISZERO PUSH2 0x1165 JUMPI POP PUSH1 0x0 SLOAD PUSH1 0x1 PUSH1 0xFF SWAP1 SWAP2 AND LT JUMPDEST DUP1 PUSH2 0x117F JUMPI POP ADDRESS EXTCODESIZE ISZERO DUP1 ISZERO PUSH2 0x117F JUMPI POP PUSH1 0x0 SLOAD PUSH1 0xFF AND PUSH1 0x1 EQ JUMPDEST PUSH2 0x11E2 JUMPI PUSH1 0x40 MLOAD PUSH3 0x461BCD PUSH1 0xE5 SHL DUP2 MSTORE PUSH1 0x20 PUSH1 0x4 DUP3 ADD MSTORE PUSH1 0x2E PUSH1 0x24 DUP3 ADD MSTORE PUSH32 0x496E697469616C697A61626C653A20636F6E747261637420697320616C726561 PUSH1 0x44 DUP3 ADD MSTORE PUSH14 0x191E481A5B9A5D1A585B1A5E9959 PUSH1 0x92 SHL PUSH1 0x64 DUP3 ADD MSTORE PUSH1 0x84 ADD PUSH2 0x9DB JUMP JUMPDEST PUSH1 0x0 DUP1 SLOAD PUSH1 0xFF NOT AND PUSH1 0x1 OR SWAP1 SSTORE DUP1 ISZERO PUSH2 0x1205 JUMPI PUSH1 0x0 DUP1 SLOAD PUSH2 0xFF00 NOT AND PUSH2 0x100 OR SWAP1 SSTORE JUMPDEST PUSH2 0x1213 DUP8 DUP8 DUP8 DUP8 DUP8 DUP8 PUSH2 0x2597 JUMP JUMPDEST DUP1 ISZERO PUSH2 0x1259 JUMPI PUSH1 0x0 DUP1 SLOAD PUSH2 0xFF00 NOT AND SWAP1 SSTORE PUSH1 0x40 MLOAD PUSH1 0x1 DUP2 MSTORE PUSH32 0x7F26B83FF96E1F2B6A682F133852F6798A09C465DA95921460CEFB3847402498 SWAP1 PUSH1 0x20 ADD PUSH1 0x40 MLOAD DUP1 SWAP2 SUB SWAP1 LOG1 JUMPDEST POP POP POP POP POP POP POP JUMP JUMPDEST PUSH1 0x0 DUP1 MLOAD PUSH1 0x20 PUSH2 0x3A30 DUP4 CODECOPY DUP2 MLOAD SWAP2 MSTORE PUSH2 0x127A DUP2 PUSH2 0x1610 JUMP JUMPDEST PUSH2 0x9EE DUP3 PUSH2 0x2656 JUMP JUMPDEST PUSH1 0x40 DUP1 MLOAD PUSH1 0x0 DUP2 MSTORE PUSH1 0x20 DUP2 ADD SWAP1 SWAP2 MSTORE PUSH2 0x102 SLOAD PUSH1 0x60 SWAP2 SWAP1 ISZERO PUSH2 0xD81 JUMPI PUSH1 0x0 DUP1 PUSH2 0x12AA PUSH2 0x27A1 JUMP JUMPDEST SWAP2 POP SWAP2 POP DUP2 PUSH1 0x0 EQ DUP1 ISZERO PUSH2 0x12BF JUMPI POP PUSH2 0x100 SLOAD ISZERO JUMPDEST ISZERO PUSH2 0x131E JUMPI PUSH2 0x102 DUP1 SLOAD DUP1 PUSH1 0x20 MUL PUSH1 0x20 ADD PUSH1 0x40 MLOAD SWAP1 DUP2 ADD PUSH1 0x40 MSTORE DUP1 SWAP3 SWAP2 SWAP1 DUP2 DUP2 MSTORE PUSH1 0x20 ADD DUP3 DUP1 SLOAD DUP1 ISZERO PUSH2 0x1311 JUMPI PUSH1 0x20 MUL DUP3 ADD SWAP2 SWAP1 PUSH1 0x0 MSTORE PUSH1 0x20 PUSH1 0x0 KECCAK256 SWAP1 JUMPDEST DUP2 SLOAD DUP2 MSTORE PUSH1 0x20 ADD SWAP1 PUSH1 0x1 ADD SWAP1 DUP1 DUP4 GT PUSH2 0x12FD JUMPI JUMPDEST POP POP POP POP POP SWAP4 POP POP POP POP SWAP1 JUMP JUMPDEST PUSH2 0x102 SLOAD PUSH2 0x132D DUP3 PUSH1 0x1 PUSH2 0x3664 JUMP JUMPDEST EQ PUSH2 0x1408 JUMPI PUSH2 0x102 SLOAD PUSH1 0x0 SWAP1 PUSH1 0x1 SWAP1 PUSH2 0x1347 SWAP1 DUP5 SWAP1 PUSH2 0x3799 JUMP JUMPDEST PUSH2 0x1351 SWAP2 SWAP1 PUSH2 0x3799 JUMP JUMPDEST SWAP1 POP DUP1 PUSH8 0xFFFFFFFFFFFFFFFF DUP2 GT ISZERO PUSH2 0x136C JUMPI PUSH2 0x136C PUSH2 0x32D2 JUMP JUMPDEST PUSH1 0x40 MLOAD SWAP1 DUP1 DUP3 MSTORE DUP1 PUSH1 0x20 MUL PUSH1 0x20 ADD DUP3 ADD PUSH1 0x40 MSTORE DUP1 ISZERO PUSH2 0x1395 JUMPI DUP2 PUSH1 0x20 ADD PUSH1 0x20 DUP3 MUL DUP1 CALLDATASIZE DUP4 CALLDATACOPY ADD SWAP1 POP JUMPDEST POP SWAP4 POP PUSH1 0x0 JUMPDEST DUP5 MLOAD DUP2 LT ISZERO PUSH2 0x1405 JUMPI PUSH2 0x102 DUP2 PUSH2 0x13B3 DUP6 PUSH1 0x1 PUSH2 0x3664 JUMP JUMPDEST PUSH2 0x13BD SWAP2 SWAP1 PUSH2 0x3664 JUMP JUMPDEST DUP2 SLOAD DUP2 LT PUSH2 0x13CD JUMPI PUSH2 0x13CD PUSH2 0x37AC JUMP JUMPDEST SWAP1 PUSH1 0x0 MSTORE PUSH1 0x20 PUSH1 0x0 KECCAK256 ADD SLOAD DUP6 DUP3 DUP2 MLOAD DUP2 LT PUSH2 0x13EA JUMPI PUSH2 0x13EA PUSH2 0x37AC JUMP JUMPDEST PUSH1 0x20 SWAP1 DUP2 MUL SWAP2 SWAP1 SWAP2 ADD ADD MSTORE PUSH2 0x13FE DUP2 PUSH2 0x37C2 JUMP JUMPDEST SWAP1 POP PUSH2 0x139B JUMP JUMPDEST POP POP JUMPDEST POP POP SWAP2 SWAP1 POP JUMP JUMPDEST PUSH1 0x1 PUSH1 0x1 PUSH1 0xA0 SHL SUB AND EXTCODESIZE ISZERO ISZERO SWAP1 JUMP JUMPDEST PUSH1 0x0 PUSH2 0x95A JUMPDEST PUSH1 0x0 PUSH32 0x0 PUSH1 0x1 PUSH1 0x1 PUSH1 0xA0 SHL SUB AND CALLER SUB PUSH2 0x1463 JUMPI POP PUSH1 0x13 NOT CALLDATASIZE ADD CALLDATALOAD PUSH1 0x60 SHR SWAP1 JUMP JUMPDEST POP CALLER SWAP1 JUMP JUMPDEST CALLER SWAP1 JUMP JUMPDEST PUSH1 0x0 PUSH2 0x95A PUSH2 0x141E JUMP JUMPDEST PUSH1 0x1 PUSH1 0x1 PUSH1 0xA0 SHL SUB DUP4 AND PUSH2 0x14D8 JUMPI PUSH1 0x40 MLOAD PUSH3 0x461BCD PUSH1 0xE5 SHL DUP2 MSTORE PUSH1 0x20 PUSH1 0x4 DUP3 ADD MSTORE PUSH1 0x24 DUP1 DUP3 ADD MSTORE PUSH32 0x45524332303A20617070726F76652066726F6D20746865207A65726F20616464 PUSH1 0x44 DUP3 ADD MSTORE PUSH4 0x72657373 PUSH1 0xE0 SHL PUSH1 0x64 DUP3 ADD MSTORE PUSH1 0x84 ADD PUSH2 0x9DB JUMP JUMPDEST PUSH1 0x1 PUSH1 0x1 PUSH1 0xA0 SHL SUB DUP3 AND PUSH2 0x1539 JUMPI PUSH1 0x40 MLOAD PUSH3 0x461BCD PUSH1 0xE5 SHL DUP2 MSTORE PUSH1 0x20 PUSH1 0x4 DUP3 ADD MSTORE PUSH1 0x22 PUSH1 0x24 DUP3 ADD MSTORE PUSH32 0x45524332303A20617070726F766520746F20746865207A65726F206164647265 PUSH1 0x44 DUP3 ADD MSTORE PUSH2 0x7373 PUSH1 0xF0 SHL PUSH1 0x64 DUP3 ADD MSTORE PUSH1 0x84 ADD PUSH2 0x9DB JUMP JUMPDEST PUSH1 0x1 PUSH1 0x1 PUSH1 0xA0 SHL SUB DUP4 DUP2 AND PUSH1 0x0 DUP2 DUP2 MSTORE PUSH1 0xCC PUSH1 0x20 SWAP1 DUP2 MSTORE PUSH1 0x40 DUP1 DUP4 KECCAK256 SWAP5 DUP8 AND DUP1 DUP5 MSTORE SWAP5 DUP3 MSTORE SWAP2 DUP3 SWAP1 KECCAK256 DUP6 SWAP1 SSTORE SWAP1 MLOAD DUP5 DUP2 MSTORE PUSH32 0x8C5BE1E5EBEC7D5BD14F71427D1E84F3DD0314C0F7B2291E5B200AC8C7C3B925 SWAP2 ADD PUSH1 0x40 MLOAD DUP1 SWAP2 SUB SWAP1 LOG3 POP POP POP JUMP JUMPDEST PUSH1 0x0 DUP1 PUSH2 0x15A8 DUP6 DUP6 DUP6 PUSH2 0x285F JUMP JUMPDEST SWAP1 POP DUP1 ISZERO ISZERO PUSH1 0x1 SUB PUSH2 0x916 JUMPI PUSH2 0x15BC PUSH2 0x146C JUMP JUMPDEST PUSH1 0x1 PUSH1 0x1 PUSH1 0xA0 SHL SUB AND DUP6 PUSH1 0x1 PUSH1 0x1 PUSH1 0xA0 SHL SUB AND PUSH32 0x7C2B9369BF4A6BD9745889C658AD00A4D57E280C4C80FA1C74DB2A9E52C13635 DUP6 PUSH1 0x40 MLOAD PUSH2 0x1600 SWAP2 DUP2 MSTORE PUSH1 0x20 ADD SWAP1 JUMP JUMPDEST PUSH1 0x40 MLOAD DUP1 SWAP2 SUB SWAP1 LOG3 SWAP5 SWAP4 POP POP POP POP JUMP JUMPDEST PUSH2 0xA5F DUP2 PUSH2 0x161C PUSH2 0x146C JUMP JUMPDEST PUSH2 0x2882 JUMP JUMPDEST PUSH2 0x162B DUP3 DUP3 PUSH2 0xDC7 JUMP JUMPDEST PUSH2 0x9EE JUMPI PUSH1 0x0 DUP3 DUP2 MSTORE PUSH2 0x167 PUSH1 0x20 SWAP1 DUP2 MSTORE PUSH1 0x40 DUP1 DUP4 KECCAK256 PUSH1 0x1 PUSH1 0x1 PUSH1 0xA0 SHL SUB DUP6 AND DUP5 MSTORE SWAP1 SWAP2 MSTORE SWAP1 KECCAK256 DUP1 SLOAD PUSH1 0xFF NOT AND PUSH1 0x1 OR SWAP1 SSTORE PUSH2 0x1665 PUSH2 0x146C JUMP JUMPDEST PUSH1 0x1 PUSH1 0x1 PUSH1 0xA0 SHL SUB AND DUP2 PUSH1 0x1 PUSH1 0x1 PUSH1 0xA0 SHL SUB AND DUP4 PUSH32 0x2F8788117E7EFF1D82E926EC794901D17C78024A50270940304540A733656F0D PUSH1 0x40 MLOAD PUSH1 0x40 MLOAD DUP1 SWAP2 SUB SWAP1 LOG4 POP POP JUMP JUMPDEST PUSH2 0x16B3 DUP3 DUP3 PUSH2 0xDC7 JUMP JUMPDEST ISZERO PUSH2 0x9EE JUMPI PUSH1 0x0 DUP3 DUP2 MSTORE PUSH2 0x167 PUSH1 0x20 SWAP1 DUP2 MSTORE PUSH1 0x40 DUP1 DUP4 KECCAK256 PUSH1 0x1 PUSH1 0x1 PUSH1 0xA0 SHL SUB DUP6 AND DUP5 MSTORE SWAP1 SWAP2 MSTORE SWAP1 KECCAK256 DUP1 SLOAD PUSH1 0xFF NOT AND SWAP1 SSTORE PUSH2 0x16EB PUSH2 0x146C JUMP JUMPDEST PUSH1 0x1 PUSH1 0x1 PUSH1 0xA0 SHL SUB AND DUP2 PUSH1 0x1 PUSH1 0x1 PUSH1 0xA0 SHL SUB AND DUP4 PUSH32 0xF6391F5C32D9C69D2A47EA670B442974B53935D1EDC7FD64EB21E047A839171B PUSH1 0x40 MLOAD PUSH1 0x40 MLOAD DUP1 SWAP2 SUB SWAP1 LOG4 POP POP JUMP JUMPDEST TIMESTAMP DUP2 GT PUSH2 0x174E JUMPI PUSH1 0x40 MLOAD PUSH3 0x461BCD PUSH1 0xE5 SHL DUP2 MSTORE PUSH1 0x4 ADD PUSH2 0x9DB SWAP1 PUSH2 0x37DB JUMP JUMPDEST PUSH1 0x0 DUP1 PUSH2 0x175A DUP4 PUSH2 0x28DB JUMP JUMPDEST SWAP2 POP SWAP2 POP DUP2 ISZERO PUSH2 0x17AC JUMPI PUSH1 0x40 MLOAD PUSH3 0x461BCD PUSH1 0xE5 SHL DUP2 MSTORE PUSH1 0x20 PUSH1 0x4 DUP3 ADD MSTORE PUSH1 0x17 PUSH1 0x24 DUP3 ADD MSTORE PUSH32 0x536E617073686F7420616C726561647920657869737473000000000000000000 PUSH1 0x44 DUP3 ADD MSTORE PUSH1 0x64 ADD PUSH2 0x9DB JUMP JUMPDEST PUSH2 0x102 SLOAD DUP2 SUB PUSH2 0x17F1 JUMPI PUSH2 0x102 DUP1 SLOAD PUSH1 0x1 DUP2 ADD DUP3 SSTORE PUSH1 0x0 SWAP2 SWAP1 SWAP2 MSTORE PUSH32 0x93BDAA6A4190909B7C3FBE8D42169FFE1CAB19F51DFC8DB24C71ABF849ECED4A ADD DUP4 SWAP1 SSTORE PUSH2 0x18C7 JUMP JUMPDEST PUSH2 0x102 DUP1 SLOAD DUP2 SWAP1 PUSH2 0x1804 SWAP1 PUSH1 0x1 SWAP1 PUSH2 0x3799 JUMP JUMPDEST DUP2 SLOAD DUP2 LT PUSH2 0x1814 JUMPI PUSH2 0x1814 PUSH2 0x37AC JUMP JUMPDEST PUSH1 0x0 SWAP2 DUP3 MSTORE PUSH1 0x20 DUP1 DUP4 KECCAK256 SWAP1 SWAP2 ADD SLOAD DUP4 SLOAD PUSH1 0x1 DUP2 ADD DUP6 SSTORE SWAP4 DUP4 MSTORE SWAP1 DUP3 KECCAK256 SWAP1 SWAP3 ADD SWAP2 SWAP1 SWAP2 SSTORE PUSH2 0x102 SLOAD PUSH2 0x1847 SWAP1 PUSH1 0x2 SWAP1 PUSH2 0x3799 JUMP JUMPDEST SWAP1 POP JUMPDEST DUP2 DUP2 GT ISZERO PUSH2 0x18A4 JUMPI PUSH2 0x102 PUSH2 0x1860 PUSH1 0x1 DUP4 PUSH2 0x3799 JUMP JUMPDEST DUP2 SLOAD DUP2 LT PUSH2 0x1870 JUMPI PUSH2 0x1870 PUSH2 0x37AC JUMP JUMPDEST SWAP1 PUSH1 0x0 MSTORE PUSH1 0x20 PUSH1 0x0 KECCAK256 ADD SLOAD PUSH2 0x102 DUP3 DUP2 SLOAD DUP2 LT PUSH2 0x188F JUMPI PUSH2 0x188F PUSH2 0x37AC JUMP JUMPDEST PUSH1 0x0 SWAP2 DUP3 MSTORE PUSH1 0x20 SWAP1 SWAP2 KECCAK256 ADD SSTORE PUSH1 0x0 NOT ADD PUSH2 0x184A JUMP JUMPDEST POP DUP3 PUSH2 0x102 DUP3 DUP2 SLOAD DUP2 LT PUSH2 0x18BA JUMPI PUSH2 0x18BA PUSH2 0x37AC JUMP JUMPDEST PUSH1 0x0 SWAP2 DUP3 MSTORE PUSH1 0x20 SWAP1 SWAP2 KECCAK256 ADD SSTORE JUMPDEST PUSH1 0x40 MLOAD DUP4 SWAP1 PUSH1 0x0 SWAP1 PUSH32 0xE2AD3B1ABE53383DBE6359F02F11AE76D91CFAB321B37083B16E1D96A81D4183 SWAP1 DUP3 SWAP1 LOG3 POP POP POP JUMP JUMPDEST PUSH2 0x1901 PUSH2 0x2953 JUMP JUMPDEST PUSH1 0x66 DUP1 SLOAD PUSH1 0xFF NOT AND SWAP1 SSTORE PUSH32 0x5DB9EE0A495BF2E6FF9C91A7834C1BA4FDD244A5E8AA4E537BD38AEAE4B073AA PUSH2 0x1934 PUSH2 0x146C JUMP JUMPDEST PUSH1 0x40 MLOAD PUSH1 0x1 PUSH1 0x1 PUSH1 0xA0 SHL SUB SWAP1 SWAP2 AND DUP2 MSTORE PUSH1 0x20 ADD PUSH1 0x40 MLOAD DUP1 SWAP2 SUB SWAP1 LOG1 JUMP JUMPDEST PUSH1 0x1 PUSH1 0x1 PUSH1 0xA0 SHL SUB DUP3 AND PUSH1 0x0 SWAP1 DUP2 MSTORE PUSH1 0x98 PUSH1 0x20 MSTORE PUSH1 0x40 DUP2 KECCAK256 SLOAD PUSH1 0xFF AND ISZERO PUSH2 0x197A JUMPI POP PUSH1 0x0 PUSH2 0x7C0 JUMP JUMPDEST PUSH1 0x1 PUSH1 0x1 PUSH1 0xA0 SHL SUB DUP4 AND PUSH1 0x0 SWAP1 DUP2 MSTORE PUSH1 0x98 PUSH1 0x20 MSTORE PUSH1 0x40 SWAP1 DUP2 SWAP1 KECCAK256 DUP1 SLOAD PUSH1 0xFF NOT AND PUSH1 0x1 OR SWAP1 SSTORE MLOAD PUSH2 0x19AB SWAP1 DUP4 SWAP1 PUSH2 0x377D JUMP JUMPDEST PUSH1 0x40 MLOAD DUP1 SWAP2 SUB SWAP1 KECCAK256 DUP4 PUSH1 0x1 PUSH1 0x1 PUSH1 0xA0 SHL SUB AND PUSH2 0x19C5 PUSH2 0x146C JUMP JUMPDEST PUSH1 0x1 PUSH1 0x1 PUSH1 0xA0 SHL SUB AND PUSH32 0xE80AEDE59DB0B770AEF5E4BD04670759D38E64959D07A4343257A0A4F6B6D1ED DUP6 PUSH1 0x40 MLOAD PUSH2 0x19FD SWAP2 SWAP1 PUSH2 0x31C9 JUMP JUMPDEST PUSH1 0x40 MLOAD DUP1 SWAP2 SUB SWAP1 LOG4 POP PUSH1 0x1 SWAP3 SWAP2 POP POP JUMP JUMPDEST PUSH1 0x1 PUSH1 0x1 PUSH1 0xA0 SHL SUB DUP3 AND PUSH2 0x1A64 JUMPI PUSH1 0x40 MLOAD PUSH3 0x461BCD PUSH1 0xE5 SHL DUP2 MSTORE PUSH1 0x20 PUSH1 0x4 DUP3 ADD MSTORE PUSH1 0x1F PUSH1 0x24 DUP3 ADD MSTORE PUSH32 0x45524332303A206D696E7420746F20746865207A65726F206164647265737300 PUSH1 0x44 DUP3 ADD MSTORE PUSH1 0x64 ADD PUSH2 0x9DB JUMP JUMPDEST PUSH2 0x1A70 PUSH1 0x0 DUP4 DUP4 PUSH2 0x299C JUMP JUMPDEST DUP1 PUSH1 0xCD PUSH1 0x0 DUP3 DUP3 SLOAD PUSH2 0x1A82 SWAP2 SWAP1 PUSH2 0x3664 JUMP JUMPDEST SWAP1 SWAP2 SSTORE POP POP PUSH1 0x1 PUSH1 0x1 PUSH1 0xA0 SHL SUB DUP3 AND PUSH1 0x0 DUP2 DUP2 MSTORE PUSH1 0xCB PUSH1 0x20 SWAP1 DUP2 MSTORE PUSH1 0x40 DUP1 DUP4 KECCAK256 DUP1 SLOAD DUP7 ADD SWAP1 SSTORE MLOAD DUP5 DUP2 MSTORE PUSH32 0xDDF252AD1BE2C89B69C2B068FC378DAA952BA7F163C4A11628F55A4DF523B3EF SWAP2 ADD PUSH1 0x40 MLOAD DUP1 SWAP2 SUB SWAP1 LOG3 POP POP JUMP JUMPDEST PUSH1 0x1 PUSH1 0x1 PUSH1 0xA0 SHL SUB PUSH32 0x0 AND ADDRESS SUB PUSH2 0x1B69 JUMPI PUSH1 0x40 MLOAD PUSH3 0x461BCD PUSH1 0xE5 SHL DUP2 MSTORE PUSH1 0x20 PUSH1 0x4 DUP3 ADD MSTORE PUSH1 0x2D PUSH1 0x24 DUP3 ADD MSTORE PUSH32 0x4469726563742063616C6C20746F2074686520696D706C656D656E746174696F PUSH1 0x44 DUP3 ADD MSTORE PUSH13 0x1B881B9BDD08185B1B1BDDD959 PUSH1 0x9A SHL PUSH1 0x64 DUP3 ADD MSTORE PUSH1 0x84 ADD PUSH2 0x9DB JUMP JUMPDEST JUMP JUMPDEST PUSH1 0x0 DUP1 DUP1 PUSH2 0x1B79 DUP5 DUP7 PUSH2 0x2AE6 JUMP JUMPDEST DUP5 SLOAD SWAP1 SWAP2 POP DUP2 SUB PUSH2 0x1B91 JUMPI PUSH1 0x0 DUP1 SWAP3 POP SWAP3 POP POP PUSH2 0x1BB9 JUMP JUMPDEST PUSH1 0x1 DUP5 PUSH1 0x1 ADD DUP3 DUP2 SLOAD DUP2 LT PUSH2 0x1BA8 JUMPI PUSH2 0x1BA8 PUSH2 0x37AC JUMP JUMPDEST SWAP1 PUSH1 0x0 MSTORE PUSH1 0x20 PUSH1 0x0 KECCAK256 ADD SLOAD SWAP3 POP SWAP3 POP POP JUMPDEST SWAP3 POP SWAP3 SWAP1 POP JUMP JUMPDEST PUSH1 0x1 PUSH1 0x1 PUSH1 0xA0 SHL SUB DUP3 AND PUSH1 0x0 SWAP1 DUP2 MSTORE PUSH1 0x98 PUSH1 0x20 MSTORE PUSH1 0x40 DUP2 KECCAK256 SLOAD PUSH1 0xFF AND PUSH2 0x1BE8 JUMPI POP PUSH1 0x0 PUSH2 0x7C0 JUMP JUMPDEST PUSH1 0x1 PUSH1 0x1 PUSH1 0xA0 SHL SUB DUP4 AND PUSH1 0x0 SWAP1 DUP2 MSTORE PUSH1 0x98 PUSH1 0x20 MSTORE PUSH1 0x40 SWAP1 DUP2 SWAP1 KECCAK256 DUP1 SLOAD PUSH1 0xFF NOT AND SWAP1 SSTORE MLOAD PUSH2 0x1C16 SWAP1 DUP4 SWAP1 PUSH2 0x377D JUMP JUMPDEST PUSH1 0x40 MLOAD DUP1 SWAP2 SUB SWAP1 KECCAK256 DUP4 PUSH1 0x1 PUSH1 0x1 PUSH1 0xA0 SHL SUB AND PUSH2 0x1C30 PUSH2 0x146C JUMP JUMPDEST PUSH1 0x1 PUSH1 0x1 PUSH1 0xA0 SHL SUB AND PUSH32 0x7A52FDBC4F3E9F93670CD35B5B9C2D974791D25C5C04984336A80BE3F7F42C32 DUP6 PUSH1 0x40 MLOAD PUSH2 0x19FD SWAP2 SWAP1 PUSH2 0x31C9 JUMP JUMPDEST PUSH1 0x33 SLOAD PUSH1 0x40 MLOAD PUSH4 0x7F4AB1DD PUSH1 0xE0 SHL DUP2 MSTORE PUSH1 0xFF DUP4 AND PUSH1 0x4 DUP3 ADD MSTORE PUSH1 0x60 SWAP2 PUSH1 0x1 PUSH1 0x1 PUSH1 0xA0 SHL SUB AND SWAP1 PUSH4 0x7F4AB1DD SWAP1 PUSH1 0x24 ADD PUSH1 0x0 PUSH1 0x40 MLOAD DUP1 DUP4 SUB DUP2 DUP7 GAS STATICCALL ISZERO DUP1 ISZERO PUSH2 0x1CB4 JUMPI RETURNDATASIZE PUSH1 0x0 DUP1 RETURNDATACOPY RETURNDATASIZE PUSH1 0x0 REVERT JUMPDEST POP POP POP POP PUSH1 0x40 MLOAD RETURNDATASIZE PUSH1 0x0 DUP3 RETURNDATACOPY PUSH1 0x1F RETURNDATASIZE SWAP1 DUP2 ADD PUSH1 0x1F NOT AND DUP3 ADD PUSH1 0x40 MSTORE PUSH2 0x7C0 SWAP2 SWAP1 DUP2 ADD SWAP1 PUSH2 0x3812 JUMP JUMPDEST TIMESTAMP DUP2 GT PUSH2 0x1CFB JUMPI PUSH1 0x40 MLOAD PUSH3 0x461BCD PUSH1 0xE5 SHL DUP2 MSTORE PUSH1 0x4 ADD PUSH2 0x9DB SWAP1 PUSH2 0x3880 JUMP JUMPDEST PUSH1 0x0 DUP1 PUSH2 0x1D07 DUP4 PUSH2 0x28DB JUMP JUMPDEST SWAP2 POP SWAP2 POP DUP2 PUSH2 0x1D4D JUMPI PUSH1 0x40 MLOAD PUSH3 0x461BCD PUSH1 0xE5 SHL DUP2 MSTORE PUSH1 0x20 PUSH1 0x4 DUP3 ADD MSTORE PUSH1 0x12 PUSH1 0x24 DUP3 ADD MSTORE PUSH18 0x14DB985C1CDA1BDD081B9BDD08199BDD5B99 PUSH1 0x72 SHL PUSH1 0x44 DUP3 ADD MSTORE PUSH1 0x64 ADD PUSH2 0x9DB JUMP JUMPDEST DUP1 JUMPDEST PUSH2 0x102 SLOAD PUSH2 0x1D5E DUP3 PUSH1 0x1 PUSH2 0x3664 JUMP JUMPDEST LT ISZERO PUSH2 0x1DB5 JUMPI PUSH2 0x102 PUSH2 0x1D72 DUP3 PUSH1 0x1 PUSH2 0x3664 JUMP JUMPDEST DUP2 SLOAD DUP2 LT PUSH2 0x1D82 JUMPI PUSH2 0x1D82 PUSH2 0x37AC JUMP JUMPDEST SWAP1 PUSH1 0x0 MSTORE PUSH1 0x20 PUSH1 0x0 KECCAK256 ADD SLOAD PUSH2 0x102 DUP3 DUP2 SLOAD DUP2 LT PUSH2 0x1DA1 JUMPI PUSH2 0x1DA1 PUSH2 0x37AC JUMP JUMPDEST PUSH1 0x0 SWAP2 DUP3 MSTORE PUSH1 0x20 SWAP1 SWAP2 KECCAK256 ADD SSTORE PUSH1 0x1 ADD PUSH2 0x1D4F JUMP JUMPDEST POP PUSH2 0x102 DUP1 SLOAD DUP1 PUSH2 0x1DC8 JUMPI PUSH2 0x1DC8 PUSH2 0x38AF JUMP JUMPDEST PUSH1 0x1 SWAP1 SUB DUP2 DUP2 SWAP1 PUSH1 0x0 MSTORE PUSH1 0x20 PUSH1 0x0 KECCAK256 ADD PUSH1 0x0 SWAP1 SSTORE SWAP1 SSTORE POP POP POP JUMP JUMPDEST PUSH2 0x1DEB PUSH2 0x2B87 JUMP JUMPDEST PUSH1 0x66 DUP1 SLOAD PUSH1 0xFF NOT AND PUSH1 0x1 OR SWAP1 SSTORE PUSH32 0x62E78CEA01BEE320CD4E420270B5EA74000D11B0C9F74754EBDBFC544B05A258 PUSH2 0x1934 PUSH2 0x146C JUMP JUMPDEST TIMESTAMP DUP2 GT PUSH2 0x1E40 JUMPI PUSH1 0x40 MLOAD PUSH3 0x461BCD PUSH1 0xE5 SHL DUP2 MSTORE PUSH1 0x4 ADD PUSH2 0x9DB SWAP1 PUSH2 0x37DB JUMP JUMPDEST PUSH2 0x102 SLOAD ISZERO PUSH2 0x1EDE JUMPI PUSH2 0x102 DUP1 SLOAD PUSH2 0x1E5A SWAP1 PUSH1 0x1 SWAP1 PUSH2 0x3799 JUMP JUMPDEST DUP2 SLOAD DUP2 LT PUSH2 0x1E6A JUMPI PUSH2 0x1E6A PUSH2 0x37AC JUMP JUMPDEST SWAP1 PUSH1 0x0 MSTORE PUSH1 0x20 PUSH1 0x0 KECCAK256 ADD SLOAD DUP2 GT PUSH2 0x1EDE JUMPI PUSH1 0x40 MLOAD PUSH3 0x461BCD PUSH1 0xE5 SHL DUP2 MSTORE PUSH1 0x20 PUSH1 0x4 DUP3 ADD MSTORE PUSH1 0x32 PUSH1 0x24 DUP3 ADD MSTORE PUSH32 0x74696D652068617320746F2062652067726561746572207468616E2074686520 PUSH1 0x44 DUP3 ADD MSTORE PUSH18 0x6C61737420736E617073686F742074696D65 PUSH1 0x70 SHL PUSH1 0x64 DUP3 ADD MSTORE PUSH1 0x84 ADD PUSH2 0x9DB JUMP JUMPDEST PUSH2 0x102 DUP1 SLOAD PUSH1 0x1 DUP2 ADD DUP3 SSTORE PUSH1 0x0 SWAP2 DUP3 MSTORE PUSH32 0x93BDAA6A4190909B7C3FBE8D42169FFE1CAB19F51DFC8DB24C71ABF849ECED4A ADD DUP3 SWAP1 SSTORE PUSH1 0x40 MLOAD DUP3 SWAP2 SWAP1 PUSH32 0xE2AD3B1ABE53383DBE6359F02F11AE76D91CFAB321B37083B16E1D96A81D4183 SWAP1 DUP3 SWAP1 LOG3 POP JUMP JUMPDEST PUSH1 0x1 PUSH1 0x1 PUSH1 0xA0 SHL SUB DUP4 AND PUSH2 0x1FA5 JUMPI PUSH1 0x40 MLOAD PUSH3 0x461BCD PUSH1 0xE5 SHL DUP2 MSTORE PUSH1 0x20 PUSH1 0x4 DUP3 ADD MSTORE PUSH1 0x25 PUSH1 0x24 DUP3 ADD MSTORE PUSH32 0x45524332303A207472616E736665722066726F6D20746865207A65726F206164 PUSH1 0x44 DUP3 ADD MSTORE PUSH5 0x6472657373 PUSH1 0xD8 SHL PUSH1 0x64 DUP3 ADD MSTORE PUSH1 0x84 ADD PUSH2 0x9DB JUMP JUMPDEST PUSH1 0x1 PUSH1 0x1 PUSH1 0xA0 SHL SUB DUP3 AND PUSH2 0x2007 JUMPI PUSH1 0x40 MLOAD PUSH3 0x461BCD PUSH1 0xE5 SHL DUP2 MSTORE PUSH1 0x20 PUSH1 0x4 DUP3 ADD MSTORE PUSH1 0x23 PUSH1 0x24 DUP3 ADD MSTORE PUSH32 0x45524332303A207472616E7366657220746F20746865207A65726F2061646472 PUSH1 0x44 DUP3 ADD MSTORE PUSH3 0x657373 PUSH1 0xE8 SHL PUSH1 0x64 DUP3 ADD MSTORE PUSH1 0x84 ADD PUSH2 0x9DB JUMP JUMPDEST PUSH2 0x2012 DUP4 DUP4 DUP4 PUSH2 0x299C JUMP JUMPDEST PUSH1 0x1 PUSH1 0x1 PUSH1 0xA0 SHL SUB DUP4 AND PUSH1 0x0 SWAP1 DUP2 MSTORE PUSH1 0xCB PUSH1 0x20 MSTORE PUSH1 0x40 SWAP1 KECCAK256 SLOAD DUP2 DUP2 LT ISZERO PUSH2 0x208A JUMPI PUSH1 0x40 MLOAD PUSH3 0x461BCD PUSH1 0xE5 SHL DUP2 MSTORE PUSH1 0x20 PUSH1 0x4 DUP3 ADD MSTORE PUSH1 0x26 PUSH1 0x24 DUP3 ADD MSTORE PUSH32 0x45524332303A207472616E7366657220616D6F756E7420657863656564732062 PUSH1 0x44 DUP3 ADD MSTORE PUSH6 0x616C616E6365 PUSH1 0xD0 SHL PUSH1 0x64 DUP3 ADD MSTORE PUSH1 0x84 ADD PUSH2 0x9DB JUMP JUMPDEST PUSH1 0x1 PUSH1 0x1 PUSH1 0xA0 SHL SUB DUP1 DUP6 AND PUSH1 0x0 DUP2 DUP2 MSTORE PUSH1 0xCB PUSH1 0x20 MSTORE PUSH1 0x40 DUP1 DUP3 KECCAK256 DUP7 DUP7 SUB SWAP1 SSTORE SWAP3 DUP7 AND DUP1 DUP3 MSTORE SWAP1 DUP4 SWAP1 KECCAK256 DUP1 SLOAD DUP7 ADD SWAP1 SSTORE SWAP2 MLOAD PUSH32 0xDDF252AD1BE2C89B69C2B068FC378DAA952BA7F163C4A11628F55A4DF523B3EF SWAP1 PUSH2 0x20EA SWAP1 DUP7 DUP2 MSTORE PUSH1 0x20 ADD SWAP1 JUMP JUMPDEST PUSH1 0x40 MLOAD DUP1 SWAP2 SUB SWAP1 LOG3 JUMPDEST POP POP POP POP JUMP JUMPDEST PUSH1 0x33 SLOAD PUSH1 0x40 MLOAD PUSH4 0x634A3509 PUSH1 0xE1 SHL DUP2 MSTORE PUSH1 0x1 PUSH1 0x1 PUSH1 0xA0 SHL SUB DUP6 DUP2 AND PUSH1 0x4 DUP4 ADD MSTORE DUP5 DUP2 AND PUSH1 0x24 DUP4 ADD MSTORE PUSH1 0x44 DUP3 ADD DUP5 SWAP1 MSTORE PUSH1 0x0 SWAP3 AND SWAP1 PUSH4 0xC6946A12 SWAP1 PUSH1 0x64 ADD PUSH1 0x20 PUSH1 0x40 MLOAD DUP1 DUP4 SUB DUP2 DUP7 GAS STATICCALL ISZERO DUP1 ISZERO PUSH2 0x2153 JUMPI RETURNDATASIZE PUSH1 0x0 DUP1 RETURNDATACOPY RETURNDATASIZE PUSH1 0x0 REVERT JUMPDEST POP POP POP POP PUSH1 0x40 MLOAD RETURNDATASIZE PUSH1 0x1F NOT PUSH1 0x1F DUP3 ADD AND DUP3 ADD DUP1 PUSH1 0x40 MSTORE POP DUP2 ADD SWAP1 PUSH2 0x916 SWAP2 SWAP1 PUSH2 0x38C5 JUMP JUMPDEST TIMESTAMP DUP3 GT PUSH2 0x2196 JUMPI PUSH1 0x40 MLOAD PUSH3 0x461BCD PUSH1 0xE5 SHL DUP2 MSTORE PUSH1 0x4 ADD PUSH2 0x9DB SWAP1 PUSH2 0x3880 JUMP JUMPDEST TIMESTAMP DUP2 GT PUSH2 0x21B5 JUMPI PUSH1 0x40 MLOAD PUSH3 0x461BCD PUSH1 0xE5 SHL DUP2 MSTORE PUSH1 0x4 ADD PUSH2 0x9DB SWAP1 PUSH2 0x37DB JUMP JUMPDEST PUSH2 0x102 SLOAD PUSH2 0x21FD JUMPI PUSH1 0x40 MLOAD PUSH3 0x461BCD PUSH1 0xE5 SHL DUP2 MSTORE PUSH1 0x20 PUSH1 0x4 DUP3 ADD MSTORE PUSH1 0x15 PUSH1 0x24 DUP3 ADD MSTORE PUSH21 0x1B9BC81CD8DA19591D5B1959081CDB985C1CDA1BDD PUSH1 0x5A SHL PUSH1 0x44 DUP3 ADD MSTORE PUSH1 0x64 ADD PUSH2 0x9DB JUMP JUMPDEST PUSH1 0x0 DUP1 PUSH2 0x2209 DUP5 PUSH2 0x28DB JUMP JUMPDEST SWAP2 POP SWAP2 POP DUP2 PUSH2 0x224F JUMPI PUSH1 0x40 MLOAD PUSH3 0x461BCD PUSH1 0xE5 SHL DUP2 MSTORE PUSH1 0x20 PUSH1 0x4 DUP3 ADD MSTORE PUSH1 0x12 PUSH1 0x24 DUP3 ADD MSTORE PUSH18 0x14DB985C1CDA1BDD081B9BDD08199BDD5B99 PUSH1 0x72 SHL PUSH1 0x44 DUP3 ADD MSTORE PUSH1 0x64 ADD PUSH2 0x9DB JUMP JUMPDEST PUSH2 0x102 SLOAD PUSH2 0x225E DUP3 PUSH1 0x1 PUSH2 0x3664 JUMP JUMPDEST LT ISZERO PUSH2 0x22EE JUMPI PUSH2 0x102 PUSH2 0x2272 DUP3 PUSH1 0x1 PUSH2 0x3664 JUMP JUMPDEST DUP2 SLOAD DUP2 LT PUSH2 0x2282 JUMPI PUSH2 0x2282 PUSH2 0x37AC JUMP JUMPDEST SWAP1 PUSH1 0x0 MSTORE PUSH1 0x20 PUSH1 0x0 KECCAK256 ADD SLOAD DUP4 LT PUSH2 0x22EE JUMPI PUSH1 0x40 MLOAD PUSH3 0x461BCD PUSH1 0xE5 SHL DUP2 MSTORE PUSH1 0x20 PUSH1 0x4 DUP3 ADD MSTORE PUSH1 0x2A PUSH1 0x24 DUP3 ADD MSTORE PUSH32 0x74696D652068617320746F206265206C657373207468616E20746865206E6578 PUSH1 0x44 DUP3 ADD MSTORE PUSH10 0x1D081CDB985C1CDA1BDD PUSH1 0xB2 SHL PUSH1 0x64 DUP3 ADD MSTORE PUSH1 0x84 ADD PUSH2 0x9DB JUMP JUMPDEST DUP1 ISZERO PUSH2 0x2385 JUMPI PUSH2 0x102 PUSH2 0x2302 PUSH1 0x1 DUP4 PUSH2 0x3799 JUMP JUMPDEST DUP2 SLOAD DUP2 LT PUSH2 0x2312 JUMPI PUSH2 0x2312 PUSH2 0x37AC JUMP JUMPDEST SWAP1 PUSH1 0x0 MSTORE PUSH1 0x20 PUSH1 0x0 KECCAK256 ADD SLOAD DUP4 GT PUSH2 0x2385 JUMPI PUSH1 0x40 MLOAD PUSH3 0x461BCD PUSH1 0xE5 SHL DUP2 MSTORE PUSH1 0x20 PUSH1 0x4 DUP3 ADD MSTORE PUSH1 0x31 PUSH1 0x24 DUP3 ADD MSTORE PUSH32 0x74696D652068617320746F2062652067726561746572207468616E2074686520 PUSH1 0x44 DUP3 ADD MSTORE PUSH17 0x1C1C995D9A5BDD5CC81CDB985C1CDA1BDD PUSH1 0x7A SHL PUSH1 0x64 DUP3 ADD MSTORE PUSH1 0x84 ADD PUSH2 0x9DB JUMP JUMPDEST DUP3 PUSH2 0x102 DUP3 DUP2 SLOAD DUP2 LT PUSH2 0x239A JUMPI PUSH2 0x239A PUSH2 0x37AC JUMP JUMPDEST PUSH1 0x0 SWAP2 DUP3 MSTORE PUSH1 0x20 DUP3 KECCAK256 ADD SWAP2 SWAP1 SWAP2 SSTORE PUSH1 0x40 MLOAD DUP5 SWAP2 DUP7 SWAP2 PUSH32 0xE2AD3B1ABE53383DBE6359F02F11AE76D91CFAB321B37083B16E1D96A81D4183 SWAP2 SWAP1 LOG3 POP POP POP POP JUMP JUMPDEST PUSH1 0x33 SLOAD PUSH1 0x40 MLOAD PUSH4 0xD4CE1415 PUSH1 0xE0 SHL DUP2 MSTORE PUSH1 0x1 PUSH1 0x1 PUSH1 0xA0 SHL SUB DUP6 DUP2 AND PUSH1 0x4 DUP4 ADD MSTORE DUP5 DUP2 AND PUSH1 0x24 DUP4 ADD MSTORE PUSH1 0x44 DUP3 ADD DUP5 SWAP1 MSTORE PUSH1 0x0 SWAP3 AND SWAP1 PUSH4 0xD4CE1415 SWAP1 PUSH1 0x64 ADD PUSH1 0x20 PUSH1 0x40 MLOAD DUP1 DUP4 SUB DUP2 DUP7 GAS STATICCALL ISZERO DUP1 ISZERO PUSH2 0x2433 JUMPI RETURNDATASIZE PUSH1 0x0 DUP1 RETURNDATACOPY RETURNDATASIZE PUSH1 0x0 REVERT JUMPDEST POP POP POP POP PUSH1 0x40 MLOAD RETURNDATASIZE PUSH1 0x1F NOT PUSH1 0x1F DUP3 ADD AND DUP3 ADD DUP1 PUSH1 0x40 MSTORE POP DUP2 ADD SWAP1 PUSH2 0x916 SWAP2 SWAP1 PUSH2 0x38E2 JUMP JUMPDEST PUSH1 0x1 PUSH1 0x1 PUSH1 0xA0 SHL SUB DUP3 AND PUSH2 0x24B7 JUMPI PUSH1 0x40 MLOAD PUSH3 0x461BCD PUSH1 0xE5 SHL DUP2 MSTORE PUSH1 0x20 PUSH1 0x4 DUP3 ADD MSTORE PUSH1 0x21 PUSH1 0x24 DUP3 ADD MSTORE PUSH32 0x45524332303A206275726E2066726F6D20746865207A65726F20616464726573 PUSH1 0x44 DUP3 ADD MSTORE PUSH1 0x73 PUSH1 0xF8 SHL PUSH1 0x64 DUP3 ADD MSTORE PUSH1 0x84 ADD PUSH2 0x9DB JUMP JUMPDEST PUSH2 0x24C3 DUP3 PUSH1 0x0 DUP4 PUSH2 0x299C JUMP JUMPDEST PUSH1 0x1 PUSH1 0x1 PUSH1 0xA0 SHL SUB DUP3 AND PUSH1 0x0 SWAP1 DUP2 MSTORE PUSH1 0xCB PUSH1 0x20 MSTORE PUSH1 0x40 SWAP1 KECCAK256 SLOAD DUP2 DUP2 LT ISZERO PUSH2 0x2537 JUMPI PUSH1 0x40 MLOAD PUSH3 0x461BCD PUSH1 0xE5 SHL DUP2 MSTORE PUSH1 0x20 PUSH1 0x4 DUP3 ADD MSTORE PUSH1 0x22 PUSH1 0x24 DUP3 ADD MSTORE PUSH32 0x45524332303A206275726E20616D6F756E7420657863656564732062616C616E PUSH1 0x44 DUP3 ADD MSTORE PUSH2 0x6365 PUSH1 0xF0 SHL PUSH1 0x64 DUP3 ADD MSTORE PUSH1 0x84 ADD PUSH2 0x9DB JUMP JUMPDEST PUSH1 0x1 PUSH1 0x1 PUSH1 0xA0 SHL SUB DUP4 AND PUSH1 0x0 DUP2 DUP2 MSTORE PUSH1 0xCB PUSH1 0x20 SWAP1 DUP2 MSTORE PUSH1 0x40 DUP1 DUP4 KECCAK256 DUP7 DUP7 SUB SWAP1 SSTORE PUSH1 0xCD DUP1 SLOAD DUP8 SWAP1 SUB SWAP1 SSTORE MLOAD DUP6 DUP2 MSTORE SWAP2 SWAP3 SWAP2 PUSH32 0xDDF252AD1BE2C89B69C2B068FC378DAA952BA7F163C4A11628F55A4DF523B3EF SWAP2 ADD PUSH1 0x40 MLOAD DUP1 SWAP2 SUB SWAP1 LOG3 POP POP POP JUMP JUMPDEST PUSH1 0x0 SLOAD PUSH2 0x100 SWAP1 DIV PUSH1 0xFF AND PUSH2 0x25BE JUMPI PUSH1 0x40 MLOAD PUSH3 0x461BCD PUSH1 0xE5 SHL DUP2 MSTORE PUSH1 0x4 ADD PUSH2 0x9DB SWAP1 PUSH2 0x38FF JUMP JUMPDEST PUSH2 0x25C6 PUSH2 0x2BCD JUMP JUMPDEST PUSH2 0x25D0 DUP5 DUP5 PUSH2 0x2BF4 JUMP JUMPDEST PUSH2 0x25D8 PUSH2 0x2BCD JUMP JUMPDEST PUSH2 0x25E0 PUSH2 0x2BCD JUMP JUMPDEST PUSH2 0x25E8 PUSH2 0x2C34 JUMP JUMPDEST PUSH2 0x25F0 PUSH2 0x2BCD JUMP JUMPDEST PUSH2 0x25F8 PUSH2 0x2C67 JUMP JUMPDEST PUSH2 0x2600 PUSH2 0x2BCD JUMP JUMPDEST PUSH2 0x2608 PUSH2 0x2BCD JUMP JUMPDEST PUSH2 0x2610 PUSH2 0x2BCD JUMP JUMPDEST PUSH2 0x2618 PUSH2 0x2BCD JUMP JUMPDEST PUSH2 0x2622 PUSH1 0x0 PUSH2 0x2C9C JUMP JUMPDEST PUSH2 0x262A PUSH2 0x2BCD JUMP JUMPDEST PUSH2 0x2632 PUSH2 0x2BCD JUMP JUMPDEST PUSH2 0x263A PUSH2 0x2BCD JUMP JUMPDEST PUSH2 0x2644 DUP3 DUP3 PUSH2 0x2CDA JUMP JUMPDEST PUSH2 0x264E DUP7 DUP7 PUSH2 0x2D1C JUMP JUMPDEST POP POP POP POP POP POP JUMP JUMPDEST TIMESTAMP DUP2 GT PUSH2 0x2675 JUMPI PUSH1 0x40 MLOAD PUSH3 0x461BCD PUSH1 0xE5 SHL DUP2 MSTORE PUSH1 0x4 ADD PUSH2 0x9DB SWAP1 PUSH2 0x3880 JUMP JUMPDEST PUSH2 0x102 SLOAD PUSH2 0x26BD JUMPI PUSH1 0x40 MLOAD PUSH3 0x461BCD PUSH1 0xE5 SHL DUP2 MSTORE PUSH1 0x20 PUSH1 0x4 DUP3 ADD MSTORE PUSH1 0x15 PUSH1 0x24 DUP3 ADD MSTORE PUSH21 0x139BC81CDB985C1CDA1BDD081CD8DA19591D5B1959 PUSH1 0x5A SHL PUSH1 0x44 DUP3 ADD MSTORE PUSH1 0x64 ADD PUSH2 0x9DB JUMP JUMPDEST PUSH2 0x102 DUP1 SLOAD PUSH2 0x26CE SWAP1 PUSH1 0x1 SWAP1 PUSH2 0x3799 JUMP JUMPDEST DUP2 SLOAD DUP2 LT PUSH2 0x26DE JUMPI PUSH2 0x26DE PUSH2 0x37AC JUMP JUMPDEST SWAP1 PUSH1 0x0 MSTORE PUSH1 0x20 PUSH1 0x0 KECCAK256 ADD SLOAD DUP2 EQ PUSH2 0x2749 JUMPI PUSH1 0x40 MLOAD PUSH3 0x461BCD PUSH1 0xE5 SHL DUP2 MSTORE PUSH1 0x20 PUSH1 0x4 DUP3 ADD MSTORE PUSH1 0x29 PUSH1 0x24 DUP3 ADD MSTORE PUSH32 0x4F6E6C7920746865206C61737420736E617073686F742063616E20626520756E PUSH1 0x44 DUP3 ADD MSTORE PUSH9 0x1CD8DA19591D5B1959 PUSH1 0xBA SHL PUSH1 0x64 DUP3 ADD MSTORE PUSH1 0x84 ADD PUSH2 0x9DB JUMP JUMPDEST PUSH2 0x102 DUP1 SLOAD DUP1 PUSH2 0x275B JUMPI PUSH2 0x275B PUSH2 0x38AF JUMP JUMPDEST PUSH1 0x1 SWAP1 SUB DUP2 DUP2 SWAP1 PUSH1 0x0 MSTORE PUSH1 0x20 PUSH1 0x0 KECCAK256 ADD PUSH1 0x0 SWAP1 SSTORE SWAP1 SSTORE DUP1 PUSH32 0x6E2498F5548E5491BFE985562CC494131EAE56B5B6543B59129C8886F129F65 PUSH1 0x40 MLOAD PUSH1 0x40 MLOAD DUP1 SWAP2 SUB SWAP1 LOG2 POP JUMP JUMPDEST PUSH2 0x102 SLOAD PUSH1 0x0 SWAP1 DUP2 SWAP1 DUP1 ISZERO DUP1 PUSH2 0x27CF JUMPI POP DUP1 PUSH2 0x101 SLOAD PUSH1 0x1 PUSH2 0x27C3 SWAP2 SWAP1 PUSH2 0x3664 JUMP JUMPDEST EQ DUP1 ISZERO PUSH2 0x27CF JUMPI POP DUP3 ISZERO ISZERO JUMPDEST ISZERO PUSH2 0x27DE JUMPI PUSH1 0x0 SWAP4 SWAP1 SWAP3 POP SWAP1 POP JUMP JUMPDEST PUSH1 0x0 DUP2 SWAP3 POP PUSH1 0x0 PUSH2 0x101 SLOAD SWAP1 POP JUMPDEST DUP3 DUP2 LT ISZERO PUSH2 0x2857 JUMPI TIMESTAMP PUSH2 0x102 DUP3 DUP2 SLOAD DUP2 LT PUSH2 0x2809 JUMPI PUSH2 0x2809 PUSH2 0x37AC JUMP JUMPDEST SWAP1 PUSH1 0x0 MSTORE PUSH1 0x20 PUSH1 0x0 KECCAK256 ADD SLOAD GT PUSH2 0x2842 JUMPI PUSH2 0x102 DUP2 DUP2 SLOAD DUP2 LT PUSH2 0x282D JUMPI PUSH2 0x282D PUSH2 0x37AC JUMP JUMPDEST SWAP1 PUSH1 0x0 MSTORE PUSH1 0x20 PUSH1 0x0 KECCAK256 ADD SLOAD SWAP2 POP DUP1 SWAP4 POP PUSH2 0x2847 JUMP JUMPDEST PUSH2 0x2857 JUMP JUMPDEST PUSH2 0x2850 DUP2 PUSH2 0x37C2 JUMP JUMPDEST SWAP1 POP PUSH2 0x27EC JUMP JUMPDEST POP SWAP4 SWAP2 SWAP3 POP POP JUMP JUMPDEST PUSH1 0x0 DUP1 PUSH2 0x286A PUSH2 0x146C JUMP JUMPDEST SWAP1 POP PUSH2 0x2877 DUP6 DUP3 DUP6 PUSH2 0x2DF9 JUMP JUMPDEST PUSH2 0xBB6 DUP6 DUP6 DUP6 PUSH2 0x1F41 JUMP JUMPDEST PUSH2 0x288C DUP3 DUP3 PUSH2 0xDC7 JUMP JUMPDEST PUSH2 0x9EE JUMPI PUSH2 0x2899 DUP2 PUSH2 0x2E6D JUMP JUMPDEST PUSH2 0x28A4 DUP4 PUSH1 0x20 PUSH2 0x2E7F JUMP JUMPDEST PUSH1 0x40 MLOAD PUSH1 0x20 ADD PUSH2 0x28B5 SWAP3 SWAP2 SWAP1 PUSH2 0x394A JUMP JUMPDEST PUSH1 0x40 DUP1 MLOAD PUSH1 0x1F NOT DUP2 DUP5 SUB ADD DUP2 MSTORE SWAP1 DUP3 SWAP1 MSTORE PUSH3 0x461BCD PUSH1 0xE5 SHL DUP3 MSTORE PUSH2 0x9DB SWAP2 PUSH1 0x4 ADD PUSH2 0x31C9 JUMP JUMPDEST PUSH1 0x0 DUP1 DUP1 PUSH2 0x28EB PUSH2 0x102 DUP6 PUSH2 0x2AE6 JUMP JUMPDEST PUSH2 0x102 SLOAD SWAP1 SWAP2 POP DUP2 EQ DUP1 ISZERO SWAP1 PUSH2 0x291E JUMPI POP DUP4 PUSH2 0x102 DUP3 DUP2 SLOAD DUP2 LT PUSH2 0x2911 JUMPI PUSH2 0x2911 PUSH2 0x37AC JUMP JUMPDEST SWAP1 PUSH1 0x0 MSTORE PUSH1 0x20 PUSH1 0x0 KECCAK256 ADD SLOAD EQ JUMPDEST ISZERO PUSH2 0x292E JUMPI PUSH1 0x1 SWAP5 SWAP1 SWAP4 POP SWAP2 POP POP JUMP JUMPDEST PUSH2 0x102 SLOAD DUP2 EQ PUSH2 0x2943 JUMPI PUSH1 0x0 SWAP5 SWAP1 SWAP4 POP SWAP2 POP POP JUMP JUMPDEST POP POP PUSH2 0x102 SLOAD PUSH1 0x0 SWAP4 SWAP1 SWAP3 POP SWAP1 POP JUMP JUMPDEST PUSH1 0x66 SLOAD PUSH1 0xFF AND PUSH2 0x1B69 JUMPI PUSH1 0x40 MLOAD PUSH3 0x461BCD PUSH1 0xE5 SHL DUP2 MSTORE PUSH1 0x20 PUSH1 0x4 DUP3 ADD MSTORE PUSH1 0x14 PUSH1 0x24 DUP3 ADD MSTORE PUSH20 0x14185D5CD8589B194E881B9BDD081C185D5CD959 PUSH1 0x62 SHL PUSH1 0x44 DUP3 ADD MSTORE PUSH1 0x64 ADD PUSH2 0x9DB JUMP JUMPDEST PUSH1 0x66 SLOAD PUSH1 0xFF AND ISZERO PUSH2 0x29FA JUMPI PUSH1 0x40 MLOAD PUSH3 0x461BCD PUSH1 0xE5 SHL DUP2 MSTORE PUSH1 0x20 PUSH1 0x4 DUP3 ADD MSTORE PUSH1 0x22 PUSH1 0x24 DUP3 ADD MSTORE PUSH32 0x434D5441543A20746F6B656E207472616E73666572207768696C652070617573 PUSH1 0x44 DUP3 ADD MSTORE PUSH2 0x1959 PUSH1 0xF2 SHL PUSH1 0x64 DUP3 ADD MSTORE PUSH1 0x84 ADD PUSH2 0x9DB JUMP JUMPDEST PUSH1 0x1 PUSH1 0x1 PUSH1 0xA0 SHL SUB DUP4 AND PUSH1 0x0 SWAP1 DUP2 MSTORE PUSH1 0x98 PUSH1 0x20 MSTORE PUSH1 0x40 SWAP1 KECCAK256 SLOAD PUSH1 0xFF AND ISZERO PUSH2 0x2A6E JUMPI PUSH1 0x40 MLOAD PUSH3 0x461BCD PUSH1 0xE5 SHL DUP2 MSTORE PUSH1 0x20 PUSH1 0x4 DUP3 ADD MSTORE PUSH1 0x22 PUSH1 0x24 DUP3 ADD MSTORE PUSH32 0x434D5441543A20746F6B656E207472616E73666572207768696C652066726F7A PUSH1 0x44 DUP3 ADD MSTORE PUSH2 0x32B7 PUSH1 0xF1 SHL PUSH1 0x64 DUP3 ADD MSTORE PUSH1 0x84 ADD PUSH2 0x9DB JUMP JUMPDEST PUSH2 0x2A79 DUP4 DUP4 DUP4 PUSH2 0x301B JUMP JUMPDEST PUSH2 0x2A84 DUP4 DUP4 DUP4 PUSH2 0xF6F JUMP JUMPDEST PUSH2 0x946 JUMPI PUSH1 0x40 MLOAD PUSH3 0x461BCD PUSH1 0xE5 SHL DUP2 MSTORE PUSH1 0x20 PUSH1 0x4 DUP3 ADD MSTORE PUSH1 0x2D PUSH1 0x24 DUP3 ADD MSTORE PUSH32 0x434D5441543A207472616E736665722072656A65637465642062792076616C69 PUSH1 0x44 DUP3 ADD MSTORE PUSH13 0x646174696F6E206D6F64756C65 PUSH1 0x98 SHL PUSH1 0x64 DUP3 ADD MSTORE PUSH1 0x84 ADD PUSH2 0x9DB JUMP JUMPDEST DUP2 SLOAD PUSH1 0x0 SWAP1 DUP2 SUB PUSH2 0x2AF9 JUMPI POP PUSH1 0x0 PUSH2 0x7C0 JUMP JUMPDEST DUP3 SLOAD PUSH1 0x0 SWAP1 JUMPDEST DUP1 DUP3 LT ISZERO PUSH2 0x2B43 JUMPI PUSH1 0x0 PUSH2 0x2B13 DUP4 DUP4 PUSH2 0x3064 JUMP JUMPDEST SWAP1 POP DUP5 PUSH2 0x2B20 DUP8 DUP4 PUSH2 0x307F JUMP JUMPDEST SLOAD GT ISZERO PUSH2 0x2B2F JUMPI DUP1 SWAP2 POP PUSH2 0x2B3D JUMP JUMPDEST PUSH2 0x2B3A DUP2 PUSH1 0x1 PUSH2 0x3664 JUMP JUMPDEST SWAP3 POP JUMPDEST POP PUSH2 0x2AFF JUMP JUMPDEST PUSH1 0x0 DUP3 GT DUP1 ISZERO PUSH2 0x2B66 JUMPI POP DUP4 PUSH2 0x2B63 DUP7 PUSH2 0x2B5E PUSH1 0x1 DUP7 PUSH2 0x3799 JUMP JUMPDEST PUSH2 0x307F JUMP JUMPDEST SLOAD EQ JUMPDEST ISZERO PUSH2 0x2B7F JUMPI PUSH2 0x2B76 PUSH1 0x1 DUP4 PUSH2 0x3799 JUMP JUMPDEST SWAP3 POP POP POP PUSH2 0x7C0 JUMP JUMPDEST POP SWAP1 POP PUSH2 0x7C0 JUMP JUMPDEST PUSH1 0x66 SLOAD PUSH1 0xFF AND ISZERO PUSH2 0x1B69 JUMPI PUSH1 0x40 MLOAD PUSH3 0x461BCD PUSH1 0xE5 SHL DUP2 MSTORE PUSH1 0x20 PUSH1 0x4 DUP3 ADD MSTORE PUSH1 0x10 PUSH1 0x24 DUP3 ADD MSTORE PUSH16 0x14185D5CD8589B194E881C185D5CD959 PUSH1 0x82 SHL PUSH1 0x44 DUP3 ADD MSTORE PUSH1 0x64 ADD PUSH2 0x9DB JUMP JUMPDEST PUSH1 0x0 SLOAD PUSH2 0x100 SWAP1 DIV PUSH1 0xFF AND PUSH2 0x1B69 JUMPI PUSH1 0x40 MLOAD PUSH3 0x461BCD PUSH1 0xE5 SHL DUP2 MSTORE PUSH1 0x4 ADD PUSH2 0x9DB SWAP1 PUSH2 0x38FF JUMP JUMPDEST PUSH1 0x0 SLOAD PUSH2 0x100 SWAP1 DIV PUSH1 0xFF AND PUSH2 0x2C1B JUMPI PUSH1 0x40 MLOAD PUSH3 0x461BCD PUSH1 0xE5 SHL DUP2 MSTORE PUSH1 0x4 ADD PUSH2 0x9DB SWAP1 PUSH2 0x38FF JUMP JUMPDEST PUSH1 0xCE PUSH2 0x2C27 DUP4 DUP3 PUSH2 0x36BD JUMP JUMPDEST POP PUSH1 0xCF PUSH2 0x946 DUP3 DUP3 PUSH2 0x36BD JUMP JUMPDEST PUSH1 0x0 SLOAD PUSH2 0x100 SWAP1 DIV PUSH1 0xFF AND PUSH2 0x2C5B JUMPI PUSH1 0x40 MLOAD PUSH3 0x461BCD PUSH1 0xE5 SHL DUP2 MSTORE PUSH1 0x4 ADD PUSH2 0x9DB SWAP1 PUSH2 0x38FF JUMP JUMPDEST PUSH1 0x66 DUP1 SLOAD PUSH1 0xFF NOT AND SWAP1 SSTORE JUMP JUMPDEST PUSH1 0x0 SLOAD PUSH2 0x100 SWAP1 DIV PUSH1 0xFF AND PUSH2 0x2C8E JUMPI PUSH1 0x40 MLOAD PUSH3 0x461BCD PUSH1 0xE5 SHL DUP2 MSTORE PUSH1 0x4 ADD PUSH2 0x9DB SWAP1 PUSH2 0x38FF JUMP JUMPDEST PUSH1 0x0 PUSH2 0x100 DUP2 SWAP1 SSTORE PUSH2 0x101 SSTORE JUMP JUMPDEST PUSH1 0x0 SLOAD PUSH2 0x100 SWAP1 DIV PUSH1 0xFF AND PUSH2 0x2CC3 JUMPI PUSH1 0x40 MLOAD PUSH3 0x461BCD PUSH1 0xE5 SHL DUP2 MSTORE PUSH1 0x4 ADD PUSH2 0x9DB SWAP1 PUSH2 0x38FF JUMP JUMPDEST PUSH2 0x390 DUP1 SLOAD PUSH1 0xFF NOT AND PUSH1 0xFF SWAP3 SWAP1 SWAP3 AND SWAP2 SWAP1 SWAP2 OR SWAP1 SSTORE JUMP JUMPDEST PUSH1 0x0 SLOAD PUSH2 0x100 SWAP1 DIV PUSH1 0xFF AND PUSH2 0x2D01 JUMPI PUSH1 0x40 MLOAD PUSH3 0x461BCD PUSH1 0xE5 SHL DUP2 MSTORE PUSH1 0x4 ADD PUSH2 0x9DB SWAP1 PUSH2 0x38FF JUMP JUMPDEST PUSH2 0x1CC PUSH2 0x2D0E DUP4 DUP3 PUSH2 0x36BD JUMP JUMPDEST POP PUSH2 0x1CD PUSH2 0x946 DUP3 DUP3 PUSH2 0x36BD JUMP JUMPDEST PUSH1 0x0 SLOAD PUSH2 0x100 SWAP1 DIV PUSH1 0xFF AND PUSH2 0x2D43 JUMPI PUSH1 0x40 MLOAD PUSH3 0x461BCD PUSH1 0xE5 SHL DUP2 MSTORE PUSH1 0x4 ADD PUSH2 0x9DB SWAP1 PUSH2 0x38FF JUMP JUMPDEST PUSH2 0x1CB DUP1 SLOAD PUSH1 0xFF NOT AND DUP4 ISZERO ISZERO OR SWAP1 SSTORE PUSH2 0x2D5D PUSH1 0x0 DUP3 PUSH2 0x1621 JUMP JUMPDEST PUSH2 0x2D75 PUSH1 0x0 DUP1 MLOAD PUSH1 0x20 PUSH2 0x3A50 DUP4 CODECOPY DUP2 MLOAD SWAP2 MSTORE DUP3 PUSH2 0x1621 JUMP JUMPDEST PUSH2 0x2D9F PUSH32 0x9F2DF0FED2C77648DE5860A4CC508CD0818C85B8B8A1AB4CEEEF8D981C8956A6 DUP3 PUSH2 0x1621 JUMP JUMPDEST PUSH2 0x2DC9 PUSH32 0x3C11D16CBAFFD01DF69CE1C404F6340EE057498F5F00246190EA54220576A848 DUP3 PUSH2 0x1621 JUMP JUMPDEST PUSH2 0x2DE1 PUSH1 0x0 DUP1 MLOAD PUSH1 0x20 PUSH2 0x3A10 DUP4 CODECOPY DUP2 MLOAD SWAP2 MSTORE DUP3 PUSH2 0x1621 JUMP JUMPDEST PUSH2 0x9EE PUSH1 0x0 DUP1 MLOAD PUSH1 0x20 PUSH2 0x3A30 DUP4 CODECOPY DUP2 MLOAD SWAP2 MSTORE DUP3 PUSH2 0x1621 JUMP JUMPDEST PUSH1 0x0 PUSH2 0x2E05 DUP5 DUP5 PUSH2 0x10AB JUMP JUMPDEST SWAP1 POP PUSH1 0x0 NOT DUP2 EQ PUSH2 0x20F3 JUMPI DUP2 DUP2 LT ISZERO PUSH2 0x2E60 JUMPI PUSH1 0x40 MLOAD PUSH3 0x461BCD PUSH1 0xE5 SHL DUP2 MSTORE PUSH1 0x20 PUSH1 0x4 DUP3 ADD MSTORE PUSH1 0x1D PUSH1 0x24 DUP3 ADD MSTORE PUSH32 0x45524332303A20696E73756666696369656E7420616C6C6F77616E6365000000 PUSH1 0x44 DUP3 ADD MSTORE PUSH1 0x64 ADD PUSH2 0x9DB JUMP JUMPDEST PUSH2 0x20F3 DUP5 DUP5 DUP5 DUP5 SUB PUSH2 0x1476 JUMP JUMPDEST PUSH1 0x60 PUSH2 0x7C0 PUSH1 0x1 PUSH1 0x1 PUSH1 0xA0 SHL SUB DUP4 AND PUSH1 0x14 JUMPDEST PUSH1 0x60 PUSH1 0x0 PUSH2 0x2E8E DUP4 PUSH1 0x2 PUSH2 0x39BF JUMP JUMPDEST PUSH2 0x2E99 SWAP1 PUSH1 0x2 PUSH2 0x3664 JUMP JUMPDEST PUSH8 0xFFFFFFFFFFFFFFFF DUP2 GT ISZERO PUSH2 0x2EB1 JUMPI PUSH2 0x2EB1 PUSH2 0x32D2 JUMP JUMPDEST PUSH1 0x40 MLOAD SWAP1 DUP1 DUP3 MSTORE DUP1 PUSH1 0x1F ADD PUSH1 0x1F NOT AND PUSH1 0x20 ADD DUP3 ADD PUSH1 0x40 MSTORE DUP1 ISZERO PUSH2 0x2EDB JUMPI PUSH1 0x20 DUP3 ADD DUP2 DUP1 CALLDATASIZE DUP4 CALLDATACOPY ADD SWAP1 POP JUMPDEST POP SWAP1 POP PUSH1 0x3 PUSH1 0xFC SHL DUP2 PUSH1 0x0 DUP2 MLOAD DUP2 LT PUSH2 0x2EF6 JUMPI PUSH2 0x2EF6 PUSH2 0x37AC JUMP JUMPDEST PUSH1 0x20 ADD ADD SWAP1 PUSH1 0x1 PUSH1 0x1 PUSH1 0xF8 SHL SUB NOT AND SWAP1 DUP2 PUSH1 0x0 BYTE SWAP1 MSTORE8 POP PUSH1 0xF PUSH1 0xFB SHL DUP2 PUSH1 0x1 DUP2 MLOAD DUP2 LT PUSH2 0x2F25 JUMPI PUSH2 0x2F25 PUSH2 0x37AC JUMP JUMPDEST PUSH1 0x20 ADD ADD SWAP1 PUSH1 0x1 PUSH1 0x1 PUSH1 0xF8 SHL SUB NOT AND SWAP1 DUP2 PUSH1 0x0 BYTE SWAP1 MSTORE8 POP PUSH1 0x0 PUSH2 0x2F49 DUP5 PUSH1 0x2 PUSH2 0x39BF JUMP JUMPDEST PUSH2 0x2F54 SWAP1 PUSH1 0x1 PUSH2 0x3664 JUMP JUMPDEST SWAP1 POP JUMPDEST PUSH1 0x1 DUP2 GT ISZERO PUSH2 0x2FCC JUMPI PUSH16 0x181899199A1A9B1B9C1CB0B131B232B3 PUSH1 0x81 SHL DUP6 PUSH1 0xF AND PUSH1 0x10 DUP2 LT PUSH2 0x2F88 JUMPI PUSH2 0x2F88 PUSH2 0x37AC JUMP JUMPDEST BYTE PUSH1 0xF8 SHL DUP3 DUP3 DUP2 MLOAD DUP2 LT PUSH2 0x2F9E JUMPI PUSH2 0x2F9E PUSH2 0x37AC JUMP JUMPDEST PUSH1 0x20 ADD ADD SWAP1 PUSH1 0x1 PUSH1 0x1 PUSH1 0xF8 SHL SUB NOT AND SWAP1 DUP2 PUSH1 0x0 BYTE SWAP1 MSTORE8 POP PUSH1 0x4 SWAP5 SWAP1 SWAP5 SHR SWAP4 PUSH2 0x2FC5 DUP2 PUSH2 0x39D6 JUMP JUMPDEST SWAP1 POP PUSH2 0x2F57 JUMP JUMPDEST POP DUP4 ISZERO PUSH2 0x919 JUMPI PUSH1 0x40 MLOAD PUSH3 0x461BCD PUSH1 0xE5 SHL DUP2 MSTORE PUSH1 0x20 PUSH1 0x4 DUP3 ADD DUP2 SWAP1 MSTORE PUSH1 0x24 DUP3 ADD MSTORE PUSH32 0x537472696E67733A20686578206C656E67746820696E73756666696369656E74 PUSH1 0x44 DUP3 ADD MSTORE PUSH1 0x64 ADD PUSH2 0x9DB JUMP JUMPDEST PUSH2 0x3023 PUSH2 0x3090 JUMP JUMPDEST PUSH1 0x1 PUSH1 0x1 PUSH1 0xA0 SHL SUB DUP4 AND ISZERO PUSH2 0x305B JUMPI PUSH2 0x303B DUP4 PUSH2 0x30B3 JUMP JUMPDEST PUSH1 0x1 PUSH1 0x1 PUSH1 0xA0 SHL SUB DUP3 AND ISZERO PUSH2 0x3053 JUMPI PUSH2 0x946 DUP3 PUSH2 0x30B3 JUMP JUMPDEST PUSH2 0x946 PUSH2 0x30E6 JUMP JUMPDEST PUSH2 0x3053 DUP3 PUSH2 0x30B3 JUMP JUMPDEST PUSH1 0x0 PUSH2 0x3073 PUSH1 0x2 DUP5 DUP5 XOR PUSH2 0x39ED JUMP JUMPDEST PUSH2 0x919 SWAP1 DUP5 DUP5 AND PUSH2 0x3664 JUMP JUMPDEST PUSH1 0x0 DUP3 DUP2 MSTORE PUSH1 0x20 DUP2 KECCAK256 DUP3 ADD DUP1 PUSH2 0xA86 JUMP JUMPDEST PUSH1 0x0 DUP1 PUSH2 0x309B PUSH2 0x27A1 JUMP JUMPDEST SWAP1 SWAP3 POP SWAP1 POP DUP2 ISZERO PUSH2 0x9EE JUMPI PUSH2 0x100 SWAP2 SWAP1 SWAP2 SSTORE PUSH2 0x101 SSTORE JUMP JUMPDEST PUSH1 0x1 PUSH1 0x1 PUSH1 0xA0 SHL SUB DUP2 AND PUSH1 0x0 SWAP1 DUP2 MSTORE PUSH1 0xFD PUSH1 0x20 SWAP1 DUP2 MSTORE PUSH1 0x40 DUP1 DUP4 KECCAK256 PUSH1 0xCB SWAP1 SWAP3 MSTORE SWAP1 SWAP2 KECCAK256 SLOAD PUSH2 0xA5F SWAP2 SWAP1 PUSH2 0x30F4 JUMP JUMPDEST PUSH2 0x30F4 JUMP JUMPDEST PUSH2 0x1B69 PUSH1 0xFE PUSH2 0x30E1 PUSH1 0xCD SLOAD SWAP1 JUMP JUMPDEST PUSH2 0x100 SLOAD DUP1 PUSH2 0x3102 DUP5 PUSH2 0x3136 JUMP JUMPDEST LT ISZERO PUSH2 0x946 JUMPI DUP3 SLOAD PUSH1 0x1 DUP1 DUP3 ADD DUP6 SSTORE PUSH1 0x0 DUP6 DUP2 MSTORE PUSH1 0x20 DUP1 DUP3 KECCAK256 SWAP1 SWAP4 ADD SWAP4 SWAP1 SWAP4 SSTORE SWAP4 DUP5 ADD DUP1 SLOAD SWAP5 DUP6 ADD DUP2 SSTORE DUP3 MSTORE SWAP1 KECCAK256 SWAP1 SWAP2 ADD SSTORE JUMP JUMPDEST DUP1 SLOAD PUSH1 0x0 SWAP1 DUP2 SUB PUSH2 0x3149 JUMPI POP PUSH1 0x0 SWAP2 SWAP1 POP JUMP JUMPDEST DUP2 SLOAD DUP3 SWAP1 PUSH2 0x3159 SWAP1 PUSH1 0x1 SWAP1 PUSH2 0x3799 JUMP JUMPDEST DUP2 SLOAD DUP2 LT PUSH2 0x3169 JUMPI PUSH2 0x3169 PUSH2 0x37AC JUMP JUMPDEST SWAP1 PUSH1 0x0 MSTORE PUSH1 0x20 PUSH1 0x0 KECCAK256 ADD SLOAD SWAP1 POP SWAP2 SWAP1 POP JUMP JUMPDEST PUSH1 0x0 PUSH1 0x20 DUP3 DUP5 SUB SLT ISZERO PUSH2 0x318D JUMPI PUSH1 0x0 DUP1 REVERT JUMPDEST DUP2 CALLDATALOAD PUSH1 0x1 PUSH1 0x1 PUSH1 0xE0 SHL SUB NOT DUP2 AND DUP2 EQ PUSH2 0x919 JUMPI PUSH1 0x0 DUP1 REVERT JUMPDEST PUSH1 0x0 JUMPDEST DUP4 DUP2 LT ISZERO PUSH2 0x31C0 JUMPI DUP2 DUP2 ADD MLOAD DUP4 DUP3 ADD MSTORE PUSH1 0x20 ADD PUSH2 0x31A8 JUMP JUMPDEST POP POP PUSH1 0x0 SWAP2 ADD MSTORE JUMP JUMPDEST PUSH1 0x20 DUP2 MSTORE PUSH1 0x0 DUP3 MLOAD DUP1 PUSH1 0x20 DUP5 ADD MSTORE PUSH2 0x31E8 DUP2 PUSH1 0x40 DUP6 ADD PUSH1 0x20 DUP8 ADD PUSH2 0x31A5 JUMP JUMPDEST PUSH1 0x1F ADD PUSH1 0x1F NOT AND SWAP2 SWAP1 SWAP2 ADD PUSH1 0x40 ADD SWAP3 SWAP2 POP POP JUMP JUMPDEST PUSH1 0x1 PUSH1 0x1 PUSH1 0xA0 SHL SUB DUP2 AND DUP2 EQ PUSH2 0xA5F JUMPI PUSH1 0x0 DUP1 REVERT JUMPDEST DUP1 CALLDATALOAD PUSH2 0xD81 DUP2 PUSH2 0x31FC JUMP JUMPDEST PUSH1 0x0 DUP1 PUSH1 0x40 DUP4 DUP6 SUB SLT ISZERO PUSH2 0x322F JUMPI PUSH1 0x0 DUP1 REVERT JUMPDEST DUP3 CALLDATALOAD PUSH2 0x323A DUP2 PUSH2 0x31FC JUMP JUMPDEST SWAP5 PUSH1 0x20 SWAP4 SWAP1 SWAP4 ADD CALLDATALOAD SWAP4 POP POP POP JUMP JUMPDEST PUSH1 0x0 DUP1 PUSH1 0x0 PUSH1 0x60 DUP5 DUP7 SUB SLT ISZERO PUSH2 0x325D JUMPI PUSH1 0x0 DUP1 REVERT JUMPDEST DUP4 CALLDATALOAD PUSH2 0x3268 DUP2 PUSH2 0x31FC JUMP JUMPDEST SWAP3 POP PUSH1 0x20 DUP5 ADD CALLDATALOAD PUSH2 0x3278 DUP2 PUSH2 0x31FC JUMP JUMPDEST SWAP3 SWAP6 SWAP3 SWAP5 POP POP POP PUSH1 0x40 SWAP2 SWAP1 SWAP2 ADD CALLDATALOAD SWAP1 JUMP JUMPDEST PUSH1 0x0 PUSH1 0x20 DUP3 DUP5 SUB SLT ISZERO PUSH2 0x329B JUMPI PUSH1 0x0 DUP1 REVERT JUMPDEST POP CALLDATALOAD SWAP2 SWAP1 POP JUMP JUMPDEST PUSH1 0x0 DUP1 PUSH1 0x40 DUP4 DUP6 SUB SLT ISZERO PUSH2 0x32B5 JUMPI PUSH1 0x0 DUP1 REVERT JUMPDEST DUP3 CALLDATALOAD SWAP2 POP PUSH1 0x20 DUP4 ADD CALLDATALOAD PUSH2 0x32C7 DUP2 PUSH2 0x31FC JUMP JUMPDEST DUP1 SWAP2 POP POP SWAP3 POP SWAP3 SWAP1 POP JUMP JUMPDEST PUSH4 0x4E487B71 PUSH1 0xE0 SHL PUSH1 0x0 MSTORE PUSH1 0x41 PUSH1 0x4 MSTORE PUSH1 0x24 PUSH1 0x0 REVERT JUMPDEST PUSH1 0x40 MLOAD PUSH1 0x1F DUP3 ADD PUSH1 0x1F NOT AND DUP2 ADD PUSH8 0xFFFFFFFFFFFFFFFF DUP2 GT DUP3 DUP3 LT OR ISZERO PUSH2 0x3311 JUMPI PUSH2 0x3311 PUSH2 0x32D2 JUMP JUMPDEST PUSH1 0x40 MSTORE SWAP2 SWAP1 POP JUMP JUMPDEST PUSH1 0x0 PUSH8 0xFFFFFFFFFFFFFFFF DUP3 GT ISZERO PUSH2 0x3333 JUMPI PUSH2 0x3333 PUSH2 0x32D2 JUMP JUMPDEST POP PUSH1 0x1F ADD PUSH1 0x1F NOT AND PUSH1 0x20 ADD SWAP1 JUMP JUMPDEST PUSH1 0x0 DUP3 PUSH1 0x1F DUP4 ADD SLT PUSH2 0x3352 JUMPI PUSH1 0x0 DUP1 REVERT JUMPDEST DUP2 CALLDATALOAD PUSH2 0x3365 PUSH2 0x3360 DUP3 PUSH2 0x3319 JUMP JUMPDEST PUSH2 0x32E8 JUMP JUMPDEST DUP2 DUP2 MSTORE DUP5 PUSH1 0x20 DUP4 DUP7 ADD ADD GT ISZERO PUSH2 0x337A JUMPI PUSH1 0x0 DUP1 REVERT JUMPDEST DUP2 PUSH1 0x20 DUP6 ADD PUSH1 0x20 DUP4 ADD CALLDATACOPY PUSH1 0x0 SWAP2 DUP2 ADD PUSH1 0x20 ADD SWAP2 SWAP1 SWAP2 MSTORE SWAP4 SWAP3 POP POP POP JUMP JUMPDEST PUSH1 0x0 DUP1 PUSH1 0x40 DUP4 DUP6 SUB SLT ISZERO PUSH2 0x33AA JUMPI PUSH1 0x0 DUP1 REVERT JUMPDEST DUP3 CALLDATALOAD PUSH2 0x33B5 DUP2 PUSH2 0x31FC JUMP JUMPDEST SWAP2 POP PUSH1 0x20 DUP4 ADD CALLDATALOAD PUSH8 0xFFFFFFFFFFFFFFFF DUP2 GT ISZERO PUSH2 0x33D1 JUMPI PUSH1 0x0 DUP1 REVERT JUMPDEST PUSH2 0x33DD DUP6 DUP3 DUP7 ADD PUSH2 0x3341 JUMP JUMPDEST SWAP2 POP POP SWAP3 POP SWAP3 SWAP1 POP JUMP JUMPDEST PUSH1 0x0 DUP1 PUSH1 0x0 PUSH1 0x60 DUP5 DUP7 SUB SLT ISZERO PUSH2 0x33FC JUMPI PUSH1 0x0 DUP1 REVERT JUMPDEST DUP4 CALLDATALOAD PUSH2 0x3407 DUP2 PUSH2 0x31FC JUMP JUMPDEST SWAP6 PUSH1 0x20 DUP6 ADD CALLDATALOAD SWAP6 POP PUSH1 0x40 SWAP1 SWAP5 ADD CALLDATALOAD SWAP4 SWAP3 POP POP POP JUMP JUMPDEST PUSH1 0x0 PUSH1 0x20 DUP3 DUP5 SUB SLT ISZERO PUSH2 0x342E JUMPI PUSH1 0x0 DUP1 REVERT JUMPDEST DUP2 CALLDATALOAD PUSH2 0x919 DUP2 PUSH2 0x31FC JUMP JUMPDEST PUSH1 0x0 PUSH1 0x20 DUP3 DUP5 SUB SLT ISZERO PUSH2 0x344B JUMPI PUSH1 0x0 DUP1 REVERT JUMPDEST DUP2 CALLDATALOAD PUSH8 0xFFFFFFFFFFFFFFFF DUP2 GT ISZERO PUSH2 0x3462 JUMPI PUSH1 0x0 DUP1 REVERT JUMPDEST PUSH2 0xA86 DUP5 DUP3 DUP6 ADD PUSH2 0x3341 JUMP JUMPDEST PUSH1 0xFF DUP2 AND DUP2 EQ PUSH2 0xA5F JUMPI PUSH1 0x0 DUP1 REVERT JUMPDEST PUSH1 0x0 PUSH1 0x20 DUP3 DUP5 SUB SLT ISZERO PUSH2 0x348F JUMPI PUSH1 0x0 DUP1 REVERT JUMPDEST DUP2 CALLDATALOAD PUSH2 0x919 DUP2 PUSH2 0x346E JUMP JUMPDEST PUSH1 0x20 DUP1 DUP3 MSTORE DUP3 MLOAD DUP3 DUP3 ADD DUP2 SWAP1 MSTORE PUSH1 0x0 SWAP2 SWAP1 DUP5 DUP3 ADD SWAP1 PUSH1 0x40 DUP6 ADD SWAP1 DUP5 JUMPDEST DUP2 DUP2 LT ISZERO PUSH2 0x34D2 JUMPI DUP4 MLOAD DUP4 MSTORE SWAP3 DUP5 ADD SWAP3 SWAP2 DUP5 ADD SWAP2 PUSH1 0x1 ADD PUSH2 0x34B6 JUMP JUMPDEST POP SWAP1 SWAP7 SWAP6 POP POP POP POP POP POP JUMP JUMPDEST PUSH1 0x0 DUP1 PUSH1 0x40 DUP4 DUP6 SUB SLT ISZERO PUSH2 0x34F1 JUMPI PUSH1 0x0 DUP1 REVERT JUMPDEST POP POP DUP1 CALLDATALOAD SWAP3 PUSH1 0x20 SWAP1 SWAP2 ADD CALLDATALOAD SWAP2 POP JUMP JUMPDEST PUSH1 0x0 DUP1 PUSH1 0x40 DUP4 DUP6 SUB SLT ISZERO PUSH2 0x3513 JUMPI PUSH1 0x0 DUP1 REVERT JUMPDEST DUP3 CALLDATALOAD PUSH2 0x351E DUP2 PUSH2 0x31FC JUMP JUMPDEST SWAP2 POP PUSH1 0x20 DUP4 ADD CALLDATALOAD PUSH2 0x32C7 DUP2 PUSH2 0x31FC JUMP JUMPDEST DUP1 ISZERO ISZERO DUP2 EQ PUSH2 0xA5F JUMPI PUSH1 0x0 DUP1 REVERT JUMPDEST DUP1 CALLDATALOAD PUSH2 0xD81 DUP2 PUSH2 0x352E JUMP JUMPDEST PUSH1 0x0 DUP1 PUSH1 0x0 DUP1 PUSH1 0x0 DUP1 PUSH1 0xC0 DUP8 DUP10 SUB SLT ISZERO PUSH2 0x3560 JUMPI PUSH1 0x0 DUP1 REVERT JUMPDEST PUSH2 0x3569 DUP8 PUSH2 0x353C JUMP JUMPDEST SWAP6 POP PUSH2 0x3577 PUSH1 0x20 DUP9 ADD PUSH2 0x3211 JUMP JUMPDEST SWAP5 POP PUSH1 0x40 DUP8 ADD CALLDATALOAD PUSH8 0xFFFFFFFFFFFFFFFF DUP1 DUP3 GT ISZERO PUSH2 0x3594 JUMPI PUSH1 0x0 DUP1 REVERT JUMPDEST PUSH2 0x35A0 DUP11 DUP4 DUP12 ADD PUSH2 0x3341 JUMP JUMPDEST SWAP6 POP PUSH1 0x60 DUP10 ADD CALLDATALOAD SWAP2 POP DUP1 DUP3 GT ISZERO PUSH2 0x35B6 JUMPI PUSH1 0x0 DUP1 REVERT JUMPDEST PUSH2 0x35C2 DUP11 DUP4 DUP12 ADD PUSH2 0x3341 JUMP JUMPDEST SWAP5 POP PUSH1 0x80 DUP10 ADD CALLDATALOAD SWAP2 POP DUP1 DUP3 GT ISZERO PUSH2 0x35D8 JUMPI PUSH1 0x0 DUP1 REVERT JUMPDEST PUSH2 0x35E4 DUP11 DUP4 DUP12 ADD PUSH2 0x3341 JUMP JUMPDEST SWAP4 POP PUSH1 0xA0 DUP10 ADD CALLDATALOAD SWAP2 POP DUP1 DUP3 GT ISZERO PUSH2 0x35FA JUMPI PUSH1 0x0 DUP1 REVERT JUMPDEST POP PUSH2 0x3607 DUP10 DUP3 DUP11 ADD PUSH2 0x3341 JUMP JUMPDEST SWAP2 POP POP SWAP3 SWAP6 POP SWAP3 SWAP6 POP SWAP3 SWAP6 JUMP JUMPDEST PUSH1 0x1 DUP2 DUP2 SHR SWAP1 DUP3 AND DUP1 PUSH2 0x3628 JUMPI PUSH1 0x7F DUP3 AND SWAP2 POP JUMPDEST PUSH1 0x20 DUP3 LT DUP2 SUB PUSH2 0x3648 JUMPI PUSH4 0x4E487B71 PUSH1 0xE0 SHL PUSH1 0x0 MSTORE PUSH1 0x22 PUSH1 0x4 MSTORE PUSH1 0x24 PUSH1 0x0 REVERT JUMPDEST POP SWAP2 SWAP1 POP JUMP JUMPDEST PUSH4 0x4E487B71 PUSH1 0xE0 SHL PUSH1 0x0 MSTORE PUSH1 0x11 PUSH1 0x4 MSTORE PUSH1 0x24 PUSH1 0x0 REVERT JUMPDEST DUP1 DUP3 ADD DUP1 DUP3 GT ISZERO PUSH2 0x7C0 JUMPI PUSH2 0x7C0 PUSH2 0x364E JUMP JUMPDEST PUSH1 0x1F DUP3 GT ISZERO PUSH2 0x946 JUMPI PUSH1 0x0 DUP2 DUP2 MSTORE PUSH1 0x20 DUP2 KECCAK256 PUSH1 0x1F DUP6 ADD PUSH1 0x5 SHR DUP2 ADD PUSH1 0x20 DUP7 LT ISZERO PUSH2 0x369E JUMPI POP DUP1 JUMPDEST PUSH1 0x1F DUP6 ADD PUSH1 0x5 SHR DUP3 ADD SWAP2 POP JUMPDEST DUP2 DUP2 LT ISZERO PUSH2 0x264E JUMPI DUP3 DUP2 SSTORE PUSH1 0x1 ADD PUSH2 0x36AA JUMP JUMPDEST DUP2 MLOAD PUSH8 0xFFFFFFFFFFFFFFFF DUP2 GT ISZERO PUSH2 0x36D7 JUMPI PUSH2 0x36D7 PUSH2 0x32D2 JUMP JUMPDEST PUSH2 0x36EB DUP2 PUSH2 0x36E5 DUP5 SLOAD PUSH2 0x3614 JUMP JUMPDEST DUP5 PUSH2 0x3677 JUMP JUMPDEST PUSH1 0x20 DUP1 PUSH1 0x1F DUP4 GT PUSH1 0x1 DUP2 EQ PUSH2 0x3720 JUMPI PUSH1 0x0 DUP5 ISZERO PUSH2 0x3708 JUMPI POP DUP6 DUP4 ADD MLOAD JUMPDEST PUSH1 0x0 NOT PUSH1 0x3 DUP7 SWAP1 SHL SHR NOT AND PUSH1 0x1 DUP6 SWAP1 SHL OR DUP6 SSTORE PUSH2 0x264E JUMP JUMPDEST PUSH1 0x0 DUP6 DUP2 MSTORE PUSH1 0x20 DUP2 KECCAK256 PUSH1 0x1F NOT DUP7 AND SWAP2 JUMPDEST DUP3 DUP2 LT ISZERO PUSH2 0x374F JUMPI DUP9 DUP7 ADD MLOAD DUP3 SSTORE SWAP5 DUP5 ADD SWAP5 PUSH1 0x1 SWAP1 SWAP2 ADD SWAP1 DUP5 ADD PUSH2 0x3730 JUMP JUMPDEST POP DUP6 DUP3 LT ISZERO PUSH2 0x376D JUMPI DUP8 DUP6 ADD MLOAD PUSH1 0x0 NOT PUSH1 0x3 DUP9 SWAP1 SHL PUSH1 0xF8 AND SHR NOT AND DUP2 SSTORE JUMPDEST POP POP POP POP POP PUSH1 0x1 SWAP1 DUP2 SHL ADD SWAP1 SSTORE POP JUMP JUMPDEST PUSH1 0x0 DUP3 MLOAD PUSH2 0x378F DUP2 DUP5 PUSH1 0x20 DUP8 ADD PUSH2 0x31A5 JUMP JUMPDEST SWAP2 SWAP1 SWAP2 ADD SWAP3 SWAP2 POP POP JUMP JUMPDEST DUP2 DUP2 SUB DUP2 DUP2 GT ISZERO PUSH2 0x7C0 JUMPI PUSH2 0x7C0 PUSH2 0x364E JUMP JUMPDEST PUSH4 0x4E487B71 PUSH1 0xE0 SHL PUSH1 0x0 MSTORE PUSH1 0x32 PUSH1 0x4 MSTORE PUSH1 0x24 PUSH1 0x0 REVERT JUMPDEST PUSH1 0x0 PUSH1 0x1 DUP3 ADD PUSH2 0x37D4 JUMPI PUSH2 0x37D4 PUSH2 0x364E JUMP JUMPDEST POP PUSH1 0x1 ADD SWAP1 JUMP JUMPDEST PUSH1 0x20 DUP1 DUP3 MSTORE PUSH1 0x1E SWAP1 DUP3 ADD MSTORE PUSH32 0x536E617073686F74207363686564756C656420696E2074686520706173740000 PUSH1 0x40 DUP3 ADD MSTORE PUSH1 0x60 ADD SWAP1 JUMP JUMPDEST PUSH1 0x0 PUSH1 0x20 DUP3 DUP5 SUB SLT ISZERO PUSH2 0x3824 JUMPI PUSH1 0x0 DUP1 REVERT JUMPDEST DUP2 MLOAD PUSH8 0xFFFFFFFFFFFFFFFF DUP2 GT ISZERO PUSH2 0x383B JUMPI PUSH1 0x0 DUP1 REVERT JUMPDEST DUP3 ADD PUSH1 0x1F DUP2 ADD DUP5 SGT PUSH2 0x384C JUMPI PUSH1 0x0 DUP1 REVERT JUMPDEST DUP1 MLOAD PUSH2 0x385A PUSH2 0x3360 DUP3 PUSH2 0x3319 JUMP JUMPDEST DUP2 DUP2 MSTORE DUP6 PUSH1 0x20 DUP4 DUP6 ADD ADD GT ISZERO PUSH2 0x386F JUMPI PUSH1 0x0 DUP1 REVERT JUMPDEST PUSH2 0xC32 DUP3 PUSH1 0x20 DUP4 ADD PUSH1 0x20 DUP7 ADD PUSH2 0x31A5 JUMP JUMPDEST PUSH1 0x20 DUP1 DUP3 MSTORE PUSH1 0x15 SWAP1 DUP3 ADD MSTORE PUSH21 0x536E617073686F7420616C726561647920646F6E65 PUSH1 0x58 SHL PUSH1 0x40 DUP3 ADD MSTORE PUSH1 0x60 ADD SWAP1 JUMP JUMPDEST PUSH4 0x4E487B71 PUSH1 0xE0 SHL PUSH1 0x0 MSTORE PUSH1 0x31 PUSH1 0x4 MSTORE PUSH1 0x24 PUSH1 0x0 REVERT JUMPDEST PUSH1 0x0 PUSH1 0x20 DUP3 DUP5 SUB SLT ISZERO PUSH2 0x38D7 JUMPI PUSH1 0x0 DUP1 REVERT JUMPDEST DUP2 MLOAD PUSH2 0x919 DUP2 PUSH2 0x352E JUMP JUMPDEST PUSH1 0x0 PUSH1 0x20 DUP3 DUP5 SUB SLT ISZERO PUSH2 0x38F4 JUMPI PUSH1 0x0 DUP1 REVERT JUMPDEST DUP2 MLOAD PUSH2 0x919 DUP2 PUSH2 0x346E JUMP JUMPDEST PUSH1 0x20 DUP1 DUP3 MSTORE PUSH1 0x2B SWAP1 DUP3 ADD MSTORE PUSH32 0x496E697469616C697A61626C653A20636F6E7472616374206973206E6F742069 PUSH1 0x40 DUP3 ADD MSTORE PUSH11 0x6E697469616C697A696E67 PUSH1 0xA8 SHL PUSH1 0x60 DUP3 ADD MSTORE PUSH1 0x80 ADD SWAP1 JUMP JUMPDEST PUSH32 0x416363657373436F6E74726F6C3A206163636F756E7420000000000000000000 DUP2 MSTORE PUSH1 0x0 DUP4 MLOAD PUSH2 0x3982 DUP2 PUSH1 0x17 DUP6 ADD PUSH1 0x20 DUP9 ADD PUSH2 0x31A5 JUMP JUMPDEST PUSH17 0x1034B99036B4B9B9B4B733903937B6329 PUSH1 0x7D SHL PUSH1 0x17 SWAP2 DUP5 ADD SWAP2 DUP3 ADD MSTORE DUP4 MLOAD PUSH2 0x39B3 DUP2 PUSH1 0x28 DUP5 ADD PUSH1 0x20 DUP9 ADD PUSH2 0x31A5 JUMP JUMPDEST ADD PUSH1 0x28 ADD SWAP5 SWAP4 POP POP POP POP JUMP JUMPDEST DUP1 DUP3 MUL DUP2 ISZERO DUP3 DUP3 DIV DUP5 EQ OR PUSH2 0x7C0 JUMPI PUSH2 0x7C0 PUSH2 0x364E JUMP JUMPDEST PUSH1 0x0 DUP2 PUSH2 0x39E5 JUMPI PUSH2 0x39E5 PUSH2 0x364E JUMP JUMPDEST POP PUSH1 0x0 NOT ADD SWAP1 JUMP JUMPDEST PUSH1 0x0 DUP3 PUSH2 0x3A0A JUMPI PUSH4 0x4E487B71 PUSH1 0xE0 SHL PUSH1 0x0 MSTORE PUSH1 0x12 PUSH1 0x4 MSTORE PUSH1 0x24 PUSH1 0x0 REVERT JUMPDEST POP DIV SWAP1 JUMP INVALID PUSH6 0xD7A28E3265B3 PUSH27 0x6474929F336521B332C1681B933F6CB9F3376673440D862A809A0F 0xC4 SWAP16 0xC0 PUSH1 0x5 BLOCKHASH CALL 0xD3 SWAP15 0x23 GASLIMIT 0x4E 0x1F PUSH16 0x215BC7505FA22B17C154616570DDEF97 RETURNDATACOPY RETURN SWAP14 PUSH23 0xCC2C6090FEAB1C030BEC6AB5DB557F64DF047A4C4F9B59 MSTORE8 0xCF SAR RETURN LOG2 PUSH5 0x6970667358 0x22 SLT KECCAK256 OR 0xCC DUP6 PUSH28 0x57C3E1482639356BCAD3F64FC3E5021A9B3BE687FC6A58DBEE057A5E PUSH5 0x736F6C6343 STOP ADDMOD GT STOP CALLER 0x49 PUSH15 0x697469616C697A61626C653A20636F PUSH15 0x7472616374206973206E6F7420697F 0x26 0xB8 EXTCODEHASH 0xF9 PUSH15 0x1F2B6A682F133852F6798A09C465DA SWAP6 SWAP3 EQ PUSH1 0xCE 0xFB CODESIZE SELFBALANCE BLOCKHASH 0x24 SWAP9 "
		},
		"gasEstimates": {
			"creation": {
				"codeDepositCost": "3002600",
				"executionCost": "infinite",
				"totalCost": "infinite"
			},
			"external": {
				"BURNER_ROLE()": "308",
				"DEFAULT_ADMIN_ROLE()": "263",
				"ENFORCER_ROLE()": "infinite",
				"MINTER_ROLE()": "284",
				"PAUSER_ROLE()": "infinite",
				"SNAPSHOOTER_ROLE()": "infinite",
				"allowance(address,address)": "infinite",
				"approve(address,uint256)": "infinite",
				"approve(address,uint256,uint256)": "infinite",
				"balanceOf(address)": "2642",
				"decimals()": "2435",
				"decreaseAllowance(address,uint256)": "infinite",
				"detectTransferRestriction(address,address,uint256)": "infinite",
				"forceBurn(address,uint256)": "infinite",
				"freeze(address,string)": "infinite",
				"frozen(address)": "2600",
				"getAllSnapshots()": "infinite",
				"getNextSnapshots()": "infinite",
				"getRoleAdmin(bytes32)": "2535",
				"grantRole(bytes32,address)": "infinite",
				"hasRole(bytes32,address)": "2787",
				"increaseAllowance(address,uint256)": "infinite",
				"initialize(bool,address,string,string,string,string)": "infinite",
				"isTrustedForwarder(address)": "infinite",
				"kill()": "infinite",
				"messageForTransferRestriction(uint8)": "infinite",
				"mint(address,uint256)": "infinite",
				"name()": "infinite",
				"pause()": "infinite",
				"paused()": "2383",
				"renounceRole(bytes32,address)": "infinite",
				"rescheduleSnapshot(uint256,uint256)": "infinite",
				"revokeRole(bytes32,address)": "infinite",
				"ruleEngine()": "2469",
				"scheduleSnapshot(uint256)": "infinite",
				"scheduleSnapshotNotOptimized(uint256)": "infinite",
				"setRuleEngine(address)": "infinite",
				"setTerms(string)": "infinite",
				"setTokenId(string)": "infinite",
				"snapshotBalanceOf(uint256,address)": "infinite",
				"snapshotTotalSupply(uint256)": "infinite",
				"supportsInterface(bytes4)": "473",
				"symbol()": "infinite",
				"terms()": "infinite",
				"tokenId()": "infinite",
				"totalSupply()": "2416",
				"transfer(address,uint256)": "infinite",
				"transferFrom(address,address,uint256)": "infinite",
				"unfreeze(address,string)": "infinite",
				"unpause()": "infinite",
				"unscheduleLastSnapshot(uint256)": "infinite",
				"unscheduleSnapshotNotOptimized(uint256)": "infinite",
				"validateTransfer(address,address,uint256)": "infinite"
			},
			"internal": {
				"__CMTAT_init(bool,address,string memory,string memory,string memory,string memory)": "infinite",
				"__CMTAT_init_unchained(bool,address)": "infinite",
				"_beforeTokenTransfer(address,address,uint256)": "infinite",
				"_msgData()": "infinite",
				"_msgSender()": "infinite"
			}
		},
		"methodIdentifiers": {
			"BURNER_ROLE()": "282c51f3",
			"DEFAULT_ADMIN_ROLE()": "a217fddf",
			"ENFORCER_ROLE()": "6439fd75",
			"MINTER_ROLE()": "d5391393",
			"PAUSER_ROLE()": "e63ab1e9",
			"SNAPSHOOTER_ROLE()": "246b72ec",
			"allowance(address,address)": "dd62ed3e",
			"approve(address,uint256)": "095ea7b3",
			"approve(address,uint256,uint256)": "426a8493",
			"balanceOf(address)": "70a08231",
			"decimals()": "313ce567",
			"decreaseAllowance(address,uint256)": "a457c2d7",
			"detectTransferRestriction(address,address,uint256)": "d4ce1415",
			"forceBurn(address,uint256)": "e2d6f634",
			"freeze(address,string)": "3f4f9067",
			"frozen(address)": "d0516650",
			"getAllSnapshots()": "be370b4f",
			"getNextSnapshots()": "fb78ed40",
			"getRoleAdmin(bytes32)": "248a9ca3",
			"grantRole(bytes32,address)": "2f2ff15d",
			"hasRole(bytes32,address)": "91d14854",
			"increaseAllowance(address,uint256)": "39509351",
			"initialize(bool,address,string,string,string,string)": "e803855e",
			"isTrustedForwarder(address)": "572b6c05",
			"kill()": "41c0e1b5",
			"messageForTransferRestriction(uint8)": "7f4ab1dd",
			"mint(address,uint256)": "40c10f19",
			"name()": "06fdde03",
			"pause()": "8456cb59",
			"paused()": "5c975abb",
			"renounceRole(bytes32,address)": "36568abe",
			"rescheduleSnapshot(uint256,uint256)": "d21268ef",
			"revokeRole(bytes32,address)": "d547741f",
			"ruleEngine()": "fcf196b4",
			"scheduleSnapshot(uint256)": "a312e155",
			"scheduleSnapshotNotOptimized(uint256)": "3c07af0f",
			"setRuleEngine(address)": "a4a0a301",
			"setTerms(string)": "78f86afc",
			"setTokenId(string)": "dcfd616f",
			"snapshotBalanceOf(uint256,address)": "634daf76",
			"snapshotTotalSupply(uint256)": "5ee7a942",
			"supportsInterface(bytes4)": "01ffc9a7",
			"symbol()": "95d89b41",
			"terms()": "d5025625",
			"tokenId()": "17d70f7c",
			"totalSupply()": "18160ddd",
			"transfer(address,uint256)": "a9059cbb",
			"transferFrom(address,address,uint256)": "23b872dd",
			"unfreeze(address,string)": "75bf8fe7",
			"unpause()": "3f4ba83a",
			"unscheduleLastSnapshot(uint256)": "fb1cb59e",
			"unscheduleSnapshotNotOptimized(uint256)": "8430d011",
			"validateTransfer(address,address,uint256)": "c6946a12"
		}
	},
	"abi": [
		{
			"inputs": [
				{
					"internalType": "address",
					"name": "forwarder",
					"type": "address"
				},
				{
					"internalType": "bool",
					"name": "deployedWithProxy_",
					"type": "bool"
				},
				{
					"internalType": "address",
					"name": "owner",
					"type": "address"
				},
				{
					"internalType": "string",
					"name": "name",
					"type": "string"
				},
				{
					"internalType": "string",
					"name": "symbol",
					"type": "string"
				},
				{
					"internalType": "string",
					"name": "tokenId",
					"type": "string"
				},
				{
					"internalType": "string",
					"name": "terms",
					"type": "string"
				}
			],
			"stateMutability": "nonpayable",
			"type": "constructor"
		},
		{
			"anonymous": false,
			"inputs": [
				{
					"indexed": true,
					"internalType": "address",
					"name": "owner",
					"type": "address"
				},
				{
					"indexed": true,
					"internalType": "address",
					"name": "spender",
					"type": "address"
				},
				{
					"indexed": false,
					"internalType": "uint256",
					"name": "value",
					"type": "uint256"
				}
			],
			"name": "Approval",
			"type": "event"
		},
		{
			"anonymous": false,
			"inputs": [
				{
					"indexed": true,
					"internalType": "address",
					"name": "owner",
					"type": "address"
				},
				{
					"indexed": false,
					"internalType": "uint256",
					"name": "amount",
					"type": "uint256"
				}
			],
			"name": "Burn",
			"type": "event"
		},
		{
			"anonymous": false,
			"inputs": [
				{
					"indexed": true,
					"internalType": "address",
					"name": "enforcer",
					"type": "address"
				},
				{
					"indexed": true,
					"internalType": "address",
					"name": "owner",
					"type": "address"
				},
				{
					"indexed": true,
					"internalType": "string",
					"name": "reasonIndexed",
					"type": "string"
				},
				{
					"indexed": false,
					"internalType": "string",
					"name": "reason",
					"type": "string"
				}
			],
			"name": "Freeze",
			"type": "event"
		},
		{
			"anonymous": false,
			"inputs": [
				{
					"indexed": false,
					"internalType": "uint8",
					"name": "version",
					"type": "uint8"
				}
			],
			"name": "Initialized",
			"type": "event"
		},
		{
			"anonymous": false,
			"inputs": [
				{
					"indexed": true,
					"internalType": "address",
					"name": "beneficiary",
					"type": "address"
				},
				{
					"indexed": false,
					"internalType": "uint256",
					"name": "amount",
					"type": "uint256"
				}
			],
			"name": "Mint",
			"type": "event"
		},
		{
			"anonymous": false,
			"inputs": [
				{
					"indexed": false,
					"internalType": "address",
					"name": "account",
					"type": "address"
				}
			],
			"name": "Paused",
			"type": "event"
		},
		{
			"anonymous": false,
			"inputs": [
				{
					"indexed": true,
					"internalType": "bytes32",
					"name": "role",
					"type": "bytes32"
				},
				{
					"indexed": true,
					"internalType": "bytes32",
					"name": "previousAdminRole",
					"type": "bytes32"
				},
				{
					"indexed": true,
					"internalType": "bytes32",
					"name": "newAdminRole",
					"type": "bytes32"
				}
			],
			"name": "RoleAdminChanged",
			"type": "event"
		},
		{
			"anonymous": false,
			"inputs": [
				{
					"indexed": true,
					"internalType": "bytes32",
					"name": "role",
					"type": "bytes32"
				},
				{
					"indexed": true,
					"internalType": "address",
					"name": "account",
					"type": "address"
				},
				{
					"indexed": true,
					"internalType": "address",
					"name": "sender",
					"type": "address"
				}
			],
			"name": "RoleGranted",
			"type": "event"
		},
		{
			"anonymous": false,
			"inputs": [
				{
					"indexed": true,
					"internalType": "bytes32",
					"name": "role",
					"type": "bytes32"
				},
				{
					"indexed": true,
					"internalType": "address",
					"name": "account",
					"type": "address"
				},
				{
					"indexed": true,
					"internalType": "address",
					"name": "sender",
					"type": "address"
				}
			],
			"name": "RoleRevoked",
			"type": "event"
		},
		{
			"anonymous": false,
			"inputs": [
				{
					"indexed": true,
					"internalType": "address",
					"name": "newRuleEngine",
					"type": "address"
				}
			],
			"name": "RuleEngineSet",
			"type": "event"
		},
		{
			"anonymous": false,
			"inputs": [
				{
					"indexed": true,
					"internalType": "uint256",
					"name": "oldTime",
					"type": "uint256"
				},
				{
					"indexed": true,
					"internalType": "uint256",
					"name": "newTime",
					"type": "uint256"
				}
			],
			"name": "SnapshotSchedule",
			"type": "event"
		},
		{
			"anonymous": false,
			"inputs": [
				{
					"indexed": true,
					"internalType": "uint256",
					"name": "time",
					"type": "uint256"
				}
			],
			"name": "SnapshotUnschedule",
			"type": "event"
		},
		{
			"anonymous": false,
			"inputs": [
				{
					"indexed": true,
					"internalType": "address",
					"name": "owner",
					"type": "address"
				},
				{
					"indexed": true,
					"internalType": "address",
					"name": "spender",
					"type": "address"
				},
				{
					"indexed": false,
					"internalType": "uint256",
					"name": "amount",
					"type": "uint256"
				}
			],
			"name": "Spend",
			"type": "event"
		},
		{
			"anonymous": false,
			"inputs": [
				{
					"indexed": true,
					"internalType": "string",
					"name": "newTerm",
					"type": "string"
				}
			],
			"name": "TermSet",
			"type": "event"
		},
		{
			"anonymous": false,
			"inputs": [
				{
					"indexed": true,
					"internalType": "string",
					"name": "newTokenId",
					"type": "string"
				}
			],
			"name": "TokenIdSet",
			"type": "event"
		},
		{
			"anonymous": false,
			"inputs": [
				{
					"indexed": true,
					"internalType": "address",
					"name": "from",
					"type": "address"
				},
				{
					"indexed": true,
					"internalType": "address",
					"name": "to",
					"type": "address"
				},
				{
					"indexed": false,
					"internalType": "uint256",
					"name": "value",
					"type": "uint256"
				}
			],
			"name": "Transfer",
			"type": "event"
		},
		{
			"anonymous": false,
			"inputs": [
				{
					"indexed": true,
					"internalType": "address",
					"name": "enforcer",
					"type": "address"
				},
				{
					"indexed": true,
					"internalType": "address",
					"name": "owner",
					"type": "address"
				},
				{
					"indexed": true,
					"internalType": "string",
					"name": "reasonIndexed",
					"type": "string"
				},
				{
					"indexed": false,
					"internalType": "string",
					"name": "reason",
					"type": "string"
				}
			],
			"name": "Unfreeze",
			"type": "event"
		},
		{
			"anonymous": false,
			"inputs": [
				{
					"indexed": false,
					"internalType": "address",
					"name": "account",
					"type": "address"
				}
			],
			"name": "Unpaused",
			"type": "event"
		},
		{
			"inputs": [],
			"name": "BURNER_ROLE",
			"outputs": [
				{
					"internalType": "bytes32",
					"name": "",
					"type": "bytes32"
				}
			],
			"stateMutability": "view",
			"type": "function"
		},
		{
			"inputs": [],
			"name": "DEFAULT_ADMIN_ROLE",
			"outputs": [
				{
					"internalType": "bytes32",
					"name": "",
					"type": "bytes32"
				}
			],
			"stateMutability": "view",
			"type": "function"
		},
		{
			"inputs": [],
			"name": "ENFORCER_ROLE",
			"outputs": [
				{
					"internalType": "bytes32",
					"name": "",
					"type": "bytes32"
				}
			],
			"stateMutability": "view",
			"type": "function"
		},
		{
			"inputs": [],
			"name": "MINTER_ROLE",
			"outputs": [
				{
					"internalType": "bytes32",
					"name": "",
					"type": "bytes32"
				}
			],
			"stateMutability": "view",
			"type": "function"
		},
		{
			"inputs": [],
			"name": "PAUSER_ROLE",
			"outputs": [
				{
					"internalType": "bytes32",
					"name": "",
					"type": "bytes32"
				}
			],
			"stateMutability": "view",
			"type": "function"
		},
		{
			"inputs": [],
			"name": "SNAPSHOOTER_ROLE",
			"outputs": [
				{
					"internalType": "bytes32",
					"name": "",
					"type": "bytes32"
				}
			],
			"stateMutability": "view",
			"type": "function"
		},
		{
			"inputs": [
				{
					"internalType": "address",
					"name": "owner",
					"type": "address"
				},
				{
					"internalType": "address",
					"name": "spender",
					"type": "address"
				}
			],
			"name": "allowance",
			"outputs": [
				{
					"internalType": "uint256",
					"name": "",
					"type": "uint256"
				}
			],
			"stateMutability": "view",
			"type": "function"
		},
		{
			"inputs": [
				{
					"internalType": "address",
					"name": "spender",
					"type": "address"
				},
				{
					"internalType": "uint256",
					"name": "amount",
					"type": "uint256"
				}
			],
			"name": "approve",
			"outputs": [
				{
					"internalType": "bool",
					"name": "",
					"type": "bool"
				}
			],
			"stateMutability": "nonpayable",
			"type": "function"
		},
		{
			"inputs": [
				{
					"internalType": "address",
					"name": "spender",
					"type": "address"
				},
				{
					"internalType": "uint256",
					"name": "amount",
					"type": "uint256"
				},
				{
					"internalType": "uint256",
					"name": "currentAllowance",
					"type": "uint256"
				}
			],
			"name": "approve",
			"outputs": [
				{
					"internalType": "bool",
					"name": "",
					"type": "bool"
				}
			],
			"stateMutability": "nonpayable",
			"type": "function"
		},
		{
			"inputs": [
				{
					"internalType": "address",
					"name": "account",
					"type": "address"
				}
			],
			"name": "balanceOf",
			"outputs": [
				{
					"internalType": "uint256",
					"name": "",
					"type": "uint256"
				}
			],
			"stateMutability": "view",
			"type": "function"
		},
		{
			"inputs": [],
			"name": "decimals",
			"outputs": [
				{
					"internalType": "uint8",
					"name": "",
					"type": "uint8"
				}
			],
			"stateMutability": "view",
			"type": "function"
		},
		{
			"inputs": [
				{
					"internalType": "address",
					"name": "spender",
					"type": "address"
				},
				{
					"internalType": "uint256",
					"name": "subtractedValue",
					"type": "uint256"
				}
			],
			"name": "decreaseAllowance",
			"outputs": [
				{
					"internalType": "bool",
					"name": "",
					"type": "bool"
				}
			],
			"stateMutability": "nonpayable",
			"type": "function"
		},
		{
			"inputs": [
				{
					"internalType": "address",
					"name": "from",
					"type": "address"
				},
				{
					"internalType": "address",
					"name": "to",
					"type": "address"
				},
				{
					"internalType": "uint256",
					"name": "amount",
					"type": "uint256"
				}
			],
			"name": "detectTransferRestriction",
			"outputs": [
				{
					"internalType": "uint8",
					"name": "code",
					"type": "uint8"
				}
			],
			"stateMutability": "view",
			"type": "function"
		},
		{
			"inputs": [
				{
					"internalType": "address",
					"name": "account",
					"type": "address"
				},
				{
					"internalType": "uint256",
					"name": "amount",
					"type": "uint256"
				}
			],
			"name": "forceBurn",
			"outputs": [],
			"stateMutability": "nonpayable",
			"type": "function"
		},
		{
			"inputs": [
				{
					"internalType": "address",
					"name": "account",
					"type": "address"
				},
				{
					"internalType": "string",
					"name": "reason",
					"type": "string"
				}
			],
			"name": "freeze",
			"outputs": [
				{
					"internalType": "bool",
					"name": "",
					"type": "bool"
				}
			],
			"stateMutability": "nonpayable",
			"type": "function"
		},
		{
			"inputs": [
				{
					"internalType": "address",
					"name": "account",
					"type": "address"
				}
			],
			"name": "frozen",
			"outputs": [
				{
					"internalType": "bool",
					"name": "",
					"type": "bool"
				}
			],
			"stateMutability": "view",
			"type": "function"
		},
		{
			"inputs": [],
			"name": "getAllSnapshots",
			"outputs": [
				{
					"internalType": "uint256[]",
					"name": "",
					"type": "uint256[]"
				}
			],
			"stateMutability": "view",
			"type": "function"
		},
		{
			"inputs": [],
			"name": "getNextSnapshots",
			"outputs": [
				{
					"internalType": "uint256[]",
					"name": "",
					"type": "uint256[]"
				}
			],
			"stateMutability": "view",
			"type": "function"
		},
		{
			"inputs": [
				{
					"internalType": "bytes32",
					"name": "role",
					"type": "bytes32"
				}
			],
			"name": "getRoleAdmin",
			"outputs": [
				{
					"internalType": "bytes32",
					"name": "",
					"type": "bytes32"
				}
			],
			"stateMutability": "view",
			"type": "function"
		},
		{
			"inputs": [
				{
					"internalType": "bytes32",
					"name": "role",
					"type": "bytes32"
				},
				{
					"internalType": "address",
					"name": "account",
					"type": "address"
				}
			],
			"name": "grantRole",
			"outputs": [],
			"stateMutability": "nonpayable",
			"type": "function"
		},
		{
			"inputs": [
				{
					"internalType": "bytes32",
					"name": "role",
					"type": "bytes32"
				},
				{
					"internalType": "address",
					"name": "account",
					"type": "address"
				}
			],
			"name": "hasRole",
			"outputs": [
				{
					"internalType": "bool",
					"name": "",
					"type": "bool"
				}
			],
			"stateMutability": "view",
			"type": "function"
		},
		{
			"inputs": [
				{
					"internalType": "address",
					"name": "spender",
					"type": "address"
				},
				{
					"internalType": "uint256",
					"name": "addedValue",
					"type": "uint256"
				}
			],
			"name": "increaseAllowance",
			"outputs": [
				{
					"internalType": "bool",
					"name": "",
					"type": "bool"
				}
			],
			"stateMutability": "nonpayable",
			"type": "function"
		},
		{
			"inputs": [
				{
					"internalType": "bool",
					"name": "deployedWithProxy_",
					"type": "bool"
				},
				{
					"internalType": "address",
					"name": "owner",
					"type": "address"
				},
				{
					"internalType": "string",
					"name": "name",
					"type": "string"
				},
				{
					"internalType": "string",
					"name": "symbol",
					"type": "string"
				},
				{
					"internalType": "string",
					"name": "tokenId",
					"type": "string"
				},
				{
					"internalType": "string",
					"name": "terms",
					"type": "string"
				}
			],
			"name": "initialize",
			"outputs": [],
			"stateMutability": "nonpayable",
			"type": "function"
		},
		{
			"inputs": [
				{
					"internalType": "address",
					"name": "forwarder",
					"type": "address"
				}
			],
			"name": "isTrustedForwarder",
			"outputs": [
				{
					"internalType": "bool",
					"name": "",
					"type": "bool"
				}
			],
			"stateMutability": "view",
			"type": "function"
		},
		{
			"inputs": [],
			"name": "kill",
			"outputs": [],
			"stateMutability": "nonpayable",
			"type": "function"
		},
		{
			"inputs": [
				{
					"internalType": "uint8",
					"name": "restrictionCode",
					"type": "uint8"
				}
			],
			"name": "messageForTransferRestriction",
			"outputs": [
				{
					"internalType": "string",
					"name": "message",
					"type": "string"
				}
			],
			"stateMutability": "view",
			"type": "function"
		},
		{
			"inputs": [
				{
					"internalType": "address",
					"name": "to",
					"type": "address"
				},
				{
					"internalType": "uint256",
					"name": "amount",
					"type": "uint256"
				}
			],
			"name": "mint",
			"outputs": [],
			"stateMutability": "nonpayable",
			"type": "function"
		},
		{
			"inputs": [],
			"name": "name",
			"outputs": [
				{
					"internalType": "string",
					"name": "",
					"type": "string"
				}
			],
			"stateMutability": "view",
			"type": "function"
		},
		{
			"inputs": [],
			"name": "pause",
			"outputs": [],
			"stateMutability": "nonpayable",
			"type": "function"
		},
		{
			"inputs": [],
			"name": "paused",
			"outputs": [
				{
					"internalType": "bool",
					"name": "",
					"type": "bool"
				}
			],
			"stateMutability": "view",
			"type": "function"
		},
		{
			"inputs": [
				{
					"internalType": "bytes32",
					"name": "role",
					"type": "bytes32"
				},
				{
					"internalType": "address",
					"name": "account",
					"type": "address"
				}
			],
			"name": "renounceRole",
			"outputs": [],
			"stateMutability": "nonpayable",
			"type": "function"
		},
		{
			"inputs": [
				{
					"internalType": "uint256",
					"name": "oldTime",
					"type": "uint256"
				},
				{
					"internalType": "uint256",
					"name": "newTime",
					"type": "uint256"
				}
			],
			"name": "rescheduleSnapshot",
			"outputs": [],
			"stateMutability": "nonpayable",
			"type": "function"
		},
		{
			"inputs": [
				{
					"internalType": "bytes32",
					"name": "role",
					"type": "bytes32"
				},
				{
					"internalType": "address",
					"name": "account",
					"type": "address"
				}
			],
			"name": "revokeRole",
			"outputs": [],
			"stateMutability": "nonpayable",
			"type": "function"
		},
		{
			"inputs": [],
			"name": "ruleEngine",
			"outputs": [
				{
					"internalType": "contract IRuleEngine",
					"name": "",
					"type": "address"
				}
			],
			"stateMutability": "view",
			"type": "function"
		},
		{
			"inputs": [
				{
					"internalType": "uint256",
					"name": "time",
					"type": "uint256"
				}
			],
			"name": "scheduleSnapshot",
			"outputs": [],
			"stateMutability": "nonpayable",
			"type": "function"
		},
		{
			"inputs": [
				{
					"internalType": "uint256",
					"name": "time",
					"type": "uint256"
				}
			],
			"name": "scheduleSnapshotNotOptimized",
			"outputs": [],
			"stateMutability": "nonpayable",
			"type": "function"
		},
		{
			"inputs": [
				{
					"internalType": "contract IRuleEngine",
					"name": "ruleEngine_",
					"type": "address"
				}
			],
			"name": "setRuleEngine",
			"outputs": [],
			"stateMutability": "nonpayable",
			"type": "function"
		},
		{
			"inputs": [
				{
					"internalType": "string",
					"name": "terms_",
					"type": "string"
				}
			],
			"name": "setTerms",
			"outputs": [],
			"stateMutability": "nonpayable",
			"type": "function"
		},
		{
			"inputs": [
				{
					"internalType": "string",
					"name": "tokenId_",
					"type": "string"
				}
			],
			"name": "setTokenId",
			"outputs": [],
			"stateMutability": "nonpayable",
			"type": "function"
		},
		{
			"inputs": [
				{
					"internalType": "uint256",
					"name": "time",
					"type": "uint256"
				},
				{
					"internalType": "address",
					"name": "owner",
					"type": "address"
				}
			],
			"name": "snapshotBalanceOf",
			"outputs": [
				{
					"internalType": "uint256",
					"name": "",
					"type": "uint256"
				}
			],
			"stateMutability": "view",
			"type": "function"
		},
		{
			"inputs": [
				{
					"internalType": "uint256",
					"name": "time",
					"type": "uint256"
				}
			],
			"name": "snapshotTotalSupply",
			"outputs": [
				{
					"internalType": "uint256",
					"name": "",
					"type": "uint256"
				}
			],
			"stateMutability": "view",
			"type": "function"
		},
		{
			"inputs": [
				{
					"internalType": "bytes4",
					"name": "interfaceId",
					"type": "bytes4"
				}
			],
			"name": "supportsInterface",
			"outputs": [
				{
					"internalType": "bool",
					"name": "",
					"type": "bool"
				}
			],
			"stateMutability": "view",
			"type": "function"
		},
		{
			"inputs": [],
			"name": "symbol",
			"outputs": [
				{
					"internalType": "string",
					"name": "",
					"type": "string"
				}
			],
			"stateMutability": "view",
			"type": "function"
		},
		{
			"inputs": [],
			"name": "terms",
			"outputs": [
				{
					"internalType": "string",
					"name": "",
					"type": "string"
				}
			],
			"stateMutability": "view",
			"type": "function"
		},
		{
			"inputs": [],
			"name": "tokenId",
			"outputs": [
				{
					"internalType": "string",
					"name": "",
					"type": "string"
				}
			],
			"stateMutability": "view",
			"type": "function"
		},
		{
			"inputs": [],
			"name": "totalSupply",
			"outputs": [
				{
					"internalType": "uint256",
					"name": "",
					"type": "uint256"
				}
			],
			"stateMutability": "view",
			"type": "function"
		},
		{
			"inputs": [
				{
					"internalType": "address",
					"name": "to",
					"type": "address"
				},
				{
					"internalType": "uint256",
					"name": "amount",
					"type": "uint256"
				}
			],
			"name": "transfer",
			"outputs": [
				{
					"internalType": "bool",
					"name": "",
					"type": "bool"
				}
			],
			"stateMutability": "nonpayable",
			"type": "function"
		},
		{
			"inputs": [
				{
					"internalType": "address",
					"name": "sender",
					"type": "address"
				},
				{
					"internalType": "address",
					"name": "recipient",
					"type": "address"
				},
				{
					"internalType": "uint256",
					"name": "amount",
					"type": "uint256"
				}
			],
			"name": "transferFrom",
			"outputs": [
				{
					"internalType": "bool",
					"name": "",
					"type": "bool"
				}
			],
			"stateMutability": "nonpayable",
			"type": "function"
		},
		{
			"inputs": [
				{
					"internalType": "address",
					"name": "account",
					"type": "address"
				},
				{
					"internalType": "string",
					"name": "reason",
					"type": "string"
				}
			],
			"name": "unfreeze",
			"outputs": [
				{
					"internalType": "bool",
					"name": "",
					"type": "bool"
				}
			],
			"stateMutability": "nonpayable",
			"type": "function"
		},
		{
			"inputs": [],
			"name": "unpause",
			"outputs": [],
			"stateMutability": "nonpayable",
			"type": "function"
		},
		{
			"inputs": [
				{
					"internalType": "uint256",
					"name": "time",
					"type": "uint256"
				}
			],
			"name": "unscheduleLastSnapshot",
			"outputs": [],
			"stateMutability": "nonpayable",
			"type": "function"
		},
		{
			"inputs": [
				{
					"internalType": "uint256",
					"name": "time",
					"type": "uint256"
				}
			],
			"name": "unscheduleSnapshotNotOptimized",
			"outputs": [],
			"stateMutability": "nonpayable",
			"type": "function"
		},
		{
			"inputs": [
				{
					"internalType": "address",
					"name": "from",
					"type": "address"
				},
				{
					"internalType": "address",
					"name": "to",
					"type": "address"
				},
				{
					"internalType": "uint256",
					"name": "amount",
					"type": "uint256"
				}
			],
			"name": "validateTransfer",
			"outputs": [
				{
					"internalType": "bool",
					"name": "",
					"type": "bool"
				}
			],
			"stateMutability": "view",
			"type": "function"
		}
	]
}