{
  "contractName": "RuleEngineMock",
  "abi": [
    {
      "inputs": [],
      "stateMutability": "nonpayable",
      "type": "constructor"
    },
    {
      "inputs": [
        {
          "internalType": "contract IRule[]",
          "name": "rules_",
          "type": "address[]"
        }
      ],
      "name": "setRules",
      "outputs": [],
      "stateMutability": "nonpayable",
      "type": "function"
    },
    {
      "inputs": [],
      "name": "ruleLength",
      "outputs": [
        {
          "internalType": "uint256",
          "name": "",
          "type": "uint256"
        }
      ],
      "stateMutability": "view",
      "type": "function"
    },
    {
      "inputs": [
        {
          "internalType": "uint256",
          "name": "ruleId",
          "type": "uint256"
        }
      ],
      "name": "rule",
      "outputs": [
        {
          "internalType": "contract IRule",
          "name": "",
          "type": "address"
        }
      ],
      "stateMutability": "view",
      "type": "function"
    },
    {
      "inputs": [],
      "name": "rules",
      "outputs": [
        {
          "internalType": "contract IRule[]",
          "name": "",
          "type": "address[]"
        }
      ],
      "stateMutability": "view",
      "type": "function"
    },
    {
      "inputs": [
        {
          "internalType": "address",
          "name": "_from",
          "type": "address"
        },
        {
          "internalType": "address",
          "name": "_to",
          "type": "address"
        },
        {
          "internalType": "uint256",
          "name": "_amount",
          "type": "uint256"
        }
      ],
      "name": "detectTransferRestriction",
      "outputs": [
        {
          "internalType": "uint8",
          "name": "",
          "type": "uint8"
        }
      ],
      "stateMutability": "view",
      "type": "function"
    },
    {
      "inputs": [
        {
          "internalType": "address",
          "name": "_from",
          "type": "address"
        },
        {
          "internalType": "address",
          "name": "_to",
          "type": "address"
        },
        {
          "internalType": "uint256",
          "name": "_amount",
          "type": "uint256"
        }
      ],
      "name": "validateTransfer",
      "outputs": [
        {
          "internalType": "bool",
          "name": "",
          "type": "bool"
        }
      ],
      "stateMutability": "view",
      "type": "function"
    },
    {
      "inputs": [
        {
          "internalType": "uint8",
          "name": "_restrictionCode",
          "type": "uint8"
        }
      ],
      "name": "messageForTransferRestriction",
      "outputs": [
        {
          "internalType": "string",
          "name": "",
          "type": "string"
        }
      ],
      "stateMutability": "view",
      "type": "function"
    }
  ],
  "bytecode": "0x608060405234801561001057600080fd5b50600060405161001f90610073565b604051809103906000f08015801561003b573d6000803e3d6000fd5b5081546001810183556000928352602090922090910180546001600160a01b0319166001600160a01b03909216919091179055610080565b610298806108a583390190565b6108168061008f6000396000f3fe608060405234801561001057600080fd5b506004361061007d5760003560e01c8063b46274161161005b578063b4627416146100d5578063c6946a12146100e6578063d4ce141514610109578063db18af6c1461012e57600080fd5b806352f6747a146100825780637f4ab1dd146100a0578063b27aef3a146100c0575b600080fd5b61008a610159565b60405161009791906104e8565b60405180910390f35b6100b36100ae366004610547565b6101bb565b6040516100979190610588565b6100d36100ce3660046105bb565b61033d565b005b600054604051908152602001610097565b6100f96100f436600461064c565b61034e565b6040519015158152602001610097565b61011c61011736600461064c565b610367565b60405160ff9091168152602001610097565b61014161013c366004610688565b610441565b6040516001600160a01b039091168152602001610097565b606060008054806020026020016040519081016040528092919081815260200182805480156101b157602002820191906000526020600020905b81546001600160a01b03168152600190910190602001808311610193575b5050505050905090565b606060005b60005481101561030257600081815481106101dd576101dd6106a1565b600091825260209091200154604051633e822efb60e11b815260ff851660048201526001600160a01b0390911690637d045df690602401602060405180830381865afa158015610231573d6000803e3d6000fd5b505050506040513d601f19601f8201168201806040525081019061025591906106b7565b156102f0576000818154811061026d5761026d6106a1565b600091825260209091200154604051637f4ab1dd60e01b815260ff851660048201526001600160a01b0390911690637f4ab1dd90602401600060405180830381865afa1580156102c1573d6000803e3d6000fd5b505050506040513d6000823e601f3d908101601f191682016040526102e991908101906106ef565b9392505050565b806102fa8161079c565b9150506101c0565b505060408051808201909152601881527f556e6b6e6f776e207265737472696374696f6e20636f646500000000000000006020820152919050565b61034960008383610470565b505050565b600061035b848484610367565b60ff1615949350505050565b6000805b600054811015610436576000808281548110610389576103896106a1565b60009182526020909120015460405163d4ce141560e01b81526001600160a01b0388811660048301528781166024830152604482018790529091169063d4ce141590606401602060405180830381865afa1580156103eb573d6000803e3d6000fd5b505050506040513d601f19601f8201168201806040525081019061040f91906107c3565b905060ff8116156104235791506102e99050565b508061042e8161079c565b91505061036b565b506000949350505050565b6000808281548110610455576104556106a1565b6000918252602090912001546001600160a01b031692915050565b8280548282559060005260206000209081019282156104c3579160200282015b828111156104c35781546001600160a01b0319166001600160a01b03843516178255602090920191600190910190610490565b506104cf9291506104d3565b5090565b5b808211156104cf57600081556001016104d4565b6020808252825182820181905260009190848201906040850190845b818110156105295783516001600160a01b031683529284019291840191600101610504565b50909695505050505050565b60ff8116811461054457600080fd5b50565b60006020828403121561055957600080fd5b81356102e981610535565b60005b8381101561057f578181015183820152602001610567565b50506000910152565b60208152600082518060208401526105a7816040850160208701610564565b601f01601f19169190910160400192915050565b600080602083850312156105ce57600080fd5b823567ffffffffffffffff808211156105e657600080fd5b818501915085601f8301126105fa57600080fd5b81358181111561060957600080fd5b8660208260051b850101111561061e57600080fd5b60209290920196919550909350505050565b80356001600160a01b038116811461064757600080fd5b919050565b60008060006060848603121561066157600080fd5b61066a84610630565b925061067860208501610630565b9150604084013590509250925092565b60006020828403121561069a57600080fd5b5035919050565b634e487b7160e01b600052603260045260246000fd5b6000602082840312156106c957600080fd5b815180151581146102e957600080fd5b634e487b7160e01b600052604160045260246000fd5b60006020828403121561070157600080fd5b815167ffffffffffffffff8082111561071957600080fd5b818401915084601f83011261072d57600080fd5b81518181111561073f5761073f6106d9565b604051601f8201601f19908116603f01168101908382118183101715610767576107676106d9565b8160405282815287602084870101111561078057600080fd5b610791836020830160208801610564565b979650505050505050565b6000600182016107bc57634e487b7160e01b600052601160045260246000fd5b5060010190565b6000602082840312156107d557600080fd5b81516102e98161053556fea26469706673582212206960829ca2c257b1d5acadde97350dc1ea0ace48ada31d554a4ed76e20cd373564736f6c63430008110033608060405234801561001057600080fd5b50610278806100206000396000f3fe608060405234801561001057600080fd5b506004361061004c5760003560e01c80637d045df6146100515780637f4ab1dd1461007d578063c6946a121461009d578063d4ce1415146100b0575b600080fd5b61006861005f366004610172565b60ff16600a1490565b60405190151581526020015b60405180910390f35b61009061008b366004610172565b6100d5565b604051610074919061019c565b6100686100ab366004610206565b61013d565b6100c36100be366004610206565b610156565b60405160ff9091168152602001610074565b606060ff8216600a1461010e576040518060400160405280600e81526020016d10dbd919481b9bdd08199bdd5b9960921b815250610137565b6040518060400160405280600f81526020016e082dadeeadce840e8dede40d0d2ced608b1b8152505b92915050565b600061014a848484610156565b60ff1615949350505050565b60006014821061016757600a61016a565b60005b949350505050565b60006020828403121561018457600080fd5b813560ff8116811461019557600080fd5b9392505050565b600060208083528351808285015260005b818110156101c9578581018301518582016040015282016101ad565b506000604082860101526040601f19601f8301168501019250505092915050565b80356001600160a01b038116811461020157600080fd5b919050565b60008060006060848603121561021b57600080fd5b610224846101ea565b9250610232602085016101ea565b915060408401359050925092509256fea26469706673582212204dbbd9fbc5e8f856705528d447b8816e2f063287b847246746abdb18e9298ad164736f6c63430008110033",
  "immutableReferences": {},
  "source": "//SPDX-License-Identifier: MPL-2.0\n\npragma solidity ^0.8.17;\n\nimport \"../interfaces/IRule.sol\";\nimport \"../interfaces/IRuleEngine.sol\";\nimport \"./RuleMock.sol\";\n\n\ncontract RuleEngineMock is IRuleEngine {\n    IRule[] internal _rules;\n\n    constructor() {\n        _rules.push(new RuleMock());\n    }\n\n    function setRules(IRule[] calldata rules_) external override {\n        _rules = rules_;\n    }\n\n    function ruleLength() external view override returns (uint256) {\n        return _rules.length;\n    }\n\n    function rule(uint256 ruleId) external view override returns (IRule) {\n        return _rules[ruleId];\n    }\n\n    function rules() external view override returns (IRule[] memory) {\n        return _rules;\n    }\n\n    function detectTransferRestriction(\n        address _from,\n        address _to,\n        uint256 _amount\n    ) public view override returns (uint8) {\n        for (uint256 i = 0; i < _rules.length; i++) {\n            uint8 restriction = _rules[i].detectTransferRestriction(\n                _from,\n                _to,\n                _amount\n            );\n            if (restriction > 0) {\n                return restriction;\n            }\n        }\n        return 0;\n    }\n\n    function validateTransfer(\n        address _from,\n        address _to,\n        uint256 _amount\n    ) public view override returns (bool) {\n        return detectTransferRestriction(_from, _to, _amount) == 0;\n    }\n\n    function messageForTransferRestriction(uint8 _restrictionCode)\n        public\n        view\n        override\n        returns (string memory)\n    {\n        for (uint256 i = 0; i < _rules.length; i++) {\n            if (_rules[i].canReturnTransferRestrictionCode(_restrictionCode)) {\n                return\n                    _rules[i].messageForTransferRestriction(_restrictionCode);\n            }\n        }\n        return \"Unknown restriction code\";\n    }\n}\n",
  "sourcePath": "/Users/zakaryachami/working/prestation/fiverr/rogerdepallens/2023/sharesTokenization/CMTAT/contracts/mocks/RuleEngineMock.sol",
  "compiler": {
    "name": "solc",
    "version": "0.8.17+commit.8df45f5f.Emscripten.clang"
  },
  "schemaVersion": "3.4.10",
  "updatedAt": "2023-01-12T18:12:27.786Z",
  "devdoc": {
    "kind": "dev",
    "methods": {
      "detectTransferRestriction(address,address,uint256)": {
        "details": "See ERC-1404"
      },
      "messageForTransferRestriction(uint8)": {
        "details": "See ERC-1404"
      },
      "rule(uint256)": {
        "details": "return the rule at the index specified by ruleId"
      },
      "ruleLength()": {
        "details": "return the number of rules"
      },
      "rules()": {
        "details": "return all the rules"
      },
      "setRules(address[])": {
        "details": "define the rules, the precedent rules will be overwritten"
      },
      "validateTransfer(address,address,uint256)": {
        "details": "Returns true if the transfer is valid, and false otherwise."
      }
    },
    "version": 1
  },
  "userdoc": {
    "kind": "user",
    "methods": {},
    "version": 1
  }
}