{
  "contractName": "CMTAT",
  "abi": [
    {
      "inputs": [
        {
          "internalType": "address",
          "name": "forwarder",
          "type": "address"
        },
        {
          "internalType": "bool",
          "name": "deployedWithProxy_",
          "type": "bool"
        },
        {
          "internalType": "address",
          "name": "owner",
          "type": "address"
        },
        {
          "internalType": "string",
          "name": "name",
          "type": "string"
        },
        {
          "internalType": "string",
          "name": "symbol",
          "type": "string"
        },
        {
          "internalType": "string",
          "name": "tokenId",
          "type": "string"
        },
        {
          "internalType": "string",
          "name": "terms",
          "type": "string"
        }
      ],
      "stateMutability": "nonpayable",
      "type": "constructor"
    },
    {
      "anonymous": false,
      "inputs": [
        {
          "indexed": true,
          "internalType": "address",
          "name": "owner",
          "type": "address"
        },
        {
          "indexed": true,
          "internalType": "address",
          "name": "spender",
          "type": "address"
        },
        {
          "indexed": false,
          "internalType": "uint256",
          "name": "value",
          "type": "uint256"
        }
      ],
      "name": "Approval",
      "type": "event"
    },
    {
      "anonymous": false,
      "inputs": [
        {
          "indexed": true,
          "internalType": "address",
          "name": "owner",
          "type": "address"
        },
        {
          "indexed": false,
          "internalType": "uint256",
          "name": "amount",
          "type": "uint256"
        }
      ],
      "name": "Burn",
      "type": "event"
    },
    {
      "anonymous": false,
      "inputs": [
        {
          "indexed": true,
          "internalType": "address",
          "name": "enforcer",
          "type": "address"
        },
        {
          "indexed": true,
          "internalType": "address",
          "name": "owner",
          "type": "address"
        },
        {
          "indexed": true,
          "internalType": "string",
          "name": "reasonIndexed",
          "type": "string"
        },
        {
          "indexed": false,
          "internalType": "string",
          "name": "reason",
          "type": "string"
        }
      ],
      "name": "Freeze",
      "type": "event"
    },
    {
      "anonymous": false,
      "inputs": [
        {
          "indexed": false,
          "internalType": "uint8",
          "name": "version",
          "type": "uint8"
        }
      ],
      "name": "Initialized",
      "type": "event"
    },
    {
      "anonymous": false,
      "inputs": [
        {
          "indexed": true,
          "internalType": "address",
          "name": "beneficiary",
          "type": "address"
        },
        {
          "indexed": false,
          "internalType": "uint256",
          "name": "amount",
          "type": "uint256"
        }
      ],
      "name": "Mint",
      "type": "event"
    },
    {
      "anonymous": false,
      "inputs": [
        {
          "indexed": false,
          "internalType": "address",
          "name": "account",
          "type": "address"
        }
      ],
      "name": "Paused",
      "type": "event"
    },
    {
      "anonymous": false,
      "inputs": [
        {
          "indexed": true,
          "internalType": "bytes32",
          "name": "role",
          "type": "bytes32"
        },
        {
          "indexed": true,
          "internalType": "bytes32",
          "name": "previousAdminRole",
          "type": "bytes32"
        },
        {
          "indexed": true,
          "internalType": "bytes32",
          "name": "newAdminRole",
          "type": "bytes32"
        }
      ],
      "name": "RoleAdminChanged",
      "type": "event"
    },
    {
      "anonymous": false,
      "inputs": [
        {
          "indexed": true,
          "internalType": "bytes32",
          "name": "role",
          "type": "bytes32"
        },
        {
          "indexed": true,
          "internalType": "address",
          "name": "account",
          "type": "address"
        },
        {
          "indexed": true,
          "internalType": "address",
          "name": "sender",
          "type": "address"
        }
      ],
      "name": "RoleGranted",
      "type": "event"
    },
    {
      "anonymous": false,
      "inputs": [
        {
          "indexed": true,
          "internalType": "bytes32",
          "name": "role",
          "type": "bytes32"
        },
        {
          "indexed": true,
          "internalType": "address",
          "name": "account",
          "type": "address"
        },
        {
          "indexed": true,
          "internalType": "address",
          "name": "sender",
          "type": "address"
        }
      ],
      "name": "RoleRevoked",
      "type": "event"
    },
    {
      "anonymous": false,
      "inputs": [
        {
          "indexed": true,
          "internalType": "address",
          "name": "newRuleEngine",
          "type": "address"
        }
      ],
      "name": "RuleEngineSet",
      "type": "event"
    },
    {
      "anonymous": false,
      "inputs": [
        {
          "indexed": true,
          "internalType": "uint256",
          "name": "oldTime",
          "type": "uint256"
        },
        {
          "indexed": true,
          "internalType": "uint256",
          "name": "newTime",
          "type": "uint256"
        }
      ],
      "name": "SnapshotSchedule",
      "type": "event"
    },
    {
      "anonymous": false,
      "inputs": [
        {
          "indexed": true,
          "internalType": "uint256",
          "name": "time",
          "type": "uint256"
        }
      ],
      "name": "SnapshotUnschedule",
      "type": "event"
    },
    {
      "anonymous": false,
      "inputs": [
        {
          "indexed": true,
          "internalType": "address",
          "name": "owner",
          "type": "address"
        },
        {
          "indexed": true,
          "internalType": "address",
          "name": "spender",
          "type": "address"
        },
        {
          "indexed": false,
          "internalType": "uint256",
          "name": "amount",
          "type": "uint256"
        }
      ],
      "name": "Spend",
      "type": "event"
    },
    {
      "anonymous": false,
      "inputs": [
        {
          "indexed": true,
          "internalType": "string",
          "name": "newTerm",
          "type": "string"
        }
      ],
      "name": "TermSet",
      "type": "event"
    },
    {
      "anonymous": false,
      "inputs": [
        {
          "indexed": true,
          "internalType": "string",
          "name": "newTokenId",
          "type": "string"
        }
      ],
      "name": "TokenIdSet",
      "type": "event"
    },
    {
      "anonymous": false,
      "inputs": [
        {
          "indexed": true,
          "internalType": "address",
          "name": "from",
          "type": "address"
        },
        {
          "indexed": true,
          "internalType": "address",
          "name": "to",
          "type": "address"
        },
        {
          "indexed": false,
          "internalType": "uint256",
          "name": "value",
          "type": "uint256"
        }
      ],
      "name": "Transfer",
      "type": "event"
    },
    {
      "anonymous": false,
      "inputs": [
        {
          "indexed": true,
          "internalType": "address",
          "name": "enforcer",
          "type": "address"
        },
        {
          "indexed": true,
          "internalType": "address",
          "name": "owner",
          "type": "address"
        },
        {
          "indexed": true,
          "internalType": "string",
          "name": "reasonIndexed",
          "type": "string"
        },
        {
          "indexed": false,
          "internalType": "string",
          "name": "reason",
          "type": "string"
        }
      ],
      "name": "Unfreeze",
      "type": "event"
    },
    {
      "anonymous": false,
      "inputs": [
        {
          "indexed": false,
          "internalType": "address",
          "name": "account",
          "type": "address"
        }
      ],
      "name": "Unpaused",
      "type": "event"
    },
    {
      "inputs": [],
      "name": "BURNER_ROLE",
      "outputs": [
        {
          "internalType": "bytes32",
          "name": "",
          "type": "bytes32"
        }
      ],
      "stateMutability": "view",
      "type": "function"
    },
    {
      "inputs": [],
      "name": "DEFAULT_ADMIN_ROLE",
      "outputs": [
        {
          "internalType": "bytes32",
          "name": "",
          "type": "bytes32"
        }
      ],
      "stateMutability": "view",
      "type": "function"
    },
    {
      "inputs": [],
      "name": "ENFORCER_ROLE",
      "outputs": [
        {
          "internalType": "bytes32",
          "name": "",
          "type": "bytes32"
        }
      ],
      "stateMutability": "view",
      "type": "function"
    },
    {
      "inputs": [],
      "name": "MINTER_ROLE",
      "outputs": [
        {
          "internalType": "bytes32",
          "name": "",
          "type": "bytes32"
        }
      ],
      "stateMutability": "view",
      "type": "function"
    },
    {
      "inputs": [],
      "name": "PAUSER_ROLE",
      "outputs": [
        {
          "internalType": "bytes32",
          "name": "",
          "type": "bytes32"
        }
      ],
      "stateMutability": "view",
      "type": "function"
    },
    {
      "inputs": [],
      "name": "SNAPSHOOTER_ROLE",
      "outputs": [
        {
          "internalType": "bytes32",
          "name": "",
          "type": "bytes32"
        }
      ],
      "stateMutability": "view",
      "type": "function"
    },
    {
      "inputs": [
        {
          "internalType": "address",
          "name": "owner",
          "type": "address"
        },
        {
          "internalType": "address",
          "name": "spender",
          "type": "address"
        }
      ],
      "name": "allowance",
      "outputs": [
        {
          "internalType": "uint256",
          "name": "",
          "type": "uint256"
        }
      ],
      "stateMutability": "view",
      "type": "function"
    },
    {
      "inputs": [
        {
          "internalType": "address",
          "name": "spender",
          "type": "address"
        },
        {
          "internalType": "uint256",
          "name": "amount",
          "type": "uint256"
        }
      ],
      "name": "approve",
      "outputs": [
        {
          "internalType": "bool",
          "name": "",
          "type": "bool"
        }
      ],
      "stateMutability": "nonpayable",
      "type": "function"
    },
    {
      "inputs": [
        {
          "internalType": "address",
          "name": "spender",
          "type": "address"
        },
        {
          "internalType": "uint256",
          "name": "amount",
          "type": "uint256"
        },
        {
          "internalType": "uint256",
          "name": "currentAllowance",
          "type": "uint256"
        }
      ],
      "name": "approve",
      "outputs": [
        {
          "internalType": "bool",
          "name": "",
          "type": "bool"
        }
      ],
      "stateMutability": "nonpayable",
      "type": "function"
    },
    {
      "inputs": [
        {
          "internalType": "address",
          "name": "account",
          "type": "address"
        }
      ],
      "name": "balanceOf",
      "outputs": [
        {
          "internalType": "uint256",
          "name": "",
          "type": "uint256"
        }
      ],
      "stateMutability": "view",
      "type": "function"
    },
    {
      "inputs": [
        {
          "internalType": "address",
          "name": "spender",
          "type": "address"
        },
        {
          "internalType": "uint256",
          "name": "subtractedValue",
          "type": "uint256"
        }
      ],
      "name": "decreaseAllowance",
      "outputs": [
        {
          "internalType": "bool",
          "name": "",
          "type": "bool"
        }
      ],
      "stateMutability": "nonpayable",
      "type": "function"
    },
    {
      "inputs": [
        {
          "internalType": "address",
          "name": "from",
          "type": "address"
        },
        {
          "internalType": "address",
          "name": "to",
          "type": "address"
        },
        {
          "internalType": "uint256",
          "name": "amount",
          "type": "uint256"
        }
      ],
      "name": "detectTransferRestriction",
      "outputs": [
        {
          "internalType": "uint8",
          "name": "code",
          "type": "uint8"
        }
      ],
      "stateMutability": "view",
      "type": "function"
    },
    {
      "inputs": [
        {
          "internalType": "address",
          "name": "account",
          "type": "address"
        },
        {
          "internalType": "uint256",
          "name": "amount",
          "type": "uint256"
        }
      ],
      "name": "forceBurn",
      "outputs": [],
      "stateMutability": "nonpayable",
      "type": "function"
    },
    {
      "inputs": [
        {
          "internalType": "address",
          "name": "account",
          "type": "address"
        },
        {
          "internalType": "string",
          "name": "reason",
          "type": "string"
        }
      ],
      "name": "freeze",
      "outputs": [
        {
          "internalType": "bool",
          "name": "",
          "type": "bool"
        }
      ],
      "stateMutability": "nonpayable",
      "type": "function"
    },
    {
      "inputs": [
        {
          "internalType": "address",
          "name": "account",
          "type": "address"
        }
      ],
      "name": "frozen",
      "outputs": [
        {
          "internalType": "bool",
          "name": "",
          "type": "bool"
        }
      ],
      "stateMutability": "view",
      "type": "function"
    },
    {
      "inputs": [],
      "name": "getAllSnapshots",
      "outputs": [
        {
          "internalType": "uint256[]",
          "name": "",
          "type": "uint256[]"
        }
      ],
      "stateMutability": "view",
      "type": "function"
    },
    {
      "inputs": [],
      "name": "getNextSnapshots",
      "outputs": [
        {
          "internalType": "uint256[]",
          "name": "",
          "type": "uint256[]"
        }
      ],
      "stateMutability": "view",
      "type": "function"
    },
    {
      "inputs": [
        {
          "internalType": "bytes32",
          "name": "role",
          "type": "bytes32"
        }
      ],
      "name": "getRoleAdmin",
      "outputs": [
        {
          "internalType": "bytes32",
          "name": "",
          "type": "bytes32"
        }
      ],
      "stateMutability": "view",
      "type": "function"
    },
    {
      "inputs": [
        {
          "internalType": "bytes32",
          "name": "role",
          "type": "bytes32"
        },
        {
          "internalType": "address",
          "name": "account",
          "type": "address"
        }
      ],
      "name": "grantRole",
      "outputs": [],
      "stateMutability": "nonpayable",
      "type": "function"
    },
    {
      "inputs": [
        {
          "internalType": "bytes32",
          "name": "role",
          "type": "bytes32"
        },
        {
          "internalType": "address",
          "name": "account",
          "type": "address"
        }
      ],
      "name": "hasRole",
      "outputs": [
        {
          "internalType": "bool",
          "name": "",
          "type": "bool"
        }
      ],
      "stateMutability": "view",
      "type": "function"
    },
    {
      "inputs": [
        {
          "internalType": "address",
          "name": "spender",
          "type": "address"
        },
        {
          "internalType": "uint256",
          "name": "addedValue",
          "type": "uint256"
        }
      ],
      "name": "increaseAllowance",
      "outputs": [
        {
          "internalType": "bool",
          "name": "",
          "type": "bool"
        }
      ],
      "stateMutability": "nonpayable",
      "type": "function"
    },
    {
      "inputs": [
        {
          "internalType": "address",
          "name": "forwarder",
          "type": "address"
        }
      ],
      "name": "isTrustedForwarder",
      "outputs": [
        {
          "internalType": "bool",
          "name": "",
          "type": "bool"
        }
      ],
      "stateMutability": "view",
      "type": "function"
    },
    {
      "inputs": [],
      "name": "kill",
      "outputs": [],
      "stateMutability": "nonpayable",
      "type": "function"
    },
    {
      "inputs": [
        {
          "internalType": "uint8",
          "name": "restrictionCode",
          "type": "uint8"
        }
      ],
      "name": "messageForTransferRestriction",
      "outputs": [
        {
          "internalType": "string",
          "name": "message",
          "type": "string"
        }
      ],
      "stateMutability": "view",
      "type": "function"
    },
    {
      "inputs": [
        {
          "internalType": "address",
          "name": "to",
          "type": "address"
        },
        {
          "internalType": "uint256",
          "name": "amount",
          "type": "uint256"
        }
      ],
      "name": "mint",
      "outputs": [],
      "stateMutability": "nonpayable",
      "type": "function"
    },
    {
      "inputs": [],
      "name": "name",
      "outputs": [
        {
          "internalType": "string",
          "name": "",
          "type": "string"
        }
      ],
      "stateMutability": "view",
      "type": "function"
    },
    {
      "inputs": [],
      "name": "pause",
      "outputs": [],
      "stateMutability": "nonpayable",
      "type": "function"
    },
    {
      "inputs": [],
      "name": "paused",
      "outputs": [
        {
          "internalType": "bool",
          "name": "",
          "type": "bool"
        }
      ],
      "stateMutability": "view",
      "type": "function"
    },
    {
      "inputs": [
        {
          "internalType": "bytes32",
          "name": "role",
          "type": "bytes32"
        },
        {
          "internalType": "address",
          "name": "account",
          "type": "address"
        }
      ],
      "name": "renounceRole",
      "outputs": [],
      "stateMutability": "nonpayable",
      "type": "function"
    },
    {
      "inputs": [
        {
          "internalType": "uint256",
          "name": "oldTime",
          "type": "uint256"
        },
        {
          "internalType": "uint256",
          "name": "newTime",
          "type": "uint256"
        }
      ],
      "name": "rescheduleSnapshot",
      "outputs": [],
      "stateMutability": "nonpayable",
      "type": "function"
    },
    {
      "inputs": [
        {
          "internalType": "bytes32",
          "name": "role",
          "type": "bytes32"
        },
        {
          "internalType": "address",
          "name": "account",
          "type": "address"
        }
      ],
      "name": "revokeRole",
      "outputs": [],
      "stateMutability": "nonpayable",
      "type": "function"
    },
    {
      "inputs": [],
      "name": "ruleEngine",
      "outputs": [
        {
          "internalType": "contract IRuleEngine",
          "name": "",
          "type": "address"
        }
      ],
      "stateMutability": "view",
      "type": "function"
    },
    {
      "inputs": [
        {
          "internalType": "uint256",
          "name": "time",
          "type": "uint256"
        }
      ],
      "name": "scheduleSnapshot",
      "outputs": [],
      "stateMutability": "nonpayable",
      "type": "function"
    },
    {
      "inputs": [
        {
          "internalType": "uint256",
          "name": "time",
          "type": "uint256"
        }
      ],
      "name": "scheduleSnapshotNotOptimized",
      "outputs": [],
      "stateMutability": "nonpayable",
      "type": "function"
    },
    {
      "inputs": [
        {
          "internalType": "contract IRuleEngine",
          "name": "ruleEngine_",
          "type": "address"
        }
      ],
      "name": "setRuleEngine",
      "outputs": [],
      "stateMutability": "nonpayable",
      "type": "function"
    },
    {
      "inputs": [
        {
          "internalType": "string",
          "name": "terms_",
          "type": "string"
        }
      ],
      "name": "setTerms",
      "outputs": [],
      "stateMutability": "nonpayable",
      "type": "function"
    },
    {
      "inputs": [
        {
          "internalType": "string",
          "name": "tokenId_",
          "type": "string"
        }
      ],
      "name": "setTokenId",
      "outputs": [],
      "stateMutability": "nonpayable",
      "type": "function"
    },
    {
      "inputs": [
        {
          "internalType": "uint256",
          "name": "time",
          "type": "uint256"
        },
        {
          "internalType": "address",
          "name": "owner",
          "type": "address"
        }
      ],
      "name": "snapshotBalanceOf",
      "outputs": [
        {
          "internalType": "uint256",
          "name": "",
          "type": "uint256"
        }
      ],
      "stateMutability": "view",
      "type": "function"
    },
    {
      "inputs": [
        {
          "internalType": "uint256",
          "name": "time",
          "type": "uint256"
        }
      ],
      "name": "snapshotTotalSupply",
      "outputs": [
        {
          "internalType": "uint256",
          "name": "",
          "type": "uint256"
        }
      ],
      "stateMutability": "view",
      "type": "function"
    },
    {
      "inputs": [
        {
          "internalType": "bytes4",
          "name": "interfaceId",
          "type": "bytes4"
        }
      ],
      "name": "supportsInterface",
      "outputs": [
        {
          "internalType": "bool",
          "name": "",
          "type": "bool"
        }
      ],
      "stateMutability": "view",
      "type": "function"
    },
    {
      "inputs": [],
      "name": "symbol",
      "outputs": [
        {
          "internalType": "string",
          "name": "",
          "type": "string"
        }
      ],
      "stateMutability": "view",
      "type": "function"
    },
    {
      "inputs": [],
      "name": "terms",
      "outputs": [
        {
          "internalType": "string",
          "name": "",
          "type": "string"
        }
      ],
      "stateMutability": "view",
      "type": "function"
    },
    {
      "inputs": [],
      "name": "tokenId",
      "outputs": [
        {
          "internalType": "string",
          "name": "",
          "type": "string"
        }
      ],
      "stateMutability": "view",
      "type": "function"
    },
    {
      "inputs": [],
      "name": "totalSupply",
      "outputs": [
        {
          "internalType": "uint256",
          "name": "",
          "type": "uint256"
        }
      ],
      "stateMutability": "view",
      "type": "function"
    },
    {
      "inputs": [
        {
          "internalType": "address",
          "name": "to",
          "type": "address"
        },
        {
          "internalType": "uint256",
          "name": "amount",
          "type": "uint256"
        }
      ],
      "name": "transfer",
      "outputs": [
        {
          "internalType": "bool",
          "name": "",
          "type": "bool"
        }
      ],
      "stateMutability": "nonpayable",
      "type": "function"
    },
    {
      "inputs": [
        {
          "internalType": "address",
          "name": "account",
          "type": "address"
        },
        {
          "internalType": "string",
          "name": "reason",
          "type": "string"
        }
      ],
      "name": "unfreeze",
      "outputs": [
        {
          "internalType": "bool",
          "name": "",
          "type": "bool"
        }
      ],
      "stateMutability": "nonpayable",
      "type": "function"
    },
    {
      "inputs": [],
      "name": "unpause",
      "outputs": [],
      "stateMutability": "nonpayable",
      "type": "function"
    },
    {
      "inputs": [
        {
          "internalType": "uint256",
          "name": "time",
          "type": "uint256"
        }
      ],
      "name": "unscheduleLastSnapshot",
      "outputs": [],
      "stateMutability": "nonpayable",
      "type": "function"
    },
    {
      "inputs": [
        {
          "internalType": "uint256",
          "name": "time",
          "type": "uint256"
        }
      ],
      "name": "unscheduleSnapshotNotOptimized",
      "outputs": [],
      "stateMutability": "nonpayable",
      "type": "function"
    },
    {
      "inputs": [
        {
          "internalType": "address",
          "name": "from",
          "type": "address"
        },
        {
          "internalType": "address",
          "name": "to",
          "type": "address"
        },
        {
          "internalType": "uint256",
          "name": "amount",
          "type": "uint256"
        }
      ],
      "name": "validateTransfer",
      "outputs": [
        {
          "internalType": "bool",
          "name": "",
          "type": "bool"
        }
      ],
      "stateMutability": "view",
      "type": "function"
    },
    {
      "inputs": [
        {
          "internalType": "bool",
          "name": "deployedWithProxy_",
          "type": "bool"
        },
        {
          "internalType": "address",
          "name": "owner",
          "type": "address"
        },
        {
          "internalType": "string",
          "name": "name",
          "type": "string"
        },
        {
          "internalType": "string",
          "name": "symbol",
          "type": "string"
        },
        {
          "internalType": "string",
          "name": "tokenId",
          "type": "string"
        },
        {
          "internalType": "string",
          "name": "terms",
          "type": "string"
        }
      ],
      "name": "initialize",
      "outputs": [],
      "stateMutability": "nonpayable",
      "type": "function"
    },
    {
      "inputs": [],
      "name": "decimals",
      "outputs": [
        {
          "internalType": "uint8",
          "name": "",
          "type": "uint8"
        }
      ],
      "stateMutability": "view",
      "type": "function"
    },
    {
      "inputs": [
        {
          "internalType": "address",
          "name": "sender",
          "type": "address"
        },
        {
          "internalType": "address",
          "name": "recipient",
          "type": "address"
        },
        {
          "internalType": "uint256",
          "name": "amount",
          "type": "uint256"
        }
      ],
      "name": "transferFrom",
      "outputs": [
        {
          "internalType": "bool",
          "name": "",
          "type": "bool"
        }
      ],
      "stateMutability": "nonpayable",
      "type": "function"
    }
  ],
  "bytecode": "0x60c0604052306080523480156200001557600080fd5b50604051620046d7380380620046d7833981016040819052620000389162000981565b6001600160a01b03871660a0528562000061576200005b86868686868662000086565b62000079565b6101cb805460ff1916600117905562000079620001b3565b5050505050505062000bc5565b600054610100900460ff1615808015620000a75750600054600160ff909116105b80620000d75750620000c4306200026060201b6200140f1760201c565b158015620000d7575060005460ff166001145b620001405760405162461bcd60e51b815260206004820152602e60248201527f496e697469616c697a61626c653a20636f6e747261637420697320616c72656160448201526d191e481a5b9a5d1a585b1a5e995960921b60648201526084015b60405180910390fd5b6000805460ff19166001179055801562000164576000805461ff0019166101001790555b620001748787878787876200026f565b8015620001aa576000805461ff001916905560405160018152600080516020620046b78339815191529060200160405180910390a15b50505050505050565b600054610100900460ff16156200021d5760405162461bcd60e51b815260206004820152602760248201527f496e697469616c697a61626c653a20636f6e747261637420697320696e697469604482015266616c697a696e6760c81b606482015260840162000137565b60005460ff908116146200025e576000805460ff191660ff908117909155604051908152600080516020620046b78339815191529060200160405180910390a15b565b6001600160a01b03163b151590565b600054610100900460ff16620002cb5760405162461bcd60e51b815260206004820152602b60248201526000805160206200469783398151915260448201526a6e697469616c697a696e6760a81b606482015260840162000137565b620002d562000385565b620002e18484620003e1565b620002eb62000385565b620002f562000385565b620002ff6200045f565b6200030962000385565b62000313620004c7565b6200031d62000385565b6200032762000385565b6200033162000385565b6200033b62000385565b62000347600062000531565b6200035162000385565b6200035b62000385565b6200036562000385565b620003718282620005a4565b6200037d86866200061f565b505050505050565b600054610100900460ff166200025e5760405162461bcd60e51b815260206004820152602b60248201526000805160206200469783398151915260448201526a6e697469616c697a696e6760a81b606482015260840162000137565b600054610100900460ff166200043d5760405162461bcd60e51b815260206004820152602b60248201526000805160206200469783398151915260448201526a6e697469616c697a696e6760a81b606482015260840162000137565b60ce6200044b838262000af9565b5060cf6200045a828262000af9565b505050565b600054610100900460ff16620004bb5760405162461bcd60e51b815260206004820152602b60248201526000805160206200469783398151915260448201526a6e697469616c697a696e6760a81b606482015260840162000137565b6066805460ff19169055565b600054610100900460ff16620005235760405162461bcd60e51b815260206004820152602b60248201526000805160206200469783398151915260448201526a6e697469616c697a696e6760a81b606482015260840162000137565b600061010081905561010155565b600054610100900460ff166200058d5760405162461bcd60e51b815260206004820152602b60248201526000805160206200469783398151915260448201526a6e697469616c697a696e6760a81b606482015260840162000137565b610390805460ff191660ff92909216919091179055565b600054610100900460ff16620006005760405162461bcd60e51b815260206004820152602b60248201526000805160206200469783398151915260448201526a6e697469616c697a696e6760a81b606482015260840162000137565b6101cc6200060f838262000af9565b506101cd6200045a828262000af9565b600054610100900460ff166200067b5760405162461bcd60e51b815260206004820152602b60248201526000805160206200469783398151915260448201526a6e697469616c697a696e6760a81b606482015260840162000137565b6101cb805460ff19168315151790556200069760008262000777565b620006c37f973ef39d76cc2c6090feab1c030bec6ab5db557f64df047a4c4f9b5953cf1df38262000777565b620006ef7f9f2df0fed2c77648de5860a4cc508cd0818c85b8b8a1ab4ceeef8d981c8956a68262000777565b6200071b7f3c11d16cbaffd01df69ce1c404f6340ee057498f5f00246190ea54220576a8488262000777565b620007477f65d7a28e3265b37a6474929f336521b332c1681b933f6cb9f3376673440d862a8262000777565b620007737f809a0fc49fc0600540f1d39e23454e1f6f215bc7505fa22b17c154616570ddef8262000777565b5050565b6000828152610167602090815260408083206001600160a01b038516845290915290205460ff1662000773576000828152610167602090815260408083206001600160a01b03851684529091529020805460ff19166001179055620007db6200081f565b6001600160a01b0316816001600160a01b0316837f2f8788117e7eff1d82e926ec794901d17c78024a50270940304540a733656f0d60405160405180910390a45050565b6000620008366200083b60201b6200141e1760201c565b905090565b6000620008366200085260201b620014241760201c565b60a0516000906001600160a01b0316330362000875575060131936013560601c90565b620008366200088a60201b620014681760201c565b3390565b80516001600160a01b0381168114620008a657600080fd5b919050565b80518015158114620008a657600080fd5b634e487b7160e01b600052604160045260246000fd5b600082601f830112620008e457600080fd5b81516001600160401b0380821115620009015762000901620008bc565b604051601f8301601f19908116603f011681019082821181831017156200092c576200092c620008bc565b816040528381526020925086838588010111156200094957600080fd5b600091505b838210156200096d57858201830151818301840152908201906200094e565b600093810190920192909252949350505050565b600080600080600080600060e0888a0312156200099d57600080fd5b620009a8886200088e565b9650620009b860208901620008ab565b9550620009c8604089016200088e565b60608901519095506001600160401b0380821115620009e657600080fd5b620009f48b838c01620008d2565b955060808a015191508082111562000a0b57600080fd5b62000a198b838c01620008d2565b945060a08a015191508082111562000a3057600080fd5b62000a3e8b838c01620008d2565b935060c08a015191508082111562000a5557600080fd5b5062000a648a828b01620008d2565b91505092959891949750929550565b600181811c9082168062000a8857607f821691505b60208210810362000aa957634e487b7160e01b600052602260045260246000fd5b50919050565b601f8211156200045a57600081815260208120601f850160051c8101602086101562000ad85750805b601f850160051c820191505b818110156200037d5782815560010162000ae4565b81516001600160401b0381111562000b155762000b15620008bc565b62000b2d8162000b26845462000a73565b8462000aaf565b602080601f83116001811462000b65576000841562000b4c5750858301515b600019600386901b1c1916600185901b1785556200037d565b600085815260208120601f198616915b8281101562000b965788860151825594840194600190910190840162000b75565b508582101562000bb55787850151600019600388901b60f8161c191681555b5050505050600190811b01905550565b60805160a051613aa562000bf2600039600081816104ca015261142801526000611ae50152613aa56000f3fe608060405234801561001057600080fd5b50600436106103275760003560e01c806378f86afc116101b8578063d051665011610104578063dd62ed3e116100a2578063e803855e1161007c578063e803855e14610736578063fb1cb59e14610749578063fb78ed401461075c578063fcf196b41461076457600080fd5b8063dd62ed3e146106fb578063e2d6f6341461070e578063e63ab1e91461072157600080fd5b8063d5025625116100de578063d5025625146106a6578063d5391393146106ae578063d547741f146106d5578063dcfd616f146106e857600080fd5b8063d051665014610654578063d21268ef14610680578063d4ce14151461069357600080fd5b8063a217fddf11610171578063a4a0a3011161014b578063a4a0a30114610606578063a9059cbb14610619578063be370b4f1461062c578063c6946a121461064157600080fd5b8063a217fddf146105d8578063a312e155146105e0578063a457c2d7146105f357600080fd5b806378f86afc1461057c5780637f4ab1dd1461058f5780638430d011146105a25780638456cb59146105b557806391d14854146105bd57806395d89b41146105d057600080fd5b80633c07af0f11610277578063572b6c0511610230578063634daf761161020a578063634daf76146105185780636439fd751461052b57806370a082311461054057806375bf8fe71461056957600080fd5b8063572b6c05146104ba5780635c975abb146104fa5780635ee7a9421461050557600080fd5b80633c07af0f1461045e5780633f4ba83a146104715780633f4f90671461047957806340c10f191461048c57806341c0e1b51461049f578063426a8493146104a757600080fd5b8063246b72ec116102e45780632f2ff15d116102be5780632f2ff15d14610409578063313ce5671461041e57806336568abe14610438578063395093511461044b57600080fd5b8063246b72ec146103a9578063248a9ca3146103be578063282c51f3146103e257600080fd5b806301ffc9a71461032c57806306fdde0314610354578063095ea7b31461036957806317d70f7c1461037c57806318160ddd1461038457806323b872dd14610396575b600080fd5b61033f61033a36600461317b565b61078f565b60405190151581526020015b60405180910390f35b61035c6107c6565b60405161034b91906131c9565b61033f61037736600461321c565b610858565b61035c61087a565b60cd545b60405190815260200161034b565b61033f6103a4366004613248565b610909565b610388600080516020613a3083398151915281565b6103886103cc366004613289565b6000908152610167602052604090206001015490565b6103887f3c11d16cbaffd01df69ce1c404f6340ee057498f5f00246190ea54220576a84881565b61041c6104173660046132a2565b610920565b005b61042661094b565b60405160ff909116815260200161034b565b61041c6104463660046132a2565b61095f565b61033f61045936600461321c565b6109f2565b61041c61046c366004613289565b610a1e565b61041c610a3f565b61033f610487366004613397565b610a62565b61041c61049a36600461321c565b610a8e565b61041c610b0a565b61033f6104b53660046133e7565b610b3d565b61033f6104c836600461341c565b7f00000000000000000000000000000000000000000000000000000000000000006001600160a01b0390811691161490565b60665460ff1661033f565b610388610513366004613289565b610bc1565b6103886105263660046132a2565b610be2565b610388600080516020613a5083398151915281565b61038861054e36600461341c565b6001600160a01b0316600090815260cb602052604090205490565b61033f610577366004613397565b610c3b565b61041c61058a366004613439565b610c5f565b61035c61059d36600461347d565b610cba565b61041c6105b0366004613289565b610d86565b61041c610da7565b61033f6105cb3660046132a2565b610dc7565b61035c610df3565b610388600081565b61041c6105ee366004613289565b610e02565b61033f61060136600461321c565b610e23565b61041c61061436600461341c565b610ea9565b61033f61062736600461321c565b610eff565b610634610f17565b60405161034b919061349a565b61033f61064f366004613248565b610f6f565b61033f61066236600461341c565b6001600160a01b031660009081526098602052604090205460ff1690565b61041c61068e3660046134de565b610f95565b6104266106a1366004613248565b610fb7565b61035c61101c565b6103887f9f2df0fed2c77648de5860a4cc508cd0818c85b8b8a1ab4ceeef8d981c8956a681565b61041c6106e33660046132a2565b61102a565b61041c6106f6366004613439565b611050565b610388610709366004613500565b6110ab565b61041c61071c36600461321c565b6110d6565b610388600080516020613a1083398151915281565b61041c610744366004613547565b611145565b61041c610757366004613289565b611262565b610634611283565b603354610777906001600160a01b031681565b6040516001600160a01b03909116815260200161034b565b60006001600160e01b03198216637965db0b60e01b14806107c057506301ffc9a760e01b6001600160e01b03198316145b92915050565b606060ce80546107d590613614565b80601f016020809104026020016040519081016040528092919081815260200182805461080190613614565b801561084e5780601f106108235761010080835404028352916020019161084e565b820191906000526020600020905b81548152906001019060200180831161083157829003601f168201915b5050505050905090565b60008061086361146c565b9050610870818585611476565b5060019392505050565b6101cc805461088890613614565b80601f01602080910402602001604051908101604052809291908181526020018280546108b490613614565b80156109015780601f106108d657610100808354040283529160200191610901565b820191906000526020600020905b8154815290600101906020018083116108e457829003601f168201915b505050505081565b600061091684848461159a565b90505b9392505050565b6000828152610167602052604090206001015461093c81611610565b6109468383611621565b505050565b600061095a6103905460ff1690565b905090565b61096761146c565b6001600160a01b0316816001600160a01b0316146109e45760405162461bcd60e51b815260206004820152602f60248201527f416363657373436f6e74726f6c3a2063616e206f6e6c792072656e6f756e636560448201526e103937b632b9903337b91039b2b63360891b60648201526084015b60405180910390fd5b6109ee82826116a9565b5050565b6000806109fd61146c565b9050610870818585610a0f85896110ab565b610a199190613664565b611476565b600080516020613a30833981519152610a3681611610565b6109ee8261172f565b600080516020613a10833981519152610a5781611610565b610a5f6118f9565b50565b6000600080516020613a50833981519152610a7c81611610565b610a868484611951565b949350505050565b7f9f2df0fed2c77648de5860a4cc508cd0818c85b8b8a1ab4ceeef8d981c8956a6610ab881611610565b610ac28383611a0e565b826001600160a01b03167f0f6798a560793a54c3bcfe86a93cde1e73087d944c0ea20544137d412139688583604051610afd91815260200190565b60405180910390a2505050565b6000610b1581611610565b6101cb5460ff168015610b2a57610b2a611adb565b610b3261146c565b6001600160a01b0316ff5b600081610b51610b4b61146c565b866110ab565b14610bac5760405162461bcd60e51b815260206004820152602560248201527f434d5441543a2063757272656e7420616c6c6f77616e6365206973206e6f74206044820152641c9a59da1d60da1b60648201526084016109db565b610bb68484610858565b506001949350505050565b6000806000610bd18460fe611b6b565b91509150816109195760cd54610a86565b6001600160a01b038116600090815260fd6020526040812081908190610c09908690611b6b565b9150915081610c30576001600160a01b038416600090815260cb6020526040902054610c32565b805b95945050505050565b6000600080516020613a50833981519152610c5581611610565b610a868484611bc0565b6000610c6a81611610565b6101cd610c7783826136bd565b5081604051610c86919061377d565b604051908190038120907f04ad91be0cc2638e10a8fa52bb61221dcf70dfcd07e6beae6b0d5a3f75070fcf90600090a25050565b606060ff8216610cee57505060408051808201909152600e81526d2737903932b9ba3934b1ba34b7b760911b602082015290565b60001960ff831601610d2a575050604080518082019091526014815273105b1b081d1c985b9cd9995c9cc81c185d5cd95960621b602082015290565b60011960ff831601610d675750506040805180820190915260158152742a34329030b2323932b9b99034b990333937bd32b760591b602082015290565b6033546001600160a01b031615610d81576107c082611c68565b919050565b600080516020613a30833981519152610d9e81611610565b6109ee82611cdc565b600080516020613a10833981519152610dbf81611610565b610a5f611de3565b6000918252610167602090815260408084206001600160a01b0393909316845291905290205460ff1690565b606060cf80546107d590613614565b600080516020613a30833981519152610e1a81611610565b6109ee82611e21565b600080610e2e61146c565b90506000610e3c82866110ab565b905083811015610e9c5760405162461bcd60e51b815260206004820152602560248201527f45524332303a2064656372656173656420616c6c6f77616e63652062656c6f77604482015264207a65726f60d81b60648201526084016109db565b610bb68286868403611476565b6000610eb481611610565b603380546001600160a01b0319166001600160a01b0384169081179091556040517f9c4d5c11b88d1e3d9c7ad50900cb6d10ac72853248cdc85ca868fb772e62b44990600090a25050565b600080610f0a61146c565b9050610870818585611f41565b606061010280548060200260200160405190810160405280929190818152602001828054801561084e57602002820191906000526020600020905b815481526020019060010190808311610f52575050505050905090565b6033546000906001600160a01b03161561087057610f8e8484846120f9565b9050610919565b600080516020613a30833981519152610fad81611610565b6109468383612177565b6000610fc560665460ff1690565b15610fd1576001610f8e565b6001600160a01b03841660009081526098602052604090205460ff1615610ff9576002610f8e565b6033546001600160a01b03161561101557610f8e8484846123d9565b6000610916565b6101cd805461088890613614565b6000828152610167602052604090206001015461104681611610565b61094683836116a9565b600061105b81611610565b6101cc61106883826136bd565b5081604051611077919061377d565b604051908190038120907f1a3f197f2cb06b445ad0c131c52bc822947dae771f49d55fbd17bb6e462254bd90600090a25050565b6001600160a01b03918216600090815260cc6020908152604080832093909416825291909152205490565b7f3c11d16cbaffd01df69ce1c404f6340ee057498f5f00246190ea54220576a84861110081611610565b61110a8383612457565b826001600160a01b03167fcc16f5dbb4873280815c1ee09dbd06736cffcc184412cf7a71a0fdb75d397ca583604051610afd91815260200190565b600054610100900460ff16158080156111655750600054600160ff909116105b8061117f5750303b15801561117f575060005460ff166001145b6111e25760405162461bcd60e51b815260206004820152602e60248201527f496e697469616c697a61626c653a20636f6e747261637420697320616c72656160448201526d191e481a5b9a5d1a585b1a5e995960921b60648201526084016109db565b6000805460ff191660011790558015611205576000805461ff0019166101001790555b611213878787878787612597565b8015611259576000805461ff0019169055604051600181527f7f26b83ff96e1f2b6a682f133852f6798a09c465da95921460cefb38474024989060200160405180910390a15b50505050505050565b600080516020613a3083398151915261127a81611610565b6109ee82612656565b604080516000815260208101909152610102546060919015610d81576000806112aa6127a1565b915091508160001480156112bf575061010054155b1561131e5761010280548060200260200160405190810160405280929190818152602001828054801561131157602002820191906000526020600020905b8154815260200190600101908083116112fd575b5050505050935050505090565b6101025461132d826001613664565b146114085761010254600090600190611347908490613799565b6113519190613799565b90508067ffffffffffffffff81111561136c5761136c6132d2565b604051908082528060200260200182016040528015611395578160200160208202803683370190505b50935060005b845181101561140557610102816113b3856001613664565b6113bd9190613664565b815481106113cd576113cd6137ac565b90600052602060002001548582815181106113ea576113ea6137ac565b60209081029190910101526113fe816137c2565b905061139b565b50505b5050919050565b6001600160a01b03163b151590565b600061095a5b60007f00000000000000000000000000000000000000000000000000000000000000006001600160a01b03163303611463575060131936013560601c90565b503390565b3390565b600061095a61141e565b6001600160a01b0383166114d85760405162461bcd60e51b8152602060048201526024808201527f45524332303a20617070726f76652066726f6d20746865207a65726f206164646044820152637265737360e01b60648201526084016109db565b6001600160a01b0382166115395760405162461bcd60e51b815260206004820152602260248201527f45524332303a20617070726f766520746f20746865207a65726f206164647265604482015261737360f01b60648201526084016109db565b6001600160a01b03838116600081815260cc602090815260408083209487168084529482529182902085905590518481527f8c5be1e5ebec7d5bd14f71427d1e84f3dd0314c0f7b2291e5b200ac8c7c3b925910160405180910390a3505050565b6000806115a885858561285f565b9050801515600103610916576115bc61146c565b6001600160a01b0316856001600160a01b03167f7c2b9369bf4a6bd9745889c658ad00a4d57e280c4c80fa1c74db2a9e52c136358560405161160091815260200190565b60405180910390a3949350505050565b610a5f8161161c61146c565b612882565b61162b8282610dc7565b6109ee576000828152610167602090815260408083206001600160a01b03851684529091529020805460ff1916600117905561166561146c565b6001600160a01b0316816001600160a01b0316837f2f8788117e7eff1d82e926ec794901d17c78024a50270940304540a733656f0d60405160405180910390a45050565b6116b38282610dc7565b156109ee576000828152610167602090815260408083206001600160a01b03851684529091529020805460ff191690556116eb61146c565b6001600160a01b0316816001600160a01b0316837ff6391f5c32d9c69d2a47ea670b442974b53935d1edc7fd64eb21e047a839171b60405160405180910390a45050565b42811161174e5760405162461bcd60e51b81526004016109db906137db565b60008061175a836128db565b9150915081156117ac5760405162461bcd60e51b815260206004820152601760248201527f536e617073686f7420616c72656164792065786973747300000000000000000060448201526064016109db565b6101025481036117f15761010280546001810182556000919091527f93bdaa6a4190909b7c3fbe8d42169ffe1cab19f51dfc8db24c71abf849eced4a018390556118c7565b6101028054819061180490600190613799565b81548110611814576118146137ac565b60009182526020808320909101548354600181018555938352908220909201919091556101025461184790600290613799565b90505b818111156118a457610102611860600183613799565b81548110611870576118706137ac565b9060005260206000200154610102828154811061188f5761188f6137ac565b6000918252602090912001556000190161184a565b508261010282815481106118ba576118ba6137ac565b6000918252602090912001555b60405183906000907fe2ad3b1abe53383dbe6359f02f11ae76d91cfab321b37083b16e1d96a81d4183908290a3505050565b611901612953565b6066805460ff191690557f5db9ee0a495bf2e6ff9c91a7834c1ba4fdd244a5e8aa4e537bd38aeae4b073aa61193461146c565b6040516001600160a01b03909116815260200160405180910390a1565b6001600160a01b03821660009081526098602052604081205460ff161561197a575060006107c0565b6001600160a01b03831660009081526098602052604090819020805460ff19166001179055516119ab90839061377d565b6040518091039020836001600160a01b03166119c561146c565b6001600160a01b03167fe80aede59db0b770aef5e4bd04670759d38e64959d07a4343257a0a4f6b6d1ed856040516119fd91906131c9565b60405180910390a450600192915050565b6001600160a01b038216611a645760405162461bcd60e51b815260206004820152601f60248201527f45524332303a206d696e7420746f20746865207a65726f20616464726573730060448201526064016109db565b611a706000838361299c565b8060cd6000828254611a829190613664565b90915550506001600160a01b038216600081815260cb60209081526040808320805486019055518481527fddf252ad1be2c89b69c2b068fc378daa952ba7f163c4a11628f55a4df523b3ef910160405180910390a35050565b6001600160a01b037f0000000000000000000000000000000000000000000000000000000000000000163003611b695760405162461bcd60e51b815260206004820152602d60248201527f4469726563742063616c6c20746f2074686520696d706c656d656e746174696f60448201526c1b881b9bdd08185b1b1bddd959609a1b60648201526084016109db565b565b60008080611b798486612ae6565b84549091508103611b91576000809250925050611bb9565b6001846001018281548110611ba857611ba86137ac565b906000526020600020015492509250505b9250929050565b6001600160a01b03821660009081526098602052604081205460ff16611be8575060006107c0565b6001600160a01b03831660009081526098602052604090819020805460ff1916905551611c1690839061377d565b6040518091039020836001600160a01b0316611c3061146c565b6001600160a01b03167f7a52fdbc4f3e9f93670cd35b5b9c2d974791d25c5c04984336a80be3f7f42c32856040516119fd91906131c9565b603354604051637f4ab1dd60e01b815260ff831660048201526060916001600160a01b031690637f4ab1dd90602401600060405180830381865afa158015611cb4573d6000803e3d6000fd5b505050506040513d6000823e601f3d908101601f191682016040526107c09190810190613812565b428111611cfb5760405162461bcd60e51b81526004016109db90613880565b600080611d07836128db565b9150915081611d4d5760405162461bcd60e51b815260206004820152601260248201527114db985c1cda1bdd081b9bdd08199bdd5b9960721b60448201526064016109db565b805b61010254611d5e826001613664565b1015611db557610102611d72826001613664565b81548110611d8257611d826137ac565b90600052602060002001546101028281548110611da157611da16137ac565b600091825260209091200155600101611d4f565b50610102805480611dc857611dc86138af565b60019003818190600052602060002001600090559055505050565b611deb612b87565b6066805460ff191660011790557f62e78cea01bee320cd4e420270b5ea74000d11b0c9f74754ebdbfc544b05a25861193461146c565b428111611e405760405162461bcd60e51b81526004016109db906137db565b6101025415611ede576101028054611e5a90600190613799565b81548110611e6a57611e6a6137ac565b90600052602060002001548111611ede5760405162461bcd60e51b815260206004820152603260248201527f74696d652068617320746f2062652067726561746572207468616e20746865206044820152716c61737420736e617073686f742074696d6560701b60648201526084016109db565b610102805460018101825560009182527f93bdaa6a4190909b7c3fbe8d42169ffe1cab19f51dfc8db24c71abf849eced4a018290556040518291907fe2ad3b1abe53383dbe6359f02f11ae76d91cfab321b37083b16e1d96a81d4183908290a350565b6001600160a01b038316611fa55760405162461bcd60e51b815260206004820152602560248201527f45524332303a207472616e736665722066726f6d20746865207a65726f206164604482015264647265737360d81b60648201526084016109db565b6001600160a01b0382166120075760405162461bcd60e51b815260206004820152602360248201527f45524332303a207472616e7366657220746f20746865207a65726f206164647260448201526265737360e81b60648201526084016109db565b61201283838361299c565b6001600160a01b038316600090815260cb60205260409020548181101561208a5760405162461bcd60e51b815260206004820152602660248201527f45524332303a207472616e7366657220616d6f756e7420657863656564732062604482015265616c616e636560d01b60648201526084016109db565b6001600160a01b03808516600081815260cb602052604080822086860390559286168082529083902080548601905591517fddf252ad1be2c89b69c2b068fc378daa952ba7f163c4a11628f55a4df523b3ef906120ea9086815260200190565b60405180910390a35b50505050565b60335460405163634a350960e11b81526001600160a01b038581166004830152848116602483015260448201849052600092169063c6946a1290606401602060405180830381865afa158015612153573d6000803e3d6000fd5b505050506040513d601f19601f8201168201806040525081019061091691906138c5565b4282116121965760405162461bcd60e51b81526004016109db90613880565b4281116121b55760405162461bcd60e51b81526004016109db906137db565b610102546121fd5760405162461bcd60e51b81526020600482015260156024820152741b9bc81cd8da19591d5b1959081cdb985c1cda1bdd605a1b60448201526064016109db565b600080612209846128db565b915091508161224f5760405162461bcd60e51b815260206004820152601260248201527114db985c1cda1bdd081b9bdd08199bdd5b9960721b60448201526064016109db565b6101025461225e826001613664565b10156122ee57610102612272826001613664565b81548110612282576122826137ac565b906000526020600020015483106122ee5760405162461bcd60e51b815260206004820152602a60248201527f74696d652068617320746f206265206c657373207468616e20746865206e65786044820152691d081cdb985c1cda1bdd60b21b60648201526084016109db565b801561238557610102612302600183613799565b81548110612312576123126137ac565b906000526020600020015483116123855760405162461bcd60e51b815260206004820152603160248201527f74696d652068617320746f2062652067726561746572207468616e20746865206044820152701c1c995d9a5bdd5cc81cdb985c1cda1bdd607a1b60648201526084016109db565b82610102828154811061239a5761239a6137ac565b6000918252602082200191909155604051849186917fe2ad3b1abe53383dbe6359f02f11ae76d91cfab321b37083b16e1d96a81d41839190a350505050565b60335460405163d4ce141560e01b81526001600160a01b038581166004830152848116602483015260448201849052600092169063d4ce141590606401602060405180830381865afa158015612433573d6000803e3d6000fd5b505050506040513d601f19601f8201168201806040525081019061091691906138e2565b6001600160a01b0382166124b75760405162461bcd60e51b815260206004820152602160248201527f45524332303a206275726e2066726f6d20746865207a65726f206164647265736044820152607360f81b60648201526084016109db565b6124c38260008361299c565b6001600160a01b038216600090815260cb6020526040902054818110156125375760405162461bcd60e51b815260206004820152602260248201527f45524332303a206275726e20616d6f756e7420657863656564732062616c616e604482015261636560f01b60648201526084016109db565b6001600160a01b038316600081815260cb60209081526040808320868603905560cd80548790039055518581529192917fddf252ad1be2c89b69c2b068fc378daa952ba7f163c4a11628f55a4df523b3ef910160405180910390a3505050565b600054610100900460ff166125be5760405162461bcd60e51b81526004016109db906138ff565b6125c6612bcd565b6125d08484612bf4565b6125d8612bcd565b6125e0612bcd565b6125e8612c34565b6125f0612bcd565b6125f8612c67565b612600612bcd565b612608612bcd565b612610612bcd565b612618612bcd565b6126226000612c9c565b61262a612bcd565b612632612bcd565b61263a612bcd565b6126448282612cda565b61264e8686612d1c565b505050505050565b4281116126755760405162461bcd60e51b81526004016109db90613880565b610102546126bd5760405162461bcd60e51b8152602060048201526015602482015274139bc81cdb985c1cda1bdd081cd8da19591d5b1959605a1b60448201526064016109db565b61010280546126ce90600190613799565b815481106126de576126de6137ac565b906000526020600020015481146127495760405162461bcd60e51b815260206004820152602960248201527f4f6e6c7920746865206c61737420736e617073686f742063616e20626520756e6044820152681cd8da19591d5b195960ba1b60648201526084016109db565b61010280548061275b5761275b6138af565b60019003818190600052602060002001600090559055807f06e2498f5548e5491bfe985562cc494131eae56b5b6543b59129c8886f129f6560405160405180910390a250565b6101025460009081908015806127cf5750806101015460016127c39190613664565b1480156127cf57508215155b156127de576000939092509050565b600081925060006101015490505b8281101561285757426101028281548110612809576128096137ac565b90600052602060002001541161284257610102818154811061282d5761282d6137ac565b90600052602060002001549150809350612847565b612857565b612850816137c2565b90506127ec565b509391925050565b60008061286a61146c565b9050612877858285612df9565b610bb6858585611f41565b61288c8282610dc7565b6109ee5761289981612e6d565b6128a4836020612e7f565b6040516020016128b592919061394a565b60408051601f198184030181529082905262461bcd60e51b82526109db916004016131c9565b600080806128eb61010285612ae6565b61010254909150811480159061291e5750836101028281548110612911576129116137ac565b9060005260206000200154145b1561292e57600194909350915050565b61010254811461294357600094909350915050565b5050610102546000939092509050565b60665460ff16611b695760405162461bcd60e51b815260206004820152601460248201527314185d5cd8589b194e881b9bdd081c185d5cd95960621b60448201526064016109db565b60665460ff16156129fa5760405162461bcd60e51b815260206004820152602260248201527f434d5441543a20746f6b656e207472616e73666572207768696c652070617573604482015261195960f21b60648201526084016109db565b6001600160a01b03831660009081526098602052604090205460ff1615612a6e5760405162461bcd60e51b815260206004820152602260248201527f434d5441543a20746f6b656e207472616e73666572207768696c652066726f7a60448201526132b760f11b60648201526084016109db565b612a7983838361301b565b612a84838383610f6f565b6109465760405162461bcd60e51b815260206004820152602d60248201527f434d5441543a207472616e736665722072656a65637465642062792076616c6960448201526c646174696f6e206d6f64756c6560981b60648201526084016109db565b81546000908103612af9575060006107c0565b82546000905b80821015612b43576000612b138383613064565b905084612b20878361307f565b541115612b2f57809150612b3d565b612b3a816001613664565b92505b50612aff565b600082118015612b66575083612b6386612b5e600186613799565b61307f565b54145b15612b7f57612b76600183613799565b925050506107c0565b5090506107c0565b60665460ff1615611b695760405162461bcd60e51b815260206004820152601060248201526f14185d5cd8589b194e881c185d5cd95960821b60448201526064016109db565b600054610100900460ff16611b695760405162461bcd60e51b81526004016109db906138ff565b600054610100900460ff16612c1b5760405162461bcd60e51b81526004016109db906138ff565b60ce612c2783826136bd565b5060cf61094682826136bd565b600054610100900460ff16612c5b5760405162461bcd60e51b81526004016109db906138ff565b6066805460ff19169055565b600054610100900460ff16612c8e5760405162461bcd60e51b81526004016109db906138ff565b600061010081905561010155565b600054610100900460ff16612cc35760405162461bcd60e51b81526004016109db906138ff565b610390805460ff191660ff92909216919091179055565b600054610100900460ff16612d015760405162461bcd60e51b81526004016109db906138ff565b6101cc612d0e83826136bd565b506101cd61094682826136bd565b600054610100900460ff16612d435760405162461bcd60e51b81526004016109db906138ff565b6101cb805460ff1916831515179055612d5d600082611621565b612d75600080516020613a5083398151915282611621565b612d9f7f9f2df0fed2c77648de5860a4cc508cd0818c85b8b8a1ab4ceeef8d981c8956a682611621565b612dc97f3c11d16cbaffd01df69ce1c404f6340ee057498f5f00246190ea54220576a84882611621565b612de1600080516020613a1083398151915282611621565b6109ee600080516020613a3083398151915282611621565b6000612e0584846110ab565b905060001981146120f35781811015612e605760405162461bcd60e51b815260206004820152601d60248201527f45524332303a20696e73756666696369656e7420616c6c6f77616e636500000060448201526064016109db565b6120f38484848403611476565b60606107c06001600160a01b03831660145b60606000612e8e8360026139bf565b612e99906002613664565b67ffffffffffffffff811115612eb157612eb16132d2565b6040519080825280601f01601f191660200182016040528015612edb576020820181803683370190505b509050600360fc1b81600081518110612ef657612ef66137ac565b60200101906001600160f81b031916908160001a905350600f60fb1b81600181518110612f2557612f256137ac565b60200101906001600160f81b031916908160001a9053506000612f498460026139bf565b612f54906001613664565b90505b6001811115612fcc576f181899199a1a9b1b9c1cb0b131b232b360811b85600f1660108110612f8857612f886137ac565b1a60f81b828281518110612f9e57612f9e6137ac565b60200101906001600160f81b031916908160001a90535060049490941c93612fc5816139d6565b9050612f57565b5083156109195760405162461bcd60e51b815260206004820181905260248201527f537472696e67733a20686578206c656e67746820696e73756666696369656e7460448201526064016109db565b613023613090565b6001600160a01b0383161561305b5761303b836130b3565b6001600160a01b0382161561305357610946826130b3565b6109466130e6565b613053826130b3565b600061307360028484186139ed565b61091990848416613664565b600082815260208120820180610a86565b60008061309b6127a1565b909250905081156109ee576101009190915561010155565b6001600160a01b038116600090815260fd6020908152604080832060cb90925290912054610a5f91906130f4565b6130f4565b611b6960fe6130e160cd5490565b610100548061310284613136565b1015610946578254600180820185556000858152602080822090930193909355938401805494850181558252902090910155565b8054600090810361314957506000919050565b8154829061315990600190613799565b81548110613169576131696137ac565b90600052602060002001549050919050565b60006020828403121561318d57600080fd5b81356001600160e01b03198116811461091957600080fd5b60005b838110156131c05781810151838201526020016131a8565b50506000910152565b60208152600082518060208401526131e88160408501602087016131a5565b601f01601f19169190910160400192915050565b6001600160a01b0381168114610a5f57600080fd5b8035610d81816131fc565b6000806040838503121561322f57600080fd5b823561323a816131fc565b946020939093013593505050565b60008060006060848603121561325d57600080fd5b8335613268816131fc565b92506020840135613278816131fc565b929592945050506040919091013590565b60006020828403121561329b57600080fd5b5035919050565b600080604083850312156132b557600080fd5b8235915060208301356132c7816131fc565b809150509250929050565b634e487b7160e01b600052604160045260246000fd5b604051601f8201601f1916810167ffffffffffffffff81118282101715613311576133116132d2565b604052919050565b600067ffffffffffffffff821115613333576133336132d2565b50601f01601f191660200190565b600082601f83011261335257600080fd5b813561336561336082613319565b6132e8565b81815284602083860101111561337a57600080fd5b816020850160208301376000918101602001919091529392505050565b600080604083850312156133aa57600080fd5b82356133b5816131fc565b9150602083013567ffffffffffffffff8111156133d157600080fd5b6133dd85828601613341565b9150509250929050565b6000806000606084860312156133fc57600080fd5b8335613407816131fc565b95602085013595506040909401359392505050565b60006020828403121561342e57600080fd5b8135610919816131fc565b60006020828403121561344b57600080fd5b813567ffffffffffffffff81111561346257600080fd5b610a8684828501613341565b60ff81168114610a5f57600080fd5b60006020828403121561348f57600080fd5b81356109198161346e565b6020808252825182820181905260009190848201906040850190845b818110156134d2578351835292840192918401916001016134b6565b50909695505050505050565b600080604083850312156134f157600080fd5b50508035926020909101359150565b6000806040838503121561351357600080fd5b823561351e816131fc565b915060208301356132c7816131fc565b8015158114610a5f57600080fd5b8035610d818161352e565b60008060008060008060c0878903121561356057600080fd5b6135698761353c565b955061357760208801613211565b9450604087013567ffffffffffffffff8082111561359457600080fd5b6135a08a838b01613341565b955060608901359150808211156135b657600080fd5b6135c28a838b01613341565b945060808901359150808211156135d857600080fd5b6135e48a838b01613341565b935060a08901359150808211156135fa57600080fd5b5061360789828a01613341565b9150509295509295509295565b600181811c9082168061362857607f821691505b60208210810361364857634e487b7160e01b600052602260045260246000fd5b50919050565b634e487b7160e01b600052601160045260246000fd5b808201808211156107c0576107c061364e565b601f82111561094657600081815260208120601f850160051c8101602086101561369e5750805b601f850160051c820191505b8181101561264e578281556001016136aa565b815167ffffffffffffffff8111156136d7576136d76132d2565b6136eb816136e58454613614565b84613677565b602080601f83116001811461372057600084156137085750858301515b600019600386901b1c1916600185901b17855561264e565b600085815260208120601f198616915b8281101561374f57888601518255948401946001909101908401613730565b508582101561376d5787850151600019600388901b60f8161c191681555b5050505050600190811b01905550565b6000825161378f8184602087016131a5565b9190910192915050565b818103818111156107c0576107c061364e565b634e487b7160e01b600052603260045260246000fd5b6000600182016137d4576137d461364e565b5060010190565b6020808252601e908201527f536e617073686f74207363686564756c656420696e2074686520706173740000604082015260600190565b60006020828403121561382457600080fd5b815167ffffffffffffffff81111561383b57600080fd5b8201601f8101841361384c57600080fd5b805161385a61336082613319565b81815285602083850101111561386f57600080fd5b610c328260208301602086016131a5565b602080825260159082015274536e617073686f7420616c726561647920646f6e6560581b604082015260600190565b634e487b7160e01b600052603160045260246000fd5b6000602082840312156138d757600080fd5b81516109198161352e565b6000602082840312156138f457600080fd5b81516109198161346e565b6020808252602b908201527f496e697469616c697a61626c653a20636f6e7472616374206973206e6f74206960408201526a6e697469616c697a696e6760a81b606082015260800190565b7f416363657373436f6e74726f6c3a206163636f756e74200000000000000000008152600083516139828160178501602088016131a5565b7001034b99036b4b9b9b4b733903937b6329607d1b60179184019182015283516139b38160288401602088016131a5565b01602801949350505050565b80820281158282048414176107c0576107c061364e565b6000816139e5576139e561364e565b506000190190565b600082613a0a57634e487b7160e01b600052601260045260246000fd5b50049056fe65d7a28e3265b37a6474929f336521b332c1681b933f6cb9f3376673440d862a809a0fc49fc0600540f1d39e23454e1f6f215bc7505fa22b17c154616570ddef973ef39d76cc2c6090feab1c030bec6ab5db557f64df047a4c4f9b5953cf1df3a2646970667358221220a726a64513a4998055482c86f7002ef80416e06a4e6ce4daf7a707c74584863c64736f6c63430008110033496e697469616c697a61626c653a20636f6e7472616374206973206e6f7420697f26b83ff96e1f2b6a682f133852f6798a09c465da95921460cefb3847402498",
  "immutableReferences": {
    "1910": [
      {
        "length": 32,
        "start": 6885
      }
    ],
    "3870": [
      {
        "length": 32,
        "start": 1226
      },
      {
        "length": 32,
        "start": 5160
      }
    ]
  },
  "source": "//SPDX-License-Identifier: MPL-2.0\n\npragma solidity ^0.8.17;\n\n// required OZ imports here\nimport \"../openzeppelin-contracts-upgradeable/contracts/proxy/utils/Initializable.sol\";\nimport \"../openzeppelin-contracts-upgradeable/contracts/utils/ContextUpgradeable.sol\";\nimport \"./modules/wrapper/mandatory/BaseModule.sol\";\nimport \"./modules/wrapper/mandatory/BurnModule.sol\";\nimport \"./modules/wrapper/mandatory/MintModule.sol\";\nimport \"./modules/wrapper/mandatory/EnforcementModule.sol\";\nimport \"./modules/wrapper/mandatory/ERC20BaseModule.sol\";\nimport \"./modules/wrapper/mandatory/SnapshotModule.sol\";\nimport \"./modules/wrapper/mandatory/PauseModule.sol\";\nimport \"./modules/wrapper/optional/ValidationModule.sol\";\nimport \"./modules/wrapper/optional/MetaTxModule.sol\";\nimport \"./modules/wrapper/optional/AuthorizationModule.sol\";\nimport \"./interfaces/IRuleEngine.sol\";\n\ncontract CMTAT is\n    Initializable,\n    ContextUpgradeable,\n    BaseModule,\n    PauseModule,\n    MintModule,\n    BurnModule,\n    EnforcementModule,\n    ValidationModule,\n    MetaTxModule,\n    SnapshotModule,\n    ERC20BaseModule\n{\n    /// @custom:oz-upgrades-unsafe-allow constructor\n    constructor(address forwarder, bool deployedWithProxy_, address owner, string memory name, string memory symbol, string memory tokenId, string memory terms\n    ) MetaTxModule(forwarder) {\n         if(!deployedWithProxy_){\n            // Initialize the contract to avoid front-running\n            // Warning : do not initialize the proxy\n            initialize(deployedWithProxy_, owner, name, symbol,tokenId, terms);\n         }else{\n            // Initialize the variable for the implementation\n            deployedWithProxy = true;\n            // Disable the possibility to initialize the implementation\n            _disableInitializers();\n         }   \n    }\n\n    function initialize(\n        bool deployedWithProxy_,\n        address owner,\n        string memory name,\n        string memory symbol,\n        string memory tokenId,\n        string memory terms\n    ) public initializer {\n        __CMTAT_init(deployedWithProxy_, owner, name, symbol, tokenId, terms);\n    }\n\n    /**\n     * @dev Grants `DEFAULT_ADMIN_ROLE`, `MINTER_ROLE` and `PAUSER_ROLE` to the\n     * account that deploys the contract.\n     *\n     * See {ERC20-constructor}.\n     */\n    function __CMTAT_init(\n        bool deployedWithProxy_,\n        address owner,\n        string memory name,\n        string memory symbol,\n        string memory tokenId,\n        string memory terms\n    ) internal onlyInitializing {\n        /* OpenZeppelin library */\n        // OZ init_unchained functions are called firstly due to inheritance\n        __Context_init_unchained();\n        __ERC20_init_unchained(name, symbol);\n        // AccessControlUpgradeable inherits from ERC165Upgradeable\n        __ERC165_init_unchained();\n        // AuthorizationModule inherits from AccessControlUpgradeable\n        __AccessControl_init_unchained();\n        __Pausable_init_unchained();\n\n        /* Internal Modules */\n        __Enforcement_init_unchained();\n        __Snapshot_init_unchained();\n        // we set the RuleEngine by calling the setter\n        // __Validation_init_unchained(IRuleEngine ruleEngine_)\n        \n        /* Wrapper */\n        // AuthorizationModule_init_unchained is called firstly due to inheritance\n        __AuthorizationModule_init_unchained();\n        __BurnModule_init_unchained();\n        __MintModule_init_unchained();\n        // EnforcementModule_init_unchained is called before ValidationModule_init_unchained due to inheritance\n        __EnforcementModule_init_unchained();\n        __ERC20Module_init_unchained(0);\n        // PauseModule_init_unchained is called before ValidationModule_init_unchained due to inheritance\n        __PauseModule_init_unchained();\n        __ValidationModule_init_unchained();\n        __SnasphotModule_init_unchained();\n        \n        /* Other modules */\n        __Base_init_unchained(tokenId, terms);\n\n         /* own function */\n        __CMTAT_init_unchained(deployedWithProxy_, owner);\n    }\n\n\n    function __CMTAT_init_unchained(bool deployedWithProxy_, address owner) internal onlyInitializing {\n        deployedWithProxy = deployedWithProxy_;\n        _grantRole(DEFAULT_ADMIN_ROLE, owner);\n        _grantRole(ENFORCER_ROLE, owner);\n        _grantRole(MINTER_ROLE, owner);\n        _grantRole(BURNER_ROLE, owner);\n        _grantRole(PAUSER_ROLE, owner);\n        _grantRole(SNAPSHOOTER_ROLE, owner);\n    }\n\n    function decimals()\n        public\n        view\n        virtual\n        override(ERC20Upgradeable, ERC20BaseModule)\n        returns (uint8)\n    {\n        return ERC20BaseModule.decimals();\n    }\n\n    function transferFrom(\n        address sender,\n        address recipient,\n        uint256 amount\n    ) public virtual override(ERC20Upgradeable, ERC20BaseModule) returns (bool) {\n        return ERC20BaseModule.transferFrom(sender, recipient, amount);\n    }\n\n    function _beforeTokenTransfer(\n        address from,\n        address to,\n        uint256 amount\n    ) internal override(SnapshotModuleInternal, ERC20Upgradeable) {\n        require(!paused(), \"CMTAT: token transfer while paused\");\n        require(!frozen(from), \"CMTAT: token transfer while frozen\");\n\n        SnapshotModuleInternal._beforeTokenTransfer(from, to, amount);\n\n        require(validateTransfer(from, to, amount), \"CMTAT: transfer rejected by validation module\");\n    }\n\n    /** \n    @dev This surcharge is not necessary if you do not use the MetaTxModule\n    */\n    function _msgSender()\n        internal\n        view\n        override(MetaTxModule, ContextUpgradeable)\n        returns (address sender)\n    {\n        return MetaTxModule._msgSender();\n    }\n\n    /** \n    @dev This surcharge is not necessary if you do not use the MetaTxModule\n    */\n    function _msgData()\n        internal\n        view\n        override(MetaTxModule, ContextUpgradeable)\n        returns (bytes calldata)\n    {\n        return MetaTxModule._msgData();\n    }\n\n    uint256[50] private __gap;\n}\n",
  "sourcePath": "/Users/zakaryachami/working/prestation/fiverr/rogerdepallens/2023/sharesTokenization/CMTAT/contracts/CMTAT.sol",
  "compiler": {
    "name": "solc",
    "version": "0.8.17+commit.8df45f5f.Emscripten.clang"
  },
  "schemaVersion": "3.4.10",
  "updatedAt": "2023-01-12T18:12:27.777Z",
  "devdoc": {
    "kind": "dev",
    "methods": {
      "allowance(address,address)": {
        "details": "See {IERC20-allowance}."
      },
      "approve(address,uint256)": {
        "details": "See {IERC20-approve}. NOTE: If `amount` is the maximum `uint256`, the allowance is not updated on `transferFrom`. This is semantically equivalent to an infinite approval. Requirements: - `spender` cannot be the zero address."
      },
      "approve(address,uint256,uint256)": {
        "details": "See {IERC20-approve}. Requirements: - `spender` cannot be the zero address."
      },
      "balanceOf(address)": {
        "details": "See {IERC20-balanceOf}."
      },
      "constructor": {
        "custom:oz-upgrades-unsafe-allow": "constructor"
      },
      "decreaseAllowance(address,uint256)": {
        "details": "Atomically decreases the allowance granted to `spender` by the caller. This is an alternative to {approve} that can be used as a mitigation for problems described in {IERC20-approve}. Emits an {Approval} event indicating the updated allowance. Requirements: - `spender` cannot be the zero address. - `spender` must have allowance for the caller of at least `subtractedValue`."
      },
      "detectTransferRestriction(address,address,uint256)": {
        "details": "ERC1404 check if _value token can be transferred from _from to _to",
        "params": {
          "amount": "uint256 the amount of tokens to be transferred",
          "from": "address The address which you want to send tokens from",
          "to": "address The address which you want to transfer to"
        },
        "returns": {
          "code": "of the rejection reason"
        }
      },
      "forceBurn(address,uint256)": {
        "details": "Destroys `amount` tokens from `account` See {ERC20-_burn}"
      },
      "freeze(address,string)": {
        "params": {
          "account": "the account to freeze",
          "reason": "indicate why the account was frozen. "
        }
      },
      "frozen(address)": {
        "details": "Returns true if the account is frozen, and false otherwise."
      },
      "getAllSnapshots()": {
        "details": " Get all snapshots"
      },
      "getNextSnapshots()": {
        "details": " Get the next scheduled snapshots"
      },
      "getRoleAdmin(bytes32)": {
        "details": "Returns the admin role that controls `role`. See {grantRole} and {revokeRole}. To change a role's admin, use {_setRoleAdmin}."
      },
      "grantRole(bytes32,address)": {
        "details": "Grants `role` to `account`. If `account` had not been already granted `role`, emits a {RoleGranted} event. Requirements: - the caller must have ``role``'s admin role. May emit a {RoleGranted} event."
      },
      "hasRole(bytes32,address)": {
        "details": "Returns `true` if `account` has been granted `role`."
      },
      "increaseAllowance(address,uint256)": {
        "details": "Atomically increases the allowance granted to `spender` by the caller. This is an alternative to {approve} that can be used as a mitigation for problems described in {IERC20-approve}. Emits an {Approval} event indicating the updated allowance. Requirements: - `spender` cannot be the zero address."
      },
      "kill()": {
        "custom:oz-upgrades-unsafe-allow": "selfdestruct"
      },
      "messageForTransferRestriction(uint8)": {
        "details": "ERC1404 returns the human readable explaination corresponding to the error code returned by detectTransferRestriction",
        "params": {
          "restrictionCode": "The error code returned by detectTransferRestriction"
        },
        "returns": {
          "message": "The human readable explaination corresponding to the error code returned by detectTransferRestriction"
        }
      },
      "mint(address,uint256)": {
        "details": "Creates `amount` new tokens for `to`. See {ERC20-_mint}. Requirements: - the caller must have the `MINTER_ROLE`."
      },
      "name()": {
        "details": "Returns the name of the token."
      },
      "pause()": {
        "details": "Pauses all token transfers. See {ERC20Pausable} and {Pausable-_pause}. Requirements: - the caller must have the `PAUSER_ROLE`."
      },
      "paused()": {
        "details": "Returns true if the contract is paused, and false otherwise."
      },
      "renounceRole(bytes32,address)": {
        "details": "Revokes `role` from the calling account. Roles are often managed via {grantRole} and {revokeRole}: this function's purpose is to provide a mechanism for accounts to lose their privileges if they are compromised (such as when a trusted device is misplaced). If the calling account had been revoked `role`, emits a {RoleRevoked} event. Requirements: - the caller must be `account`. May emit a {RoleRevoked} event."
      },
      "revokeRole(bytes32,address)": {
        "details": "Revokes `role` from `account`. If `account` had been granted `role`, emits a {RoleRevoked} event. Requirements: - the caller must have ``role``'s admin role. May emit a {RoleRevoked} event."
      },
      "snapshotBalanceOf(uint256,address)": {
        "returns": {
          "_0": "value stored in the snapshot, or the actual balance if no snapshot"
        }
      },
      "snapshotTotalSupply(uint256)": {
        "details": "See {OpenZeppelin - ERC20Snapshot} Retrieves the total supply at the specified time.",
        "returns": {
          "_0": "value stored in the snapshot, or the actual totalSupply if no snapshot"
        }
      },
      "supportsInterface(bytes4)": {
        "details": "See {IERC165-supportsInterface}."
      },
      "symbol()": {
        "details": "Returns the symbol of the token, usually a shorter version of the name."
      },
      "totalSupply()": {
        "details": "See {IERC20-totalSupply}."
      },
      "transfer(address,uint256)": {
        "details": "See {IERC20-transfer}. Requirements: - `to` cannot be the zero address. - the caller must have a balance of at least `amount`."
      },
      "unfreeze(address,string)": {
        "params": {
          "account": "the account to unfreeze",
          "reason": "indicate why the account was unfrozen.   "
        }
      },
      "unpause()": {
        "details": "Unpauses all token transfers. See {ERC20Pausable} and {Pausable-_unpause}. Requirements: - the caller must have the `PAUSER_ROLE`."
      }
    },
    "version": 1
  },
  "userdoc": {
    "events": {
      "Freeze(address,address,string,string)": {
        "notice": "Emitted when an address is frozen."
      },
      "SnapshotSchedule(uint256,uint256)": {
        "notice": "Emitted when the snapshot with the specified oldTime was scheduled or rescheduled at the specified newTime."
      },
      "SnapshotUnschedule(uint256)": {
        "notice": "Emitted when the scheduled snapshot with the specified time was cancelled."
      },
      "Unfreeze(address,address,string,string)": {
        "notice": "Emitted when an address is unfrozen."
      }
    },
    "kind": "user",
    "methods": {
      "freeze(address,string)": {
        "notice": "Freezes an address."
      },
      "snapshotBalanceOf(uint256,address)": {
        "notice": "Return the number of tokens owned by the given owner at the time when the snapshot with the given time was created."
      },
      "unfreeze(address,string)": {
        "notice": "Unfreezes an address."
      }
    },
    "version": 1
  }
}