{
  "contractName": "MinimalForwarderMock",
  "abi": [
    {
      "anonymous": false,
      "inputs": [
        {
          "indexed": false,
          "internalType": "uint8",
          "name": "version",
          "type": "uint8"
        }
      ],
      "name": "Initialized",
      "type": "event"
    },
    {
      "inputs": [
        {
          "components": [
            {
              "internalType": "address",
              "name": "from",
              "type": "address"
            },
            {
              "internalType": "address",
              "name": "to",
              "type": "address"
            },
            {
              "internalType": "uint256",
              "name": "value",
              "type": "uint256"
            },
            {
              "internalType": "uint256",
              "name": "gas",
              "type": "uint256"
            },
            {
              "internalType": "uint256",
              "name": "nonce",
              "type": "uint256"
            },
            {
              "internalType": "bytes",
              "name": "data",
              "type": "bytes"
            }
          ],
          "internalType": "struct MinimalForwarderUpgradeable.ForwardRequest",
          "name": "req",
          "type": "tuple"
        },
        {
          "internalType": "bytes",
          "name": "signature",
          "type": "bytes"
        }
      ],
      "name": "execute",
      "outputs": [
        {
          "internalType": "bool",
          "name": "",
          "type": "bool"
        },
        {
          "internalType": "bytes",
          "name": "",
          "type": "bytes"
        }
      ],
      "stateMutability": "payable",
      "type": "function"
    },
    {
      "inputs": [
        {
          "internalType": "address",
          "name": "from",
          "type": "address"
        }
      ],
      "name": "getNonce",
      "outputs": [
        {
          "internalType": "uint256",
          "name": "",
          "type": "uint256"
        }
      ],
      "stateMutability": "view",
      "type": "function"
    },
    {
      "inputs": [
        {
          "components": [
            {
              "internalType": "address",
              "name": "from",
              "type": "address"
            },
            {
              "internalType": "address",
              "name": "to",
              "type": "address"
            },
            {
              "internalType": "uint256",
              "name": "value",
              "type": "uint256"
            },
            {
              "internalType": "uint256",
              "name": "gas",
              "type": "uint256"
            },
            {
              "internalType": "uint256",
              "name": "nonce",
              "type": "uint256"
            },
            {
              "internalType": "bytes",
              "name": "data",
              "type": "bytes"
            }
          ],
          "internalType": "struct MinimalForwarderUpgradeable.ForwardRequest",
          "name": "req",
          "type": "tuple"
        },
        {
          "internalType": "bytes",
          "name": "signature",
          "type": "bytes"
        }
      ],
      "name": "verify",
      "outputs": [
        {
          "internalType": "bool",
          "name": "",
          "type": "bool"
        }
      ],
      "stateMutability": "view",
      "type": "function"
    },
    {
      "inputs": [],
      "name": "initialize",
      "outputs": [],
      "stateMutability": "nonpayable",
      "type": "function"
    }
  ],
  "bytecode": "0x608060405234801561001057600080fd5b50610bc5806100206000396000f3fe60806040526004361061003f5760003560e01c80632d0335ab1461004457806347153f821461008d5780638129fc1c146100ae578063bf5d3bdb146100c5575b600080fd5b34801561005057600080fd5b5061007a61005f366004610923565b6001600160a01b031660009081526035602052604090205490565b6040519081526020015b60405180910390f35b6100a061009b366004610953565b6100f5565b604051610084929190610a16565b3480156100ba57600080fd5b506100c361028f565b005b3480156100d157600080fd5b506100e56100e0366004610953565b6103a0565b6040519015158152602001610084565b600060606101048585856103a0565b6101705760405162461bcd60e51b815260206004820152603260248201527f4d696e696d616c466f727761726465723a207369676e617475726520646f6573604482015271081b9bdd081b585d18da081c995c5d595cdd60721b60648201526084015b60405180910390fd5b61017f60808601356001610a52565b603560006101906020890189610923565b6001600160a01b03166001600160a01b03168152602001908152602001600020819055506000808660200160208101906101ca9190610923565b6001600160a01b0316606088013560408901356101ea60a08b018b610a73565b6101f760208d018d610923565b60405160200161020993929190610aba565b60408051601f198184030181529082905261022391610ae0565b600060405180830381858888f193505050503d8060008114610261576040519150601f19603f3d011682016040523d82523d6000602084013e610266565b606091505b50909250905061027b603f6060890135610afc565b5a1161028357fe5b90969095509350505050565b600054610100900460ff16158080156102af5750600054600160ff909116105b806102c95750303b1580156102c9575060005460ff166001145b61032c5760405162461bcd60e51b815260206004820152602e60248201527f496e697469616c697a61626c653a20636f6e747261637420697320616c72656160448201526d191e481a5b9a5d1a585b1a5e995960921b6064820152608401610167565b6000805460ff19166001179055801561034f576000805461ff0019166101001790555b61035761051f565b801561039d576000805461ff0019169055604051600181527f7f26b83ff96e1f2b6a682f133852f6798a09c465da95921460cefb38474024989060200160405180910390a15b50565b6000806104b384848080601f0160208091040260200160405190810160405280939291908181526020018383808284376000920191909152506104ad92507fdd8f4b70b0f4393e889bd39128a30628a78b61816a9eb8199759e7a349657e489150610410905060208a018a610923565b61042060408b0160208c01610923565b60408b013560608c013560808d013561043c60a08f018f610a73565b60405161044a929190610b1e565b6040805191829003822060208301989098526001600160a01b0396871690820152949093166060850152608084019190915260a083015260c082015260e08101919091526101000160405160208183030381529060405280519060200120610597565b906105eb565b90506080850135603560006104cb6020890189610923565b6001600160a01b03166001600160a01b031681526020019081526020016000205414801561051657506105016020860186610923565b6001600160a01b0316816001600160a01b0316145b95945050505050565b600054610100900460ff166105465760405162461bcd60e51b815260040161016790610b2e565b6105956040518060400160405280601081526020016f26b4b734b6b0b62337b93bb0b93232b960811b81525060405180604001604052806005815260200164302e302e3160d81b81525061060f565b565b60006105e56105a4610650565b8360405161190160f01b6020820152602281018390526042810182905260009060620160405160208183030381529060405280519060200120905092915050565b92915050565b60008060006105fa85856106d0565b9150915061060781610715565b509392505050565b600054610100900460ff166106365760405162461bcd60e51b815260040161016790610b2e565b815160209283012081519190920120600191909155600255565b60006106cb7f8b73c3c69bb8fe3d512ecc4cf759cc79239f7b179b0ffacaa9a75d522b39400f61067f60015490565b6002546040805160208101859052908101839052606081018290524660808201523060a082015260009060c0016040516020818303038152906040528051906020012090509392505050565b905090565b60008082516041036107065760208301516040840151606085015160001a6106fa8782858561085f565b9450945050505061070e565b506000905060025b9250929050565b600081600481111561072957610729610b79565b036107315750565b600181600481111561074557610745610b79565b036107925760405162461bcd60e51b815260206004820152601860248201527f45434453413a20696e76616c6964207369676e617475726500000000000000006044820152606401610167565b60028160048111156107a6576107a6610b79565b036107f35760405162461bcd60e51b815260206004820152601f60248201527f45434453413a20696e76616c6964207369676e6174757265206c656e677468006044820152606401610167565b600381600481111561080757610807610b79565b0361039d5760405162461bcd60e51b815260206004820152602260248201527f45434453413a20696e76616c6964207369676e6174757265202773272076616c604482015261756560f01b6064820152608401610167565b6000807f7fffffffffffffffffffffffffffffff5d576e7357a4501ddfe92f46681b20a0831115610896575060009050600361091a565b6040805160008082526020820180845289905260ff881692820192909252606081018690526080810185905260019060a0016020604051602081039080840390855afa1580156108ea573d6000803e3d6000fd5b5050604051601f1901519150506001600160a01b0381166109135760006001925092505061091a565b9150600090505b94509492505050565b60006020828403121561093557600080fd5b81356001600160a01b038116811461094c57600080fd5b9392505050565b60008060006040848603121561096857600080fd5b833567ffffffffffffffff8082111561098057600080fd5b9085019060c0828803121561099457600080fd5b909350602085013590808211156109aa57600080fd5b818601915086601f8301126109be57600080fd5b8135818111156109cd57600080fd5b8760208285010111156109df57600080fd5b6020830194508093505050509250925092565b60005b83811015610a0d5781810151838201526020016109f5565b50506000910152565b82151581526040602082015260008251806040840152610a3d8160608501602087016109f2565b601f01601f1916919091016060019392505050565b808201808211156105e557634e487b7160e01b600052601160045260246000fd5b6000808335601e19843603018112610a8a57600080fd5b83018035915067ffffffffffffffff821115610aa557600080fd5b60200191503681900382131561070e57600080fd5b8284823760609190911b6bffffffffffffffffffffffff19169101908152601401919050565b60008251610af28184602087016109f2565b9190910192915050565b600082610b1957634e487b7160e01b600052601260045260246000fd5b500490565b8183823760009101908152919050565b6020808252602b908201527f496e697469616c697a61626c653a20636f6e7472616374206973206e6f74206960408201526a6e697469616c697a696e6760a81b606082015260800190565b634e487b7160e01b600052602160045260246000fdfea2646970667358221220ae57a5690d125ff75ce97680f9800ea18bc4a04b2fd347629a358b1aedb6888f64736f6c63430008110033",
  "immutableReferences": {},
  "source": "//SPDX-License-Identifier: MPL-2.0\n\npragma solidity ^0.8.17;\n\nimport \"../../openzeppelin-contracts-upgradeable/contracts/metatx/MinimalForwarderUpgradeable.sol\";\n\n\ncontract MinimalForwarderMock is MinimalForwarderUpgradeable {\n    function initialize() public initializer {\n        __MinimalForwarder_init();\n    }\n}\n",
  "sourcePath": "/Users/zakaryachami/working/prestation/fiverr/rogerdepallens/2023/sharesTokenization/CMTAT/contracts/mocks/MinimalForwarderMock.sol",
  "compiler": {
    "name": "solc",
    "version": "0.8.17+commit.8df45f5f.Emscripten.clang"
  },
  "schemaVersion": "3.4.10",
  "updatedAt": "2023-01-12T18:12:27.785Z",
  "devdoc": {
    "kind": "dev",
    "methods": {},
    "version": 1
  },
  "userdoc": {
    "kind": "user",
    "methods": {},
    "version": 1
  }
}