{
  "contractName": "RuleMock",
  "abi": [
    {
      "inputs": [
        {
          "internalType": "address",
          "name": "_from",
          "type": "address"
        },
        {
          "internalType": "address",
          "name": "_to",
          "type": "address"
        },
        {
          "internalType": "uint256",
          "name": "_amount",
          "type": "uint256"
        }
      ],
      "name": "validateTransfer",
      "outputs": [
        {
          "internalType": "bool",
          "name": "isValid",
          "type": "bool"
        }
      ],
      "stateMutability": "pure",
      "type": "function"
    },
    {
      "inputs": [
        {
          "internalType": "address",
          "name": "",
          "type": "address"
        },
        {
          "internalType": "address",
          "name": "",
          "type": "address"
        },
        {
          "internalType": "uint256",
          "name": "_amount",
          "type": "uint256"
        }
      ],
      "name": "detectTransferRestriction",
      "outputs": [
        {
          "internalType": "uint8",
          "name": "",
          "type": "uint8"
        }
      ],
      "stateMutability": "pure",
      "type": "function"
    },
    {
      "inputs": [
        {
          "internalType": "uint8",
          "name": "_restrictionCode",
          "type": "uint8"
        }
      ],
      "name": "canReturnTransferRestrictionCode",
      "outputs": [
        {
          "internalType": "bool",
          "name": "",
          "type": "bool"
        }
      ],
      "stateMutability": "pure",
      "type": "function"
    },
    {
      "inputs": [
        {
          "internalType": "uint8",
          "name": "_restrictionCode",
          "type": "uint8"
        }
      ],
      "name": "messageForTransferRestriction",
      "outputs": [
        {
          "internalType": "string",
          "name": "",
          "type": "string"
        }
      ],
      "stateMutability": "pure",
      "type": "function"
    }
  ],
  "bytecode": "0x608060405234801561001057600080fd5b50610278806100206000396000f3fe608060405234801561001057600080fd5b506004361061004c5760003560e01c80637d045df6146100515780637f4ab1dd1461007d578063c6946a121461009d578063d4ce1415146100b0575b600080fd5b61006861005f366004610172565b60ff16600a1490565b60405190151581526020015b60405180910390f35b61009061008b366004610172565b6100d5565b604051610074919061019c565b6100686100ab366004610206565b61013d565b6100c36100be366004610206565b610156565b60405160ff9091168152602001610074565b606060ff8216600a1461010e576040518060400160405280600e81526020016d10dbd919481b9bdd08199bdd5b9960921b815250610137565b6040518060400160405280600f81526020016e082dadeeadce840e8dede40d0d2ced608b1b8152505b92915050565b600061014a848484610156565b60ff1615949350505050565b60006014821061016757600a61016a565b60005b949350505050565b60006020828403121561018457600080fd5b813560ff8116811461019557600080fd5b9392505050565b600060208083528351808285015260005b818110156101c9578581018301518582016040015282016101ad565b506000604082860101526040601f19601f8301168501019250505092915050565b80356001600160a01b038116811461020157600080fd5b919050565b60008060006060848603121561021b57600080fd5b610224846101ea565b9250610232602085016101ea565b915060408401359050925092509256fea26469706673582212204dbbd9fbc5e8f856705528d447b8816e2f063287b847246746abdb18e9298ad164736f6c63430008110033",
  "immutableReferences": {},
  "source": "//SPDX-License-Identifier: MPL-2.0\n\npragma solidity ^0.8.17;\n\nimport \"../interfaces/IRule.sol\";\n\n\ncontract RuleMock is IRule {\n    uint8 constant AMOUNT_TOO_HIGH = 10;\n    string constant TEXT_AMOUNT_TOO_HIGH = \"Amount too high\";\n    string constant TEXT_CODE_NOT_FOUND = \"Code not found\";\n\n    function validateTransfer(\n        address _from,\n        address _to,\n        uint256 _amount\n    ) public pure override returns (bool isValid) {\n        return detectTransferRestriction(_from, _to, _amount) == 0;\n    }\n\n    function detectTransferRestriction(\n        address, /* _from */\n        address, /* _to */\n        uint256 _amount\n    ) public pure override returns (uint8) {\n        return _amount < 20 ? 0 : AMOUNT_TOO_HIGH;\n    }\n\n    function canReturnTransferRestrictionCode(uint8 _restrictionCode)\n        public\n        pure\n        override\n        returns (bool)\n    {\n        return _restrictionCode == AMOUNT_TOO_HIGH;\n    }\n\n    function messageForTransferRestriction(uint8 _restrictionCode)\n        external\n        pure\n        override\n        returns (string memory)\n    {\n        return\n            _restrictionCode == AMOUNT_TOO_HIGH\n                ? TEXT_AMOUNT_TOO_HIGH\n                : TEXT_CODE_NOT_FOUND;\n    }\n}\n",
  "sourcePath": "/Users/zakaryachami/working/prestation/fiverr/rogerdepallens/2023/sharesTokenization/CMTAT/contracts/mocks/RuleMock.sol",
  "compiler": {
    "name": "solc",
    "version": "0.8.17+commit.8df45f5f.Emscripten.clang"
  },
  "schemaVersion": "3.4.10",
  "updatedAt": "2023-01-12T18:12:27.788Z",
  "devdoc": {
    "kind": "dev",
    "methods": {
      "canReturnTransferRestrictionCode(uint8)": {
        "details": "Returns true if the restriction code exists, and false otherwise."
      },
      "messageForTransferRestriction(uint8)": {
        "details": "See ERC-1404"
      },
      "validateTransfer(address,address,uint256)": {
        "details": "Returns true if the transfer is valid, and false otherwise."
      }
    },
    "version": 1
  },
  "userdoc": {
    "kind": "user",
    "methods": {},
    "version": 1
  }
}